:020000040800F2
:1000000000000220096D00088D14000899140008F2
:10001000A1140008A9140008B11400080000000091
:10002000000000000000000000000000B9140008FB
:10003000C514000800000000D1140008DD140008F9
:10004000516D0008516D0008516D0008516D000898
:10005000516D0008516D0008516D0008516D000888
:10006000516D0008516D0008516D0008150700081A
:10007000516D0008516D0008516D0008516D000868
:10008000516D0008516D0008516D0008516D000858
:10009000516D0008516D0008516D0008516D000848
:1000A000516D0008516D0008516D0008516D000838
:1000B000516D0008516D0008516D0008C10600081F
:1000C000F9060008516D0008516D0008516D0008D7
:1000D000516D0008516D0008516D0008516D000808
:1000E000516D0008516D0008516D0008516D0008F8
:1000F000516D0008516D0008516D0008516D0008E8
:10010000516D0008516D0008516D0008516D0008D7
:10011000516D0008516D0008516D0008516D0008C7
:10012000516D0008516D0008516D0008516D0008B7
:10013000516D0008516D0008516D0008516D0008A7
:10014000516D0008516D0008516D0008516D000897
:10015000516D0008516D0008516D0008516D000887
:10016000516D0008516D0008516D0008516D000877
:10017000516D0008516D0008516D0008516D000867
:08018000516D0008516D0008EB
:10018800044B05481B1A062B02D9044B03B1184728
:10019800704700BF5F0400205C04002000000000DE
:1001A80005490648091A891001EBD171491002D096
:1001B800034B03B1184770475C0400205C0400201F
:1001C8000000000010B5064C237843B9FFF7D8FFAC
:1001D800044B13B10448AFF300800123237010BD12
:1001E8005C040020000000001095000808B5084BCA
:1001F8001BB108480849AFF300800848036813B9E1
:10020800BDE80840CCE7064B002BF9D09847F7E744
:100218000000000010950008600400205804002029
:1002280000000000134B002B08BF114B9D46A3F59F
:10023800803A00218B460F461148124A121A06F0DE
:10024800D9FD0D4B002B00D098470C4B002B00D04C
:1002580098470020002104000D000B4806F076FDA9
:1002680006F0A0FD2000290000F02EFE06F074FD27
:10027800000008000000000000000000000000006E
:100288005C040020A4040020816D00080000000028
:1002980080B483B000AF786000E000BF7B685A1E6E
:1002A8007A60002BF9D10C37BD465DF8047B7047A6
:1002B80080B586B000AF4FF40030012103F01AF882
:1002C8000120012102F0A2FF04233B6102233B75B8
:1002D80002237B750023BB750023FB7507F1100310
:1002E8001048194603F04EFB0E480221072203F07E
:1002F80009FF0D4B3B600023BB800023FB800023DC
:100308003B810023BB8108237B813B460748194674
:1003180003F0E2FF0548012104F03AF91837BD4619
:1003280080BD00BF000002400046050000440040B8
:1003380080B582B000AF7860396000BF7B681B88E9
:100348009BB203F04003002BF8D03B689BB278685F
:10035800194604F037FA0837BD4680BD80B582B02B
:1003680000AF7860396007E03B685A1C3A601B7838
:1003780078681946FFF7DCFF3B681B78002BF3D140
:100388000837BD4680BD00BF80B582B000AF786039
:1003980039603B68092B02D93B68373301E03B6879
:1003A800303378681946FFF7C3FF0837BD4680BD6C
:1003B80080B582B000AF78600B46FB70FB781B09F4
:1003C800DBB278681946FFF7DFFFFB7803F00F030D
:1003D80078681946FFF7D8FF0837BD4680BD00BFCB
:1003E80080B58AB000AF7860396007F10C037B6292
:1003F800214B3B6205E03B6A204AA2FB0323DB0852
:100408003B623A6A3B689A4202D93B6A012BF2D8AE
:100418003A683B6AB2FBF3F3FB617B6A5A1C7A6267
:10042800FA69D2B23032D2B21A70FB693A6A02FB68
:1004380003F33A68D31A3B603B6A104AA2FB0323D2
:10044800DB083B623B6A002BE2D17B6A5A1C7A626A
:100458000D221A707B6A5A1C7A620A221A707B6A09
:1004680000221A7007F10C0378681946FFF776FF27
:100478002837BD4680BD00BF00CA9A3BCDCCCCCC46
:1004880080B582B000AF786039603B68002B0ADA2B
:1004980078682D21FFF74CFF3B685B427868194666
:1004A800FFF79EFF04E03B6878681946FFF798FF5E
:1004B8000837BD4680BD00BF80B588B000AFF86082
:1004C80087ED020A79603A60D7ED027AF5EE407A54
:1004D800F1EE10FA07D1FB6830221A70FB6801337D
:1004E80000221A70B4E0D7ED027AF5EEC07AF1EE88
:1004F80010FA0AD5FB685A1CFA602D221A70D7ED3B
:10050800027AF1EE677AC7ED027A7B6807EE903AD5
:10051800F8EE677AB2EE040AF0EE670A07F03AF9E5
:1005280087ED070A97ED027AD7ED077AB4EEE77AF6
:10053800F1EE10FA07DBFB6823221A70FB6801331F
:1005480000221A7084E00123FB7643E0D7ED077A96
:10055800B2EE047AC7EE877AC7ED077A97ED027A8A
:10056800D7ED077AC7EE277AFCEEE77A17EE903ACE
:100578007B61FB7E002B11D07B69002B0ED1D7ED60
:10058800077AB2EE047AF4EEC77AF1EE10FA05DBD8
:10059800FB685A1CFA6020221A7018E00023FB76C8
:1005A800FB685A1CFA607A69D2B23032D2B21A7039
:1005B8007B6907EE903AB8EE677AD7ED077A67EE6F
:1005C800277A97ED027A77EE677AC7ED027A7B6829
:1005D800013B7B607B68002BB8D13B68002B05D1C1
:1005E800FB685A1CFA6000221A7031E0FB685A1C3A
:1005F800FA602E221A70D7ED027AB2EE047A67EE0C
:10060800877AC7ED027AD7ED027AFCEEE77A17EE21
:10061800903A7B61FB685A1CFA607A69D2B2303230
:10062800D2B21A707B6907EE903AF8EE677A97EDC6
:10063800027A77EE677AC7ED027A3B68013B3B6046
:100648003B68002BD7D1FB685A1CFA6000221A704D
:100658002037BD4680BD00BF80B58CB000AFF860C4
:1006680087ED020A79603A6007F11403FB62F86AC1
:1006780097ED020A79683A68FFF71EFF02E0FB6A05
:100688000133FB62FB6A1B78002BF8D1FB6A5A1C0A
:10069800FA620D221A70FB6A5A1CFA620A221A7050
:1006A800FB6A00221A7007F11403F8681946FFF76D
:1006B80055FE3037BD4680BD80B582B000AF094BCE
:1006C8001B687B607B68002B02D07B68984706E03C
:1006D80005482121FFF72CFE0448FFF7D9FD08370C
:1006E800BD4680BD780400200044004040420F0011
:1006F80080B500AF03484521FFF71AFE0248FFF70F
:10070800C7FD80BD0044004040420F0080B582B064
:1007180000AF094B1B687B607B68002B02D07B68AD
:10072800984706E005487C21FFF702FE0448FFF7DA
:10073800AFFD0837BD4680BD7C0400200044004062
:1007480040420F0080B596B000AF4FF40010012171
:1007580002F0D0FD0220012102F058FD4FF40010F4
:10076800012102F089FE4FF40010002102F084FEFE
:100778004FF40010012102F049FD4FF4C0733B65AE
:10078800022387F85430022387F85530012387F86D
:100798005630012387F8573007F15003544819465B
:1007A80003F0F0F852480821042203F0ABFC50484B
:1007B8000721042203F0A6FC4E484F4901F0F8FE39
:1007C8004C48002101F0ACFA4A4801F08BF84FF090
:1007D80000733B60494B7B6000237B614FF480636F
:1007E800BB610023FB6100233B6200237B624FF463
:1007F8008033BB620423FB6203233B6300237B63D8
:100808000023BB630023FB603D4BBB600E233B61B1
:10081800384801F067F83B463648194601F044F974
:10082800384B3B640023A7F844304BF6FF73A7F816
:1008380046300023A7F848300023A7F84A304FF481
:100848008043A7F84C3007F140032F48194604F0BD
:1008580025FE2D484FF4E061002205F033FB4FF4EC
:10086800407000F071FF1F2387F83C300A2387F897
:100878003D30002387F83E30012387F83F3007F1E9
:100888003C03184600F07EFF202387F83C300A23FB
:1008980087F83D30002387F83E30012387F83F3042
:1008A80007F13C03184600F06DFF124810210022A2
:1008B80001F0E4FE0B2387F83C300A2387F83D302B
:1008C800002387F83E30012387F83F3007F13C03C7
:1008D800184600F057FF07481021012201F0CEFE0C
:1008E8000948012104F0B8FE5837BD4680BD00BF55
:1008F80000040240106002403D0080101054004087
:1009080080040020801A06000054004080B586B09C
:1009180000AF0346B9607A60FB733648012104F0E2
:100928001FFF00BF3348344905F002FB0346002B84
:10093800F8D03048D021002204F06EFF00BF2D48C7
:100948002E4905F0F5FA0346002BF8D0FB7B294821
:10095800194605F051F900BF2648294905F0E8FA7B
:100968000346002BF8D02348012104F0F9FE00BF0C
:100978002048214905F0DCFA0346002BF8D01D4831
:10098800D021012204F048FF00BF1A481D4905F094
:10099800CFFA0346002BF8D07B68012B03D9154802
:1009A800012104F065FF1BE07B68012B03D111488E
:1009B800002104F05DFF00BF0E48134905F0B8FAA6
:1009C8000346002BF8D00B4805F030F90346FB75B9
:1009D800BB685A1CBA60FA7D1A707B68013B7B6061
:1009E8007B68002BE0D10348012104F0E7FE1837AB
:1009F800BD4680BD0054004001000300820007008E
:100A080084000700020003004000030080B582B0A4
:100A180000AF444805F0F2FA7860434B1B683B602E
:100A28007B6803F00203002B10D03B68012B06D132
:100A38003E4B1B783B48194605F0DEF86EE0394816
:100A48004FF4C061002205F03DFA67E03B68012BD6
:100A580033D17B6803F00403002B2ED0324B0222E3
:100A68001A603048012104F07BFE00BF2D4805F0D4
:100A7800C5FA034603F00103002BF7D02948D0211B
:100A8800012204F0C9FE2A4B1B68012B08D925480E
:100A9800012104F0EDFE2348012105F0B5F903E03A
:100AA8002048002104F0E4FE1E48012105F07EF9EB
:100AB8002048012101F034F930E07B6823F4403309
:100AC800002B00D12AE01C481C49FFF747FC1A48B4
:100AD8001B49FFF743FC3B68DBB217481946FFF791
:100AE80067FC15481749FFF739FC7B681B0CDBB21C
:100AF80011481946FFF75CFC7B681B0ADBB20E48FD
:100B08001946FFF755FC7B68DBB20B481946FFF71F
:100B18004FFC09480C49FFF721FCFEE70837BD46A2
:100B280080BD00BF005400409004002094040020C1
:100B38009C04002010600240004400401C92000801
:100B4800549200085C9200086892000880B500AFD3
:100B58003F48404901F002FE0346002B22D03C48A2
:100B68003C4901F059FF3C484FF4E061002205F090
:100B7800A9F93948002105F019F93548002101F093
:100B8800CFF83548012104F019FE344B1A68344B6C
:100B98001B68104633491A4605F090FF324B032272
:100BA8001A6054E031483249FFF7D8FB2F483149E1
:100BB800FFF7D4FB2C4B1B68DBB22C481946FFF718
:100BC800F7FB2A482C49FFF7C9FB2148214901F0C6
:100BD800C5FD034625481946FFF7EAFB2348274980
:100BE800FFF7BCFB1A48264901F0B8FD03461F4829
:100BF8001946FFF7DDFB1D482249FFF7AFFB1448F4
:100C0800214901F0ABFD034618481946FFF7D0FB10
:100C180016481E49FFF7A2FB0D481D4901F09EFD2D
:100C2800034612481946FFF7C3FB10481949FFF756
:100C380095FB0748184901F091FD03460B481946F2
:100C4800FFF7B6FB09481549FFF788FBFEE780BDAB
:100C580010600240208000100054004098040020DA
:100C68009C040020800400209004002000440040E0
:100C78006C92000854920008949200089C92000814
:100C880010400010A492000808200010AC92000840
:100C980004100010B4920008010000906892000847
:100CA80080B584B000AF0346B9607A60FB73164B19
:100CB800164A1A60164B174A1A60174AFB7B1370BC
:100CC800164ABB681360164A7B681360154B0122ED
:100CD8001A601548012104F043FD00BF124805F0D1
:100CE8008DF9034603F00103002BF7D00E48D021FD
:100CF800002204F091FD0C484FF44071012205F0E8
:100D0800E1F81037BD4680BD7C040020550B000873
:100D180078040020150A0008940400209804002094
:100D28009C040020900400200054004080B584B04A
:100D380000AF0346FB71FA7907F10F031046194615
:100D48000122FFF7E3FDFB7B18461037BD4680BD47
:100D580080B582B000AF03460A46FB711346BB71EB
:100D68001C48012104F0FCFC00BF1A481A4905F090
:100D7800DFF80346002BF8D01648D021002204F0F3
:100D88004BFD00BF1348154905F0D2F80346002B68
:100D9800F8D0FB790F48194604F02EFF00BF0D4824
:100DA8000F4905F0C5F80346002BF8D0BB79094870
:100DB800194604F021FF00BF0648094905F0B8F8B4
:100DC8000346002BF8D00348012104F0F7FC08374C
:100DD800BD4680BD005400400100030082000700AA
:100DE8008400070080B582B000AF6B200221FFF7B6
:100DF800AFFF2848FFF74CFA6B20FFF797FF034631
:100E0800FB71FB79022B00D040E06B208221FFF7B9
:100E18009FFF2048FFF73CFA6B20FFF787FF034648
:100E2800FB71FB79402B00D030E06B200221FFF7EB
:100E38008FFF1848FFF72CFA6B20FFF777FF034660
:100E4800FB71FB79022B00D020E01A200021FFF76C
:100E58007FFF19200721FFF77BFF1B201821FFF7D1
:100E680077FF1C201821FFF773FF23200021FFF7CD
:100E78006FFF37202021FFF76BFF38201121FFF784
:100E880067FF6A200021FFF763FF00E0ADE708373E
:100E9800BD4680BDE093040080B485B000AF034632
:100EA8000A46FB711346BB71FB791B029AB2BB79E8
:100EB8009BB213439BB2FB81FB891BB218461437C4
:100EC800BD465DF8047B70472DE9B04390B000AF94
:100ED800D948FFF7DDF9FFF7EBF9D848D849FFF70C
:100EE8003DFAFFF72FFCD448FFF7D2F9FFF77AFF56
:100EF800D248D449FFF732FA7520FFF717FF0346A7
:100F080087F83F30CD48D049FFF728FA97F83F30A7
:100F1800CA481946FFF74CFA6B20FFF707FF03464C
:100F280087F83F30C548C949FFF718FA97F83F30A6
:100F3800C2481946FFF73CFAC048C549FFF70EFA00
:100F48003B1D3B2019460E22FFF7AAFE00BFC14BEE
:100F58001B68032BFBD1BA7AFB7A10461946FFF7B8
:100F68009BFF0346BB87B7F93C3007EE903AF8EE93
:100F7800E77A17EE900A05F0EBFA02460B461046A0
:100F880019464FF00002B44B05F060FC02460B46D0
:100F980010461946A2A3D3E9002305F07BF90246BF
:100FA8000B461046194605F039FD0346BB63A348B6
:100FB800AA49FFF7D3F9B7F93C3007EE903AF8EEB3
:100FC800E77A9FEDA77AC7EE877A9FEDA67A77EE44
:100FD800877A9A48B0EE670A02210522FFF73CFBA0
:100FE8003A797B7910461946FFF756FF0346BB87C7
:100FF800B7F93C3007EE903AF8EEE77A9FED9A7A27
:10100800C7EE877AC7ED0D7A8C489849FFF7A6F99D
:101018008A4897ED0D0A02210522FFF71DFBBA79D0
:10102800FB7910461946FFF737FF0346BB87B7F928
:101038003C3007EE903AF8EEE77A9FED8B7AC7EEF0
:10104800877AC7ED0C7A7D488949FFF787F97B488D
:1010580097ED0C0A02210522FFF7FEFA3A7A7B7A0D
:1010680010461946FFF718FF0346BB87B7F93C300F
:1010780007EE903AF8EEE77A9FED7B7AC7EE877A2B
:10108800C7ED0B7A6D487B49FFF768F96B4897ED18
:101098000B0A02210522FFF7DFFA3A7B7B7B104619
:1010A8001946FFF7F9FE0346BB87B7F93C3007EE50
:1010B800903AF8EEE77A9FED707AC7EE877AC7ED37
:1010C8000A7A5E486D49FFF749F95C4897ED0A0AC4
:1010D80004210522FFF7C0FABA7BFB7B10461946AC
:1010E800FFF7DAFE0346BB87B7F93C3007EE903AC4
:1010F800F8EEE77A9FED607AC7EE877AC7ED097A4E
:101108004E485F49FFF72AF94C4897ED090A042130
:101118000522FFF7A1FA3A7C7B7C10461946FFF7B7
:10112800BBFE0346BB87B7F93C3007EE903AF8EEB2
:10113800E77A9FED517AC7EE877AC7ED087A3F487C
:101148005049FFF70BF93D4897ED080A042105229D
:10115800FFF782FA39484C49FFF700F9786B05F038
:10116800F7F904460D46386B05F0F2F902460B46CE
:1011780043EC102B9FED2C1B06F00EF959EC108B4D
:10118800F86A05F0E5F902460B4643EC102B9FED93
:10119800261B06F001F953EC102B4046494605F092
:1011A80079F802460B4643EC172BB0EE470AF0EEEF
:1011B800670A06F091FA53EC102B2046294605F0F1
:1011C80045FB02460B4643EC172BB0EE470AF0EE00
:1011D800670A05F025FF53EC102B1046194605F059
:1011E8001DFC0346184605F0B3F902460B461046A7
:1011F80019464FF00002254B05F0FEF902460B4652
:10120800104619460AA3D3E9002305F01FFB02463E
:101218000B461046194605F001FC39E0AFF3008093
:10122800A4703D0AD743424000000000000000407F
:10123800182D4454FB21094080841E0000440040BE
:10124800BC920008D0920008F092000808930008A9
:101258002493000890040020004075403C93000847
:101268000000AA43B81E124200000045449300083B
:10127800509300085C9300086F128341689300083C
:1012880074930008809300088C93000800806640DF
:101298000346FB61744897ED070A03210522FFF70F
:1012A800DBF971487149FFF759F8386B05F050F9C7
:1012B80004460D46786B05F04BF902460B4643ECA5
:1012C800102B9FED651B06F067F859EC108BF86A38
:1012D80005F03EF902460B4643EC102B9FED5E1BD2
:1012E80006F05AF853EC102B4046494604F0D2FF5A
:1012F80002460B4643EC172BB0EE470AF0EE670A9E
:1013080006F0EAF953EC102B2046294605F09EFA20
:1013180002460B4643EC172BB0EE470AF0EE670A7D
:1013280005F07EFE53EC102B1046194605F076FBAF
:101338000346184605F00CF902460B4610461946B6
:101348004FF000024A4B05F057F902460B4610468B
:10135800194643A3D3E9002305F078FA02460B4661
:101368001046194605F05AFB0346BB613E4897ED07
:10137800060A03210522FFF76FF93B483D49FEF7AE
:10138800EDFFF86A05F0E4F804460D46786B05F0C1
:10139800DFF802460B4643EC102B9FED2F1B05F0A0
:1013A800FBFF59EC108B386B05F0D2F802460B4660
:1013B80043EC102B9FED281B05F0EEFF53EC102B90
:1013C8004046494604F066FF02460B4643EC172B9D
:1013D800B0EE470AF0EE670A06F07EF953EC102BE0
:1013E8002046294605F032FA02460B4643EC172BF5
:1013F800B0EE470AF0EE670A05F012FE53EC102B28
:101408001046194605F00AFB0346184605F0A0F8F1
:1014180002460B46104619464FF00002144B05F0E1
:10142800EBF802460B46104619460DA3D3E90023F4
:1014380005F00CFA02460B461046194605F0EEFA7E
:101448000346BB61084897ED050A03210522FFF70B
:1014580003F971E5AFF300800000000000000040D0
:10146800182D4454FB210940004400409093000883
:10147800008066409493000880B483B000AF786021
:101488003960FEE780B400AFBD465DF8047B704765
:1014980080B400AFFEE700BF80B400AFFEE700BF36
:1014A80080B400AFFEE700BF80B400AFFEE700BF26
:1014B80080B400AFBD465DF8047B704780B400AFD0
:1014C800BD465DF8047B704780B400AFBD465DF84B
:1014D800047B704780B400AFBD465DF8047B70475D
:1014E80080B500AF154A154BD3F8883043F4700324
:1014F800C2F88830124A124B1B6843F0010313608C
:101508000F4B00229A600E4A0D4B1B6823F0847320
:1015180023F4803313600A4B0A4A5A60084A084B7E
:101528001B6823F480231360054B0022DA6000F067
:1015380087F8024B4FF000629A6080BD00ED00E032
:10154800003802401030002480B487B000AF002378
:101558003B6100237B610223FB600023BB60022305
:101568007B60324B9B6803F00C033B613B69042BA7
:1015780007D0082B09D0002B3FD12D4B2D4A1A60DC
:101588003FE02B4B2C4A1A603BE0284B5B6803F486
:1015980080039B0DBB60254B5B6803F03F037B60BA
:1015A800BB68002B0DD0244A7B68B2FBF3F21F4BBB
:1015B800596847F6C0730B409B0903FB02F37B6134
:1015C8000CE01C4A7B68B2FBF3F2184B596847F6EB
:1015D800C0730B409B0903FB02F37B61134B5B68F1
:1015E80003F440331B0C01335B00FB607A69FB6832
:1015F800B2FBF3F30E4A136003E00D4B0D4A1A6079
:1016080000BF0A4B9B6803F0F0031B090B4AD35C2D
:10161800DBB23B61064B1A683B6922FA03F3044AC2
:1016280013601C37BD465DF8047B704700380240E4
:10163800040000200024F40040787D010800002008
:1016480080B483B000AF00237B6000233B60354A41
:10165800344B1B6843F480331360324B1B6803F42C
:1016680000333B607B6801337B603B68002B03D110
:101678007B68B3F5A04FF0D12A4B1B6803F4003305
:10168800002B02D001233B6001E000233B603B6854
:10169800012B42D1234A234B1B6C43F08053136424
:1016A800214A214B1B6843F4404313601D4A1D4BDC
:1016B8009B6893601B4A1B4B9B6843F400439360F1
:1016C800184A184B9B6843F4A0539360154B174A6C
:1016D8005A60144A134B1B6843F08073136000BFB1
:1016E800104B1B6803F00073002BF9D0104B40F22D
:1016F80005721A600B4A0B4B9B6823F00303936037
:10170800084A084B9B6843F00203936000BF054BEF
:101718009B6803F00C03082BF9D10C37BD465DF824
:10172800047B70470038024000700040195440079D
:10173800003C024054950008000000205804002096
:101748005C040020A4040020B0F5C06F10B5044666
:101758000DD020F48073B3F5806F08D020F4806337
:10176800B3F5407F03D005487921FFF785FE44F0A3
:10177800BF60034B40F40030D86010BD9893000858
:1017880000ED00E0F8B5C378012B044603D92248E0
:101798008D21FFF771FE63780F2B38D8A3780F2BB4
:1017A80030D8E3785BB923781C485A09203203F013
:1017B8001F03012101FA03F340F82230F8BD184B4A
:1017C8006578D968A2782078144EC943C1F30221FC
:1017D800C1F10407FFB20F230B41BD40E9B213402A
:1017E8000B4300F1604202F561421B01DBB282F853
:1017F80000332378012203F01F015B098A4046F871
:101808002320F8BD04488F21FFF736FEC9E70248B8
:101818008E21FFF731FEC1E79893000800E100E050
:1018280000ED00E0B0F1005F38B505460C4606D083
:10183800B0F1006F03D00948B721FFF71DFE084B30
:101848009C4203D90548B821FFF716FE24F06041F1
:1018580021F07F01034B2943996038BD9893000814
:10186800FEFF0F0000ED00E0102838B504460D46D5
:1018780007D0042805D0022803D00B48CA21FFF757
:10188800FBFD012D08D90848CB21FFF7F5FD074AD4
:1018980013691C43146138BD002DF8D1034A13693C
:1018A80023EA0404146138BD9893000800ED00E0B1
:1018B800042808B50BD0053003D00848E221FFF70B
:1018C800DBFD074A136823F00403136008BD044ACC
:1018D800136843F00403136008BD00BF9893000821
:1018E80010E000E038B5684B984256D0183398425B
:1018F80063D01833984269D0183398426FD01833A0
:1019080098423AD01833984272D01833984273D01C
:101918001833984200F0868003F55673984200F019
:101928008A80183398426BD01833984200F086802A
:101938001833984200F094801833984200F0998048
:101948001833984200F099801833984200F0998033
:10195800183398427BD00446C7214C48FFF78CFDCA
:101968002268002322F001022121226023606360A3
:10197800A360E3602361616138BD02684449454C56
:1019880022F0010200232125026003604360836086
:10199800C36003614561CC6038BD02683C4922F0F0
:1019A8000102002321253D24026003604360836017
:1019B800C360036145618C6038BD0268344922F018
:1019C8000102002321254FF47464EDE702683049D1
:1019D80022F00102002321254FF47414E4E7026881
:1019E8002B4922F00102002321254FF07464DBE724
:1019F80002682749284CC3E702682549274CBFE7F6
:101A0800274B28481968002221F0010121254FF4AD
:101A1800746419601A605A609A60DA601A615D61CC
:101A2800846038BD02681A4922F00102002321258A
:101A38004FF03D54A8E702681A49B0E7026819490F
:101A480022F00102002321254FF47414ACE7026848
:101A5800144922F00102002321254FF03D5493E759
:101A68000268104922F00102002321254FF0746416
:101A78009AE702680B49074C82E702680949064C55
:101A88007EE702680749B9E710600240B093000892
:101A9800006002403D000020400F002000003D2073
:101AA80028640240006402402DE9F047904B9842B8
:101AB80082B08146884632D0183398422FD01833E6
:101AC80098422CD01833984229D01833984226D0FF
:101AD8001833984223D01833984220D018339842AC
:101AE8001DD003F55673984219D01833984216D072
:101AF8001833984213D01833984210D018339842AC
:101B08000DD0183398420AD01833984207D01833AA
:101B1800984204D077484FF4A271FFF7ADFCD8F88B
:101B2800003033F0C06307D0B3F1006F04D07148C0
:101B380040F24511FFF7A0FCD8F80C3033F0400212
:101B480006D0802B04D06B484FF4A371FFF794FCA8
:101B5800D8F810304FF6FE72013B934200F2A6808F
:101B6800D8F8143033F4007340F0AB80D8F818304C
:101B780033F4806340F0B080D8F81C3033F400624E
:101B880007D0B3F5805F04D05A484FF4A571FFF72A
:101B980073FCD8F8203033F4005207D0B3F5804FE7
:101BA80004D0544840F24B11FFF766FCD8F82430B3
:101BB80033F4807304D04F484FF4A671FFF75CFCF0
:101BC800D8F8283033F4403340F08C80D8F82C30E3
:101BD80033F0040304D047484FF4A771FFF74CFCD7
:101BE800D8F83030032B5BD8D8F8347037F0C0738E
:101BF80047D040484FF4A871FFF73EFCD8F838C0EA
:101C08003CF4C00342D1D8F83470D8F80060D8F852
:101C18001450D8F81840D9F800A0DFF8DCE008F133
:101C28001C000FC80193D8F80C301E4335432C43D1
:101C380020430143019BD8F83050D8F81040D8F819
:101C480004000A4313433B430AEA0E0E43EA0E0E0E
:101C58004EEA0C03C9F80030D9F81420D8F82C3013
:101C6800D8F8081022F007022B431343C9F81430A0
:101C7800C9F80440C9F80800C9F80C1002B0BDE85A
:101C8800F087D8F838C03CF4C003BED0194840F2F9
:101C98005111FFF7F1FBD8F838C0D8F83470B4E721
:101CA800144840F24F11FFF7E7FB9DE7114840F257
:101CB8004711FFF7E1FBD8F8143033F400733FF411
:101CC80055AF0C484FF4A471FFF7D6FBD8F818307D
:101CD80033F480633FF450AF064840F24911FFF7F0
:101CE800CBFB49E7034840F24D11FFF7C5FB6DE711
:101CF80010600240B09300083F801CF0002303608E
:101D080043608360C360036143618361C3610362AD
:101D180043628362C362036343638363704700BFA4
:101D280038B5254B984204460D4632D018339842B0
:101D38002FD0183398422CD01833984229D0183312
:101D4800984226D01833984223D01833984220D08E
:101D5800183398421DD003F55673984219D018339A
:101D6800984216D01833984213D01833984210D09E
:101D7800183398420DD0183398420AD01833984235
:101D880007D01833984204D00C4840F2E111FFF70D
:101D980073FB012D09D909484FF4F171FFF76CFB6A
:101DA800236843F00103236038BD002DF8D1236870
:101DB80023F00103236038BD10600240B09300088F
:101DC80038B5254B984204460D4632D01833984210
:101DD8002FD0183398422CD01833984229D0183372
:101DE800984226D01833984223D01833984220D0EE
:101DF800183398421DD003F55673984219D01833FA
:101E0800984216D01833984213D01833984210D0FD
:101E1800183398420DD0183398420AD01833984294
:101E280007D01833984204D00C4840F20521FFF738
:101E380023FB65B1B5F5004F04D0084840F20621F0
:101E4800FFF71AFB236843F40043236038BD236877
:101E580023F40043236038BD10600240B0930008AB
:101E680038B5254B984204460D4632D0183398426F
:101E78002FD0183398422CD01833984229D01833D1
:101E8800984226D01833984223D01833984220D04D
:101E9800183398421DD003F55673984219D0183359
:101EA800984216D01833984213D01833984210D05D
:101EB800183398420DD0183398420AD018339842F4
:101EC80007D01833984204D00C4840F22921FFF774
:101ED800D3FA5DB1202D04D0084840F22A21FFF73B
:101EE800CBFA236843F02003236038BD236823F02E
:101EF8002003236038BD00BF10600240B093000883
:101F080038B51D4B984204460D4632D018339842D6
:101F18002FD0183398422CD01833984229D0183330
:101F2800984226D01833984223D01833984220D0AC
:101F3800183398421DD003F55673984219D01833B8
:101F4800984216D01833984213D01833984210D0BC
:101F5800183398420DD0183398420AD01833984253
:101F680007D01833984204D0044840F27B21FFF789
:101F780083FA656038BD00BF10600240B093000866
:101F88001D4B984210B5044632D0183398422FD0D2
:101F9800183398422CD01833984229D018339842D5
:101FA80026D01833984223D01833984220D01833BB
:101FB80098421DD003F55673984219D018339842A9
:101FC80016D01833984213D01833984210D01833CB
:101FD80098420DD0183398420AD01833984207D047
:101FE8001833984204D0054840F28A21FFF744FA92
:101FF800606880B210BD00BF10600240B093000856
:1020080030B5294B984283B004460D4634D0183376
:10201800984231D0183398422ED0183398422BD09A
:102028001833984228D01833984225D0183398424C
:1020380022D0183398421FD003F5567398421BD00C
:102048001833984218D01833984215D0183398424C
:1020580012D0183398420FD0183398420CD0183346
:10206800984209D01833984206D01048019240F29D
:10207800DE21FFF701FA019A72B1B2F5002F04D000
:102088000A4840F2DF21FFF7F7F9236843F40023F9
:102098002360256103B030BD236823F40023236047
:1020A800256103B030BD00BF10600240B093000846
:1020B80038B5254B984204460D4632D0183398421D
:1020C8002FD0183398422CD01833984229D018337F
:1020D800984226D01833984223D01833984220D0FB
:1020E800183398421DD003F55673984219D0183307
:1020F800984216D01833984213D01833984210D00B
:10210800183398420DD0183398420AD018339842A1
:1021180007D01833984204D00C484FF43F71FFF7AA
:10212800ABF9012D09D9094840F2FD21FFF7A4F9BF
:10213800236843F48023236038BD002DF8D1236839
:1021480023F48023236038BD10600240B093000858
:1021580030B5254B984283B004460D4634D0183329
:10216800984231D0183398422ED0183398422BD049
:102178001833984228D01833984225D018339842FB
:1021880022D0183398421FD003F5567398421BD0BB
:102198001833984218D01833984215D018339842FB
:1021A80012D0183398420FD0183398420CD01833F5
:1021B800984209D01833984206D00C48019240F250
:1021C8002631FFF759F9019A52B1B2F5002F04D020
:1021D800064840F22731FFF74FF9256103B030BDBB
:1021E800E56003B030BD00BF10600240B093000846
:1021F8001D4B984210B5044632D0183398422FD060
:10220800183398422CD01833984229D01833984262
:1022180026D01833984223D01833984220D0183348
:1022280098421DD003F55673984219D01833984236
:1022380016D01833984213D01833984210D0183358
:1022480098420DD0183398420AD01833984207D0D4
:102258001833984204D0054840F24131FFF70CF991
:102268002068C0F3C04010BD10600240B093000861
:102278001D4B984210B5044632D0183398422FD0DF
:10228800183398422CD01833984229D018339842E2
:1022980026D01833984223D01833984220D01833C8
:1022A80098421DD003F55673984219D018339842B6
:1022B80016D01833984213D01833984210D01833D8
:1022C80098420DD0183398420AD01833984207D054
:1022D8001833984204D005484FF46D71FFF7CCF8D5
:1022E800206800F0010010BD10600240B0930008A3
:1022F8001D4B984210B5044632D0183398422FD05F
:10230800183398422CD01833984229D01833984261
:1023180026D01833984223D01833984220D0183347
:1023280098421DD003F55673984219D01833984235
:1023380016D01833984213D01833984210D0183357
:1023480098420DD0183398420AD01833984207D0D3
:102358001833984204D0054840F2D631FFF78CF87C
:10236800606900F0380010BD10600240B0930008AA
:1023780038B5834B984205460C4600F0F680183372
:10238800984200F0D8801833984200F0D48018336F
:10239800984200F0D0801833984200F0CC8018336F
:1023A800984200F0C8801833984200F0C48018336F
:1023B800984200F0C08003F55673984200F0CF8031
:1023C8001833984200F0CB801833984200F0C78049
:1023D8001833984200F0C3801833984200F0BF8049
:1023E8001833984200F0BB801833984200F0B78049
:1023F8001833984200F0B380624840F2F331FFF797
:102408003BF8614B9C4200F09C80604B9C4200F082
:102418009880083B9C4200F094805D4B9C4200F001
:102428009080033B9C4200F08C805A4B9C4200F009
:102438008880A3F580639C4200F08380A3F5007335
:102448009C427ED0A3F580739C427AD0C03B9C42CC
:1024580077D0B4F1815F74D04F4B9C4271D0A3F513
:1024680000239C426DD0A3F580239C4269D0A3F53C
:1024780040339C4265D0B4F1C05F62D0B4F1A05F34
:102488005FD0B4F1905F5CD0B4F1885F59D0B4F1FB
:10249800825F56D0414B9C426CD0103B9C4269D025
:1024A800083B9C4266D0043B9C4263D0033B9C4261
:1024B80060D003F2FF739C425CD0A3F580639C421A
:1024C80058D0A3F500739C4254D0A3F580739C4266
:1024D80050D0C03B9C424DD0314B9C424AD0A3F5D2
:1024E80080139C4246D0A3F500239C4242D0A3F51A
:1024F80080239C423ED0A3F540339C423AD0B4F1AD
:10250800205F37D0B4F1105F34D0B4F1085F31D018
:10251800B4F1045F2ED0B4F1015F2BD019484FF409
:102528007D71FEF7A9FF1F4B9D4208D91E4BA200E3
:102538000BD55B680AE0144B9C427FF466AF1B4BDB
:10254800F5E7184B9D42F1D8184B1B6824F0F0248E
:1025580024F082141C4214BF0120002038BD0A4B0D
:102568009C427FF452AF104BEFE7074B99427FF440
:102578004CAFE9E70B4B9D42D8D80C4BD9E700BFCD
:1025880010600240B09300082000001010000010F6
:102598000400801000080010000010102000002027
:1025A800000020200F6402400064024000600240E6
:1025B80038B52C4B984205460C4632D01833984211
:1025C8002FD0183398422CD01833984229D018337A
:1025D800984226D01833984223D01833984220D0F6
:1025E800183398421DD003F55673984219D0183302
:1025F800984216D01833984213D01833984210D006
:10260800183398420DD0183398420AD0183398429C
:1026180007D01833984204D0134840F23441FEF7EB
:102628002BFF04F04053B3F1405F00D0ABB90E4824
:1026380040F23541FEF720FF0C490D4B0D4A8D4203
:1026480094BF1D46154614F0005F24F0F02424F0D2
:10265800821414BFEC60AC6038BD074B2340002BDC
:10266800EAD0E4E710600240B09300080F6402402B
:10267800006002400064024082F002C0354B98427C
:1026880070B504460D46164632D0183398422FD0FE
:10269800183398422CD01833984229D018339842CE
:1026A80026D01833984223D01833984220D01833B4
:1026B80098421DD003F55673984219D018339842A2
:1026C80016D01833984213D01833984210D01833C4
:1026D80098420DD0183398420AD01833984207D040
:1026E8001833984204D01C4840F26141FEF7C4FEFA
:1026F80035F09E0316D1ADB1012E04D9164840F22B
:102708006341FEF7B9FE2B0612D56369DEB143F0CB
:102718008003802D636115D0236805F01E051D43D5
:10272800256070BD0C4840F26241FEF7A5FEE3E764
:10273800802D07D0002EEFD1236805F01E0523EA6F
:102748000505256070BD23F08003802D6361F3D1FA
:1027580070BD00BF10600240B093000838B5904BC0
:10276800984204460D4659D01833984256D018332B
:10277800984253D01833984250D0183398424DD0CD
:10278800183398424AD01833984247D018339842A1
:1027980044D003F55673984200F0ED801833984200
:1027A80000F0E9801833984200F0E5801833984229
:1027B80000F0E1801833984200F0DD801833984229
:1027C80000F0D9801833984200F0D5801833984229
:1027D80000F0D180734840F29941FEF74DFE724BEC
:1027E8009D421FD1714B9C4240F2BC80704925F03C
:1027F800F02323F0C312002A40F0B780606900F08C
:102808008002A8004CBF4868086823F0821318406B
:1028180000F0A780101C18BF012038BD624B9D42F4
:1028280000F0AE80634B9D42DCD0A3F50053083B1B
:102838009D42D7D0604B9D42D4D0604B9D4200F062
:10284800A7805F4B9D42CDD0A3F588439D42C9D058
:10285800A3F508539D42C5D0A3F588539D42C1D026
:10286800584B9D4200F09480574B9D42BAD0A3F537
:1028780082139D42B6D0A3F502239D42B2D0A3F5A0
:1028880082239D42AED0514B9D4200F08180504B37
:102898009D42A7D04F4B9D42A4D04F4B9D42A1D003
:1028A8004E4B9D429ED04E4B9D4271D04D4B9D420A
:1028B80098D0A3F58043103B9D4293D04A4B9D424C
:1028C80090D0A3F58053043B9D428BD0474B9D424B
:1028D8005ED0474B9D4285D0A3F588439D4281D069
:1028E800A3F508539D423FF47DAFA3F588539D425D
:1028F8003FF478AF3F4B9D424AD03F4B9D423FF457
:1029080071AFA3F582139D423FF46CAFA3F5022388
:102918009D423FF467AFA3F582239D423FF462AF27
:10292800364B9D4234D0364B9D423FF45BAF354B1E
:102938009D423FF457AF344B9D423FF453AF334B66
:102948009D423FF44FAF324B9D4221D0154840F293
:102958009A41FEF791FD154B9C423FF647AF2D4932
:1029680045E738BD2B4925F0F023206800F01E000C
:1029780000EAD52245E70C4B9D427FF453AF35E77B
:102988002068244900F01E00202300EAD52238E7F9
:10299800064B9C423FF62AAF1E4925F0F0232DE74F
:1029A80010600240B0930008208000100F640240BD
:1029B8000064024010400010041000100100009054
:1029C8000088001040000090008020100000019056
:1029D80000800018004000140020001200100011B0
:1029E800000040902080002008200020010000A066
:1029F80000880020400000A000802020000001A0E6
:102A0800008000280040002400200022001000213F
:102A1800000040A00060024038B52C4B98420546A3
:102A28000C4632D0183398422FD0183398422CD005
:102A38001833984229D01833984226D01833984230
:102A480023D01833984220D0183398421DD003F56C
:102A58005673984219D01833984216D018339842B2
:102A680013D01833984210D0183398420DD0183329
:102A780098420AD01833984207D01833984204D0A5
:102A8800134840F2E941FEF7F7FC04F04053B3F174
:102A9800405F00D0ABB90E4840F2EA41FEF7ECFCCB
:102AA8000C490D4B0D4A8D4294BF1D46154614F036
:102AB800005F24F0F02424F0821414BFEC60AC60B2
:102AC80038BD074B2340002BEAD0E4E710600240F2
:102AD800B09300080F6402400060024000640240A6
:102AE800820082400F4B10481A68002142F0010210
:102AF80030B41A6099601A680C4D0D4C22F0A85237
:102B080022F410221A605D60C3F88440C3F888007C
:102B18001A6822F480221A6030BCD960C3F88C107D
:102B2800704700BF003802400030002410300024F5
:102B380000300020012810B5044606D9052804D025
:102B4800044840F21F11FEF797FC034B00221A704D
:102B58001C7010BDD0930008023802401F2810B521
:102B6800044604D9064840F25711FEF785FC054B88
:102B7800186820F0F80040EAC400186010BD00BFD3
:102B8800D093000800380240012810B5044604D943
:102B980003484FF4BD71FEF76FFC024B1C6010BD7B
:102BA800D093000800004742012810B5044606D912
:102BB80004280DD00B4840F29311FEF75DFC0A4B38
:102BC8000022012C1A701A700AD0042C04D010BDEF
:102BD800054B00221A701A70034B05221A7010BD9B
:102BE8001C7010BDD093000870380240012810B541
:102BF800044604D9034840F2BB11FEF73DFC024BE2
:102C08001C6010BDD0930008800E47422DE9F041AA
:102C18001D4630F4800306460C469046069F04D0B5
:102C28001C4840F21E21FEF727FC3F2C2CD8A8F1A7
:102C38003203B3F5BF7F21D825F00403022B08D057
:102C4800042D06D0082D04D0124840F22121FEF7A9
:102C580013FC3B1F0B2B04D90E4840F22221FEF730
:102C68000BFC44EA88126D0842EA07626C1E42EACD
:102C78000444094B34435C60BDE8F08105484FF4D7
:102C88000871FEF7F9FBD7E7024840F21F21FEF76B
:102C9800F3FBCCE7D093000800380240012810B5B8
:102CA800044604D9034840F23621FEF7E5FB024BFF
:102CB8001C6010BDD09300086000474238B5A0F1F1
:102CC8003203B3F5BF7F05460C460ED8A31E052B6D
:102CD80004D9094840F25521FEF7CEFB2407074BDB
:102CE80044EA8514C3F8844038BD03484FF415718D
:102CF800FEF7C2FBEAE700BFD093000800380240A5
:102D0800012810B5044604D9034840F2DF21FEF734
:102D1800B3FB024B1C6010BDD0930008680047420B
:102D2800A0F13203B3F5BF7F70B505460C461646D1
:102D380019D8B31E052B10D8A31E0D2B04D90D4886
:102D480040F24E31FEF798FB200640EA06700A4B27
:102D580040EA8510C3F8880070BD064840F24D313E
:102D6800FEF78AFBE8E703484FF45371FEF784FB4C
:102D7800DFE700BFD093000800380240012810B5F3
:102D8800044604D903484FF45871FEF775FB024B0B
:102D98001C6010BDD093000870004742012810B590
:102DA800044604D9034840F27231FEF765FB024B32
:102DB8001C6010BDD09300084C00474238B530F471
:102DC800C00304460D4604D00E4840F28D31FEF78C
:102DD80053FB35F080630CD025F00073B3F1A06F7E
:102DE80007D0B5F1C06F04D0064840F28E31FEF727
:102DF80043FB054B996821F0EC6129432143996015
:102E080038BD00BFD09300080038024038B520F024
:102E1800404304460D4623B10E4840F2BA31FEF74E
:102E28002BFB35F000530CD025F08053B3F1205F15
:102E380007D0B5F1405F04D0064840F2BB31FEF739
:102E48001BFB054B996821F0784129432143996080
:102E580038BD00BFD093000800380240022810B5E2
:102E6800044604D9054840F28241FEF705FB044BAD
:102E7800986820F003002043986010BDD0930008A4
:102E880000380240024B986800F00C00704700BF01
:102E98000038024030F0800310B5044612D020F00C
:102EA8002003902B0ED020F04003A02B0AD020F056
:102EB8001003C02B06D0F02804D006484FF49761C1
:102EC800FEF7DAFA044B986820F0F0002043986087
:102ED80010BD00BFD09300080038024030F4805382
:102EE80010B504460CD020F40063B3F5A05F07D0FA
:102EF800B0F5C05F04D0064840F2D741FEF7BCFAEF
:102F0800044B986820F4E0502043986010BD00BF3F
:102F1800D09300080038024030F4805310B50446BE
:102F28000CD020F40063B3F5A05F07D0B0F5C05F04
:102F380004D0064840F2F641FEF79EFA044B986822
:102F480020F4604040EAC400986010BDD0930008A7
:102F58000038024010B4214CA36803F00C03042B82
:102F68001BD0082B1CD01E4B03601C4A1D499468BB
:102F7800C4F303140C5DE34043609468C4F38224F3
:102F88000C5D23FA04F4846092685DF8044BC2F384
:102F980042328A5CD340C3607047134B0360E4E756
:102FA8006368616813F4800F636818BF0E4C01F002
:102FB8003F020CBF0A49B4FBF2F1C3F3881308BF00
:102FC800B1FBF2F101FB03F2044B5B68C3F301436D
:102FD80001335B00B2FBF3F30360C6E7003802403D
:102FE8000024F4001800002040787D01B0F5807FAF
:102FF80010B5044632D0B0F5007F2FD0204B20F416
:10300800A0229A4220F480312FD01E4B20F41022A7
:103018009A422AD01C4A20F44033934225D002F524
:10302800C02220F4881090421FD002F5003293424B
:103038001BD002F58022934217D002F580229342DA
:1030480013D0124B994210D0114840F2C351FEF7E9
:1030580013FA04F44073B3F5407F06D00D4A136F9A
:10306800C4F30B041C43146710BD0A498B6824F091
:10307800704223F4F81322F4407213438B60EDE797
:1030880000030200000304000003080000031C0002
:10309800D093000800380240012810B5044604D92E
:1030A800034840F2E151FEF7E7F9024B1C6010BDFE
:1030B800D09300083C0E4742012810B5044604D9B5
:1030C800034840F2F251FEF7D7F9024B1C6010BDDD
:1030D800D0930008400E4742012810B5044604D991
:1030E800034840F2AE61FEF7C7F9024B1C6010BD01
:1030F800D09300085C01474230F4801310B50446B1
:1031080007D0B0F5001F04D0064840F2CB61FEF7A7
:10311800B3F9054BD3F88C0020F440102043C3F8D2
:103128008C0010BDD09300080038024030F48003B2
:1031380010B5044607D0B0F5000F04D0064840F299
:10314800EF61FEF799F9054BD3F88C0020F44000A5
:103158002043C3F88C0010BDD0930008003802400B
:1031680010B5441E1F2C04D906484FF4E261FEF73F
:1031780083F9054BD3F88C0020F01F002043C3F8D7
:103188008C0010BDD09300080038024010B5441ED2
:103198001F2C04D907484FF4E661FEF76DF9064B7A
:1031A800D3F88C0020F4F85040EA0420C3F88C00CF
:1031B80010BD00BFD09300080038024030F44033FF
:1031C80010B5044604D0074840F29371FEF754F94D
:1031D800054BD3F88C0020F440302043C3F88C0012
:1031E80010BD00BFD093000800380240012810B578
:1031F800044604D9034840F61101FEF73DF9024B95
:103208001C6010BDD0930008E011474238B5104B40
:10321800034004460D4663B958B1012D10D90D4835
:1032280040F63D01FEF728F90B4A136B1C43146363
:1032380038BD084840F63B01FEF71EF9012DEED8CF
:10324800002DF1D1044A136B23EA0404146338BD3A
:1032580000E80B01D09300080038024038B530F080
:10326800F10304460D460CD158B1012D10D90C4874
:1032780040F65C01FEF700F90A4A536B1C4354639D
:1032880038BD074840F65B01FEF7F6F8012DEED889
:10329800002DF1D1034A536B23EA0404546338BD6B
:1032A800D09300080038024038B530F001030446D6
:1032B8000D460CD158B1012D10D90C4840F67A01B1
:1032C800FEF7DAF80A4A936B1C43946338BD074843
:1032D80040F67901FEF7D0F8012DEED8002DF1D196
:1032E800034A936B23EA0404946338BDD09300081F
:1032F8000038024010F4585F38B504460D460CD12A
:1033080058B1012D10D90C4840F6B301FEF7B4F8B6
:103318000A4A136C1C43146438BD074840F6B201CE
:10332800FEF7AAF8012DEED8002DF1D1034A136C4F
:1033380023EA0404146438BDD0930008003802401E
:1033480038B5104B034004460D4663B958B1012DFA
:1033580010D90D4840F6E701FEF78EF80B4A536C7A
:103368001C43546438BD084840F6E601FEF784F86B
:10337800012DEED8002DF1D1044A536C23EA040440
:10338800546438BD0C0008F0D0930008003802409F
:1033980038B5104B034004460D4663B958B1012DAA
:1033A80010D90D4840F61111FEF766F80B4A13695B
:1033B8001C43146138BD08484FF41161FEF75CF8EE
:1033C800012DEED8002DF1D1044A136923EA040433
:1033D800146138BD00E81F05D0930008003802408A
:1033E80038B530F0F10304460D460CD158B1012D23
:1033F80010D90C4840F62E11FEF73EF80A4A5369D8
:103408001C43546138BD074840F62D11FEF734F8C7
:10341800012DEED8002DF1D1034A536923EA0404A3
:10342800546138BDD09300080038024038B530F0F8
:10343800010304460D460CD158B1012D10D90C4892
:1034480040F64911FEF718F80A4A93691C4394613B
:1034580038BD074840F64811FEF70EF8012DEED8A2
:10346800002DF1D1034A936923EA0404946138BD1D
:10347800D09300080038024010F4585F38B504466D
:103488000D460CD158B1012D10D90C4840F67F11CA
:10349800FDF7F2FF0A4A136A1C43146238BD074855
:1034A80040F67E11FDF7E8FF012DEED8002DF1D191
:1034B800034A136A23EA0404146238BDD09300084F
:1034C8000038024038B5104B034004460D4663B936
:1034D80058B1012D10D90D4840F6AE11FDF7CCFFBB
:1034E8000B4A536A1C43546238BD084840F6AD1174
:1034F800FDF7C2FF012DEED8002DF1D1044A536A21
:1035080023EA0404546238BD0C8608F2D0930008FC
:103518000038024038B5104B034004460D4663B9E5
:1035280058B1012D10D90D4840F6DF11FDF7A4FF61
:103538000B4A136D1C43146538BD084840F6DE116C
:10354800FDF79AFF012DEED8002DF1D1044A136D35
:1035580023EA0404146538BD00681001D0930008FC
:103568000038024038B530F0F10304460D460CD15E
:1035780058B1012D10D90C4840F6FF11FDF77CFF1A
:103588000A4A536D1C43546538BD074840F6FE117E
:10359800FDF772FF012DEED8002DF1D1034A536DCE
:1035A80023EA0404546538BDD0930008003802406B
:1035B80038B530F0010304460D460CD158B1012D41
:1035C80010D90C4840F61D21FDF756FF0A4A936DA5
:1035D8001C43946538BD074840F61C21FDF74CFF95
:1035E800012DEED8002DF1D1034A936D23EA04048E
:1035F800946538BDD09300080038024010F4585F35
:1036080038B504460D460CD158B1012D10D90C48D7
:1036180040F65621FDF730FF0A4A136E1C43146624
:1036280038BD074840F65521FDF726FF012DEED895
:10363800002DF1D1034A136E23EA0404146638BD41
:10364800D09300080038024038B5104B03400446B8
:103658000D4663B958B1012D10D90D4840F68A219D
:10366800FDF70AFF0B4A536E1C43546638BD0848E1
:1036780040F68921FDF700FF012DEED8002DF1D18C
:10368800044A536E23EA0404546638BD0C0008F05B
:10369800D093000800380240012808B50AD9094823
:1036A80040F6A121FDF7E8FE074A136F23F008034F
:1036B800136708BDF8D1044A136F43F00803136772
:1036C80008BD00BFD09300080038024038B543B2A7
:1036D800002B04460D4613DD012D09D90B4840F691
:1036E800DA31FDF7C9FE0A4A13781C43147038BD55
:1036F800002DF8D1064A137823EA0404147038BD63
:10370800024840F6D931FDF7B7FEE5E7D093000847
:103718000D38024000F0EF03212B10B504461FD0EE
:1037280039281DD0412823D0612811D0A0F1790370
:10373800062B0DD93B2813D03D2811D0104840F650
:103748000241FDF799FE6309012B09D0022B0FD026
:103758000C4B586F04F01F04E04000F0010010BD4E
:10376800084B186804F01F04E04000F0010010BD89
:10377800044B186F04F01F04E04000F0010010BD76
:10378800D09300080038024000B583B000230193AD
:1037980000E048B93120FFF7BDFF019B01330193D9
:1037A800019BB3F5A04FF4D13120FFF7B3FF0030F0
:1037B80018BF012003B05DF804FB00BF024A536F35
:1037C80043F080735367704700380240431E012B53
:1037D80010B5044610D904280ED008280CD010289B
:1037E8000AD0802808D0402806D0202804D00648CF
:1037F80040F64141FDF740FE044BDB681C4214BF14
:103808000120002010BD00BFD093000800380240FE
:1038180010B5044620B9044840F66141FDF72CFE76
:10382800024B1C7010BD00BFD09300080E38024038
:1038380008B5524B984237D003F5806398423DD083
:1038480003F58063984243D003F58063984249D0DA
:1038580003F5806398421DD003F5806398424BD0EE
:1038680003F5806398425DD003F5806398426FD07A
:1038780003F58063984275D003F5806398425BD066
:1038880003F58063984241D03D488221BDE8084055
:10389800FDF7F2BD10200121FFF77AFD102000216D
:1038A800BDE80840FFF774BD01200146FFF770FD31
:1038B80001200021BDE80840FFF76ABD0220012170
:1038C800FFF766FD02200021BDE80840FFF760BD54
:1038D80004200121FFF75CFD04200021BDE8084019
:1038E800FFF756BD08200121FFF752FD08200021EF
:1038F800BDE80840FFF74CBD20200121FFF748FD37
:1039080020200021BDE80840FFF742BD4FF4806049
:103918000121FFF73DFD4FF480600021BDE808401C
:10392800FFF736BD40200121FFF732FD402000217E
:10393800BDE80840FFF72CBD4FF400700121FFF7E8
:1039480027FD4FF400700021BDE80840FFF720BDB7
:1039580080200121FFF71CFD80200021BDE80840E0
:10396800FFF716BD4FF480700121FFF711FD4FF4EA
:1039780080700021BDE80840FFF70ABD0000024042
:10398800F09300082DE9F84F544B984206468946B3
:103998002BD003F58063984227D003F580639842C3
:1039A80023D003F5806398421FD003F580639842C3
:1039B8001BD003F58063984217D003F580639842C3
:1039C80013D003F5806398420FD003F580639842C3
:1039D8000BD003F58063984207D003F580639842C3
:1039E80003D03F48CF21FDF747FDB9F80030002B41
:1039F8006ED099F80430032B65D899F80730022B5C
:103A08005CD800273C464FF0010A4FF0030B04E056
:103A18000134102C07F1020727D0D9F800500AFA10
:103A280004F31D409D42F3D1326899F804300BFA33
:103A380007F86FEA080808EA02023260326803FAF7
:103A480007F1013B0A43012B326010D9F26899F85B
:103A5800073008EA0202F260F268BB4001341343FF
:103A6800102CF36007F10207D7D1BDE8F88F99F859
:103A78000520032A1BD8B16899F80630184808EAC7
:103A88000101B160B168BA400A43012BB26004D9A0
:103A9800EB21FDF7F1FC99F80630726822EA05057A
:103AA80075607268A3409BB213437360CEE70C48FD
:103AB800E421FDF7E1FC99F80520DCE70848D2216C
:103AC800FDF7DAFC9DE70648D121FDF7D5FC94E720
:103AD8000348D021FDF7D0FC8BE700BF000002406F
:103AE800F093000800234FF6FF72026003714371E0
:103AF8008371C371704700BF30B5254B83B04FF455
:103B08008032984204460D4601922CD003F580631A
:103B1800984228D003F58063984224D003F5806347
:103B2800984220D003F5806398421CD003F5806347
:103B3800984218D003F58063984214D003F5806347
:103B4800984210D003F5806398420CD003F5806347
:103B5800984208D003F58063984204D00D484FF48A
:103B68008D71FDF789FC25B90A4840F21B11FDF754
:103B780083FC019B2B430193019BE361E561019B5E
:103B8800E361E3690193E369019303B030BD00BFCA
:103B980000000240F093000838B5324B98420446C2
:103BA8000D462CD003F58063984228D003F5806336
:103BB800984224D003F58063984220D003F58063AF
:103BC80098421CD003F58063984218D003F58063AF
:103BD800984214D003F58063984210D003F58063AF
:103BE80098420CD003F58063984208D003F58063AF
:103BF800984204D01C484FF4A471FDF73DFC6B1E9D
:103C0800012B28D9042D26D0082D24D0102D22D000
:103C1800202D20D0402D1ED0802D1CD0B5F5807FC2
:103C280019D0B5F5007F16D0B5F5806F13D0B5F56E
:103C3800006F10D0B5F5805F0DD0B5F5005F0AD0E4
:103C4800B5F5804F07D0B5F5004F04D0064840F2CF
:103C58004911FDF711FC23691D4214BF0120002002
:103C680038BD00BF00000240F09300081A4B98428C
:103C780010B504462CD003F58063984228D003F58C
:103C88008063984224D003F58063984220D003F5DE
:103C9800806398421CD003F58063984218D003F5DE
:103CA8008063984214D003F58063984210D003F5DE
:103CB800806398420CD003F58063984208D003F5DE
:103CC8008063984204D005484FF4B071FDF7D4FBE7
:103CD800206980B210BD00BF00000240F0930008C8
:103CE80038B5324B984204460D462CD003F5806314
:103CF800984228D003F58063984224D003F5806366
:103D0800984220D003F5806398421CD003F5806365
:103D1800984218D003F58063984214D003F5806365
:103D2800984210D003F5806398420CD003F5806365
:103D3800984208D003F58063984204D01C4840F2AA
:103D48007311FDF799FB6B1E012B28D9042D26D082
:103D5800082D24D0102D22D0202D20D0402D1ED06B
:103D6800802D1CD0B5F5807F19D0B5F5007F16D011
:103D7800B5F5806F13D0B5F5006F10D0B5F5805F3D
:103D88000DD0B5F5005F0AD0B5F5804F07D0B5F571
:103D9800004F04D006484FF4BA71FDF76DFB636914
:103DA8001D4214BF0120002038BD00BF00000240A2
:103DB800F09300081A4B984210B504462CD003F52E
:103DC8008063984228D003F58063984224D003F595
:103DD8008063984220D003F5806398421CD003F595
:103DE8008063984218D003F58063984214D003F595
:103DF8008063984210D003F5806398420CD003F595
:103E08008063984208D003F58063984204D005483F
:103E180040F28B11FDF730FB606980B210BD00BF26
:103E280000000240F093000838B51D4B9842044644
:103E38000D462CD003F58063984228D003F58063A3
:103E4800984224D003F58063984220D003F580631C
:103E580098421CD003F58063984218D003F580631C
:103E6800984214D003F58063984210D003F580631C
:103E780098420CD003F58063984208D003F580631C
:103E8800984204D0074840F29F11FDF7F5FA25B98A
:103E980004484FF4D071FDF7EFFA258338BD00BF11
:103EA80000000240F093000838B51D4B98420446C4
:103EB8000D462CD003F58063984228D003F5806323
:103EC800984224D003F58063984220D003F580639C
:103ED80098421CD003F58063984218D003F580639C
:103EE800984214D003F58063984210D003F580639C
:103EF80098420CD003F58063984208D003F580639C
:103F0800984204D007484FF4DA71FDF7B5FA25B99D
:103F1800044840F2B511FDF7AFFA658338BD00BF1C
:103F280000000240F093000830B5394B984283B046
:103F380004460D462ED003F5806398422AD003F537
:103F48008063984226D003F58063984222D003F517
:103F5800806398421ED003F5806398421AD003F517
:103F68008063984216D003F58063984212D003F517
:103F7800806398420ED003F5806398420AD003F517
:103F88008063984206D0234801924FF4E571FDF70B
:103F980073FA019A6B1E012B2AD9042D28D0082DFB
:103FA80026D0102D24D0202D22D0402D20D0802D99
:103FB8001ED0B5F5807F1BD0B5F5007F18D0B5F5BC
:103FC800806F15D0B5F5006F12D0B5F5805F0FD0B2
:103FD800B5F5005F0CD0B5F5804F09D0B5F5004FA9
:103FE80006D00C48019240F2CB11FDF745FA019A30
:103FF800012A07D907484FF4E671FDF73DFA2583F2
:1040080003B030BD002AFAD1658303B030BD00BFCC
:1040180000000240F093000838B51A4B9842044655
:104028000D462CD003F58063984228D003F58063B1
:10403800984224D003F58063984220D003F580632A
:1040480098421CD003F58063984218D003F580632A
:10405800984214D003F58063984210D003F580632A
:1040680098420CD003F58063984208D003F580632A
:10407800984204D0044840F2E311FDF7FDF9656168
:1040880038BD00BF00000240F093000838B51B4B54
:10409800984204460D462CD003F58063984228D0F8
:1040A80003F58063984224D003F58063984220D0BA
:1040B80003F5806398421CD003F58063984218D0BA
:1040C80003F58063984214D003F58063984210D0BA
:1040D80003F5806398420CD003F58063984208D0BA
:1040E80003F58063984204D0054840F2F311FDF7C8
:1040F800C3F961696940616138BD00BF00000240D1
:10410800F09300082A4B984270B504460D461646AF
:104118002CD003F58063984228D003F58063984239
:1041280024D003F58063984220D003F58063984239
:104138001CD003F58063984218D003F58063984239
:1041480014D003F58063984210D003F58063984239
:104158000CD003F58063984208D003F58063984239
:1041680004D0144840F24921FDF786F90F2D19D8DB
:104178000D2E06D90F2E04D00E4840F24B21FDF724
:104188007BF9EB0804EB830405F00705226AAD0010
:104198000F23AB4022EA03032362226AAE40164390
:1041A800266270BD034840F24A21FDF765F9DFE752
:1041B80000000240F093000808B5454B984236D0FD
:1041C800A3F54C4398423CD003F58063984244D011
:1041D80003F5806398424CD003F58063984219D068
:1041E80003F54443984250D0A3F51C43984256D057
:1041F80003F5806398425ED003F51C43984215D0BE
:1042080003F58063984211D03248BE21BDE80840CA
:10421800FDF732B94FF480100121FFF72DF94FF463
:1042280080100021BDE80840FFF726B908BD10201E
:104238000121FFF747F910200021BDE80840FFF7EA
:1042480041B94FF400300121FFF716F94FF400305F
:104258000021BDE80840FFF70FB94FF48020012185
:10426800FFF70AF94FF480200021BDE80840FFF766
:1042780003B94FF400200121FFF7FEF84FF40020A6
:104288000021BDE80840FFF7F7B820200121FFF71B
:1042980019F920200021BDE80840FFF713B94FF0B5
:1042A80080400121FFF7E8F84FF080400021BDE889
:1042B8000840FFF7E1B84FF000400121FFF7DCF8B4
:1042C8004FF000400021BDE80840FFF7D5B800BF17
:1042D8000010014014940008F0B5764B984285B060
:1042E80004460D4627D0A3F54C43984223D003F546
:1042F800806398421FD003F5806398421BD003F572
:104308008063984217D003F54443984213D0A3F52D
:104318001C4398420FD003F5806398420BD003F5F5
:104328001C43984207D003F58063984203D0624843
:10433800FE21FDF7A1F82B68604A013B934200F289
:104348009D80AB8823F480539BB223B15A484FF425
:104358008071FDF791F8EB8823F440539BB2002B52
:1043680040F095802B8923F480623AB1B3F5C06F91
:1043780004D051484FF48171FDF77EF86B8923F022
:104388000C02002A74D1002B72D0AB891E461BB3D5
:1043980023F40072B2F5807F0AD0B3F5007F07D00E
:1043A80045484FF48271FDF767F8AB891E469BB10B
:1043B800404A944267D0424A944264D002F58062EF
:1043C800944260D002F54C4294425CD03A4840F2A4
:1043D8000911FDF751F8AE89238AE98868892F8980
:1043E800AA889BB223F440530B432382A1893A4302
:1043F80089B2024321F4B05121F00C0192B20A4370
:10440800A281A38A9BB223F4407333439BB2A38255
:104418006846FEF79FFD274B9C4236D003F5806324
:104428009C4232D0029AA389A6891BB2002B2B6822
:1044380002EB8202B4BF5B009B0002EB8202B2FB7C
:10444800F3F0204A36B2A2FB00356D096423002E32
:1044580005FB13034FEA05151FDB1B013233A2FBD3
:104468000323C3F343132B439BB2238105B0F0BD51
:10447800114840F20311FCF7FFFF86E70E48FF21C1
:10448800FCF7FAFF5DE71E46A6E7039ACBE70A4862
:1044980040F20111FCF7F0FF64E7D9003231A2FBCA
:1044A8000131C1F3421242EA05039BB2238105B0F0
:1044B800F0BD00BF0010014014940008DF707200C6
:1044C800004400401F85EB5100234FF416510C2285
:1044D800016042818380C38003818381704700BF6C
:1044E800264B984270B505460C4610D0A3F54C43B0
:1044F80098420CD003F58063984208D003F54C43EA
:10450800984204D01E4840F27F11FCF7B5FF23887B
:1045180023F400639BB223B119484FF4C071FCF730
:10452800ABFF638823F480639BB223B1144840F245
:104538008111FCF7A1FFA38823F400739BB223B178
:104548000F484FF4C171FCF797FFE68826F4807393
:104558002BB10B4840F28311FCF78EFFE688628886
:104568002088A1882B8A02430A4332439BB292B225
:1045780023F4706313432B8270BD00BF0010014009
:10458800149400080023038043808380C38070470D
:1045980038B5224B984204460D4628D0A3F54C4323
:1045A800984224D003F58063984220D003F58063B5
:1045B80098421CD003F58063984218D003F5444311
:1045C800984214D0A3F51C43984210D003F5806399
:1045D80098420CD003F51C43984208D003F5806339
:1045E800984204D00E484FF4D771FCF745FF012DCF
:1045F8000AD90B4840F2AF11FCF73EFFA3899BB2E2
:1046080043F40053A38138BD002DF7D1A38923F4C7
:1046180000531B041B0CA38138BD00BF00100140D0
:104628001494000838B51B4B984204460D4628D010
:10463800A3F54C43984224D003F58063984220D0D8
:1046480003F5806398421CD003F58063984218D024
:1046580003F54443984214D0A3F51C43984210D064
:1046680003F5806398420CD003F51C43984208D0A8
:1046780003F58063984204D007484FF4E471FCF7CF
:10468800FBFE238B03F47F432383238B9BB21D43C1
:10469800258338BD001001401494000838B5224B1A
:1046A800984204460D4628D0A3F54C43984224D09E
:1046B80003F58063984220D003F5806398421CD0AC
:1046C80003F58063984218D003F54443984214D008
:1046D800A3F51C43984210D003F5806398420CD090
:1046E80003F51C43984208D003F58063984204D030
:1046F8000E4840F2DD11FCF7BFFE012D0CD90B4826
:104708004FF4EF71FCF7B8FEA3896FEA43436FEAF1
:1047180053439BB2A38138BD002DF5D1A389C3F3C0
:104728000E03A38138BD00BF001001401494000897
:1047380038B5224B984204460D4628D0A3F54C4381
:10474800984224D003F58063984220D003F5806313
:1047580098421CD003F58063984218D003F544436F
:10476800984214D0A3F51C43984210D003F58063F7
:1047780098420CD003F51C43984208D003F5806397
:10478800984204D00E4840F2F711FCF775FE012D4F
:104798000AD90B484FF4FC71FCF76EFEA38A9BB252
:1047A80043F40063A38238BD002DF7D1A38A23F414
:1047B80000631B041B0CA38238BD00BF001001401E
:1047C8001494000838B51D4B984204460D4628D06D
:1047D800A3F54C43984224D003F58063984220D037
:1047E80003F5806398421CD003F58063984218D083
:1047F80003F54443984214D0A3F51C43984210D0C3
:1048080003F5806398420CD003F51C43984208D006
:1048180003F58063984204D009484FF40C71FCF703
:104828002BFEB5F5007F04D3054840F23121FCF793
:1048380023FEC5F30805A58038BD00BF0010014060
:1048480014940008184B984210B5044628D0A3F5D4
:104858004C43984224D003F58063984220D003F556
:10486800806398421CD003F58063984218D003F502
:104878004443984214D0A3F51C43984210D003F542
:10488800806398420CD003F51C43984208D003F586
:104898008063984204D005484FF41071FCF7ECFD92
:1048A800A088C0F3080010BD00100140149400084F
:1048B80038B5204B984204460D4628D0A3F54C4302
:1048C800984224D003F58063984220D003F5806392
:1048D80098421CD003F58063984218D003F54443EE
:1048E800984214D0A3F51C43984210D003F5806376
:1048F80098420CD003F51C43984208D003F5806316
:10490800984204D00C484FF41D71FCF7B5FD0F2DEB
:1049180004D9094840F27521FCF7AEFD238A23F03B
:104928000F031B041B0C2382238A9BB21D43258281
:1049380038BD00BF001001401494000838B5224B60
:10494800984204460D4628D0A3F54C43984224D0FB
:1049580003F58063984220D003F5806398421CD009
:1049680003F58063984218D003F54443984214D065
:10497800A3F51C43984210D003F5806398420CD0ED
:1049880003F51C43984208D003F58063984204D08D
:104998000E484FF42271FCF76FFD012D0AD90B4820
:1049A80040F28921FCF768FDA3899BB243F002031A
:1049B800A38138BD002DF7D1A38923F002031B047E
:1049C8001B0CA38138BD00BF0010014014940008DF
:1049D80038B5204B984204460D4628D0A3F54C43E1
:1049E800984224D003F58063984220D003F5806371
:1049F80098421CD003F58063984218D003F54443CD
:104A0800984214D0A3F51C43984210D003F5806354
:104A180098420CD003F51C43984208D003F58063F4
:104A2800984204D00C4840F2A321FCF725FD25F458
:104A3800006323B108484FF42971FCF71DFDA389D1
:104A480023F400631B041B0CA381A18989B22943A9
:104A5800A18138BD001001401494000838B5204BDE
:104A6800984204460D4628D0A3F54C43984224D0DA
:104A780003F58063984220D003F5806398421CD0E8
:104A880003F58063984218D003F54443984214D044
:104A9800A3F51C43984210D003F5806398420CD0CC
:104AA80003F51C43984208D003F58063984204D06C
:104AB8000C484FF43A71FCF7DFFC25F0200323B1D2
:104AC800084840F2E921FCF7D7FC238A23F02003A9
:104AD8001B041B0C2382218A89B22943218238BDF9
:104AE800001001401494000838B5224B984204463F
:104AF8000D4628D0A3F54C43984224D003F5806393
:104B0800984220D003F5806398421CD003F5806357
:104B1800984218D003F54443984214D0A3F51C4397
:104B2800984210D003F5806398420CD003F51C43DB
:104B3800984208D003F58063984204D00E4840F2AA
:104B4800FA21FCF799FC012D0AD90B4840F2FB2108
:104B5800FCF792FC238A9BB243F48043238238BD3E
:104B6800002DF7D1238A23F480431B041B0C2382D6
:104B780038BD00BF0010014014940008194B98423A
:104B880010B5044628D0A3F54C43984224D003F529
:104B98008063984220D003F5806398421CD003F5C7
:104BA8008063984218D003F54443984214D0A3F583
:104BB8001C43984210D003F5806398420CD003F54B
:104BC8001C43984208D003F58063984204D00648F5
:104BD80040F21231FCF750FCA3899BB243F0010369
:104BE800A38110BD001001401494000838B5224B71
:104BF800984204460D4628D0A3F54C43984224D049
:104C080003F58063984220D003F5806398421CD056
:104C180003F58063984218D003F54443984214D0B2
:104C2800A3F51C43984210D003F5806398420CD03A
:104C380003F51C43984208D003F58063984204D0DA
:104C48000E4840F24731FCF717FC012D0AD90B48F2
:104C58004FF45271FCF710FCA38A9BB243F008038F
:104C6800A38238BD002DF7D1A38A23F008031B04C3
:104C78001B0CA38238BD00BF00100140149400082B
:104C880038B50F4B984204460D4610D0A3F54C4357
:104C980098420CD003F58063984208D003F54C4342
:104CA800984204D0074840F29B31FCF7E5FB238B80
:104CB800DBB22383218B89B241EA0521218338BDE8
:104CC800001001401494000838B5164B9842044669
:104CD8000D4610D0A3F54C4398420CD003F58063E1
:104CE800984208D003F54C43984204D00E4840F24D
:104CF800AE31FCF7C1FB012D0AD90B4840F2AF31A8
:104D0800FCF7BAFBA38A9BB243F02003A38238BD09
:104D1800002DF7D1A38A23F020031B041B0CA382C8
:104D280038BD00BF001001401494000838B5164B78
:104D3800984204460D4610D0A3F54C4398420CD037
:104D480003F58063984208D003F54C43984204D099
:104D58000E4840F2C731FCF78FFB012D0AD90B48EA
:104D68004FF47271FCF788FBA38A9BB243F01003DF
:104D7800A38238BD002DF7D1A38A23F010031B04AA
:104D88001B0CA38238BD00BF00100140149400081A
:104D980038B5204B984204460D4628D0A3F54C431D
:104DA800984224D003F58063984220D003F58063AD
:104DB80098421CD003F58063984218D003F5444309
:104DC800984214D0A3F51C43984210D003F5806391
:104DD80098420CD003F51C43984208D003F5806331
:104DE800984204D00C4840F20E41FCF745FB25F0F0
:104DF800040323B1084840F20F41FCF73DFBA38AA6
:104E080023F004031B041B0CA382A18A89B2294343
:104E1800A18238BD001001401494000838B5224B17
:104E2800984204460D4628D0A3F54C43984224D016
:104E380003F58063984220D003F5806398421CD024
:104E480003F58063984218D003F54443984214D080
:104E5800A3F51C43984210D003F5806398420CD008
:104E680003F51C43984208D003F58063984204D0A8
:104E78000E484FF48461FCF7FFFA012D0AD90B485C
:104E880040F22141FCF7F8FAA38A9BB243F00203EF
:104E9800A38238BD002DF7D1A38A23F002031B0497
:104EA8001B0CA38238BD00BF0010014014940008F9
:104EB800274B984270B504460D46164628D0A3F5F0
:104EC8004C43984224D003F58063984220D003F5E0
:104ED800806398421CD003F58063984218D003F58C
:104EE8004443984214D0A3F51C43984210D003F5CC
:104EF800806398420CD003F51C43984208D003F510
:104F08008063984204D0134840F24E41FCF7B4FA4B
:104F180025F0C00363B95DB1012E10D90D484FF4D7
:104F28008A61FCF7A9FAA38A9BB21D43A58270BDCA
:104F3800084840F24F41FCF79FFA012EEED8002EA8
:104F4800F1D1A38A9BB223EA0505A58270BD00BFF3
:104F580000100140149400084A4B984270B504466A
:104F68000D46164628D0A3F54C43984224D003F5A5
:104F78008063984220D003F5806398421CD003F5E3
:104F88008063984218D003F54443984214D0A3F59F
:104F98001C43984210D003F5806398420CD003F567
:104FA8001C43984208D003F58063984204D03648E1
:104FB80040F2D441FCF760FA282D1ED040F2277346
:104FC8009D421AD040F226639D4216D040F22553E6
:104FD8009D4212D040F224439D420ED040F6460333
:104FE8009D420AD040F66A139D422AD0602D04D013
:104FF800254840F2D541FCF73FFA012E08D922484E
:1050080040F2D641FCF738FA40F66A139D421FD0A9
:1050180005F01F02C5F342150123012D03FA02F31F
:105028000BD0022D0BD0143422681EB922EA0303D8
:10503800236070BD1343236070BD0C34F4E7103453
:10504800F2E7012E04D9104840F2D641FCF714FAD1
:105058000C4B9C4210D0A3F54C439C420CD003F55A
:1050680080639C4208D003F54C439C4204D0064818
:1050780040F2DB41FCF700FA05F01F050123AB40C5
:10508800D1E700BF001001401494000838B5314B37
:10509800984204460D4628D0A3F54C43984224D0A4
:1050A80003F58063984220D003F5806398421CD0B2
:1050B80003F58063984218D003F54443984214D00E
:1050C800A3F51C43984210D003F5806398420CD096
:1050D80003F51C43984208D003F58063984204D036
:1050E8001D4840F21351FCF7C7F9012D18D0802D47
:1050F80016D0402D14D0202D12D0102D10D0B5F57B
:10510800807F0DD0B5F5007F10D0082D08D0042D74
:1051180006D0022D04D0104840F21451FCF7ACF927
:1051280023881D4214BF0120002038BD094B9C4232
:10513800F6D00A4B9C42F3D003F580639C42EFD033
:1051480003F54C439C42EBD0034840F21951FCF75D
:1051580093F9E5E70010014014940008004400406A
:1051680038B5294B984204460D4628D0A3F54C4340
:10517800984224D003F58063984220D003F58063D9
:1051880098421CD003F58063984218D003F5444335
:10519800984214D0A3F51C43984210D003F58063BD
:1051A80098420CD003F51C43984208D003F580635D
:1051B800984204D0154840F24351FCF75DF925F4B4
:1051C8005873D3B9CDB1AB0513D50F4B9C4210D052
:1051D800A3F54C439C420CD003F580639C4208D055
:1051E80003F54C439C4204D0084840F24951FCF76F
:1051F80043F9ED43ADB2258038BD044840F244512F
:10520800FCF73AF9DFE700BF0010014014940008EA
:1052180038B54F4B984204460D4628D0A3F54C4369
:10522800984224D003F58063984220D003F5806328
:1052380098421CD003F58063984218D003F5444384
:10524800984214D0A3F51C43984210D003F580630C
:1052580098420CD003F51C43984208D003F58063AC
:10526800984204D03B4840F26751FCF705F9282DD5
:105278004ED040F227739D423DD040F226639D42B6
:1052880039D040F225539D4235D040F224439D4207
:1052980031D040F646039D423DD040F66A139D4208
:1052A80040D040F225339D4225D0B5F5187F37D040
:1052B80025F40073B3F5B07F04D026484FF4AD61F0
:1052C800FCF7DAF80120C5F3421205F01F03824209
:1052D80000FA03F314D0022A1ED0A08A80B2184024
:1052E80023889BB298B12D0A0122AA401A4214BF02
:1052F8000120002038BD05F01F03012000FA03F348
:10530800A08980B2184023889BB20028EBD138BD11
:105318004FF48073F4E74023208A80B21840DFE717
:105328000123DAE70A4B9C420FD00B4B9C420CD06E
:1053380003F580639C4208D003F54C439C4204D09B
:10534800044840F26D51FCF797F84FF48063C4E7C6
:1053580000100140149400080044004038B52F4B59
:10536800984204460D4628D0A3F54C43984224D0D1
:1053780003F58063984220D003F5806398421CD0DF
:1053880003F58063984218D003F54443984214D03B
:10539800A3F51C43984210D003F5806398420CD0C3
:1053A80003F51C43984208D003F58063984204D063
:1053B8001B484FF4B661FCF75FF840F226639D4244
:1053C80010D040F225539D420CD040F646039D4232
:1053D80008D040F66A139D420BD0114840F2B151F3
:1053E800FCF74AF82D0A0123AB40DB439BB223802C
:1053F80038BD0A4B9C42F5D00A4B9C42F2D003F5CB
:1054080080639C42EED003F54C439C42EAD00448AA
:1054180040F2B651FCF730F8E4E700BF0010014055
:10542800149400080044004008B51A4B984219D05B
:1054380003F58063984221D003F58063984205D034
:1054480015488C21BDE80840FCF716B84FF4000059
:105458000121FEF711F84FF400000021BDE80840D3
:10546800FEF70AB84FF400100121FEF705F84FF4D3
:1054780000100021BDE80840FDF7FEBF4FF4800092
:105488000121FDF7F9FF4FF480000021BDE8084035
:10549800FDF7F2BF0054004038940008F0B55F4BA8
:1054A800984285B004460E460BD003F580639842B7
:1054B80007D003F58063984203D05948BB21FBF716
:1054C800DBFF3368574A013B934200F28D80B38873
:1054D80023F002022AB10A2B03D05148BD21FBF761
:1054E800CBFFF388B3F5804F07D04BF6FF7293429A
:1054F80003D04B48BE21FBF7BFFF3389B3F5806F5C
:1055080077D2738923F480639BB2002B7BD1B38954
:10551800C3F30E03B3F5804F03D04148C121FBF715
:10552800ABFF6846A588FDF715FD029B3E4832682B
:10553800DFF8FCE0A0FB031025F03F052D04800CEC
:105548002D0C87B23D43A580218821F00101090473
:10555800090C7245218024D85200B3FBF2F39BB2A8
:10556800032B07F1010798BF04232784A38320880E
:105578007789B2883589B18980B240F001002080EE
:10558800238823F4816323F002031B043A431B0C92
:10559800134345EA01029BB292B22380228105B0EF
:1055A800F0BDF5884BF6FF718D4231D002EB8202D7
:1055B80002EB8202B3FBF2F39BB243F48043C3F3E2
:1055C8000B020AB943F001034FF49671174D01FB22
:1055D80000F285FB0201D217C2EBA112013292B28E
:1055E80043F400432284C1E70D48BC21FBF744FF84
:1055F8006DE70B48BF21FBF73FFF738923F48063F6
:105608009BB2002B83D00648C021FBF735FF7EE70D
:1056180002EB4202B3FBF2F39BB2D0E70054004026
:10562800389400087F1A060083DE1B43D34D6210AE
:10563800A0860100002310B44BF6FF7141F28834B4
:105648004FF480420460C18082818380038143815A
:105658005DF8044B704700BF38B5144B98420446B8
:105668000D460CD003F58063984208D003F580639B
:10567800984204D00E484FF49E71FBF7FDFE012DB1
:105688000AD90B4840F23D11FBF7F6FE23889BB27E
:1056980043F00103238038BD002DF7D1238823F080
:1056A80001031B041B0C238038BD00BF00540040BD
:1056B8003894000838B5144B984204460D460CD06F
:1056C80003F58063984208D003F58063984204D0BC
:1056D8000E4840F25911FBF7CFFE012D0BD90B48AC
:1056E8004FF4AD71FBF7C8FEA38C23F010031B0425
:1056F8001B0CA38438BD002DF6D1A38C9BB243F0BC
:105708001003A38438BD00BF00540040389400083B
:1057180038B5114B984204460D460CD003F580630A
:10572800984208D003F58063984204D00B484FF4A0
:10573800BC71FBF7A1FE0F2D04D9084840F279117E
:10574800FBF79AFEA38C9BB205F00F0123F00F0321
:105758001943A18438BD00BF0054004038940008A4
:1057680038B5144B984204460D460CD003F58063B7
:10577800984208D003F58063984204D00E484FF44D
:10578800C971FBF779FE012D0AD90B4840F2931134
:10579800FBF772FE23889BB243F48073238038BDE5
:1057A800002DF7D1238823F480731B041B0C23805E
:1057B80038BD00BF005400403894000838B5144B79
:1057C800984204460D460CD003F58063984208D0F1
:1057D80003F58063984204D00E484FF4D571FBF767
:1057E8004BFE012D0AD90B4840F2AB11FBF744FEE2
:1057F80023889BB243F40073238038BD002DF7D172
:10580800238823F400731B041B0C238038BD00BFBE
:105818000054004038940008134B984270B5054670
:105828000C4616460CD003F58063984208D003F561
:105838008063984204D00D484FF4E371FBF71CFED7
:10584800012E09D9094840F2C711FBF715FE44F0AB
:105858000104A4B22C8270BD002EF8D104F0FE041D
:10586800A4B22C8270BD00BF0054004038940008D8
:1058780038B5144B984204460D460CD003F58063A6
:10588800984208D003F58063984204D00E4840F24D
:10589800E111FBF7F1FD012D0AD90B484FF4F17125
:1058A800FBF7EAFD23889BB243F48063238038BD6D
:1058B800002DF7D1238823F480631B041B0C23805D
:1058C80038BD00BF005400403894000838B50D4B6F
:1058D800984204460D460CD003F58063984208D0E0
:1058E80003F58063984204D007484FF4FD71FBF735
:1058F800C3FDA3899BB205F0FE0123F0FE03194303
:10590800A18138BD005400403894000838B5144BC4
:10591800984204460D460CD003F58063984208D09F
:1059280003F58063984204D00E4840F21321FBF738
:10593800A3FD012D0AD90B484FF40571FBF79CFD17
:10594800A3899BB243F00103A38138BD002DF7D191
:10595800A38923F001031B041B0CA38138BD00BFDE
:10596800005400403894000838B5144B9842044657
:105978000D460CD003F58063984208D003F5806388
:10598800984204D00E4840F22B21FBF775FD012DFB
:105998000AD90B484FF40B71FBF76EFD23889BB2B5
:1059A80043F04003238038BD002DF7D1238823F02E
:1059B80040031B041B0C238038BD00BF005400406B
:1059C8003894000838B5144B984204460D460CD05C
:1059D80003F58063984208D003F58063984204D0A9
:1059E8000E4840F24521FBF747FD012D0CD90B4825
:1059F80040F24621FBF740FD23886FEA43436FEAF4
:105A080053439BB2238038BD002DF5D12388C3F3BF
:105A18000E03238038BD00BF0054004038940008AE
:105A280038B5144B984204460D460CD003F58063F4
:105A3800984208D003F58063984204D00E4840F29B
:105A48005D21FBF719FD012D0BD90B4840F25E21B2
:105A5800FBF712FD238823F080031B041B0C238013
:105A680038BD002DF6D123889BB243F080032380F4
:105A780038BD00BF005400403894000838B5154BB5
:105A8800984204460D460CD003F58063984208D02E
:105A980003F58063984204D00F4840F27721FBF762
:105AA800EBFCB5F5804F0FD04BF6FF739D4204D049
:105AB80009484FF41E71FBF7DFFCA38B23F48043E6
:105AC8001B041B0CA38338BDA38B9BB243F48043F8
