:020000040800F2
:1000000000000220BDA70008D9020008E502000890
:10001000ED020008F5020008FD02000800000000E3
:1000200000000000000000000000000005030008C0
:1000300011030008000000001D0300082903000848
:1000400005A8000805A8000805A8000805A80008DC
:1000500005A8000805A8000805A8000805A80008CC
:1000600005A8000805A8000805A80008FD05000867
:1000700005A8000805A8000805A8000805A80008AC
:1000800005A8000805A8000805A8000805A800089C
:1000900005A8000805A8000805A8000805A800088C
:1000A00005A80008CD0E000805A8000805A800084E
:1000B0009D0E000805A8000805A80008A90500086D
:1000C000E105000805A8000805A8000805A8000823
:1000D00005A8000805A8000805A8000805A800084C
:1000E00005A8000805A8000805A8000805A800083C
:1000F000110F000805A8000805A8000805A80008B9
:1001000005A8000805A8000805A8000805A800081B
:1001100005A8000805A8000805A80008F10E0008B9
:1001200005A8000805A8000805A8000805A80008FB
:1001300005A8000805A8000805A8000805A80008EB
:1001400005A8000805A8000805A8000805A80008DB
:1001500005A8000805A8000805A8000805A80008CB
:1001600005A8000805A8000805A8000805A80008BB
:1001700005A8000805A8000805A8000805A80008AB
:0801800005A8000805A800080D
:10018800044B05481B1A062B02D9044B03B1184728
:10019800704700BFFF090020FC0900200000000094
:1001A80005490648091A891001EBD171491002D096
:1001B800034B03B118477047FC090020FC090020D5
:1001C8000000000010B5064C237843B9FFF7D8FFAC
:1001D800044B13B10448AFF300800123237010BD12
:1001E800FC0900200000000060CF000808B5084B9B
:1001F8001BB108480849AFF300800848036813B9E1
:10020800BDE80840CCE7064B002BF9D09847F7E744
:100218000000000060CF0008000A0020F809002054
:1002280000000000134B002B08BF114B9D46A3F59F
:10023800803A00218B460F461148124A121A0AF0DA
:1002480033FB0D4B002B00D098470C4B002B00D0F4
:1002580098470020002104000D000B480AF0D0FA4E
:100268000AF0FAFA2000290000F010F80AF0CEFA95
:10027800000008000000000000000000000000006E
:10028800FC090020AC0A002035A8000880B500AFA2
:1002980000F0D6FF01F0D0F900F046FE084800F063
:1002A8006FF900F0C3F9064800F06AF900F00EFD96
:1002B80000F0BAFF0346184601F0FEF9F8E700BF60
:1002C80080841E0080B483B000AF78603960FEE798
:1002D80080B400AFBD465DF8047B704780B400AFC2
:1002E800FEE700BF80B400AFFEE700BF80B400AFF8
:1002F800FEE700BF80B400AFFEE700BF80B400AFE8
:10030800BD465DF8047B704780B400AFBD465DF81C
:10031800047B704780B400AFBD465DF8047B70472E
:1003280080B400AFBD465DF8047B704780B500AF70
:10033800154A154BD3F8883043F47003C2F8883057
:10034800124A124B1B6843F0010313600F4B002243
:100358009A600E4A0D4B1B6823F0847323F4803394
:1003680013600A4B0A4A5A60084A084B1B6823F470
:1003780080231360054B0022DA6000F087F8024BF7
:100388004FF000629A6080BD00ED00E00038024046
:100398001030002480B487B000AF00233B610023F5
:1003A8007B610223FB600023BB6002237B60324B2E
:1003B8009B6803F00C033B613B69042B07D0082BB7
:1003C80009D0002B3FD12D4B2D4A1A603FE02B4B13
:1003D8002C4A1A603BE0284B5B6803F480039B0DB2
:1003E800BB60254B5B6803F03F037B60BB68002B59
:1003F8000DD0244A7B68B2FBF3F21F4B596847F6CD
:10040800C0730B409B0903FB02F37B610CE01C4AA1
:100418007B68B2FBF3F2184B596847F6C0730B4080
:100428009B0903FB02F37B61134B5B6803F44033C6
:100438001B0C01335B00FB607A69FB68B2FBF3F3CA
:100448000E4A136003E00D4B0D4A1A6000BF0A4BB9
:100458009B6803F0F0031B090B4AD35CDBB23B61DA
:10046800064B1A683B6922FA03F3044A13601C37E7
:10047800BD465DF8047B7047003802400400002048
:100488000024F40000127A000800002080B483B031
:1004980000AF00237B6000233B60354A344B1B6868
:1004A80043F480331360324B1B6803F400333B6022
:1004B8007B6801337B603B68002B03D17B68B3F515
:1004C800A04FF0D12A4B1B6803F40033002B02D055
:1004D80001233B6001E000233B603B68012B42D1D4
:1004E800234A234B1B6C43F080531364214A214B4E
:1004F8001B6843F4404313601D4A1D4B9B6893607F
:100508001B4A1B4B9B6843F400439360184A184BE3
:100518009B6843F4A0539360154B174A5A60144ADA
:10052800134B1B6843F08073136000BF104B1B68AC
:1005380003F00073002BF9D0104B40F205721A60DB
:100548000B4A0B4B9B6823F003039360084A084B44
:100558009B6843F00203936000BF054B9B6803F060
:100568000C03082BF9D10C37BD465DF8047B7047A6
:10057800003802400070004008544007003C024028
:1005880080B483B000AF786000E000BF7B685A1E7B
:100598007A60002BF9D10C37BD465DF8047B7047B3
:1005A80080B582B000AF094B1B687B607B68002B6D
:1005B80002D07B68984706E00548212100F080FEBC
:1005C8000448FFF7DDFF0837BD4680BD4C0A002010
:1005D8000048004040420F0080B500AF0348452165
:1005E80000F06EFE0248FFF7CBFF80BD00480040D8
:1005F80040420F0080B582B000AF094B1B687B609A
:100608007B68002B02D07B68984706E005487C2170
:1006180000F056FE0448FFF7B3FF0837BD4680BD1B
:100628006C0A00200048004040420F0080B596B098
:1006380000AF4FF40010012103F090F902200121CE
:1006480003F018F94FF40010012103F049FA4FF4B0
:100658000010002103F044FA4FF40010012103F0C8
:1006680009F94FF4C0733B65022387F8543002231D
:1006780087F85530012387F85630012387F857301B
:1006880007F150035448194603F0B0FC52480821BA
:10069800042204F06BF850480721042204F066F89D
:1006A8004E484F4902F0B8FA4C48002101F06CFE60
:1006B8004A4801F04BFC4FF000733B60494B7B60AC
:1006C80000237B614FF48063BB610023FB6100233F
:1006D8003B6200237B624FF48033BB620423FB62DE
:1006E80003233B6300237B630023BB630023FB607E
:1006F8003D4BBB600E233B61384801F027FC3B466D
:100708003648194601F004FD384B3B640023A7F82E
:1007180044304BF6FF73A7F846300023A7F848305B
:100728000023A7F84A304FF48043A7F84C3007F16C
:1007380040032F48194608F00BFC2D484FF4E061A0
:10074800002209F019F94FF4407001F031FB1F2322
:1007580087F83C300A2387F83D30002387F83E307D
:10076800012387F83F3007F13C03184601F03EFBB0
:10077800202387F83C300A2387F83D30002387F888
:100788003E30012387F83F3007F13C03184601F05B
:100798002DFB12481021002202F0A4FA0B2387F83F
:1007A8003C300A2387F83D30002387F83E30012388
:1007B80087F83F3007F13C03184601F017FB07485C
:1007C8001021012202F08EFA0948012108F09EFC4E
:1007D8005837BD4680BD00BF00040240106002408B
:1007E8003D00801010540040340A0020801A060092
:1007F8000054004080B586B000AF0346B9607A6007
:10080800FB733648012108F005FD00BF3348344921
:1008180009F0E8F80346002BF8D03048D021002230
:1008280008F054FD00BF2D482E4909F0DBF80346B7
:10083800002BF8D0FB7B2948194608F037FF00BF8A
:100848002648294909F0CEF80346002BF8D023485A
:10085800012108F0DFFC00BF2048214909F0C2F857
:100868000346002BF8D01D48D021012208F02EFDA8
:1008780000BF1A481D4909F0B5F80346002BF8D007
:100888007B68012B03D91548012108F04BFD1BE0BB
:100898007B68012B03D11148002108F043FD00BFFC
:1008A8000E48134909F09EF80346002BF8D00B4870
:1008B80008F016FF0346FB75BB685A1CBA60FA7D40
:1008C8001A707B68013B7B607B68002BE0D1034892
:1008D800012108F0CDFC1837BD4680BD005400400A
:1008E80001000300820007008400070002000300E3
:1008F8004000030080B582B000AF444809F0D8F842
:100908007860434B1B683B607B6803F00203002B55
:1009180010D03B68012B06D13E4B1B783B4819464B
:1009280008F0C4FE6EE039484FF4C061002209F0B7
:1009380023F867E03B68012B33D17B6803F004039D
:10094800002B2ED0324B02221A603048012108F0C9
:1009580061FC00BF2D4809F0ABF8034603F0010322
:10096800002BF7D02948D021012208F0AFFC2A4BF0
:100978001B68012B08D92548012108F0D3FC23481E
:10098800012108F09BFF03E02048002108F0CAFC81
:100998001E48012108F064FF2048012101F0F4FC01
:1009A80030E07B6823F44033002B00D12AE01C4858
:1009B8001C4900F09BFC1A481B4900F097FC3B6857
:1009C800DBB21748194600F0BBFC1548174900F080
:1009D8008DFC7B681B0CDBB21148194600F0B0FC9B
:1009E8007B681B0ADBB20E48194600F0A9FC7B683D
:1009F800DBB20B48194600F0A3FC09480C4900F08B
:100A080075FCFEE70837BD4680BD00BF00540040B6
:100A1800700A0020580A0020180A002010600240BE
:100A280000480040CCCC000804CD00080CCD0008DC
:100A380018CD000880B500AF3F48404902F0C2F920
:100A48000346002B22D03C483C4902F019FB3C48A5
:100A58004FF4E061002208F08FFF3948002108F0C8
:100A6800FFFE3548002101F08FFC3548012108F0D0
:100A7800FFFB344B1A68344B1B68104633491A463F
:100A880009F0FEFD324B03221A6054E03148324926
:100A980000F02CFC2F48314900F028FC2C4B1B6837
:100AA800DBB22C48194600F04BFC2A482C4900F0D0
:100AB8001DFC2148214902F085F9034625481946BD
:100AC80000F03EFC2348274900F010FC1A4826494C
:100AD80002F078F903461F48194600F031FC1D481A
:100AE800224900F003FC1448214902F06BF903463F
:100AF8001848194600F024FC16481E4900F0F6FB79
:100B08000D481D4902F05EF903461248194600F0E7
:100B180017FC1048194900F0E9FB0748184902F08A
:100B280051F903460B48194600F00AFC09481549D3
:100B380000F0DCFBFEE780BD106002402080001062
:100B480000540040940A0020180A0020340A0020AB
:100B5800700A0020004800401CCD000804CD0008A1
:100B680044CD00084CCD00081040001054CD0008BA
:100B7800082000105CCD00080410001064CD0008A7
:100B88000100009018CD000880B584B000AF03467E
:100B9800B9607A60FB73164B164A1A60164B174AEF
:100BA8001A60174AFB7B1370164ABB681360164A13
:100BB8007B681360154B01221A601548012108F063
:100BC80029FB00BF124808F073FF034603F0010336
:100BD800002BF7D00E48D021002208F077FB0C48F4
:100BE8004FF44071012208F0C7FE1037BD4680BDA2
:100BF8006C0A00203D0A00084C0A0020FD08000885
:100C0800580A0020940A0020180A0020700A0020C0
:100C18000054004080B584B000AF0346FB71FA79F8
:100C280007F10F03104619460122FFF7E3FDFB7B8E
:100C380018461037BD4680BD80B582B000AF034668
:100C48000A46FB711346BB711C48012108F0E2FA01
:100C580000BF1A481A4908F0C5FE0346002BF8D011
:100C68001648D021002208F031FB00BF134815496F
:100C780008F0B8FE0346002BF8D0FB790F48194658
:100C880008F014FD00BF0D480F4908F0ABFE0346FD
:100C9800002BF8D0BB790948194608F007FD00BFBA
:100CA8000648094908F09EFE0346002BF8D0034881
:100CB800012108F0DDFA0837BD4680BD0054004028
:100CC80001000300820007008400070080B582B09D
:100CD80000AF6B200221FFF7AFFF2848FFF750FC59
:100CE8006B20FFF797FF0346FB71FB79022B00D0BF
:100CF80040E06B208221FFF79FFF2048FFF740FC70
:100D08006B20FFF787FF0346FB71FB79402B00D070
:100D180030E06B200221FFF78FFF1848FFF730FC07
:100D28006B20FFF777FF0346FB71FB79022B00D09E
:100D380020E01A200021FFF77FFF19200721FFF785
:100D48007BFF1B201821FFF777FF1C201821FFF7D6
:100D580073FF23200021FFF76FFF37202021FFF7C3
:100D68006BFF38201121FFF767FF6A200021FFF78A
:100D780063FF00E0ADE70837BD4680BDE09304009F
:100D880080B485B000AF03460A46FB711346BB71B9
:100D9800FB791B029AB2BB799BB213439BB2FB81CE
:100DA800FB891BB218461437BD465DF8047B7047B3
:100DB80080B582B000AF78603B2034490E22FFF73F
:100DC800E3FE00BF324B1B68032BFBD17B68062B6D
:100DD80056D801A252F823F0FD0D0008110E0008A4
:100DE800250E0008390E00084D0E0008610E000897
:100DF800750E0008254B1A78244BDB7910461946E6
:100E0800FFF7BEFF03463CE0204B9A781F4BDB7888
:100E180010461946FFF7B4FF034632E01B4B1A7918
:100E28001A4B5B7910461946FFF7AAFF034628E0DC
:100E3800164B1A7A154B5B7A10461946FFF7A0FF36
:100E480003461EE0114B9A7A104BDB7A104619467E
:100E5800FFF796FF034614E00C4B1A7B0B4B5B7BAA
:100E680010461946FFF78CFF03460AE0074B1A7A2B
:100E7800064B5B7A10461946FFF782FF034600E0EF
:100E880000231BB218460837BD4680BD800A0020E3
:100E9800700A002080B500AF4FF08040012106F0B5
:100EA800B1F90346002B09D04FF08040012106F02C
:100EB80009FA034B1B680133014A136080BD00BF68
:100EC800980A002080B500AF0648012106F09AF97B
:100ED8000346002B05D00348012106F0F3F900F082
:100EE80067FE80BD0000014080B500AF05480121C4
:100EF80006F088F90346002B03D00248012106F0CA
:100F0800E1F980BD0014004080B500AF054801211B
:100F180006F078F90346002B03D00248012106F0B9
:100F2800D1F980BD0004014080B500AF0D4B00220F
:100F38001A6000F069F90C4800F022F80B4800F03C
:100F48001FF80B4800F01CF800F028F9094800F0D9
:100F580061F8094800F05EF8084800F05BF800F016
:100F68007FF880BD980A0020000400400008004077
:100F7800000C004000000140001400400004014043
:100F880080B58AB000AF786000F090F80023BB838A
:100F98000023FB8342F2CF033B620023BB84002380
:100FA80087F8263007F11C037868194603F010FD0E
:100FB8007868012104F0FEF860233B8101237B81DE
:100FC8000023BB8200233B6107F1080378681946B8
:100FD80004F00AFA7868082104F09AFE00233B61BD
:100FE80007F108037868194604F0BAFA7868082106
:100FF80004F0CAFE00233B6107F10803786819462C
:1010080004F062FB7868082104F0F0FE2837BD463A
:1010180080BD00BF80B586B000AF786040F247332E
:10102800BB810023FB814FF4FA733B610023BB8231
:101038000023BB7507F10C037868194603F0C8FC58
:101048007868012106F03EF978680121012205F04F
:101058007BFF7868012104F0ADF81837BD4680BDE4
:1010680080B584B000AF5323BB800023FB8064238A
:10107800BB600023BB810023BB733B1D4FF0804046
:10108800194603F0A5FC4FF08040012106F01AF93B
:101098004FF080400121012205F056FF4FF08040BB
:1010A800012104F087F81037BD4680BD80B582B0B5
:1010B80000AF37480721022203F058FB34480821C3
:1010C800022203F053FB32480921022203F04EFBAF
:1010D80030480D21022203F049FB2E480E2102223E
:1010E80003F044FB2B480F21022203F03FFB2A4860
:1010F8000221022203F03AFB27480321022203F0CF
:1011080035FB25480421022203F030FB4FF46073BD
:101118003B600023BB710023FB7102233B71032357
:101128007B713B461A48194602F060FF4FF4604352
:101138003B600023BB710023FB7102233B71032337
:101148007B713B461348194602F050FF1C233B6055
:101158000023BB710023FB7102233B7103237B71C6
:101168003B460D48194602F041FF4FF480533B605F
:101178000023BB710023FB7101233B7103237B71A7
:101188003B460448194602F031FF0837BD4680BD8A
:1011980000040240000C02400000024080B582B00A
:1011A80000AF1C233B7100237B710123BB7101231A
:1011B800FB713B1D184600F019FE37233B710023D5
:1011C8007B710123BB710123FB713B1D184600F0A5
:1011D8000DFE19233B7100237B710123BB71012391
:1011E800FB713B1D184600F001FE2C233B710023C8
:1011F8007B710123BB710123FB713B1D184600F075
:10120800F5FD0837BD4680BD80B500AF0B20012134
:1012180002F030FB2F20012102F0A0FB0320012166
:1012280002F0C2FB80BD00BF80B400AF034B1B6857
:101238001846BD465DF8047B704700BF980A002039
:1012480080B586B000AF4FF48020012102F086FB04
:101258000820012102F00EFB4FF480733B6102234A
:101268003B7502237B750023BB750123FB7507F1D2
:1012780010031148194602F0B9FE0F480821072249
:1012880003F074FA4FF4E1333B600023BB80002382
:10129800FB8000233B810023BB8108237B813B46E5
:1012A8000648194606F072FD0448012106F0CAFEF8
:1012B8001837BD4680BD00BF000C02400048004002
:1012C80080B582B000AF7860396000BF7B681B884A
:1012D8009BB203F04003002BF8D03B689BB27868C0
:1012E800194606F0C9FF0837BD4680BD80B582B0F3
:1012F80000AF7860396007E03B685A1C3A601B7899
:1013080078681946FFF7DCFF3B681B78002BF3D1A0
:101318000837BD4680BD00BF80B582B000AF786099
:1013280039603B68092B02D93B68373301E03B68D9
:10133800303378681946FFF7C3FF0837BD4680BDCC
:1013480080B582B000AF78600B46FB70FB781B0954
:10135800DBB278681946FFF7DFFFFB7803F00F036D
:1013680078681946FFF7D8FF0837BD4680BD00BF2B
:1013780080B58AB000AF7860396007F10C037B62F2
:10138800214B3B6205E03B6A204AA2FB0323DB08B2
:101398003B623A6A3B689A4202D93B6A012BF2D80F
:1013A8003A683B6AB2FBF3F3FB617B6A5A1C7A62C8
:1013B800FA69D2B23032D2B21A70FB693A6A02FBC9
:1013C80003F33A68D31A3B603B6A104AA2FB032333
:1013D800DB083B623B6A002BE2D17B6A5A1C7A62CB
:1013E8000D221A707B6A5A1C7A620A221A707B6A6A
:1013F80000221A7007F10C0378681946FFF776FF88
:101408002837BD4680BD00BF00CA9A3BCDCCCCCCA6
:1014180080B582B000AF786039603B68002B0ADA8B
:1014280078682D21FFF74CFF3B685B4278681946C6
:10143800FFF79EFF04E03B6878681946FFF798FFBE
:101448000837BD4680BD00BF80B588B000AFF860E2
:1014580087ED020A79603A60D7ED027AF5EE407AB4
:10146800F1EE10FA07D1FB6830221A70FB680133DD
:1014780000221A70B4E0D7ED027AF5EEC07AF1EEE8
:1014880010FA0AD5FB685A1CFA602D221A70D7ED9B
:10149800027AF1EE677AC7ED027A7B6807EE903A36
:1014A800F8EE677AB2EE040AF0EE670A09F0CAFEAF
:1014B80087ED070A97ED027AD7ED077AB4EEE77A57
:1014C800F1EE10FA07DBFB6823221A70FB68013380
:1014D80000221A7084E00123FB7643E0D7ED077AF7
:1014E800B2EE047AC7EE877AC7ED077A97ED027AEB
:1014F800D7ED077AC7EE277AFCEEE77A17EE903A2F
:101508007B61FB7E002B11D07B69002B0ED1D7EDC0
:10151800077AB2EE047AF4EEC77AF1EE10FA05DB38
:10152800FB685A1CFA6020221A7018E00023FB7628
:10153800FB685A1CFA607A69D2B23032D2B21A7099
:101548007B6907EE903AB8EE677AD7ED077A67EECF
:10155800277A97ED027A77EE677AC7ED027A7B6889
:10156800013B7B607B68002BB8D13B68002B05D121
:10157800FB685A1CFA6000221A7031E0FB685A1C9A
:10158800FA602E221A70D7ED027AB2EE047A67EE6C
:10159800877AC7ED027AD7ED027AFCEEE77A17EE82
:1015A800903A7B61FB685A1CFA607A69D2B2303291
:1015B800D2B21A707B6907EE903AF8EE677A97ED27
:1015C800027A77EE677AC7ED027A3B68013B3B60A7
:1015D8003B68002BD7D1FB685A1CFA6000221A70AE
:1015E8002037BD4680BD00BF80B58CB000AFF86025
:1015F80087ED020A79603A6007F11403FB62F86A22
:1016080097ED020A79683A68FFF71EFF02E0FB6A65
:101618000133FB62FB6A1B78002BF8D1FB6A0022BE
:101628001A7007F11403F8681946FFF75FFE3037A0
:10163800BD4680BD0000000080B500AF134B0022FE
:101648001A60134B00221A60124B4FF000021A6006
:10165800114B00221A60114B78221A600E4BF022AF
:101668001A600F4B4FF000021A600E4B4FF0000249
:101678001A600D4B4FF000021A600C480C49FFF736
:1016880035FE0A480B49FFF731FE80BD200A0020CD
:10169800600A0020440A00209C0A0020900A0020CA
:1016A800280A0020780A00205C0A00200048004030
:1016B8006CCD00089CCD000880B582B000AF786082
:1016C800594B1B687A68D31A1D2B05D9564A7B6873
:1016D800136000F0C3F89CE0544B1B687A68D31A77
:1016E800312B40F29680514A7B6813604F4B1B6840
:1016F800184608F065FC02460B461046194646A3F4
:10170800D3E9002308F0FCFD02460B4610461946B3
:101718004FF00002464B08F04FFF0346002B1DD048
:10172800424B1B68184608F04BFC02460B46104615
:10173800194639A3D3E9002308F0E2FD02460B4617
:101748001046194636A3D3E9002308F02BFF0346B9
:10175800002B03D037483849FFF7C8FD334B1B68C7
:1017680007EE903AF8EE677A9FED347AC7EE877AFB
:101778003048B0EE670A05210422FFF735FF2D48EF
:101788002F49FFF7B3FD2F4BD3ED007A2948B0EE70
:10179800670A03210322FFF727FF26482849FFF796
:1017A800A5FD294BD3ED007A2248B0EE670A032144
:1017B8000322FFF719FF1F482149FFF797FD234B25
:1017C800D3ED007A1B48B0EE670A03210322FFF726
:1017D8000BFF18481A49FFF789FD1D4BD3ED007A16
:1017E8001448B0EE670A03210322FFF7FDFE1148F3
:1017F8001349FFF77BFD174BD3ED007A0D48B0EE88
:10180800670A05210322FFF7EFFE0A481249FFF78E
:101818006DFD0837BD4680BD000000000088C3404C
:101828009A99999999193E40200A0020600A002047
:1018380000003E4000480040B4CD000800401C466F
:10184800C0CD0008740A0020680A00201C0A002085
:10185800540A0020A80A0020C4CD00082DE9B0438E
:1018680000AF0020FFF7A4FA034607EE903AF8EE1F
:10187800E77A9FED9F7AC7EE877A9E4BC3ED007A91
:101888000120FFF795FA034607EE903AF8EEE77A5B
:101898009FED977AC7EE877A974BC3ED007A0220BF
:1018A800FFF786FA034607EE903AF8EEE77A9FEDDF
:1018B800907AC7EE877A914BC3ED007A0320FFF741
:1018C80077FA034607EE903AF8EEE77A9FED8C7ABE
:1018D800C7EE877A8B4BC3ED007A0420FFF768FACE
:1018E800034607EE903AF8EEE77A9FED857AC7EE61
:1018F800877A854BC3ED007A0520FFF759FA03462E
:1019080007EE903AF8EEE77A9FED7D7AC7EE877A90
:101918007E4BC3ED007A0620FFF74AFA034607EE2E
:10192800903AF8EEE77A9FED7A7AC7EE877A9FEDDC
:10193800797A77EE877A784BC3ED007A6D4B1B681E
:10194800184608F05FFB04460D466B4B1B681846AB
:1019580008F058FB02460B4643EC102B9FED601B2A
:1019680009F072FA59EC108B644B1B68184608F0A2
:1019780049FB02460B4643EC102B9FED591B09F01F
:1019880063FA53EC102B4046494608F0DDF902464D
:101998000B4643EC172BB0EE470AF0EE670A09F046
:1019A800F3FB53EC102B2046294608F0A9FC02460D
:1019B8000B4643EC172BB0EE470AF0EE670A09F026
:1019C80087F853EC102B1046194608F009FE034619
:1019D800184608F017FB02460B46104619464FF00A
:1019E80000024E4B08F062FB02460B4610461946B1
:1019F8003DA3D3E9002308F083FC02460B461046BA
:101A0800194608F0EDFD0246454B1A603A4B1B6833
:101A1800184608F0F7FA04460D46364B1B68184678
:101A280008F0F0FA02460B4643EC102B9FED2C1BF6
:101A380009F00AFA59EC108B304B1B68184608F06D
:101A4800E1FA02460B4643EC102B9FED251B09F0EB
:101A5800FBF953EC102B4046494608F075F902464D
:101A68000B4643EC172BB0EE470AF0EE670A09F075
:101A78008BFB53EC102B2046294608F041FC02460C
:101A88000B4643EC172BB0EE470AF0EE670A09F055
:101A98001FF853EC102B1046194608F0A1FD034619
:101AA800184608F0AFFA02460B46104619464FF0A2
:101AB80000021A4B08F0FAFA02460B46104619467D
:101AC80009A3D3E9002308F01BFC02460B46104685
:101AD800194608F085FD0246124B1A60BDE8B0832E
:101AE8000000000000000040182D4454FB2109406C
:101AF800000000451C0A0020540A0020A00A00200B
:101B0800E926D13F7C0A0020480A0020A80A0020C4
:101B18000000AA43B81E1242300A00200080664026
:101B2800740A0020680A002080B582B000AF87EDF3
:101B3800010A0F4B1B68184608F042FA02460B468A
:101B4800104619464FF000020A4B08F0D9FB02462E
:101B58000B461046194608F043FD07EE100AD7ED6C
:101B6800017A67EE277AB0EE670A0837BD4680BD6E
:101B7800200A00200000594080B400AF044B1B68C5
:101B880007EE903AB0EE670ABD465DF8047B7047F1
:101B9800740A002080B400AF044B1B6807EE903A2B
:101BA800B0EE670ABD465DF8047B7047680A0020FE
:101BB80080B500AF00F0C6F80346012B0FD14F4B9C
:101BC8001B6801334D4A13604D4B1B6801334C4A67
:101BD80013604C4B1B6801334A4A136014E000F051
:101BE800B1F80346B3F1FF3F0ED1444B1B68013BEC
:101BF800424A1360424B1B68013B414A1360414B08
:101C08001B68013B3F4A13603C4B1B68B3F5B47F2C
:101C180002DB3A4B00221A60394B1B68B3F5B47FDC
:101C280002DB374B00221A60364B1B68B3F5B47FD2
:101C380002DB344B00221A60304B1B68002B03DA9E
:101C48002E4B40F267121A602D4B1B68002B03DAEB
:101C58002B4B40F267121A602A4B1B68002B03DAE1
:101C6800284B40F267121A60244B1B68264A9B00D7
:101C78001344D3ED007A9FED257A67EE877A244BDB
:101C8800C3ED007A1E4B1B681F4A9B001344D3ED1B
:101C9800007A9FED1E7A67EE877A1E4BC3ED007AB5
:101CA800184B1B68184A9B001344D3ED007A9FED2C
:101CB800177A67EE877A184BC3ED007A144BD3ED89
:101CC800007AFCEEE77A154817EE901A03F06EFEDC
:101CD800104BD3ED007AFCEEE77A104817EE901A15
:101CE80003F090FE0C4BD3ED007AFCEEE77A0B483C
:101CF80017EE901A03F0AAFE80BD00BF9C0A0020D0
:101D0800900A0020A40A002018000020003C034686
:101D1800280A0020780A00205C0A002000080040F9
:101D280080B400AF054B4FF000021A60044B4FF02F
:101D380000021A60BD465DF8047B7047500A002017
:101D48002C0A002080B52DED028B00AF124B93EDCD
:101D5800008AFFF711FFF0EE407A78EE677AF5EE29
:101D6800C07AF1EE10FA01DD012310E00A4B93ED81
:101D7800008AFFF701FFF0EE407A78EE677AF5EE19
:101D8800C07AF1EE10FA02D54FF0FF33FFE718469C
:101D9800BD46BDEC028B80BD500A0020A4CF0008D0
:101DA80000000020F8090020FC090020AC0A0020EF
:101DB800B0F5C06F10B504460DD020F48073B3F5AC
:101DC800806F08D020F48063B3F5407F03D00548C6
:101DD8007921FEF777FA44F0BF60034B40F40030F6
:101DE800D86010BDC8CD000800ED00E0F8B5C37894
:101DF800012B044603D922488D21FEF763FA637844
:101E08000F2B38D8A3780F2B30D8E3785BB9237819
:101E18001C485A09203203F01F03012101FA03F379
:101E280040F82230F8BD184B6578D968A278207838
:101E3800144EC943C1F30221C1F10407FFB20F23B5
:101E48000B41BD40E9B213400B4300F1604202F57B
:101E580061421B01DBB282F800332378012203F0D0
:101E68001F015B098A4046F82320F8BD04488F21EA
:101E7800FEF728FAC9E702488E21FEF723FAC1E7E0
:101E8800C8CD000800E100E000ED00E0B0F1005F1F
:101E980038B505460C4606D0B0F1006F03D00948A6
:101EA800B721FEF70FFA084B9C4203D90548B82121
:101EB800FEF708FA24F0604121F07F01034B294323
:101EC800996038BDC8CD0008FEFF0F0000ED00E0A6
:101ED800102838B504460D4607D0042805D0022836
:101EE80003D00B48CA21FEF7EDF9012D08D908489F
:101EF800CB21FEF7E7F9074A13691C43146138BD83
:101F0800002DF8D1034A136923EA0404146138BD8B
:101F1800C8CD000800ED00E0042808B50BD0053056
:101F280003D00848E221FEF7CDF9074A136823F0E9
:101F38000403136008BD044A136843F004031360E4
:101F480008BD00BFC8CD000810E000E038B5684BF8
:101F5800984256D01833984263D01833984269D0C3
:101F6800183398426FD0183398423AD018339842B1
:101F780072D01833984273D01833984200F0868094
:101F880003F55673984200F08A80183398426BD054
:101F98001833984200F086801833984200F09480F5
:101FA8001833984200F099801833984200F09980CD
:101FB8001833984200F09980183398427BD0044631
:101FC800C7214C48FEF77EF92268002322F001025F
:101FD8002121226023606360A360E3602361616163
:101FE80038BD02684449454C22F0010200232125EE
:101FF8000260036043608360C36003614561CC6035
:1020080038BD02683C4922F00102002321253D2405
:102018000260036043608360C360036145618C6054
:1020280038BD0268344922F00102002321254FF40B
:102038007464EDE70268304922F00102002321258B
:102048004FF47414E4E702682B4922F001020023DC
:1020580021254FF07464DBE702682749284CC3E761
:1020680002682549274CBFE7274B284819680022F2
:1020780021F0010121254FF4746419601A605A6037
:102088009A60DA601A615D61846038BD02681A4935
:1020980022F00102002321254FF03D54A8E70268F1
:1020A8001A49B0E70268194922F0010200232125E4
:1020B8004FF47414ACE70268144922F001020023BB
:1020C80021254FF03D5493E70268104922F00102A0
:1020D800002321254FF074649AE702680B49074CE6
:1020E80082E702680949064C7EE702680749B9E7B2
:1020F80010600240E0CD0008006002403D00002072
:10210800400F002000003D20286402400064024087
:102118002DE9F047904B984282B08146884632D0EC
:10212800183398422FD0183398422CD0183398423D
:1021380029D01833984226D01833984223D0183320
:10214800984220D0183398421DD003F55673984210
:1021580019D01833984216D01833984213D0183330
:10216800984210D0183398420DD0183398420AD0AC
:102178001833984207D01833984204D077484FF460
:10218800A271FEF79FF8D8F8003033F0C06307D08B
:10219800B3F1006F04D0714840F24511FEF792F890
:1021A800D8F80C3033F0400206D0802B04D06B48AE
:1021B8004FF4A371FEF786F8D8F810304FF6FE7288
:1021C800013B934200F2A680D8F8143033F4007330
:1021D80040F0AB80D8F8183033F4806340F0B0801A
:1021E800D8F81C3033F4006207D0B3F5805F04D010
:1021F8005A484FF4A571FEF765F8D8F8203033F443
:10220800005207D0B3F5804F04D0544840F24B1128
:10221800FEF758F8D8F8243033F4807304D04F48C8
:102228004FF4A671FEF74EF8D8F8283033F440334F
:1022380040F08C80D8F82C3033F0040304D04748A1
:102248004FF4A771FEF73EF8D8F83030032B5BD86F
:10225800D8F8347037F0C07347D040484FF4A871AD
:10226800FEF730F8D8F838C03CF4C00342D1D8F8AB
:102278003470D8F80060D8F81450D8F81840D9F855
:1022880000A0DFF8DCE008F11C000FC80193D8F8C3
:102298000C301E4335432C4320430143019BD8F89F
:1022A8003050D8F81040D8F804000A4313433B4391
:1022B8000AEA0E0E43EA0E0E4EEA0C03C9F8003085
:1022C800D9F81420D8F82C30D8F8081022F00702D2
:1022D8002B431343C9F81430C9F80440C9F808005F
:1022E800C9F80C1002B0BDE8F087D8F838C03CF443
:1022F800C003BED0194840F25111FDF7E3FFD8F8EA
:1023080038C0D8F83470B4E7144840F24F11FDF7DC
:10231800D9FF9DE7114840F24711FDF7D3FFD8F8E0
:10232800143033F400733FF455AF0C484FF4A471E4
:10233800FDF7C8FFD8F8183033F480633FF450AF86
:10234800064840F24911FDF7BDFF49E7034840F24E
:102358004D11FDF7B7FF6DE710600240E0CD0008B2
:102368003F801CF00023036043608360C360036107
:1023780043618361C361036243628362C36203632F
:1023880043638363704700BF38B5254B98420446C2
:102398000D4632D0183398422FD0183398422CD09B
:1023A8001833984229D01833984226D018339842C7
:1023B80023D01833984220D0183398421DD003F503
:1023C8005673984219D01833984216D01833984249
:1023D80013D01833984210D0183398420DD01833C0
:1023E80098420AD01833984207D01833984204D03C
:1023F8000C4840F2E111FDF765FF012D09D90948A4
:102408004FF4F171FDF75EFF236843F00103236089
:1024180038BD002DF8D1236823F00103236038BDAF
:1024280010600240E0CD000838B5254B98420446BC
:102438000D4632D0183398422FD0183398422CD0FA
:102448001833984229D01833984226D01833984226
:1024580023D01833984220D0183398421DD003F562
:102468005673984219D01833984216D018339842A8
:1024780013D01833984210D0183398420DD018331F
:1024880098420AD01833984207D01833984204D09B
:102498000C4840F20521FDF715FF65B1B5F5004F71
:1024A80004D0084840F20621FDF70CFF236843F4E6
:1024B8000043236038BD236823F40043236038BDFC
:1024C80010600240E0CD000838B5254B984204461C
:1024D8000D4632D0183398422FD0183398422CD05A
:1024E8001833984229D01833984226D01833984286
:1024F80023D01833984220D0183398421DD003F5C2
:102508005673984219D01833984216D01833984207
:1025180013D01833984210D0183398420DD018337E
:1025280098420AD01833984207D01833984204D0FA
:102538000C4840F22921FDF7C5FE5DB1202D04D0DD
:10254800084840F22A21FDF7BDFE236843F0200326
:10255800236038BD236823F02003236038BD00BF03
:1025680010600240E0CD000838B51D4B9842044683
:102578000D4632D0183398422FD0183398422CD0B9
:102588001833984229D01833984226D018339842E5
:1025980023D01833984220D0183398421DD003F521
:1025A8005673984219D01833984216D01833984267
:1025B80013D01833984210D0183398420DD01833DE
:1025C80098420AD01833984207D01833984204D05A
:1025D800044840F27B21FDF775FE656038BD00BFF9
:1025E80010600240E0CD00081D4B984210B504462B
:1025F80032D0183398422FD0183398422CD0183341
:10260800984229D01833984226D01833984223D0BC
:102618001833984220D0183398421DD003F55673CA
:10262800984219D01833984216D01833984213D0CC
:102638001833984210D0183398420DD01833984266
:102648000AD01833984207D01833984204D0054866
:1026580040F28A21FDF736FE606880B210BD00BFE7
:1026680010600240E0CD000830B5294B984283B095
:1026780004460D4634D01833984231D01833984266
:102688002ED0183398422BD01833984228D01833BC
:10269800984225D01833984222D0183398421FD038
:1026A80003F5567398421BD01833984218D0183344
:1026B800984215D01833984212D0183398420FD048
:1026C800183398420CD01833984209D018339842DE
:1026D80006D01048019240F2DE21FDF7F3FD019A81
:1026E80072B1B2F5002F04D00A4840F2DF21FDF79D
:1026F800E9FD236843F400232360256103B030BD5E
:10270800236823F400232360256103B030BD00BF94
:1027180010600240E0CD000838B5254B98420446C9
:102728000D4632D0183398422FD0183398422CD007
:102738001833984229D01833984226D01833984233
:1027480023D01833984220D0183398421DD003F56F
:102758005673984219D01833984216D018339842B5
:1027680013D01833984210D0183398420DD018332C
:1027780098420AD01833984207D01833984204D0A8
:102788000C484FF43F71FDF79DFD012D09D909480B
:1027980040F2FD21FDF796FD236843F48023236072
:1027A80038BD002DF8D1236823F48023236038BD79
:1027B80010600240E0CD000830B5254B984283B048
:1027C80004460D4634D01833984231D01833984215
:1027D8002ED0183398422BD01833984228D018336B
:1027E800984225D01833984222D0183398421FD0E7
:1027F80003F5567398421BD01833984218D01833F3
:10280800984215D01833984212D0183398420FD0F6
:10281800183398420CD01833984209D0183398428C
:1028280006D00C48019240F22631FDF74BFD019A83
:1028380052B1B2F5002F04D0064840F22731FDF717
:1028480041FD256103B030BDE56003B030BD00BF78
:1028580010600240E0CD00081D4B984210B50446B8
:1028680032D0183398422FD0183398422CD01833CE
:10287800984229D01833984226D01833984223D04A
:102888001833984220D0183398421DD003F5567358
:10289800984219D01833984216D01833984213D05A
:1028A8001833984210D0183398420DD018339842F4
:1028B8000AD01833984207D01833984204D00548F4
:1028C80040F24131FDF7FEFC2068C0F3C04010BD66
:1028D80010600240E0CD00081D4B984210B5044638
:1028E80032D0183398422FD0183398422CD018334E
:1028F800984229D01833984226D01833984223D0CA
:102908001833984220D0183398421DD003F55673D7
:10291800984219D01833984216D01833984213D0D9
:102928001833984210D0183398420DD01833984273
:102938000AD01833984207D01833984204D0054873
:102948004FF46D71FDF7BEFC206800F0010010BD6A
:1029580010600240E0CD00081D4B984210B50446B7
:1029680032D0183398422FD0183398422CD01833CD
:10297800984229D01833984226D01833984223D049
:102988001833984220D0183398421DD003F5567357
:10299800984219D01833984216D01833984213D059
:1029A8001833984210D0183398420DD018339842F3
:1029B8000AD01833984207D01833984204D00548F3
:1029C80040F2D631FDF77EFC606900F0380010BD9A
:1029D80010600240E0CD000838B5834B98420546A8
:1029E8000C4600F0F6801833984200F0D88018336F
:1029F800984200F0D4801833984200F0D080183301
:102A0800984200F0CC801833984200F0C880183300
:102A1800984200F0C4801833984200F0C08003F553
:102A28005673984200F0CF801833984200F0CB805C
:102A38001833984200F0C7801833984200F0C380DA
:102A48001833984200F0BF801833984200F0BB80DA
:102A58001833984200F0B7801833984200F0B380DA
:102A6800624840F2F331FDF72DFC614B9C4200F0C7
:102A78009C80604B9C4200F09880083B9C4200F090
:102A880094805D4B9C4200F09080033B9C4200F098
:102A98008C805A4B9C4200F08880A3F580639C424E
:102AA80000F08380A3F500739C427ED0A3F5807369
:102AB8009C427AD0C03B9C4277D0B4F1815F74D0FD
:102AC8004F4B9C4271D0A3F500239C426DD0A3F5D7
:102AD80080239C4269D0A3F540339C4265D0B4F171
:102AE800C05F62D0B4F1A05F5FD0B4F1905F5CD0FA
:102AF800B4F1885F59D0B4F1825F56D0414B9C4203
:102B08006CD0103B9C4269D0083B9C4266D0043B89
:102B18009C4263D0033B9C4260D003F2FF739C420B
:102B28005CD0A3F580639C4258D0A3F500739C4207
:102B380054D0A3F580739C4250D0C03B9C424DD0EA
:102B4800314B9C424AD0A3F580139C4246D0A3F552
:102B580000239C4242D0A3F580239C423ED0A3F59B
:102B680040339C423AD0B4F1205F37D0B4F1105FC3
:102B780034D0B4F1085F31D0B4F1045F2ED0B4F191
:102B8800015F2BD019484FF47D71FDF79BFB1F4B5C
:102B98009D4208D91E4BA2000BD55B680AE0144B76
:102BA8009C427FF466AF1B4BF5E7184B9D42F1D86A
:102BB800184B1B6824F0F02424F082141C4214BF24
:102BC8000120002038BD0A4B9C427FF452AF104BC5
:102BD800EFE7074B99427FF44CAFE9E70B4B9D4277
:102BE800D8D80C4BD9E700BF10600240E0CD0008F0
:102BF80020000010100000100400801000080010D1
:102C08000000101020000020000020200F64024067
:102C1800006402400060024038B52C4B98420546DB
:102C28000C4632D0183398422FD0183398422CD003
:102C38001833984229D01833984226D0183398422E
:102C480023D01833984220D0183398421DD003F56A
:102C58005673984219D01833984216D018339842B0
:102C680013D01833984210D0183398420DD0183327
:102C780098420AD01833984207D01833984204D0A3
:102C8800134840F23441FDF71DFB04F04053B3F103
:102C9800405F00D0ABB90E4840F23541FDF712FB5A
:102CA8000C490D4B0D4A8D4294BF1D46154614F034
:102CB800005F24F0F02424F0821414BFEC60AC60B0
:102CC80038BD074B2340002BEAD0E4E710600240F0
:102CD800E0CD00080F64024000600240006402403A
:102CE80082F002C0354B984270B504460D46164630
:102CF80032D0183398422FD0183398422CD018333A
:102D0800984229D01833984226D01833984223D0B5
:102D18001833984220D0183398421DD003F55673C3
:102D2800984219D01833984216D01833984213D0C5
:102D38001833984210D0183398420DD0183398425F
:102D48000AD01833984207D01833984204D01C4848
:102D580040F26141FDF7B6FA35F09E0316D1ADB1E8
:102D6800012E04D9164840F26341FDF7ABFA2B0651
:102D780012D56369DEB143F08003802D636115D0FD
:102D8800236805F01E051D43256070BD0C4840F200
:102D98006241FDF797FAE3E7802D07D0002EEFD1C7
:102DA800236805F01E0523EA0505256070BD23F09C
:102DB8008003802D6361F3D170BD00BF10600240B5
:102DC800E0CD000838B5904B984204460D4659D0DE
:102DD8001833984256D01833984253D01833984233
:102DE80050D0183398424DD0183398424AD01833EF
:102DF800984247D01833984244D003F55673984206
:102E080000F0ED801833984200F0E98018339842BA
:102E180000F0E5801833984200F0E18018339842BA
:102E280000F0DD801833984200F0D98018339842BA
:102E380000F0D5801833984200F0D180734840F2F2
:102E48009941FDF73FFA724B9D421FD1714B9C424D
:102E580040F2BC80704925F0F02323F0C312002A09
:102E680040F0B780606900F08002A8004CBF486855
:102E7800086823F08213184000F0A780101C18BFC0
:102E8800012038BD624B9D4200F0AE80634B9D42ED
:102E9800DCD0A3F50053083B9D42D7D0604B9D4240
:102EA800D4D0604B9D4200F0A7805F4B9D42CDD0AF
:102EB800A3F588439D42C9D0A3F508539D42C5D0C8
:102EC800A3F588539D42C1D0584B9D4200F0948091
:102ED800574B9D42BAD0A3F582139D42B6D0A3F5B5
:102EE80002239D42B2D0A3F582239D42AED0514B1E
:102EF8009D4200F08180504B9D42A7D04F4B9D4290
:102F0800A4D04F4B9D42A1D04E4B9D429ED04E4BDC
:102F18009D4271D04D4B9D4298D0A3F58043103B04
:102F28009D4293D04A4B9D4290D0A3F58053043BD9
:102F38009D428BD0474B9D425ED0474B9D4285D0EA
:102F4800A3F588439D4281D0A3F508539D423FF4E1
:102F58007DAFA3F588539D423FF478AF3F4B9D4228
:102F68004AD03F4B9D423FF471AFA3F582139D4277
:102F78003FF46CAFA3F502239D423FF467AFA3F57E
:102F880082239D423FF462AF364B9D4234D0364B8C
:102F98009D423FF45BAF354B9D423FF457AF344BF6
:102FA8009D423FF453AF334B9D423FF44FAF324BFA
:102FB8009D4221D0154840F29A41FDF783F9154BFF
:102FC8009C423FF647AF2D4945E738BD2B4925F0D0
:102FD800F023206800F01E0000EAD52245E70C4BDC
:102FE8009D427FF453AF35E72068244900F01E0066
:102FF800202300EAD52238E7064B9C423FF62AAF49
:103008001E4925F0F0232DE710600240E0CD0008AE
:10301800208000100F64024000640240104000103D
:10302800041000100100009000880010400000907B
:10303800008020100000019000800018004000145B
:103048000020001200100011000040902080002095
:1030580008200020010000A000880020400000A0F7
:1030680000802020000001A00080002800400024EB
:103078000020002200100021000040A00060024053
:1030880038B52C4B984205460C4632D01833984236
:103098002FD0183398422CD01833984229D018339F
:1030A800984226D01833984223D01833984220D01B
:1030B800183398421DD003F55673984219D0183327
:1030C800984216D01833984213D01833984210D02B
:1030D800183398420DD0183398420AD018339842C2
:1030E80007D01833984204D0134840F2E941FDF75D
:1030F800E9F804F04053B3F1405F00D0ABB90E4893
:1031080040F2EA41FDF7DEF80C490D4B0D4A8D42BD
:1031180094BF1D46154614F0005F24F0F02424F0F7
:10312800821414BFEC60AC6038BD074B2340002B01
:10313800EAD0E4E710600240E0CD00080F640240E6
:103148000060024000640240820082400F4B104839
:103158001A68002142F0010230B41A6099601A68B6
:103168000C4D0D4C22F0A85222F410221A605D601A
:10317800C3F88440C3F888001A6822F480221A60D1
:1031880030BCD960C3F88C10704700BF00380240CB
:10319800003000241030002400300020012810B531
:1031A800044606D9052804D0044840F21F11FDF74B
:1031B80089F8034B00221A701C7010BD00CE00085D
:1031C800023802401F2810B5044604D9064840F2C8
:1031D8005711FDF777F8054B186820F0F80040EA1A
:1031E800C400186010BD00BF00CE000800380240BF
:1031F800012810B5044604D903484FF4BD71FDF702
:1032080061F8024B1C6010BD00CE00080000474268
:10321800012810B5044606D904280DD00B4840F201
:103228009311FDF74FF80A4B0022012C1A701A70FF
:103238000AD0042C04D010BD054B00221A701A7055
:10324800034B05221A7010BD1C7010BD00CE00087B
:1032580070380240012810B5044604D9034840F2EA
:10326800BB11FDF72FF8024B1C6010BD00CE000803
:10327800800E47422DE9F0411D4630F48003064692
:103288000C469046069F04D01C4840F21E21FDF7CC
:1032980019F83F2C2CD8A8F13203B3F5BF7F21D8F9
:1032A80025F00403022B08D0042D06D0082D04D0E5
:1032B800124840F22121FDF705F83B1F0B2B04D9DA
:1032C8000E4840F22221FCF7FDFF44EA88126D08FF
:1032D80042EA07626C1E42EA0444094B34435C60CC
:1032E800BDE8F08105484FF40871FCF7EBFFD7E71C
:1032F800024840F21F21FCF7E5FFCCE700CE0008AA
:1033080000380240012810B5044604D9034840F2A9
:103318003621FCF7D7FF024B1C6010BD00CE000819
:103328006000474238B5A0F13203B3F5BF7F0546C8
:103338000C460ED8A31E052B04D9094840F2552186
:10334800FCF7C0FF2407074B44EA8514C3F8844000
:1033580038BD03484FF41571FCF7B4FFEAE700BF26
:1033680000CE000800380240012810B5044604D9F0
:10337800034840F2DF21FCF7A5FF024B1C6010BD9B
:1033880000CE000868004742A0F13203B3F5BF7FC2
:1033980070B505460C46164619D8B31E052B10D82D
:1033A800A31E0D2B04D90D4840F24E31FCF78AFFBD
:1033B800200640EA06700A4B40EA8510C3F88800E8
:1033C80070BD064840F24D31FCF77CFFE8E7034842
:1033D8004FF45371FCF776FFDFE700BF00CE00081B
:1033E80000380240012810B5044604D903484FF4B8
:1033F8005871FCF767FF024B1C6010BD00CE000837
:1034080070004742012810B5044604D9034840F229
:103418007231FCF757FF024B1C6010BD00CE00084C
:103428004C00474238B530F4C00304460D4604D07A
:103438000E4840F28D31FCF745FF35F080630CD023
:1034480025F00073B3F1A06F07D0B5F1C06F04D0B9
:10345800064840F28E31FCF735FF054B996821F09C
:10346800EC6129432143996038BD00BF00CE0008B4
:103478000038024038B520F0404304460D4623B1D9
:103488000E4840F2BA31FCF71DFF35F000530CD05E
:1034980025F08053B3F1205F07D0B5F1405F04D029
:1034A800064840F2BB31FCF70DFF054B996821F047
:1034B800784129432143996038BD00BF00CE0008F8
:1034C80000380240022810B5044604D9054840F2E5
:1034D8008241FCF7F7FE044B986820F00300204374
:1034E800986010BD00CE000800380240024B986872
:1034F80000F00C00704700BF0038024030F0800335
:1035080010B5044612D020F02003902B0ED020F0E6
:103518004003A02B0AD020F01003C02B06D0F028BF
:1035280004D006484FF49761FCF7CCFE044B98682A
:1035380020F0F0002043986010BD00BF00CE0008C6
:103548000038024030F4805310B504460CD020F403
:103558000063B3F5A05F07D0B0F5C05F04D006489C
:1035680040F2D741FCF7AEFE044B986820F4E050D7
:103578002043986010BD00BF00CE0008003802400C
:1035880030F4805310B504460CD020F40063B3F532
:10359800A05F07D0B0F5C05F04D0064840F2F641FE
:1035A800FCF790FE044B986820F4604040EAC400A1
:1035B800986010BD00CE00080038024010B4214CBD
:1035C800A36803F00C03042B1BD0082B1CD01E4B44
:1035D80003601C4A1D499468C4F303140C5DE3405E
:1035E80043609468C4F382240C5D23FA04F4846075
:1035F80092685DF8044BC2F342328A5CD340C360E0
:103608007047134B0360E4E76368616813F4800F45
:10361800636818BF0E4C01F03F020CBF0A49B4FBA7
:10362800F2F1C3F3881308BFB1FBF2F101FB03F217
:10363800044B5B68C3F3014301335B00B2FBF3F354
:103648000360C6E7003802400024F400B8050020F3
:1036580000127A00B0F5807F10B5044632D0B0F57C
:10366800007F2FD0204B20F4A0229A4220F48031F2
:103678002FD01E4B20F410229A422AD01C4A20F444
:103688004033934225D002F5C02220F4881090429E
:103698001FD002F5003293421BD002F580229342DC
:1036A80017D002F58022934213D0124B994210D0C2
:1036B800114840F2C351FCF705FE04F44073B3F51A
:1036C800407F06D00D4A136FC4F30B041C431467E4
:1036D80010BD0A498B6824F0704223F4F81322F4D1
:1036E800407213438B60EDE70003020000030400FF
:1036F8000003080000031C0000CE00080038024048
:10370800012810B5044604D9034840F2E151FCF7FA
:10371800D9FD024B1C6010BD00CE00083C0E47428C
:10372800012810B5044604D9034840F2F251FCF7C9
:10373800C9FD024B1C6010BD00CE0008400E474278
:10374800012810B5044604D9034840F2AE61FCF7DD
:10375800B9FD024B1C6010BD00CE00085C01474259
:1037680030F4801310B5044607D0B0F5001F04D01C
:10377800064840F2CB61FCF7A5FD054BD3F88C0059
:1037880020F440102043C3F88C0010BD00CE000880
:103798000038024030F4800310B5044607D0B0F575
:1037A800000F04D0064840F2EF61FCF78BFD054B93
:1037B800D3F88C0020F440002043C3F88C0010BDDF
:1037C80000CE00080038024010B5441E1F2C04D952
:1037D80006484FF4E261FCF775FD054BD3F88C0001
:1037E80020F01F002043C3F88C0010BD00CE000855
:1037F8000038024010B5441E1F2C04D907484FF466
:10380800E661FCF75FFD064BD3F88C0020F4F85016
:1038180040EA0420C3F88C0010BD00BF00CE0008A9
:103828000038024030F4403310B5044604D007484D
:1038380040F29371FCF746FD054BD3F88C0020F459
:1038480040302043C3F88C0010BD00BF00CE0008F4
:1038580000380240012810B5044604D9034840F650
:103868001101FCF72FFD024B1C6010BD00CE0008B3
:10387800E011474238B5104B034004460D4663B982
:1038880058B1012D10D90D4840F63D01FCF71AFD3D
:103898000B4A136B1C43146338BD084840F63B01C0
:1038A800FCF710FD012DEED8002DF1D1044A136B61
:1038B80023EA0404146338BD00E80B0100CE0008B5
:1038C8000038024038B530F0F10304460D460CD1FB
:1038D80058B1012D10D90C4840F65C01FCF7F2FCF8
:1038E8000A4A536B1C43546338BD074840F65B01D2
:1038F800FCF7E8FC012DEED8002DF1D1034A536BFB
:1039080023EA0404546338BD00CE0008003802409E
:1039180038B530F0010304460D460CD158B1012DDD
:1039280010D90C4840F67A01FCF7CCFC0A4A936B94
:103938001C43946338BD074840F67901FCF7C2FC84
:10394800012DEED8002DF1D1034A936B23EA04042C
:10395800946338BD00CE00080038024010F4585F68
:1039680038B504460D460CD158B1012D10D90C4874
:1039780040F6B301FCF7A6FC0A4A136C1C43146416
:1039880038BD074840F6B201FCF79CFC012DEED883
:10399800002DF1D1034A136C23EA0404146438BDE2
:1039A80000CE00080038024038B5104B03400446EA
:1039B8000D4663B958B1012D10D90D4840F6E701FD
:1039C800FCF780FC0B4A536C1C43546438BD084810
:1039D80040F6E601FCF776FC012DEED8002DF1D17A
:1039E800044A536C23EA0404546438BD0C0008F0FC
:1039F80000CE00080038024038B5104B034004469A
:103A08000D4663B958B1012D10D90D4840F6111172
:103A1800FCF758FC0B4A13691C43146138BD08486D
:103A28004FF41161FCF74EFC012DEED8002DF1D1B9
:103A3800044A136923EA0404146138BD00E81F0529
:103A480000CE00080038024038B530F0F1030446D3
:103A58000D460CD158B1012D10D90C4840F62E1145
:103A6800FCF730FC0A4A53691C43546138BD0748C7
:103A780040F62D11FCF726FC012DEED8002DF1D1D2
:103A8800034A536923EA0404546138BD00CE000890
:103A98000038024038B530F0010304460D460CD119
:103AA80058B1012D10D90C4840F64911FCF70AFC11
:103AB8000A4A93691C43946138BD074840F6481187
:103AC800FCF700FC012DEED8002DF1D1034A9369D3
:103AD80023EA0404946138BD00CE0008003802408F
:103AE80010F4585F38B504460D460CD158B1012D75
:103AF80010D90C4840F67F11FCF7E4FB0A4A136A18
:103B08001C43146238BD074840F67E11FCF7DAFB07
:103B1800012DEED8002DF1D1034A136A23EA0404DB
:103B2800146238BD00CE00080038024038B5104B8A
:103B3800034004460D4663B958B1012D10D90D480C
:103B480040F6AE11FCF7BEFB0B4A536A1C435462A5
:103B580038BD084840F6AD11FCF7B4FB012DEED88E
:103B6800002DF1D1044A536A23EA0404546238BD93
:103B78000C8608F200CE00080038024038B5104B19
:103B8800034004460D4663B958B1012D10D90D48BC
:103B980040F6DF11FCF796FB0B4A136D1C431465C6
:103BA80038BD084840F6DE11FCF78CFB012DEED835
:103BB800002DF1D1044A136D23EA0404146538BDBD
:103BC8000068100100CE00080038024038B530F017
:103BD800F10304460D460CD158B1012D10D90C48FB
:103BE80040F6FF11FCF76EFB0A4A536D1C435465FF
:103BF80038BD074840F6FE11FCF764FB012DEED8EE
:103C0800002DF1D1034A536D23EA0404546538BDED
:103C180000CE00080038024038B530F001030446F1
:103C28000D460CD158B1012D10D90C4840F61D2174
:103C3800FCF748FB0A4A936D1C43946538BD074856
:103C480040F61C21FCF73EFB012DEED8002DF1D1EA
:103C5800034A936D23EA0404946538BD00CE000836
:103C68000038024010F4585F38B504460D460CD1B0
:103C780058B1012D10D90C4840F65621FCF722FB0B
:103C88000A4A136E1C43146638BD074840F655218E
:103C9800FCF718FB012DEED8002DF1D1034A136E65
:103CA80023EA0404146638BD00CE00080038024038
:103CB80038B5104B034004460D4663B958B1012D81
:103CC80010D90D4840F68A21FCF7FCFA0B4A536ECE
:103CD8001C43546638BD084840F68921FCF7F2FABF
:103CE800012DEED8002DF1D1044A536E23EA0404C5
:103CF800546638BD0C0008F000CE000800380240B9
:103D0800012808B50AD9094840F6A121FCF7DAFAD2
:103D1800074A136F23F00803136708BDF8D1044A54
:103D2800136F43F00803136708BD00BF00CE0008F7
:103D38000038024038B543B2002B04460D4613DD67
:103D4800012D09D90B4840F6DA31FCF7BBFA0A4ACB
:103D580013781C43147038BD002DF8D1064A137827
:103D680023EA0404147038BD024840F6D931FCF740
:103D7800A9FAE5E700CE00080D38024000F0EF038D
:103D8800212B10B504461FD039281DD0412823D037
:103D9800612811D0A0F17903062B0DD93B2813D047
:103DA8003D2811D0104840F60241FCF78BFA630910
:103DB800012B09D0022B0FD00C4B586F04F01F04B5
:103DC800E04000F0010010BD084B186804F01F0423
:103DD800E04000F0010010BD044B186F04F01F0410
:103DE800E04000F0010010BD00CE0008003802409D
:103DF80000B583B00023019300E048B93120FFF7F4
:103E0800BDFF019B01330193019BB3F5A04FF4D192
:103E18003120FFF7B3FF003018BF012003B05DF871
:103E280004FB00BF024A536F43F080735367704727
:103E380000380240431E012B10B5044610D904284F
:103E48000ED008280CD010280AD0802808D0402886
:103E580006D0202804D0064840F64141FCF732FA43
:103E6800044BDB681C4214BF0120002010BD00BFBA
:103E780000CE00080038024010B5044620B90448B6
:103E880040F66141FCF71EFA024B1C7010BD00BFE2
:103E980000CE00080E38024008B5524B984237D081
:103EA80003F5806398423DD003F58063984243D080
:103EB80003F58063984249D003F5806398421DD08A
:103EC80003F5806398424BD003F5806398425DD038
:103ED80003F5806398426FD003F58063984275D0EC
:103EE80003F5806398425BD003F58063984241D024
:103EF8003D488221BDE80840FCF7E4B910200121C3
:103F0800FFF77AFD10200021BDE80840FFF774BDD7
:103F180001200146FFF770FD01200021BDE808409F
:103F2800FFF76ABD02200121FFF766FD022000218C
:103F3800BDE80840FFF760BD04200121FFF75CFDE4
:103F480004200021BDE80840FFF756BD08200121E4
:103F5800FFF752FD08200021BDE80840FFF74CBDDF
:103F680020200121FFF748FD20200021BDE808405E
:103F7800FFF742BD4FF480600121FFF73DFD4FF48C
:103F880080600021BDE80840FFF736BD40200121D0
:103F9800FFF732FD40200021BDE80840FFF72CBDA7
:103FA8004FF400700121FFF727FD4FF40070002146
:103FB800BDE80840FFF720BD80200121FFF71CFD68
:103FC80080200021BDE80840FFF716BD4FF480703F
:103FD8000121FFF711FD4FF480700021BDE8084072
:103FE800FFF70ABD0000024020CE00082DE9F84F77
:103FF800544B9842064689462BD003F58063984275
:1040080027D003F58063984223D003F58063984254
:104018001FD003F5806398421BD003F58063984254
:1040280017D003F58063984213D003F58063984254
:104038000FD003F5806398420BD003F58063984254
:1040480007D003F58063984203D03F48CF21FCF79F
:1040580039F9B9F80030002B6ED099F80430032BE9
:1040680065D899F80730022B5CD800273C464FF0FA
:10407800010A4FF0030B04E00134102C07F102078A
:1040880027D0D9F800500AFA04F31D409D42F3D115
:10409800326899F804300BFA07F86FEA080808EA5A
:1040A80002023260326803FA07F1013B0A43012B2E
:1040B800326010D9F26899F8073008EA0202F26013
:1040C800F268BB4001341343102CF36007F1020778
:1040D800D7D1BDE8F88F99F80520032A1BD8B16815
:1040E80099F80630184808EA0101B160B168BA4089
:1040F8000A43012BB26004D9EB21FCF7E3F899F8E5
:104108000630726822EA050575607268A3409BB2A2
:1041180013437360CEE70C48E421FCF7D3F899F811
:104128000520DCE70848D221FCF7CCF89DE70648D3
:10413800D121FCF7C7F894E70348D021FCF7C2F86F
:104148008BE700BF0000024020CE000800234FF696
:10415800FF720260037143718371C371704700BFBE
:1041680030B5254B83B04FF48032984204460D4653
:1041780001922CD003F58063984228D003F5806320
:10418800984224D003F58063984220D003F58063D9
:1041980098421CD003F58063984218D003F58063D9
:1041A800984214D003F58063984210D003F58063D9
:1041B80098420CD003F58063984208D003F58063D9
:1041C800984204D00D484FF48D71FCF77BF825B95F
:1041D8000A4840F21B11FCF775F8019B2B43019329
:1041E800019BE361E561019BE361E3690193E36995
:1041F800019303B030BD00BF0000024020CE00088C
:1042080038B5324B984204460D462CD003F58063EE
:10421800984228D003F58063984224D003F5806340
:10422800984220D003F5806398421CD003F5806340
:10423800984218D003F58063984214D003F5806340
:10424800984210D003F5806398420CD003F5806340
:10425800984208D003F58063984204D01C484FF474
:10426800A471FCF72FF86B1E012B28D9042D26D03A
:10427800082D24D0102D22D0202D20D0402D1ED046
:10428800802D1CD0B5F5807F19D0B5F5007F16D0EC
:10429800B5F5806F13D0B5F5006F10D0B5F5805F18
:1042A8000DD0B5F5005F0AD0B5F5804F07D0B5F54C
:1042B800004F04D0064840F24911FCF703F823697F
:1042C8001D4214BF0120002038BD00BF000002407D
:1042D80020CE00081A4B984210B504462CD003F59E
:1042E8008063984228D003F58063984224D003F570
:1042F8008063984220D003F5806398421CD003F570
:104308008063984218D003F58063984214D003F56F
:104318008063984210D003F5806398420CD003F56F
:104328008063984208D003F58063984204D005481A
:104338004FF4B071FBF7C6FF206980B210BD00BF13
:104348000000024020CE000838B5324B984204469F
:104358000D462CD003F58063984228D003F580637E
:10436800984224D003F58063984220D003F58063F7
:1043780098421CD003F58063984218D003F58063F7
:10438800984214D003F58063984210D003F58063F7
:1043980098420CD003F58063984208D003F58063F7
:1043A800984204D01C4840F27311FBF78BFF6B1E38
:1043B800012B28D9042D26D0082D24D0102D22D049
:1043C800202D20D0402D1ED0802D1CD0B5F5807F0B
:1043D80019D0B5F5007F16D0B5F5806F13D0B5F5B7
:1043E800006F10D0B5F5805F0DD0B5F5005F0AD02D
:1043F800B5F5804F07D0B5F5004F04D006484FF407
:10440800BA71FBF75FFF63691D4214BF01200020EA
:1044180038BD00BF0000024020CE00081A4B984269
:1044280010B504462CD003F58063984228D003F5D4
:104438008063984224D003F58063984220D003F526
:10444800806398421CD003F58063984218D003F526
:104458008063984214D003F58063984210D003F526
:10446800806398420CD003F58063984208D003F526
:104478008063984204D0054840F28B11FBF722FF75
:10448800606980B210BD00BF0000024020CE000865
:1044980038B51D4B984204460D462CD003F5806371
:1044A800984228D003F58063984224D003F58063AE
:1044B800984220D003F5806398421CD003F58063AE
:1044C800984218D003F58063984214D003F58063AE
:1044D800984210D003F5806398420CD003F58063AE
:1044E800984208D003F58063984204D0074840F208
:1044F8009F11FBF7E7FE25B904484FF4D071FBF78D
:10450800E1FE258338BD00BF0000024020CE000830
:1045180038B51D4B984204460D462CD003F58063F0
:10452800984228D003F58063984224D003F580632D
:10453800984220D003F5806398421CD003F580632D
:10454800984218D003F58063984214D003F580632D
:10455800984210D003F5806398420CD003F580632D
:10456800984208D003F58063984204D007484FF476
:10457800DA71FBF7A7FE25B9044840F2B511FBF73D
:10458800A1FE658338BD00BF0000024020CE0008B0
:1045980030B5394B984283B004460D462ED003F50A
:1045A800806398422AD003F58063984226D003F5A9
:1045B8008063984222D003F5806398421ED003F5A9
:1045C800806398421AD003F58063984216D003F5A9
:1045D8008063984212D003F5806398420ED003F5A9
:1045E800806398420AD003F58063984206D0234836
:1045F80001924FF4E571FBF765FE019A6B1E012BE2
:104608002AD9042D28D0082D26D0102D24D0202DCD
:1046180022D0402D20D0802D1ED0B5F5807F1BD014
:10462800B5F5007F18D0B5F5806F15D0B5F5006FDA
:1046380012D0B5F5805F0FD0B5F5005F0CD0B5F599
:10464800804F09D0B5F5004F06D00C48019240F2D2
:10465800CB11FBF737FE019A012A07D907484FF417
:10466800E671FBF72FFE258303B030BD002AFAD18F
:10467800658303B030BD00BF0000024020CE0008B3
:1046880038B51A4B984204460D462CD003F5806382
:10469800984228D003F58063984224D003F58063BC
:1046A800984220D003F5806398421CD003F58063BC
:1046B800984218D003F58063984214D003F58063BC
:1046C800984210D003F5806398420CD003F58063BC
:1046D800984208D003F58063984204D0044840F219
:1046E800E311FBF7EFFD656138BD00BF0000024034
:1046F80020CE000838B51B4B984204460D462CD0F6
:1047080003F58063984228D003F58063984224D04B
:1047180003F58063984220D003F5806398421CD04B
:1047280003F58063984218D003F58063984214D04B
:1047380003F58063984210D003F5806398420CD04B
:1047480003F58063984208D003F58063984204D04B
:10475800054840F2F311FBF7B5FD616969406161F5
:1047680038BD00BF0000024020CE00082A4B984206
:1047780070B504460D4616462CD003F58063984262
:1047880028D003F58063984224D003F580639842CB
:1047980020D003F5806398421CD003F580639842CB
:1047A80018D003F58063984214D003F580639842CB
:1047B80010D003F5806398420CD003F580639842CB
:1047C80008D003F58063984204D0144840F2492188
:1047D800FBF778FD0F2D19D80D2E06D90F2E04D012
:1047E8000E4840F24B21FBF76DFDEB0804EB830408
:1047F80005F00705226AAD000F23AB4022EA030348
:104808002362226AAE401643266270BD034840F216
:104818004A21FBF757FDDFE70000024020CE0008E1
:1048280008B5694B984245D0B0F1804F4CD0A3F5FC
:104838007C43984252D003F58063984258D003F5E0
:10484800806398422CD003F5806398425AD003F5D0
:104858008063984260D003F57043984272D003F5A4
:104868007053984278D003F5806398425ED003F580
:104878008063984200F08880A3F59833984200F04E
:104888008F8003F58063984200F0948003F580637D
:1048980098426DD04D48CB21BDE80840FBF712BDCA
:1048A80008200121FFF71CF908200021BDE8084075
:1048B800FFF716B901200146FFF738F9012000215A
:1048C800BDE80840FFF732B901200146FFF708F9B3
:1048D80001200021BDE80840FFF702B902200121AC
:1048E800FFF7FEF802200021BDE80840FFF7F8B8FE
:1048F80004200121FFF7F4F804200021BDE8084056
:10490800FFF7EEB810200121FFF7EAF81020002188
:10491800BDE80840FFF7E4B820200121FFF7E0F8E0
:1049280020200021BDE80840FFF7DAB84FF4003036
:104938000121FFF7FBF84FF400300021BDE80840E3
:10494800FFF7F4B802200121FFF7F0F80220002158
:10495800BDE80840FFF7EAB84FF480300121FFF7BF
:10496800E5F84FF480300021BDE80840FFF7DEB8D5
:104978004FF480700121FFF7B3F84FF480700021E5
:10498800BDE80840FFF7ACB84FF480200121FFF7DD
:10499800CDF84FF480200021BDE80840FFF7C6B8E5
:1049A80040200121FFF79CF840200021BDE8084085
:1049B800FFF796B880200121FFF792F880200021A8
:1049C800BDE80840FFF78CB80000014044CE00085D
:1049D8004D4B984270B504460D4637D0B0F1804F24
:1049E80034D0A3F57C43984230D003F580639842D5
:1049F8002CD003F58063984228D003F58063984251
:104A080024D003F58063984220D003F57043984280
:104A18001CD003F57053984218D003F58063984270
:104A280014D003F58063984210D0A3F598339842C8
:104A38000CD003F58063984208D003F58063984250
:104A480004D0324840F22511FBF73CFC6B8823F078
:104A5800100252B123F04002202A06D0402B04D085
:104A68002A484FF49371FBF72DFC2B8923F48072AD
:104A78003AB1B3F5007F04D0244840F22711FBF780
:104A880021FC214A238894429BB212D002F580620D
:104A980094420ED0B4F1804F0BD0A2F580329442EC
:104AA80007D002F58062944203D002F580629442F6
:104AB80003D16A8823F070031343154A94421BD02C
:104AC80002F58062944217D02A890F496E682888B7
:104AD80023F440739BB213438C422380E662208503
:104AE80005D00C4B9C4202D00123A38270BDAB7A47
:104AF80023860123A38270BD23802B886A68E26223
:104B080023850123A38270BD0000014044CE000824
:104B1800001000400004014000234FF0FF324260C3
:104B28000380038143808372704700BF244B9842FF
:104B380070B504460E46154637D0B0F1804F34D0D4
:104B4800A3F57C43984230D003F5806398422CD07B
:104B580003F58063984228D003F58063984224D0F7
:104B680003F58063984220D003F5704398421CD027
:104B780003F57053984218D003F58063984214D017
:104B880003F58063984210D0A3F5983398420CD06F
:104B980003F58063984208D003F58063984204D0F7
:104BA800084840F26B11FBF78DFB012D04D905482D
:104BB8004FF4B671FBF786FB2685A58270BD00BF52
:104BC8000000014044CE000838B5194B984204460D
:104BD8000D4617D0B0F1804F14D0A3F57C4398420E
:104BE80010D003F5806398420CD003F58063984297
:104BF80008D003F57843984204D00E484FF4C271A8
:104C0800FBF760FB25F0100353B125F04003202B80
:104C180006D0402D04D0074840F28511FBF752FB1F
:104C2800218821F070010904090C2943218038BD2D
:104C38000000014044CE000838B51F4B9842044696
:104C48000D4637D0B0F1804F34D0A3F57C4398425D
:104C580030D003F5806398422CD003F580639842E6
:104C680028D003F58063984224D003F580639842E6
:104C780020D003F5704398421CD003F57053984236
:104C880018D003F58063984214D003F580639842E6
:104C980010D0A3F5983398420CD003F5806398425E
:104CA80008D003F58063984204D004484FF4CE71CD
:104CB800FBF708FB656238BD0000014044CE0008E0
:104CC80038B51F4B984204460D4637D0B0F1804F97
:104CD80034D0A3F57C43984230D003F580639842E2
:104CE8002CD003F58063984228D003F5806398425E
:104CF80024D003F58063984220D003F5704398428E
:104D08001CD003F57053984218D003F5806398427D
:104D180014D003F58063984210D0A3F598339842D5
:104D28000CD003F58063984208D003F5806398425D
:104D380004D0044840F2AB11FBF7C4FAE56238BD71
:104D48000000014044CE00081F4B984210B50446AD
:104D580037D0B0F1804F34D0A3F57C43984230D09F
:104D680003F5806398422CD003F58063984228D0DD
:104D780003F58063984224D003F58063984220D0DD
:104D880003F5704398421CD003F57053984218D02D
:104D980003F58063984214D003F58063984210D0DD
:104DA800A3F5983398420CD003F58063984208D055
:104DB80003F58063984204D0044840F2B911FBF728
:104DC80081FA606A10BD00BF0000014044CE0008AF
:104DD8001F4B984210B5044637D0B0F1804F34D0FD
:104DE800A3F57C43984230D003F5806398422CD0D9
:104DF80003F58063984228D003F58063984224D055
:104E080003F58063984220D003F5704398421CD084
:104E180003F57053984218D003F58063984214D074
:104E280003F58063984210D0A3F5983398420CD0CC
:104E380003F58063984208D003F58063984204D054
:104E4800044840F2C711FBF73DFA208D80B210BD2F
:104E58000000014044CE000838B5294B984204466A
:104E68000D4637D0B0F1804F34D0A3F57C4398423B
:104E780030D003F5806398422CD003F580639842C4
:104E880028D003F58063984224D003F580639842C4
:104E980020D003F5704398421CD003F57053984214
:104EA80018D003F58063984214D003F580639842C4
:104EB80010D0A3F5983398420CD003F5806398423C
:104EC80008D003F58063984204D00E4840F2D71109
:104ED800FBF7F8F9012D0AD90A484FF4EC71FBF7F2
:104EE800F1F923889BB243F00203238038BD002DDB
:104EF800F7D1238823F002031B041B0C238038BD41
:104F08000000014044CE000838B5294B98420446B9
:104F18000D4637D0B0F1804F34D0A3F57C4398428A
:104F280030D003F5806398422CD003F58063984213
:104F380028D003F58063984224D003F58063984213
:104F480020D003F5704398421CD003F57053984263
:104F580018D003F58063984214D003F58063984213
:104F680010D0A3F5983398420CD003F5806398428B
:104F780008D003F58063984204D00E484FF4FA71C4
:104F8800FBF7A0F9012D0AD90A4840F2F511FBF701
:104F980099F923889BB243F00403238038BD002D80
:104FA800F7D1238823F004031B041B0C238038BD8E
:104FB8000000014044CE000838B5294B9842044609
:104FC8000D4637D0B0F1804F34D0A3F57C439842DA
:104FD80030D003F5806398422CD003F58063984263
:104FE80028D003F58063984224D003F58063984263
:104FF80020D003F5704398421CD003F570539842B3
:1050080018D003F58063984214D003F58063984262
:1050180010D0A3F5983398420CD003F580639842DA
:1050280008D003F58063984204D00E4840F20D2161
:10503800FBF748F9012D0AD90A4840F20E21FBF77F
:1050480041F923889BB243F08003238038BD002DAB
:10505800F7D1238823F080031B041B0C238038BD61
:105068000000014044CE000838B5284B9842044659
:105078000D4637D0B0F1804F34D0A3F57C43984229
:1050880030D003F5806398422CD003F580639842B2
:1050980028D003F58063984224D003F580639842B2
:1050A80020D003F5704398421CD003F57053984202
:1050B80018D003F58063984214D003F580639842B2
:1050C80010D0A3F5983398420CD003F5806398422A
:1050D80008D003F58063984204D00D484FF40A7154
:1050E800FBF7F0F825F0080323B1094840F229211D
:1050F800FBF7E8F8238823F008031B041B0C238024
:10510800218889B22943218038BD00BF00000140B1
:1051180044CE000838B5254B984204460D462FD09A
:10512800B0F1804F2CD0A3F57C43984228D003F5EA
:105138008063984224D003F58063984220D003F519
:10514800784398421CD003F57053984218D003F561
:105158008063984214D003F58063984210D0A3F579
:10516800983398420CD003F58063984208D003F531
:105178008063984204D00E4840F23F21FBF7A2F822
:1051880025F480733BB1B5F5007F04D008484FF48F
:105198001071FBF797F8238823F440731B041B0C4A
:1051A8002380218889B22943218038BD000001402D
:1051B80044CE000838B5294B984204460D4637D0EE
:1051C800B0F1804F34D0A3F57C43984230D003F53A
:1051D800806398422CD003F58063984228D003F569
:1051E8008063984224D003F58063984220D003F569
:1051F800704398421CD003F57053984218D003F5B9
:105208008063984214D003F58063984210D0A3F5C8
:10521800983398420CD003F58063984208D003F580
:105228008063984204D00E4840F25321FBF74AF8B5
:10523800012D0AD90A484FF41571FBF743F8238862
:105248009BB243F00103238038BD002DF7D123889A
:1052580023F001031B041B0C238038BD0000014010
:1052680044CE00085D4B98422DE9F04104460E46B5
:105278002FD0B0F1804F2CD0A3F57C43984228D092
:1052880003F58063984224D003F58063984220D0C8
:1052980003F5784398421CD003F57053984218D010
:1052A80003F58063984214D003F58063984210D0C8
:1052B800A3F5983398420CD003F58063984208D040
:1052C80003F58063984204D0454840F2A621FAF7D6
:1052D800F9FF338823F0100223F0300392B233B180
:1052E800602A04D03E4840F2A721FAF7EBFF738802
:1052F800012B04D93A484FF42A71FAF7E3FFB6F8BC
:105308000CE02EF0020333B1354840F2A921FAF738
:10531800D9FFB6F80CE0228C778835882F4822F020
:1053280001021204120C2284218CB4F80480228B0E
:1053380089B222F073031B0421F002023A431B0CCA
:10534800844242EA0E071FFA88F845EA03050AD0A4
:10535800244B9C4207D0B368A4F804802583636378
:105368002784BDE8F081B38823F004039BB223B1FE
:105378001B4840F2C621FAF7A5FFF38923F008037A
:105388009BB2C3B9738A23F400739BB203BB318AFF
:1053980021F48073ABB9F389728AB08827F00807C3
:1053A80028F440781F4327F0040748EA0208074317
:1053B80048EA0108CFE70A4840F2C721FAF782FF16
:1053C800E0E740F2C9210648FAF77CFF318AE2E7B4
:1053D80003484FF43271FAF775FFD8E7000001402F
:1053E80044CE0008000401405A4B98422DE9F04190
:1053F80004460E461FD0B0F1804F1CD0A3F57C4365
:10540800984218D003F58063984214D003F580635E
:10541800984210D003F5784398420CD003F57053A6
:10542800984208D0A3F59433984204D04A4840F2F1
:10543800F721FAF747FF338823F0100223F03003EF
:1054480092B233B1602A04D043484FF43E71FAF760
:1054580039FF7388012B04D93F4840F2F921FAF744
:1054680031FFB6F80CC02CF0020333B13A4840F2D1
:10547800FA21FAF727FFB6F80CC0218C7588B6F820
:1054880000E0344821F010010904090C2184218C22
:10549800A788228B89B222F4E6431B0421F020025C
:1054A80042EA05121B0C42EA0C1543EA0E23844219
:1054B800ADB2BFB21FFA83F80AD0284B9C4207D07E
:1054C800B268A780A4F81880A2632584BDE8F0819B
:1054D800B38823F004039BB223B11F484FF44671ED
:1054E800FAF7F0FEF38923F008039BB2FBB9738A3D
:1054F80023F400739BB23BBB338A23F48072E2B976
:10550800F289B6F812E0B08825F0800189B241EA44
:10551800021127F440674FF6BF720A4047EA8E0728
:1055280042EA001547EA8307ADB2BFB2C8E70A48A6
:1055380040F21931FAF7C6FED9E7074840F21B31A5
:10554800FAF7C0FE338ADBE7034840F21A31FAF76C
:10555800B9FED1E70000014044CE00080004014034
:10556800564B98422DE9F04104460E4617D0B0F14B
:10557800804F14D0A3F57C43984210D003F5806384
:1055880098420CD003F58063984208D003F578431D
:10559800984204D04A484FF45271FAF793FE338880
:1055A80023F0100223F0300392B233B1602A04D002
:1055B800434840F24931FAF785FE7388012B04D934
:1055C8003F4840F24A31FAF77DFEB6F80CE02EF07B
:1055D800020333B13A4840F24B31FAF773FEB6F89A
:1055E8000CE0218C75883788344821F480710904CF
:1055F800090C2184228CA188A38B92B222F4007218
:1056080023F0730342EA05221B0442EA0E251B0C11
:105618008442ADB21FFA81F847EA03070AD0294B42
:105628009C4207D0B268A4F80480A783E26325846B
:10563800BDE8F081B38823F004039BB223B120486E
:105648004FF45A71FAF73EFEF38923F008039BB230
:105658000BBB738A23F400739BB24BBB338A23F4CE
:105668008072F2B9F289B6F812C0B6F804E025F4EF
:10567800006080B228F4405140EA02204FF6FF3221
:10568800024041EA0C1142EA0E2541EA0318ADB284
:105698001FFA88F8C6E70A4840F26931FAF712FE9D
:1056A800D7E7074840F26B31FAF70CFE338AD9E79F
:1056B800034840F26A31FAF705FECFE700000140DF
:1056C80044CE0008000401403E4B98422DE9F041C9
:1056D80004460F4617D0B0F1804F14D0A3F57C4391
:1056E800984210D003F5806398420CD003F580638C
:1056F800984208D003F57843984204D032484FF4D2
:105708006671FAF7DFFD3B8823F0100223F03003BF
:1057180092B233B1602A04D02B4840F29931FAF79B
:10572800D1FD7B88012B04D9274840F29A31FAF73A
:10573800C9FDB7F80CE02EF0020333B1224840F25D
:105748009B31FAF7BFFDB7F80CE0218C7D883E88C5
:105758001C4821F480510904090C2184218CB4F8D7
:105768000480A28B89B222F4E6431B0421F4005280
:1057780042EA05321B0C42EA0E3543EA062384420C
:10578800ADB21FFA88F89EB20AD0104B9C4207D0DF
:10579800BB68A4F80480A68323642584BDE8F0814F
:1057A8003B8A23F4807232B928F4804848EA831887
:1057B8001FFA88F8ECE7044840F2B931FAF782FD9D
:1057C8003B8AF1E70000014044CE00080004014094
:1057D800002303804380838083608381C3810382A5
:1057E80043827047514B984270B504460D461646A1
:1057F8002FD0B0F1804F2CD0A3F57C43984228D00D
:1058080003F58063984224D003F58063984220D042
:1058180003F5784398421CD003F57053984218D08A
:1058280003F58063984214D003F58063984210D042
:10583800A3F5983398420CD003F58063984208D0BA
:1058480003F58063984204D039484FF47F71FAF722
:1058580039FD4DB3042D08D0082D3AD00C2D04D0B5
:10586800334840F2FD31FAF72DFD002E4CD026F0DA
:105878002003102B1DD1228C012392B2AB4022EAC7
:10588800030325F00802238418345AB3043DC5F3F2
:105898004E0548F6FF736259134063513602625948
:1058A800B6B21643665170BD36B326F02003102BEE
:1058B80033D026F04003202BDDD0702EDBD026F02D
:1058C8001003402BD7D01A4840F2FE31FAF7FAFC01
:1058D800D1E7002EE9D1238C23F480731B041B0C21
:1058E800238418346D084FF68F736259134063513F
:1058F80062591643665170BD238C23F001031B04C3
:105908001B0C23841834EDE7238C01229BB2AA4098
:1059180023EA020323841834B8E7238C01229BB2BC
:10592800AA4023EA020323841834DBE7000001407D
:1059380044CE000838B51B4B984204460D462FD07C
:10594800B0F1804F2CD0A3F57C43984228D003F5C2
:105958008063984224D003F58063984220D003F5F1
:10596800784398421CD003F57053984218D003F539
:105978008063984214D003F58063984210D0A3F551
:10598800983398420CD003F58063984208D003F509
:105998008063984204D0044840F22741FAF792FC09
:1059A800656338BD0000014044CE000838B5134B8C
:1059B800984204460D461FD0B0F1804F1CD0A3F585
:1059C8007C43984218D003F58063984214D003F5BD
:1059D8008063984210D003F5784398420CD003F5C1
:1059E8007053984208D0A3F59433984204D00448E1
:1059F80040F23741FAF766FCA56338BD0000014064
:105A080044CE000838B50F4B984204460D4617D0CF
:105A1800B0F1804F14D0A3F57C43984210D003F521
:105A2800806398420CD003F58063984208D003F550
:105A38007843984204D0044840F24641FAF742FCC1
:105A4800E56338BD0000014044CE000838B50F4B6F
:105A5800984204460D4617D0B0F1804F14D0A3F5F4
:105A68007C43984210D003F5806398420CD003F52C
:105A78008063984208D003F57843984204D00448DC
:105A880040F25541FAF71EFC256438BD000001407C
:105A980044CE000838B5234B984204460D462FD013
:105AA800B0F1804F2CD0A3F57C43984228D003F561
:105AB8008063984224D003F58063984220D003F590
:105AC800784398421CD003F57053984218D003F5D8
