:020000040800F2
:100000000000022089500008092F0008152F000861
:100010001D2F0008252F00082D2F000800000000CC
:10002000000000000000000000000000013900088E
:10003000352F000800000000213900088139000830
:10004000D9500008D9500008D9500008D9500008EC
:10005000D9500008D9500008D9500008D9500008DC
:10006000D9500008D9500008D95000081D0C0008CC
:10007000D9500008D9500008D9500008D9500008BC
:10008000D9500008D9500008D9500008D9500008AC
:10009000D9500008D9500008D9500008D95000089C
:1000A000D9500008592A0008D9500008D950000832
:1000B000212A0008D9500008D9500008B50B0008C3
:1000C000F50B0008D9500008D9500008D950000895
:1000D000D9500008D9500008D9500008D95000085C
:1000E000D9500008D9500008D9500008D95000084C
:1000F000BD2A0008D9500008D9500008D95000087E
:10010000D9500008D9500008D9500008D95000082B
:10011000D9500008D9500008D9500008952A000885
:10012000D9500008D9500008D9500008D95000080B
:10013000D9500008D9500008D9500008D9500008FB
:10014000D9500008D9500008D9500008D9500008EB
:10015000D9500008D9500008D9500008D9500008DB
:10016000D9500008D9500008D9500008D9500008CB
:10017000D9500008D9500008D950000800000000EC
:08018000D9500008D950000815
:10018800044B05481B1A062B02D9044B03B1184728
:10019800704700BF570800205408002000000000E6
:1001A80005490648091A891001EBD171491002D096
:1001B800034B03B118477047540800205408002027
:1001C8000000000010B5064C237843B9FFF7D8FFAC
:1001D800044B13B10448AFF300800123237010BD12
:1001E8005408002000000000986C000808B5084B6F
:1001F8001BB108480849AFF300800848036813B9E1
:10020800BDE80840CCE7064B002BF9D09847F7E744
:1002180000000000986C00085808002054080020CE
:100228000000000081F0004102E000BF83F00043BD
:1002380030B54FEA41044FEA430594EA050F08BF79
:1002480090EA020F1FBF54EA000C55EA020C7FEA3D
:10025800645C7FEA655C00F0E2804FEA5454D4EBBA
:100268005555B8BF6D420CDD2C4480EA020281EA84
:10027800030382EA000083EA010180EA020281EABC
:100288000303362D88BF30BD11F0004F4FEA01310E
:100298004FF4801C4CEA113102D0404261EB41011D
:1002A80013F0004F4FEA03334CEA133302D05242A3
:1002B80063EB430394EA050F00F0A780A4F101045F
:1002C800D5F1200E0DDB02FA0EFC22FA05F2801899
:1002D80041F1000103FA0EF2801843FA05F359417F
:1002E8000EE0A5F120050EF1200E012A03FA0EFCFE
:1002F80028BF4CF0020C43FA05F3C01851EBE37128
:1003080001F0004507D54FF0000EDCF1000C7EEB44
:1003180000006EEB0101B1F5801F1BD3B1F5001F82
:100328000CD349085FEA30004FEA3C0C04F10104A1
:100338004FEA445212F5800F80F09A80BCF1004FCA
:1003480008BF5FEA500C50F1000041EB045141EA4C
:10035800050130BD5FEA4C0C404141EB010111F44D
:10036800801FA4F10104E9D191F0000F04BF0146F8
:100378000020B1FA81F308BF2033A3F10B03B3F1D6
:1003880020020CDA0C3208DD02F1140CC2F10C0266
:1003980001FA0CF021FA02F10CE002F11402D8BFC4
:1003A800C2F1200C01FA02F120FA0CFCDCBF41EA90
:1003B8000C019040E41AA2BF01EB0451294330BD5F
:1003C8006FEA04041F3C1CDA0C340EDC04F114043C
:1003D800C4F1200220FA04F001FA02F340EA030013
:1003E80021FA04F345EA030130BDC4F10C04C4F159
:1003F800200220FA02F001FA04F340EA0300294639
:1004080030BD21FA04F0294630BD94F0000F83F482
:10041800801306BF81F480110134013D4EE77FEA65
:10042800645C18BF7FEA655C29D094EA050F08BFB1
:1004380090EA020F05D054EA000C04BF1946104692
:1004480030BD91EA030F1EBF0021002030BD5FEAD6
:10045800545C05D14000494128BF41F0004130BDFE
:1004680014F580043CBF01F5801130BD01F0004552
:1004780045F0FE4141F470014FF0000030BD7FEAC5
:10048800645C1ABF194610467FEA655C1CBF0B46C0
:10049800024650EA013406BF52EA033591EA030FD7
:1004A80041F4002130BD00BF90F0000F04BF0021CF
:1004B800704730B54FF4806404F132044FF0000502
:1004C8004FF0000150E700BF90F0000F04BF00217B
:1004D800704730B54FF4806404F1320410F00045E1
:1004E80048BF40424FF000013EE700BF42004FEADC
:1004F800E2014FEA31014FEA02701FBF12F07F4359
:1005080093F07F4F81F06051704792F0000F14BF55
:1005180093F07F4F704730B54FF4607401F0004599
:1005280021F0004120E700BF50EA010208BF7047F0
:1005380030B54FF000050AE050EA010208BF7047E5
:1005480030B511F0004502D5404261EB41014FF44E
:10055800806404F132045FEA915C3FF4DCAE4FF052
:1005680003025FEADC0C18BF03325FEADC0C18BF39
:10057800033202EBDC02C2F1200300FA03FC20FA8A
:1005880002F001FA03FE40EA0E0021FA02F11444D7
:10059800C1E600BF70B54FF0FF0C4CF4E06C1CEAEC
:1005A80011541DBF1CEA135594EA0C0F95EA0C0F61
:1005B80000F0DEF82C4481EA030621EA4C5123EAD4
:1005C8004C5350EA013518BF52EA033541F4801103
:1005D80043F4801338D0A0FB02CE4FF00005E1FBB6
:1005E80002E506F00042E0FB03E54FF00006E1FB00
:1005F80003569CF0000F18BF4EF0010EA4F1FF0443
:10060800B6F5007F64F5407404D25FEA4E0E6D4182
:1006180046EB060642EAC62141EA55514FEAC52093
:1006280040EA5E504FEACE2EB4F1FD0C88BFBCF50F
:10063800E06F1ED8BEF1004F08BF5FEA500E50F1C0
:10064800000041EB045170BD06F0004646EA010186
:1006580040EA020081EA0301B4EB5C04C2BFD4EBB8
:100668000C0541EA045170BD41F480114FF0000EB1
:10067800013C00F3AB8014F1360FDEBF002001F01F
:10068800004170BDC4F10004203C35DA0C341BDC99
:1006980004F11404C4F1200500FA05F320FA04F06B
:1006A80001FA05F240EA020001F0004221F000419F
:1006B80010EBD37021FA04F642EB06015EEA430E12
:1006C80008BF20EAD37070BDC4F10C04C4F1200542
:1006D80000FA04F320FA05F001FA04F240EA0200F5
:1006E80001F0004110EBD37041F100015EEA430EC6
:1006F80008BF20EAD37070BDC4F1200500FA05F2E6
:100708004EEA020E20FA04F301FA05F243EA020364
:1007180021FA04F001F0004121FA04F220EA020073
:1007280000EBD3705EEA430E08BF20EAD37070BDB9
:1007380094F0000F0FD101F00046400041EB010199
:1007480011F4801F08BF013CF7D041EA060195F07B
:10075800000F18BF704703F00046520043EB030335
:1007680013F4801F08BF013DF7D043EA0603704722
:1007780094EA0C0F0CEA135518BF95EA0C0F0CD02D
:1007880050EA410618BF52EA4306D1D181EA030173
:1007980001F000414FF0000070BD50EA410606BF6D
:1007A8001046194652EA430619D094EA0C0F02D1B2
:1007B80050EA013613D195EA0C0F05D152EA0336F7
:1007C8001CBF104619460AD181EA030101F0004115
:1007D80041F0FE4141F470014FF0000070BD41F05E
:1007E800FE4141F4780170BD70B54FF0FF0C4CF438
:1007F800E06C1CEA11541DBF1CEA135594EA0C0F57
:1008080095EA0C0F00F0A7F8A4EB050481EA030EA3
:1008180052EA03354FEA013100F088804FEA03338A
:100828004FF0805545EA131343EA12634FEA022258
:1008380045EA111545EA10654FEA00260EF0004119
:100848009D4208BF964244F1FD0404F5407402D26B
:100858005B084FEA3202B61A65EB03055B084FEAFC
:1008680032024FF480104FF4002CB6EB020E75EBF9
:10087800030E22BFB61A754640EA0C005B084FEA21
:100888003202B6EB020E75EB030E22BFB61A75469E
:1008980040EA5C005B084FEA3202B6EB020E75EBE9
:1008A800030E22BFB61A754640EA9C005B084FEA61
:1008B8003202B6EB020E75EB030E22BFB61A75466E
:1008C80040EADC0055EA060E18D04FEA051545EA5D
:1008D80016754FEA06164FEAC30343EA52734FEA06
:1008E800C2025FEA1C1CC0D111F4801F0BD141EA7F
:1008F80000014FF000004FF0004CB6E711F4801FE4
:1009080004BF01430020B4F1FD0C88BFBCF5E06FC3
:100918003FF6AFAEB5EB030C04BFB6EB020C5FEAD3
:10092800500C50F1000041EB045170BD0EF0004E28
:100938004EEA113114EB5C04C2BFD4EB0C0541EA5A
:10094800045170BD41F480114FF0000E013C90E657
:1009580045EA060E8DE60CEA135594EA0C0F08BF1B
:1009680095EA0C0F3FF43BAF94EA0C0F0AD150EA1A
:1009780001347FF434AF95EA0C0F7FF425AF1046AD
:1009880019462CE795EA0C0F06D152EA03353FF4D5
:10099800FDAE1046194622E750EA410618BF52EA52
:1009A80043067FF4C5AE50EA41047FF40DAF52EA26
:1009B80043057FF4EBAE12E74FEA4102B2F1E043A0
:1009C80024BFB3F5001CDCF1FE5C0DD901F0004C2E
:1009D8004FEAC0024CEA5070B2F1004F40EB83007E
:1009E80008BF20F00100704711F0804F21D113F1AA
:1009F8003872BCBF01F00040704741F480114FEAE3
:100A08005252C2F11802C2F1200C10FA0CF320FA6B
:100A180002F018BF40F001004FEAC1234FEAD32388
:100A280003FA0CFC40EA0C0023FA02F34FEA4303F2
:100A3800CCE77FEA625307D150EA01331EBF4FF07B
:100A4800FE4040F44000704701F0004040F0FE4096
:100A580040F40000704700BF844641EA000313F0E9
:100A680003036DD1403A41D351F8043B40F8043BAD
:100A780051F8043B40F8043B51F8043B40F8043B70
:100A880051F8043B40F8043B51F8043B40F8043B60
:100A980051F8043B40F8043B51F8043B40F8043B50
:100AA80051F8043B40F8043B51F8043B40F8043B40
:100AB80051F8043B40F8043B51F8043B40F8043B30
:100AC80051F8043B40F8043B51F8043B40F8043B20
:100AD80051F8043B40F8043B51F8043B40F8043B10
:100AE80051F8043B40F8043B403ABDD2303211D3B0
:100AF80051F8043B40F8043B51F8043B40F8043BF0
:100B080051F8043B40F8043B51F8043B40F8043BDF
:100B1800103AEDD20C3205D351F8043B40F8043BAF
:100B2800043AF9D2043208D0D2071CBF11F8013BAD
:100B380000F8013B01D30B8803806046704700BF73
:100B4800082A13D38B078DD010F003038AD0C3F182
:100B58000403D21ADB071CBF11F8013B00F8013B64
:100B680080D331F8023B20F8023B7BE7043AD9D323
:100B7800013A11F8013B00F8013BF9D20B780370F8
:100B88004B7843708B7883706046704780B483B02D
:100B980000AF786000E000BF7B685A1E7A60002BC7
:100BA800F9D10C37BD465DF8047B704780B582B03B
:100BB80000AF40F6A813C2F200031B687B607B6895
:100BC800002B02D07B6898470CE04FF49040C4F2A9
:100BD8000000212102F00CFB44F24020C0F20F007B
:100BE800FFF7D4FF0837BD4680BD00BF80B500AF12
:100BF8004FF49040C4F20000452102F0F9FA00F0E9
:100C080029F848F28040C0F21E00FFF7BFFF00F04D
:100C18008BFC80BD80B582B000AF40F6E413C2F211
:100C280000031B687B607B68002B02D07B689847B9
:100C38000CE04FF49040C4F200007C2102F0D8FA96
:100C480044F24020C0F20F00FFF7A0FF0837BD466E
:100C580080BD00BF80B596B000AF4FF400100121F1
:100C680003F036FD0220012103F00AFD4FF40010C5
:100C7800012103F07DFD4FF40010002103F078FD01
:100C88004FF40010012103F0FBFC4FF4C0733B65E7
:100C9800022387F85430022387F85530012387F858
:100CA8005630012387F8573007F150034FF480601E
:100CB800C4F20200194602F083FE4FF48060C4F2C9
:100CC80002000821042202F009FF4FF48060C4F2F8
:100CD80002000721042202F001FF46F21000C4F2CC
:100CE80002003D21C1F2800103F0CAF846F210006B
:100CF800C4F20200002103F0A7F846F21000C4F283
:100D0800020002F033FF4FF000733B6045F21043DE
:100D1800C4F200037B6000237B614FF48063BB61F6
:100D28000023FB6100233B6200237B624FF4803386
:100D3800BB620423FB6203233B6300237B63002322
:100D4800BB630023FB6040F69013C2F20003BB6054
:100D58000E233B6146F21000C4F2020002F006FFC7
:100D68003B4646F21000C4F20200194603F014F89C
:100D78004FF4D453C0F206033B640023A7F8443071
:100D88004BF6FF73A7F846300023A7F84830002336
:100D9800A7F84A304FF48043A7F84C3007F14003D6
:100DA8004FF4A840C4F20000194603F05DF94FF46F
:100DB800A840C4F200004FF4E061002203F016FBE3
:100DC8004FF4407003F0FCFC1F2387F83C300A23E3
:100DD80087F83D30002387F83E30012387F83F30FD
:100DE80007F13C03184603F0FFFC202387F83C304A
:100DF8000A2387F83D30002387F83E30012387F81F
:100E08003F3007F13C03184603F0EEFC46F21000B1
:100E1800C4F202001021002203F062F80B2387F8C5
:100E28003C300A2387F83D30002387F83E30012301
:100E380087F83F3007F13C03184603F0D5FC46F22B
:100E48001000C4F202001021012203F049F84FF407
:100E5800A840C4F20000012103F0CCF95837BD4680
:100E680080BD00BF80B586B000AF0346B9607A6028
:100E7800FB734FF4A840C4F20000012103F0DAF933
:100E880000BF4FF4A840C4F200000121C0F20301E2
:100E980003F0D0FA0346002BF3D04FF4A840C4F275
:100EA8000000D021002203F005FA00BF4FF4A8404B
:100EB800C4F200008221C0F2070103F0BBFA034626
:100EC800002BF3D0FB7B4FF4A840C4F20000194676
:100ED80003F02EFA00BF4FF4A840C4F200008421AA
:100EE800C0F2070103F0A6FA0346002BF3D04FF433
:100EF800A840C4F20000012103F09CF900BF4FF4A0
:100F0800A840C4F200000121C0F2030103F092FAE4
:100F18000346002BF3D04FF4A840C4F20000D021C0
:100F2800012203F0C7F900BF4FF4A840C4F2000043
:100F38000221C0F2030103F07DFA0346002BF3D02F
:100F48007B68012B06D94FF4A840C4F200000121A8
:100F580003F0CEF926E07B68012B06D14FF4A840B8
:100F6800C4F20000002103F0C3F900BF4FF4A84009
:100F7800C4F200004021C0F2030103F05BFA03460B
:100F8800002BF3D04FF4A840C4F2000003F0E0F9BE
:100F98000346FB75BB685A1CBA60FA7D1A707B68F9
:100FA800013B7B607B68002BD5D14FF4A840C4F28D
:100FB8000000012103F05EF91837BD4680BD00BF6F
:100FC80080B582B000AF4FF4A840C4F2000003F02F
:100FD80061FA786040F6F013C2F200031B683B60C8
:100FE8007B6803F00203002B19D03B68012B0CD15E
:100FF80040F6B413C2F200031B784FF4A840C4F2C1
:101008000000194603F094F9B3E04FF4A840C4F285
:1010180000004FF4C061002203F0E8F9A9E03B6842
:10102800012B51D17B6803F00403002B4CD040F610
:10103800F013C2F2000302221A604FF4A840C4F26F
:101048000000012103F0F6F800BF4FF4A840C4F2F5
:10105800000003F01FFA034603F00103002BF4D04D
:101068004FF4A840C4F20000D021012203F022F975
:1010780040F64013C2F200031B68012B0ED94FF44F
:10108800A840C4F20000012103F032F94FF4A8404F
:10109800C4F20000012103F089F906E04FF4A840EA
:1010A800C4F20000002103F023F94FF4A840C4F271
:1010B8000000012103F05AF946F21000C4F20200C0
:1010C800012102F0C1FE54E07B6823F44033002B79
:1010D80000D14EE04FF49040C4F2000045F6603174
:1010E800C0F6000102F09AF84FF49040C4F20000F4
:1010F80045F69831C0F6000102F090F83B68DBB283
:101108004FF49040C4F20000194602F0B1F84FF4D1
:101118009040C4F2000045F6A031C0F6000102F08C
:101128007DF87B681B0CDBB24FF49040C4F20000E2
:10113800194602F09DF87B681B0ADBB24FF4904019
:10114800C4F20000194602F093F87B68DBB24FF452
:101158009040C4F20000194602F08AF84FF490401B
:10116800C4F2000045F6AC31C0F6000102F056F8B2
:10117800FEE70837BD4680BD80B500AF46F21000D7
:10118800C4F2020048F22001C1F2000102F0E2FEBE
:101198000346002B40D046F21000C4F2020048F289
:1011A8002001C1F2000102F02FFF4FF4A840C4F261
:1011B80000004FF4E061002203F018F94FF4A84052
:1011C800C4F20000002103F0D1F846F21000C4F286
:1011D8000200002102F038FE4FF4A840C4F20000DB
:1011E800012103F047F840F63423C2F200031A68DD
:1011F80040F64013C2F200031B68104640F69011F7
:10120800C2F200011A46FFF727FC40F6F013C2F2BB
:10121800000303221A60B6E04FF49040C4F20000C5
:1012280045F6B031C0F6000101F0F8FF4FF49040E8
:10123800C4F2000045F69831C0F6000101F0EEFF57
:1012480040F6F013C2F200031B68DBB24FF4904083
:10125800C4F20000194602F00BF84FF49040C4F2B3
:10126800000045F6D831C0F6000101F0D7FF46F27C
:101278001000C4F2020048F22001C1F2000102F09D
:1012880069FE03464FF49040C4F20000194601F08D
:10129800EFFF4FF49040C4F2000045F6E031C0F68D
:1012A800000101F0BBFF46F21000C4F2020044F254
:1012B8001001C1F2000102F04DFE03464FF49040C8
:1012C800C4F20000194601F0D3FF4FF49040C4F275
:1012D800000045F6E831C0F6000101F09FFF46F234
:1012E8001000C4F2020042F20801C1F2000102F04B
:1012F80031FE03464FF49040C4F20000194601F055
:10130800B7FF4FF49040C4F2000045F6F031C0F644
:10131800000101F083FF46F21000C4F2020041F21E
:101328000401C1F2000102F015FE03464FF490409B
:10133800C4F20000194601F09BFF4FF49040C4F23C
:10134800000045F6F831C0F6000101F067FF46F2EB
:101358001000C4F202000121C9F2000102F0FAFDF6
:1013680003464FF49040C4F20000194601F080FF94
:101378004FF49040C4F2000045F6AC31C0F60001CD
:1013880001F04CFFFEE780BD80B584B000AF034696
:10139800B9607A60FB7340F6E413C2F2000341F2CD
:1013A8008112C0F600021A6040F6A813C2F20003C8
:1013B80040F6C972C0F600021A6040F6B413C2F2D1
:1013C8000003FA7B1A7040F63423C2F20003BA68AD
:1013D8001A6040F64013C2F200037A681A6040F6B9
:1013E800F013C2F2000301221A604FF4A840C4F2BD
:1013F8000000012102F01EFF00BF4FF4A840C4F214
:10140800000003F047F8034603F00103002BF4D073
:101418004FF4A840C4F20000D021002202F04AFF95
:101428004FF4A840C4F200004FF44071012202F0CA
:10143800DDFF1037BD4680BD80B584B000AF0346E0
:10144800FB71FA7907F10F03104619460122FFF7DD
:1014580009FDFB7B18461037BD4680BD80B582B0BC
:1014680000AF03460A46FB711346BB714FF4A84010
:10147800C4F20000012102F0DDFE00BF4FF4A840D5
:10148800C4F200000121C0F2030102F0D3FF0346B9
:10149800002BF3D04FF4A840C4F20000D021002262
:1014A80002F008FF00BF4FF4A840C4F200008221F8
:1014B800C0F2070102F0BEFF0346002BF3D0FB7910
:1014C8004FF4A840C4F20000194602F031FF00BFF3
:1014D8004FF4A840C4F200008421C0F2070102F0D2
:1014E800A9FF0346002BF3D0BB794FF4A840C4F200
:1014F8000000194602F01CFF00BF4FF4A840C4F2D8
:1015080000008421C0F2070102F094FF0346002B7B
:10151800F3D04FF4A840C4F20000012102F0AAFE63
:101528000837BD4680BD00BF80B582B000AF6B20D4
:101538000221FFF793FF49F2E030C0F20400FFF701
:1015480025FB6B20FFF778FF0346FB71FB79022B25
:1015580000D046E06B208221FFF780FF49F2E0309F
:10156800C0F20400FFF712FB6B20FFF765FF03468C
:10157800FB71FB79402B00D033E06B200221FFF791
:101588006DFF49F2E030C0F20400FFF7FFFA6B206C
:10159800FFF752FF0346FB71FB79022B00D020E0D6
:1015A8001A200021FFF75AFF19200721FFF756FFDD
:1015B8001B201821FFF752FF1C201821FFF74EFFB0
:1015C8002320F821FFF74AFF37202021FFF746FFA5
:1015D80038201121FFF742FF6A200021FFF73EFF64
:1015E80000E0A4E70837BD4680BD00BF80B485B0E1
:1015F80000AF03460A46FB711346BB71FB791B0219
:101608009AB2BB799BB213439BB2FB81FB891BB295
:1016180018461437BD465DF8047B704780B582B024
:1016280000AF78607B68062B00F2928001A252F826
:1016380023F000BF5916000899160008B9160008CB
:10164800D9160008F91600081917000839170008F4
:101658003B2040F61C21C2F200010E22FFF794FE47
:1016680000BF40F6F013C2F200031B68032BF8D149
:1016780040F61C23C2F200031A7840F61C23C2F27B
:1016880000035B7810461946FFF7B0FF034660E099
:1016980040F61C23C2F200039A7840F61C23C2F2DB
:1016A8000003DB7810461946FFF7A0FF034650E019
:1016B80040F61C23C2F200031A7940F61C23C2F23A
:1016C80000035B7910461946FFF790FF034640E098
:1016D80040F61C23C2F200031A7A40F61C23C2F219
:1016E80000035B7A10461946FFF780FF034630E097
:1016F80040F61C23C2F200039A7A40F61C23C2F279
:101708000003DB7A10461946FFF770FF034620E016
:1017180040F61C23C2F200031A7B40F61C23C2F2D7
:1017280000035B7B10461946FFF760FF034610E095
:1017380040F61C23C2F200039A7940F61C23C2F239
:101748000003DB7910461946FFF750FF034600E017
:1017580000231BB218460837BD4680BD80B582B04D
:1017680000AF87ED010A3860D7ED017AF5EEC07A4F
:10177800F1EE10FA14DBD7ED017AF1EEE77AF4EE28
:10178800677AF1EE10FA05D097ED010A03F0A2FC92
:10179800F0EE407A17EE902A3B681A60002304E0C6
:1017A8003B684FF000021A60FF235BB21846083707
:1017B800BD4680BD80B500AF40F64C23C2F20003A1
:1017C80000221A6040F63023C2F2000378221A6021
:1017D80040F64C23C2F20003F0221A6040F684233C
:1017E800C2F200034FF000021A6040F66413C2F21E
:1017F80000034FF000021A6040F68013C2F20003A3
:101808004FF000021A6040F67C13C2F200034FF05A
:1018180000021A6040F66C13C2F200034FF0000297
:101828001A6040F67423C2F200034FF000021A60F7
:1018380040F6C413C2F200034FF000021A6040F6EB
:101848002C23C2F200034FF000021A6040F6B813CE
:10185800C2F200034FF000021A6040F6BC13C2F255
:1018680000034FF000021A6040F61423C2F200038E
:101878004FF000021A6040F68023C2F200034FF0D6
:1018880000021A6040F63813C2F200034FF000025B
:101898001A6040F6EC13C2F200034FF000021A601F
:1018A80040F67413C2F200034FF000021A6040F6CB
:1018B8007813C2F2000300221A6040F6E813C2F25D
:1018C800000300221A6001F0ADFA024640F65013F8
:1018D800C2F200031A6001F0A5FA024640F6C013EE
:1018E800C2F200031A604FF49040C4F2000045F6BB
:1018F8000041C0F6000101F091FC4FF49040C4F2A1
:10190800000045F63041C0F6000101F087FC80BDBB
:1019180080B582B000AF786040F65013C2F2000381
:101928001B687A68D31A312B5CD940F65013C2F27F
:1019380000037A681A6000F059F840F65013C2F2B2
:1019480000031B6807EE903AF8EE677A4FF480437D
:10195800C4F21C6307EE103AC7EE877A4FF4904042
:10196800C4F20000B0EE670A0521032201F0CCFDA5
:101978004FF49040C4F2000045F64841C0F600011B
:1019880001F04CFC40F6F813C2F20003D3ED007AE4
:101998004FF49040C4F20000B0EE670A032103221E
:1019A80001F0B2FD4FF49040C4F2000045F6484102
:1019B800C0F6000101F032FC40F6E813C2F2000361
:1019C8001B684FF49040C4F20000194601F0B4FCC3
:1019D8004FF49040C4F2000045F64C41C0F60001B7
:1019E80001F01CFC0837BD4680BD00BF80B500AFC4
:1019F8000020FFF713FE034607EE903AF8EEE77A69
:101A08004FF08A4307EE103A87EE877A40F6341390
:101A1800C2F20003D3ED007A77EE677A40F64C13F2
:101A2800C2F20003C3ED007A0120FFF7F7FD034679
:101A380007EE903AF8EEE77A4FF08A4307EE103A4D
:101A480087EE877A40F61423C2F20003D3ED007ABA
:101A580077EE677A40F6B013C2F20003C3ED007A5E
:101A68000220FFF7DBFD034607EE903AF8EEE77A2F
:101A78004FF08A4307EE103AC7EE877A40F65423B0
:101A8800C2F20003C3ED007A0320FFF7C7FD034647
:101A980007EE903AF8EEE77A43F23333C4F2831351
:101AA80007EE103A87EE877A40F63813C2F2000341
:101AB800D3ED007A77EE677A40F60823C2F2000386
:101AC800C3ED007A0420FFF7A9FD034607EE903A1C
:101AD800F8EEE77A43F23333C4F2831307EE103A91
:101AE80087EE877A40F6EC13C2F20003D3ED007A52
:101AF80077EE677A40F6A413C2F20003C3ED007ACA
:101B08000520FFF78BFD034607EE903AF8EEE77ADB
:101B180043F23333C4F2831307EE103A87EE877A21
:101B280040F67413C2F20003D3ED007A77EE677AB9
:101B380040F67C23C2F20003C3ED007A0620FFF7CB
:101B48006DFD034607EE903AF8EEE77A4FF0000392
:101B5800C4F2AA3307EE103AC7EE877A41F6B863A3
:101B6800C4F2122307EE103A77EE877A40F68C1308
:101B7800C2F20003C3ED007A40F67813C2F2000304
:101B88001B68002B46D140F64C13C2F2000393EDBC
:101B9800007A40F6B013C2F20003D3ED007AB0EE3B
:101BA800470AF0EE670A40F63410C2F2000040F629
:101BB8001421C2F2000100F04BFB40F60823C2F2E8
:101BC8000003D3ED006A40F6A413C2F2000393EDBC
:101BD800007A40F67C23C2F20003D3ED007AB0EE1F
:101BE800660AF0EE470AB0EE671A40F63810C2F2FD
:101BF800000040F6EC11C2F2000140F67412C2F285
:101C0800000200F08DFB024640F67813C2F2000392
:101C18001A6028E000F028F800F0C0F840F6DC135D
:101C2800C2F2000393ED007A40F65013C2F20003AB
:101C38001B6807EE903AF8EE677AB0EE470AF0EEC6
:101C4800670A0020C4F2010000F0AEFC0346002041
:101C5800C4F20100194601F0F1F8024640F6E81313
:101C6800C2F200031A6080BD80B582B000AF40F6B2
:101C7800B013C2F2000393ED007A40F6B013C2F23B
:101C88000003D3ED007A27EE277A40F65423C2F2F8
:101C98000003D3ED006A40F65423C2F20003D3EDEB
:101CA800007A66EEA77A77EE277A3B1DB0EE670AD0
:101CB8001846FFF753FD40F64C13C2F2000393EDAC
:101CC800007AD7ED017AC7EE277AB0EE670A00F0FE
:101CD800D5FDF0EE407A4FF00003C4F2343307EE3E
:101CE800103A67EE877A40F6DB73C4F2490307EED1
:101CF800103AC7EE877A40F65413C2F20003C3EDD8
:101D0800007A40F64C13C2F2000393ED007A40F6D5
:101D18004C13C2F20003D3ED007A27EE277A40F67F
:101D28005423C2F20003D3ED006A40F65423C2F2F2
:101D38000003D3ED007A66EEA77A77EE277A3B1D8B
:101D4800B0EE670A1846FFF709FD40F6B013C2F275
:101D5800000393ED007AD7ED017AC7EE277AB0EE4B
:101D6800670A00F08BFDF0EE407A4FF00003C4F2F2
:101D7800343307EE103A67EE877A40F6DB73C4F225
:101D8800490307EE103AC7EE877A40F65823C2F2A5
:101D98000003C3ED007A0837BD4680BD80B400AFAC
:101DA80040F60823C2F20003D3ED007A4DF20A731D
:101DB800C3F6234307EE103A27EE877A40F6B813A6
:101DC800C2F20003D3ED007A77EE277A45F2EC13DE
:101DD800C3F6787307EE103A27EE877A40F6541365
:101DE800C2F20003D3ED007A4CF28F23C3F6F54319
:101DF80006EE903A67EEA67A77EE277A40F6F81361
:101E0800C2F20003C3ED007A40F6A413C2F2000345
:101E1800D3ED007A4DF20A73C3F6234307EE103A66
:101E280027EE877A40F6BC13C2F20003D3ED007A9E
:101E380077EE277A48F21F53C3F66B7307EE103A12
:101E480027EE877A40F65823C2F20003D3ED007AD2
:101E58004DF20A73C3F6A35306EE903A67EEA67ADC
:101E680077EE277A40F6DC13C2F20003C3ED007A5E
:101E780040F67C23C2F20003D3ED007A4DF20A73D8
:101E8800C3F6234307EE103A67EE877A40F6A013AD
:101E9800C2F20003C3ED007A40F6F813C2F2000361
:101EA8001A6840F6B813C2F200031A6040F6DC1351
:101EB800C2F200031A6840F6BC13C2F200031A60AB
:101EC800BD465DF8047B704780B400AF40F6F81358
:101ED800C2F200031B6807EE903AB0EE670ABD46EF
:101EE8005DF8047B704700BF80B582B000AF87ED16
:101EF800010A386097ED010A00F02CFB0346012B1C
:101F080021D140F64C23C2F200031B685A1C40F64C
:101F18004C23C2F200031A6040F63023C2F20003D9
:101F28001B685A1C40F63023C2F200031A6040F6C0
:101F38007023C2F200031B685A1C40F67023C2F2D9
:101F480000031A6028E097ED010A00F003FB03463E
:101F5800B3F1FF3F20D140F64C23C2F200031B68C7
:101F68005A1E40F64C23C2F200031A6040F6302392
:101F7800C2F200031B685A1E40F63023C2F2000367
:101F88001A6040F67023C2F200031B685A1E40F61E
:101F98007023C2F200031A6040F64C23C2F2000319
:101FA8001B68B3F5B47F05DB40F64C23C2F200038F
:101FB80000221A6040F63023C2F200031B68B3F512
:101FC800B47F05DB40F63023C2F2000300221A601A
:101FD80040F67023C2F200031B68B3F5B47F05DB3B
:101FE80040F67023C2F2000300221A6040F64C2328
:101FF800C2F200031B68002B06DA40F64C23C2F23B
:10200800000340F267121A6040F63023C2F2000360
:102018001B68002B06DA40F63023C2F2000340F2B8
:1020280067121A6040F67023C2F200031B68002B87
:1020380006DA40F67023C2F2000340F267121A6013
:1020480040F64C23C2F200031A6845F65043C0F626
:10205800000392001344D3ED007A4FF47053C4F296
:10206800036307EE103A67EE877A40F68423C2F2DC
:102078000003C3ED007A40F63023C2F200031A6869
:1020880045F65043C0F6000392001344D3ED007A9E
:102098004FF47053C4F2036307EE103A67EE877A81
:1020A80040F66413C2F20003C3ED007A40F67023D1
:1020B800C2F200031A6845F65043C0F600039200C6
:1020C8001344D3ED007A4FF47053C4F2036307EE60
:1020D800103A67EE877A40F68013C2F20003C3ED28
:1020E800007A40F68423C2F20003D3ED007AFCEEB6
:1020F800E77A386817EE901A02F0E2FE40F66413A9
:10210800C2F20003D3ED007AFCEEE77A386817EEE6
:10211800901A02F0E3FE40F68013C2F20003D3EDFA
:10212800007AFCEEE77A386817EE901A02F0E4FEBF
:102138000837BD4680BD00BF80B400AF40F6F41339
:10214800C2F200034FF000021A6040F6FC13C2F21C
:1021580000034FF000021A6040F61023C2F2000399
:102168004FF000021A6040F63C23C2F200034FF021
:1021780000021A6040F68813C2F200034FF0000212
:102188001A6040F6E013C2F200034FF000021A6032
:1021980040F66813C2F200034FF000021A6040F6DE
:1021A8001823C2F200034FF000021A6040F67823A9
:1021B800C2F2000300221A6040F64413C2F2000380
:1021C80041F26F22C3F683221A6040F65023C2F20E
:1021D800000349F6A632C3F644321A6040F6C81323
:1021E800C2F200034CF28F22C3F6F5421A6040F6A1
:1021F8000023C2F200034FF000021A6040F64813B1
:10220800C2F200034FF000021A6040F64813C2F20F
:1022180000034FF000025A6040F64813C2F2000370
:102228004FF000025A6040F64813C2F200034FF024
:1022380000029A6040F64423C2F200034DF20A728B
:10224800C3F6A3321A60BD465DF8047B704700BF31
:1022580080B485B000AF87ED030AC7ED020A786045
:10226800396040F67823C2F200031B685A1C40F616
:102278007823C2F200031A6040F61023C2F200036A
:1022880093ED007AD7ED037A77EE277A40F610239C
:10229800C2F20003C3ED007A40F63C23C2F2000309
:1022A80093ED007AD7ED027A77EE277A40F63C2351
:1022B800C2F20003C3ED007A40F67823C2F20003AD
:1022C8001B6840F2DB52934223D940F61023C2F236
:1022D8000003D3ED007A4FF40043C4F2BB4307EE8A
:1022E800103AC7EE877A7B68C3ED007A40F63C2344
:1022F800C2F20003D3ED007A4FF40043C4F2BB43AB
:1023080007EE103AC7EE877A3B68C3ED007A0123DF
:1023180000E0002318461437BD465DF8047B70477B
:1023280080B487B000AF87ED050AC7ED040A87EDD2
:10233800031AB86079603A6040F6E013C2F200030D
:1023480093ED007AD7ED057A77EE277A40F6E01319
:10235800C2F20003C3ED007A40F66813C2F200032C
:1023680093ED007AD7ED047A77EE277A40F6681372
:10237800C2F20003C3ED007A40F61823C2F200034C
:1023880093ED007AD7ED037A77EE277A40F6182393
:10239800C2F20003C3ED007A40F67823C2F20003CC
:1023A8001B6840F2DB52934234D940F6E013C2F284
:1023B8000003D3ED007A4FF40043C4F2BB4307EEA9
:1023C800103AC7EE877ABB68C3ED007A40F6681307
:1023D800C2F20003D3ED007A4FF40043C4F2BB43CA
:1023E80007EE103AC7EE877A7B68C3ED007A40F6AD
:1023F8001823C2F20003D3ED007A4FF40043C4F26D
:10240800BB4307EE103AC7EE877A3B68C3ED007A04
:10241800012300E0002318461C37BD465DF8047B05
:10242800704700BF80B584B000AF786040F6700395
:10243800C2F200031B68002B08D140F67003C2F2F9
:10244800000340F69022C2F200021A6040F67003C0
:10245800C2F200031B68FB6040F67003C2F200037F
:102468001A687B6813446A46934207D904F01CFC37
:1024780002460C2313604FF0FF330CE040F6700364
:10248800C2F200031A687B681A4440F67003C2F26D
:1024980000031A60FB6818461037BD4680BD00BFB0
:1024A80080B483B000AF00237B600CE040F65C236F
:1024B800C2F200037A68920013444FF000021A60D7
:1024C8007B6801337B607B68052BEFDD40F6D41316
:1024D800C2F200034FF00002C4F2FA421A6040F65A
:1024E8008823C2F200034FF000021A6040F640232E
:1024F800C2F200034FF000021A6040F65813C2F20D
:1025080000034FF000021A6040F64823C2F20003AD
:102518004FF000021A6040F6CC13C2F200034FF0ED
:1025280000021A6040F60C23C2F200034FF47F4207
:10253800C4F27F721A6040F65C13C2F200034FF4D3
:102548007F42C4F27F721A600C37BD465DF8047B87
:10255800704700BF80B483B000AF87ED010A4FF029
:10256800000307EE103AD7ED017A77EE677AF5EEB9
:10257800C07AF1EE10FA02DD4FF0FF330EE04FF0B3
:10258800000307EE103AD7ED017A77EE677AF5EE99
:10259800C07AF1EE10FA01D50123FFE718460C378F
:1025A800BD465DF8047B704780B485B000AF87ED09
:1025B800030AC7ED020A78607A680023C4F20103AF
:1025C8009A4240F0C880D7ED037AF5EEC07AF1EE72
:1025D80010FA05D5D7ED037AF1EE677AC7ED037ADD
:1025E8004FF0000307EE103AD7ED037A77EE677ADB
:1025F80040F65C23C2F20003C3ED007A40F65C2388
:10260800C2F2000393ED007A40F65C23C2F20003A5
:10261800D3ED017A37EE677A40F6D413C2F200039D
:10262800D3ED007A27EE277A40F65C23C2F2000346
:10263800D3ED006A40F68823C2F20003D3ED007A96
:1026480066EEA77A37EE277A40F65C23C2F20003DB
:10265800D3ED006A40F65C23C2F20003D3ED017AA1
:1026680076EEE76A40F65C23C2F2000393ED016A56
:1026780040F65C23C2F20003D3ED027A76EE677A65
:1026880076EEE76A40F64023C2F20003D3ED007A03
:1026980066EEA77A37EE277A40F60C23C2F20003DB
:1026A800D3ED007A77EE277A40F60C23C2F20003C6
:1026B800C3ED007A40F60C23C2F20003D3ED007A92
:1026C8004FF48043C4F21C6307EE103AF4EEC77A65
:1026D800F1EE10FA08D540F60C23C2F200034FF4CD
:1026E8008042C4F21C621A6040F60C23C2F2000356
:1026F800D3ED007A4FF47F43C4F27F7307EE103AAC
:10270800F4EEC77AF1EE10FA08DD40F60C23C2F2B7
:1027180000034FF47F42C4F27F721A6040F65C23D4
:10272800C2F200035A6840F65C23C2F200039A60C2
:1027380040F65C23C2F200031A6840F65C23C2F23A
:1027480000035A6040F60C23C2F20003D3ED007A6E
:10275800FDEEE77A89E07A684FF4A053C4F20003EB
:102768009A4240F081804FF0000307EE103AD7ED0F
:10277800037A77EE677A40F65C23C2F20003C3ED72
:10278800037A40F65C23C2F2000393ED037A40F625
:102798005813C2F20003D3ED007A27EE277A40F6E9
:1027A8005C23C2F20003D3ED036A40F65C23C2F255
:1027B8000003D3ED047A76EEA76A40F65C23C2F2F2
:1027C8000003D3ED057A76EEA76A40F64823C2F2F5
:1027D8000003D3ED007A66EEA76AD7ED027A66EEBB
:1027E800A77A77EE277AFDEEE77AB8EEE77A40F631
:1027F8005C13C2F20003D3ED007A77EE277A40F635
:102808005C13C2F20003C3ED007A40F65C13C2F217
:102818000003D3ED007AF5EEC07AF1EE10FA06D592
:1028280040F65C13C2F200034FF000021A6040F653
:102838005C23C2F200031A6940F65C23C2F200036B
:102848005A6140F65C23C2F20003DA6840F65C2362
:10285800C2F200031A6140F65C13C2F20003D3ED22
:10286800007AFDEEE77A00E001E017EE903A1846AC
:102878001437BD465DF8047B704700BF80B586B04D
:1028880000AF87ED010AD7ED017AF5EEC07AF1EED7
:1028980010FA0CD5D7ED017AF1EE677AB0EE670A37
:1028A800FFF7ECFFF0EE407AF1EE677A89E0D7EDBA
:1028B800017AF5EE407AF1EE10FA04D14FF00003F8
:1028C80007EE903A7DE001237B6171E046F61C43F8
:1028D800C0F600037A699200134493ED007AD7EDAD
:1028E800017AB4EEE77AF1EE10FA5EDB7B695A1EE4
:1028F80013465B001344DB0007EE903AB8EEE77A24
:102908007B695A1E46F61C43C0F600039200134426
:10291800D3ED007AD7ED016A76EEE76A7B695A1E35
:1029280046F6B433C0F6000392001344D3ED007AA0
:10293800C6EEA77A77EE277AC7ED047AD7ED047A40
:10294800FDEEE77A17EE903AFB60FB6807EE903AE7
:10295800F8EEE77A97ED047A77EE677AC7ED027AB0
:1029680046F2F013C0F60003FA689200134493EDA0
:10297800007AFB685A1C46F2F013C0F60003920076
:102988001344D3ED006A46F2F013C0F60003FA6868
:1029980092001344D3ED007A76EEE76AD7ED027A17
:1029A80066EEA77A77EE277A0BE07B6901337B61C5
:1029B8007B691A2B8ADD40F62323C3F6C97307EE19
:1029C800903AB0EE670A1837BD4680BD80B485B02E
:1029D80000AF87ED010A38607B68BB600023FB60AD
:1029E8000AE097ED017AD7ED027A67EE277AC7ED0C
:1029F800017AFB680133FB60FA683B68013B9A4245
:102A0800EFD37B6807EE903AB0EE670A1437BD46FD
:102A18005DF8047B704700BF80B500AF4FF0804081
:102A2800012102F0F3FA0346002B0FD04FF080404B
:102A3800012102F015FB40F63823C2F200031B689F
:102A48005A1C40F63823C2F200031A6080BD00BF4A
:102A580080B500AF0020C4F20100012102F0D6FACF
:102A68000346002B11D00020C4F20100012102F01E
:102A7800F7FAFFF729FAF0EE407AB0EE670A4FF45A
:102A88000060C4F20000FFF72FFA80BD80B500AFE8
:102A98004FF4A050C4F20000012102F0B7FA034637
:102AA800002B06D04FF4A050C4F20000012102F020
:102AB800D7FA80BD80B500AF4FF48060C4F2010042
:102AC800012102F0A3FA0346002B06D04FF48060E0
:102AD800C4F20100012102F0C3FA80BD80B500AF45
:102AE80040F63823C2F2000300221A6000F08AF987
:102AF8004FF48060C4F2000000F022F84FF4006048
:102B0800C4F2000000F01CF84FF44060C4F200006A
:102B180000F016F800F040F90020C4F2010000F0BF
:102B280059F84FF4A050C4F2000000F053F84FF4E5
:102B38008060C4F2010000F04DF800F071F880BD2B
:102B480080B58AB000AF786000F090F80023BB83AE
:102B58000023FB8342F2CF033B620023BB840023A4
:102B680087F8263007F11C037868194601F09CFFA6
:102B78007868012102F00EF860233B8101237B81F4
:102B88000023BB8200233B6107F1080378681946DC
:102B980002F020F87868082102F0BCF900233B61B4
:102BA80007F108037868194602F09CF8786808214C
:102BB80002F0CEF900233B6107F108037868194653
:102BC80002F016F97868082102F0DEF92837BD46C8
:102BD80080BD00BF80B586B000AF78605323BB814D
:102BE8000023FB814FF4FA733B610023BB8200236F
:102BF800BB7507F10C037868194601F055FF786832
:102C0800012102F02DFA78680121012202F0DAF997
:102C18007868012101F0BEFF1837BD4680BD00BFAE
:102C280080B584B000AF5323BB800023FB806423AE
:102C3800BB600023BB810023BB733B1D4FF080406A
:102C4800194601F031FF4FF08040012102F008FAE7
:102C58004FF080400121012202F0B4F94FF080408A
:102C6800012101F097FF1037BD4680BD80B582B0C5
:102C780000AF4FF48060C4F202000721022200F086
:102C88002DFF4FF48060C4F202000821022200F0F8
:102C980025FF4FF48060C4F202000921022200F0EF
:102CA8001DFF4FF44060C4F202000D21022200F023
:102CB80015FF4FF44060C4F202000E21022200F01A
:102CC8000DFF4FF44060C4F202000F21022200F011
:102CD80005FF0020C4F202000221022200F0FEFEDD
:102CE8000020C4F202000321022200F0F7FE0020B7
:102CF800C4F202000421022200F0F0FE4FF46073D7
:102D08003B600023BB710023FB7102233B7103234B
:102D18007B713B464FF48060C4F20200194600F014
:102D28004FFE4FF460433B600023BB710023FB71EF
:102D380002233B7103237B713B464FF44060C4F28E
:102D48000200194600F03CFE1C233B600023BB71C7
:102D58000023FB7102233B7103237B713B46002058
:102D6800C4F20200194600F02BFE4FF480533B607A
:102D78000023BB710023FB7101233B7103237B718B
:102D88003B464FF44060C4F20200194600F018FEBA
:102D98000837BD4680BD00BF80B582B000AF1C2398
:102DA8003B7100237B710123BB710123FB713B1D28
:102DB800184601F019FD37233B7100237B7101236D
:102DC800BB710123FB713B1D184601F00DFD192352
:102DD8003B7100237B710123BB710123FB713B1DF8
:102DE800184601F001FD2C233B7100237B71012360
:102DF800BB710123FB713B1D184601F0F5FC083738
:102E0800BD4680BD80B500AF0B20012101F038FC24
:102E18002F20012101F05CFC0320012101F080FC3E
:102E280080BD00BF80B400AF40F63823C2F2000373
:102E38001B681846BD465DF8047B704780B586B0B0
:102E480000AF786039600423BB810023FB813B68B5
:102E58003B610023BB820023BB7507F10C03786834
:102E6800194601F021FE78680121012202F0AAF832
:102E78007868012101F08EFE3B6818461837BD4678
:102E880080BD00BF80B582B000AF00F069F9FEF7E1
:102E980091FCFFF751F9FFF703FBFFF71FFE48F21C
:102EA8008040C0F21E00FDF771FEFDF7D3FE48F228
:102EB8008040C0F21E00FDF769FEFEF735FB752065
:102EC800FEF7BAFA0346FB71FB794FF49040C4F25F
:102ED8000000194600F0CCF96B20FEF7ADFA034666
:102EE800FB71FB794FF49040C4F20000194600F0E2
:102EF800BFF9FFF797FF03461846FEF709FDF8E705
:102F080080B400AFBD465DF8047B704780B400AF65
:102F1800FEE700BF80B400AFFEE700BF80B400AF9B
:102F2800FEE700BF80B400AFFEE700BF80B400AF8B
:102F3800BD465DF8047B704780B500AF4FF46D4324
:102F4800CEF200034FF46D42CEF20002D2F8882090
:102F580042F47002C3F888204FF46053C4F20203AD
:102F68004FF46052C4F20202126842F001021A6081
:102F78004FF46053C4F2020300229A604FF4605287
:102F8800C4F202024FF46053C4F202031B6823F038
:102F9800847323F4803313604FF46053C4F2020344
:102FA80043F21002C2F200425A604FF46053C4F276
:102FB80002034FF46052C4F20202126822F4802223
:102FC8001A604FF46053C4F202030022DA6000F082
:102FD80009F84FF46D43CEF200034FF000629A6097
:102FE80080BD00BF80B483B000AF00237B600023A6
:102FF8003B604FF46053C4F202034FF46052C4F2D2
:103008000202126842F480321A604FF46053C4F22C
:1030180002031B6803F400333B607B6801337B6069
:103028003B68002B03D17B68B3F5A04FEDD14FF47B
:103038006053C4F202031B6803F40033002B02D070
:1030480001233B6001E000233B603B68012B40F01B
:1030580082804FF46053C4F202034FF46052C4F20A
:103068000202126C42F080521A644FF4E043C4F238
:1030780000034FF4E042C4F20002126842F44042F6
:103088001A604FF46053C4F202034FF46052C4F262
:10309800020292689A604FF46053C4F202034FF43C
:1030A8006052C4F20202926842F400429A604FF4FD
:1030B8006053C4F202034FF46052C4F202029268F1
:1030C80042F4A0529A604FF46053C4F2020345F2EE
:1030D8000842C0F240725A604FF46053C4F20203CF
:1030E8004FF46052C4F20202126842F080721A6011
:1030F80000BF4FF46053C4F202031B6803F000736F
:10310800002BF6D04FF47053C4F2020340F205725C
:103118001A604FF46053C4F202034FF46052C4F2D1
:103128000202926822F003029A604FF46053C4F2DC
:1031380002034FF46052C4F20202926842F00202A3
:103148009A6000BF4FF46053C4F202039B6803F017
:103158000C03082BF6D10C37BD465DF8047B70478D
:1031680080B586B000AF4FF48020012101F0B0FA9D
:103178000820012101F084FA4FF480733B61022397
:103188003B7502237B750023BB750123FB7507F193
:1031980010034FF44060C4F20200194600F010FC1E
:1031A8004FF44060C4F202000821072200F096FCA8
:1031B8004FF4E1333B600023BB800023FB800023F6
:1031C8003B810023BB8108237B813B464FF4904021
:1031D800C4F20000194601F06FFB4FF49040C4F2AE
:1031E8000000012101F02EFC1837BD4680BD00BF4C
:1031F80080B582B000AF7860396000BF7B681B88FB
:103208009BB203F04003002BF8D03B689BB2786870
:10321800194601F037FC0837BD4680BD80B582B03D
:1032280000AF7860396008E03B685A1C3A601B7848
:10323800DBB278681946FFF7DBFF3B681B78002B89
:10324800F2D10837BD4680BD80B582B000AF786046
:1032580039603B68092B02D93B68373301E03B688A
:10326800303378681946FFF7C3FF0837BD4680BD7D
:1032780080B582B000AF78600B46FB70FB781B0905
:10328800DBB278681946FFF7DFFFFB7803F00F031E
:1032980078681946FFF7D8FF0837BD4680BD00BFDC
:1032A80080B58AB000AF7860396007F10C037B62A3
:1032B8004FF44A43C3F69A333B6208E03A6A4CF645
:1032C800CD43CCF6CC43A3FB0223DB083B623A6A2E
:1032D8003B689A4202D93B6A012BEFD83A683B6AAD
:1032E800B2FBF3F3FB617B6A5A1C7A62FA69D2B2C9
:1032F8003032D2B2D2B21A70FB693A6A02FB03F3D7
:103308003A68D31A3B603A6A4CF6CD43CCF6CC43C4
:10331800A3FB0223DB083B623B6A002BDED17B6AFE
:1033280000221A7007F10C0378681946FFF776FF38
:103338002837BD4680BD00BF80B582B000AF786039
:1033480039603B68002B0ADA78682D21FFF750FFB7
:103358003B685B4278681946FFF7A2FF04E03B68C8
:1033680078681946FFF79CFF0837BD4680BD00BF47
:1033780080B588B000AFF86087ED020A79603A60DE
:10338800D7ED027AF5EE407AF1EE10FA07D1FB6834
:1033980030221A70FB68013300221A70B0E0D7EDB2
:1033A800027AF5EEC07AF1EE10FA0AD5FB685A1CDB
:1033B800FA602D221A70D7ED027AF1EE677AC7ED1E
:1033C800027AB2EE040A7868FFF700FB87ED070A75
:1033D80097ED027AD7ED077AB4EEE77AF1EE10FAB4
:1033E80007DBFB6823221A70FB68013300221A707E
:1033F80086E00123FB7644E0D7ED077AB2EE047A43
:10340800C7EE877AC7ED077A97ED027AD7ED077A84
:10341800C7EE277AFCEEE77A17EE903A7B61FB7EDF
:10342800002B11D07B69002B0ED1D7ED077AB2EEB5
:10343800047AF4EEC77AF1EE10FA05DBFB685A1C41
:10344800FA6020221A7019E00023FB76FB685A1CE8
:10345800FA607A69D2B23032D2B2D2B21A707B69CB
:1034680007EE903AB8EE677AD7ED077A67EE277AD3
:1034780097ED027A77EE677AC7ED027A7B68013BAF
:103488007B607B68002BB7D13B68002B05D1FB68BC
:103498005A1CFA6000221A7032E0FB685A1CFA6063
:1034A8002E221A70D7ED027AB2EE047A67EE877A86
:1034B800C7ED027AD7ED027AFCEEE77A17EE903A7A
:1034C8007B61FB685A1CFA607A69D2B23032D2B298
:1034D800D2B21A707B6907EE903AF8EE677A97EDE8
:1034E800027A77EE677AC7ED027A3B68013B3B6068
:1034F8003B68002BD6D1FB685A1CFA6000221A7070
:103508002037BD4680BD00BF80B58CB000AFF860E5
:1035180087ED020A79603A6007F11403FB62F86AE2
:1035280097ED020A79683A68FFF722FF02E0FB6A22
:103538000133FB62FB6A1B78002BF8D1FB6A00227F
:103548001A7007F11403F8681946FFF767FE303759
:10355800BD4680BD80B485B000AF786039607B68B7
:103568005B68FB603B68FA685A60FB689A683B686E
:103578009A60FB689B683A685A60FB683A689A6088
:103588003B687A681A617B681B685A1C7B681A60FA
:103598001437BD465DF8047B704700BF80B485B022
:1035A80000AF78607B681B69FB607B685B687A6842
:1035B80092689A607B689B687A6852685A60FB6870
:1035C8005A687B689A4203D17B689A68FB685A609C
:1035D8007B6800221A61FB681B685A1EFB681A6028
:1035E800FB681B6818461437BD465DF8047B7047B6
:1035F80080B586B000AF00237B6140F6FC03C2F2C1
:1036080000031B68002B40F0CE8040F6E403C2F2B2
:1036180000031B685A1C40F6E403C2F200031A6058
:1036280040F6E403C2F200031B683B613B69002BD0
:1036380034D140F6DC03C2F200031B681B68002B80
:1036480009D04FF0500383F31188BFF36F8FBFF396
:103658004F8F3B60FEE740F6DC03C2F200031B68B5
:10366800FB6040F6E003C2F200031A6840F6DC0390
:10367800C2F200031A6040F6E003C2F20003FA68DF
:103688001A6040F6F403C2F200031B685A1C40F6A5
:10369800F403C2F200031A6000F002F940F6F803DE
:1036A800C2F200031B683A699A4267D340F6DC030A
:1036B800C2F200031B681B68002B01D1012300E044
:1036C8000023002B07D040F6F803C2F200034FF0A6
:1036D800FF321A6052E040F6DC03C2F200031B68B6
:1036E800DB68DB68BB60BB685B687B603A697B68EA
:1036F8009A4206D240F6F803C2F200037A681A60CA
:103708003CE0BB6804331846FFF748FFBB689B6A78
:10371800002B04D0BB6818331846FFF73FFFBB687F
:10372800DB6A1A46012303FA02F240F6E803C2F202
:1037380000031B681A4340F6E803C2F200031A604C
:10374800BB68DA6A13469B0013449B0040F6780274
:10375800C2F200021A44BB68043310461946FFF748
:10376800F9FEBB68DA6A40F67403C2F200031B680C
:10377800DB6A9A4201D301237B6197E740F6740321
:10378800C2F200031B68D96A40F67802C2F200024E
:103798000B469B000B449B0013441B68012B0DD95F
:1037A80001237B610AE040F6EC03C2F200031B68C8
:1037B8005A1C40F6EC03C2F200031A6040F6F0030C
:1037C800C2F200031B68002B01D001237B617B69D7
:1037D80018461837BD4680BD80B487B000AF40F6A4
:1037E800FC03C2F200031B68002B06D040F6F0036E
:1037F800C2F2000301221A604DE040F6F003C2F263
:10380800000300221A6040F6E803C2F200031B68B6
:10381800FB60FB68B3FA83F3FB72FB7AC3F11F0307
:103828007B6140F67802C2F2000279690B469B0080
:103838000B449B0013441B68002B09D14FF0500325
:1038480083F31188BFF36F8FBFF34F8F7B60FEE761
:103858007A6913469B0013449B0040F67802C2F233
:10386800000213443B613B695B685A683B695A60D4
:103878003B695A683B6908339A4204D13B695B68E3
:103888005A683B695A603B695B68DA6840F67403BA
:10389800C2F200031A601C37BD465DF8047B70470E
:1038A80080B483B000AF40F6DC03C2F200031B68AB
:1038B8001B68002B01D1012300E00023002B07D057
:1038C80040F6F803C2F200034FF0FF321A600EE030
:1038D80040F6DC03C2F200031B68DB68DB687B6030
:1038E8007B685A6840F6F803C2F200031A600C3786
:1038F800BD465DF8047B7047064B19680868B0E858
:10390800F04F80F30988BFF36F8F4FF0000080F30A
:103918001188704774080020EFF30980BFF36F8F98
:10392800144B1A681EF0100F08BF20ED108A20E90A
:10393800F04F10604DF8043D4FF0500080F31188AF
:10394800BFF34F8FBFF36F8FFFF746FF4FF00000B5
:1039580080F3118808BC19680868B0E8F04F1EF0B9
:10396800100F08BFB0EC108A80F30988BFF36F8F7F
:10397800704700BF7408002080B584B000AFEFF333
:1039880011824FF0500383F31188BFF36F8FBFF399
:103998004F8FFA60BB60FFF72BFE0346002B06D063
:1039A8004EF60453CEF200034FF080521A60002303
:1039B8007B607B6883F311881037BD4680BD00BFEC
:1039C80080B487B000AF7860396000237B61002342
:1039D8003B610023FB6000237B6176E07B69012269
:1039E80002FA03F33B613B681A683B691340FB60CA
:1039F800FA683B699A4265D17B681A687B695B0003
:103A0800194603238B40DB431A407B681A607B68A6
:103A18001A683B681B7919467B695B0001FA03F356
:103A28001A437B681A603B681B79012B03D03B68FB
:103A38001B79022B2ED17B689A687B695B0019463B
:103A480003238B40DB431A407B689A607B689A6843
:103A58003B685B7919467B695B0001FA03F31A43FB
:103A68007B689A607B685A687B699BB21946012318
:103A78008B40DB431A407B685A607B685B683A6816
:103A8800927911467A6992B201FA02F292B21A4315
:103A98007B685A607B68DA687B699BB25B000321AC
:103AA80001FA03F3DB431A407B68DA607B68DA6863
:103AB8003B68DB7919467B695B0001FA03F31A431B
:103AC8007B68DA607B6901337B617B690F2B85D961
:103AD8001C37BD465DF8047B704700BF80B485B0D5
:103AE80000AF78600B467B8013467B700023FB6039
:103AF8000023BB607B787A8802F00702920093402B
:103B0800FB607B88DB089BB218467B88DB089BB28E
:103B18001A467B68083253F822207B8803F0070393
:103B28009B0019460F238B40DB4302EA03017B68A5
:103B380000F1080243F822107B88DB089BB21A4682
:103B48007B68083253F82220FB681343BB607B88EC
:103B5800DB089BB21A467B680832B96843F8221022
:103B68001437BD465DF8047B704700BF80B483B04E
:103B780000AF78607B681B6823F001027B681A60DD
:103B88007B6800221A607B6800225A607B680022EA
:103B98009A607B680022DA607B6800221A617B6881
:103BA80021225A617A6846F21003C4F202039A424B
:103BB80006D14FF4C043C4F202033D229A60E6E006
:103BC8007A6846F22803C4F202039A4207D14FF4F6
:103BD800C043C4F202034FF474629A60D7E07A6873
:103BE80046F24003C4F202039A4207D14FF4C0439D
:103BF800C4F202034FF474129A60C8E07A6846F27D
:103C08005803C4F202039A4207D14FF4C043C4F2E6
:103C180002034FF074629A60B9E07A6846F2700362
:103C2800C4F202039A4208D14FF4C043C4F202031B
:103C38003D22C2F20002DA60A9E07A6846F28803FF
:103C4800C4F202039A4209D14FF4C043C4F20203FA
:103C58004FF47462C2F20002DA6098E07A6846F2C1
:103C6800A003C4F202039A4208D14FF4C043C4F23D
:103C780002030022C2F23D02DA6088E07A6846F266
:103C8800B803C4F202039A4207D14FF4C043C4F206
:103C980002034FF03D52DA6079E07A6846F2104349
:103CA800C4F202039A4206D14FF4C843C4F2020395
:103CB8003D229A606BE07A6846F22843C4F2020318
:103CC8009A4207D14FF4C843C4F202034FF4746216
:103CD8009A605CE07A6846F24043C4F202039A4272
:103CE80007D14FF4C843C4F202034FF474129A6028
:103CF8004DE07A6846F25843C4F202039A4207D16B
:103D08004FF4C843C4F202034FF074629A603EE075
:103D18007A6846F27043C4F202039A4208D14FF41B
:103D2800C843C4F202033D22C2F20002DA602EE068
:103D38007A6846F28843C4F202039A4209D14FF4E2
:103D4800C843C4F202034FF47462C2F20002DA609C
:103D58001DE07A6846F2A043C4F202039A4208D1F1
:103D68004FF4C843C4F202030022C2F23D02DA60F3
:103D78000DE07A6846F2B843C4F202039A4206D1CB
:103D88004FF4C843C4F202034FF03D52DA600C37D7
:103D9800BD465DF8047B704780B485B000AF78609D
:103DA80039600023FB607B681B68FB60FA6848F297
:103DB8003F03CFF21C031340FB603B681A683B6863
:103DC800DB681A433B685B691A433B689B691A4383
:103DD8003B68DB691A433B681B6A1A433B685B6AAA
:103DE8001A433B689B6A1A433B685B6B1A433B6800
:103DF8009B6B1343FA681343FB607B68FA681A608D
:103E08007B685B69FB60FB6823F00703FB603B682A
:103E1800DA6A3B681B6B1343FA681343FB607B68E1
:103E2800FA685A613B681A697B685A603B685A6845
:103E38007B689A603B689A687B68DA601437BD468D
:103E48005DF8047B704700BF80B483B000AF786032
:103E58000B46FB70FB78002B06D07B681B6843F091
:103E680001027B681A6005E07B681B6823F0010289
:103E78007B681A600C37BD465DF8047B704700BF4D
:103E880080B485B000AF786039607A6846F20F4335
:103E9800C4F202039A4205D84FF4C043C4F20203A5
:103EA800FB6004E04FF4C843C4F20203FB603B68C4
:103EB80003F00053002B07D03B6823F0F02323F0D6
:103EC8008213FA68D36006E03B6823F0F02323F0FE
:103ED8008213FA6893601437BD465DF8047B704717
:103EE80080B485B000AFF860B9601346FB71BB6859
:103EF80003F08003002B0FD0FB79002B06D0FB6862
:103F08005B6943F08002FB685A6105E0FB685B6906
:103F180023F08002FB685A61BB68802B14D0FB79C0
:103F2800002B08D0FB681A68BB6803F01E031A430D
:103F3800FB681A6008E0FB681A68BB6803F01E0398
:103F4800DB431A40FB681A601437BD465DF8047BF2
:103F5800704700BF80B487B000AF78603960002335
:103F6800FB750023FB600023BB607A6846F20F43B1
:103F7800C4F202039A4205D84FF4C043C4F20203C4
:103F88003B6104E04FF4C843C4F202033B613B6861
:103F980023F0F02323F0C313002B0AD03B68DB0A7D
:103FA80003F01E03FB607B681A68FB681340BB6064
:103FB80004E07B685B6903F08003BB603B6803F047
:103FC8000053002B03D03B695B68FB6002E03B6950
:103FD8001B68FB60FB6823F0F02323F08213FB606F
:103FE800FA683B681340002B05D0BB68002B02D051
:103FF8000123FB7501E00023FB75FB7D18461C3788
:10400800BD465DF8047B704780B485B000AF78602A
:1040180039607A6846F20F43C4F202039A4205D81F
:104028004FF4C043C4F20203FB6004E04FF4C843FA
:10403800C4F20203FB603B6803F00053002B07D077
:104048003B6823F0F02323F08213FA68D36006E07C
:104058003B6823F0F02323F08213FA689360143747
:10406800BD465DF8047B704780B58AB000AF7860C4
:1040780039600023FB8400237B840423BB844FF432
:104088009053C0F27A03FB617B689B88FB84FB8CAE
:1040980023F03F03FB8407F10C03184600F01CFAD9
:1040A8007B69FB61FA694DF68363C4F21B33A3FB9A
:1040B80002239B0C7B84FA8C7B8C1343FB847B68E8
:1040C800FA8C9A807B681B889BB223F001039AB212
:1040D8007B681A800023FB843B681A6848F2A06357
:1040E800C0F201039A4215D83B681B685B00FA6965
:1040F800B2FBF3F3BB84BB8C032B01D80423BB8432
:10410800FA8CBB8C1343FB847B8C01339AB27B689B
:104118001A8443E03B68DB884BF6FF72934209D16F
:104128003B681A6813465B001344FA69B2FBF3F361
:10413800BB840EE03B681A6813469B0013449A0040
:104148001344FA69B2FBF3F3BB84BB8C43F480439A
:10415800BB84BB8CC3F30B03002B03D1BB8C43F094
:104168000103BB84BA8CFB8C13439BB26FEA4343B5
:104178006FEA5343FB847B8C4FF4967202FB03F285
:1041880044F6D353C1F2620383FB02139911D31788
:10419800CB1A9BB201339AB27B681A847B68FA8C7B
:1041A8009A837B681B889BB243F001039AB27B68B1
:1041B8001A807B681B88FB84FB8C23F4816323F0C3
:1041C8000203FB843B689A883B685B8913439AB275
:1041D800FB8C1343FB847B68FA8C1A803B689A89B2
:1041E8003B681B8913439AB27B681A812837BD46FE
:1041F80080BD00BF80B483B000AF78600B46FB7011
:10420800FB78002B08D07B681B889BB243F0010326
:104218009AB27B681A8007E07B681B889BB223F000
:1042280001039AB27B681A800C37BD465DF8047B9F
:10423800704700BF80B483B000AF78600B46FB7056
:10424800FB78002B08D07B681B889BB243F48073F3
:104258009AB27B681A8007E07B681B889BB223F4BC
:1042680080739AB27B681A800C37BD465DF8047B70
:10427800704700BF80B483B000AF78600B46FB7016
:10428800FB78002B08D07B681B889BB243F4007333
:104298009AB27B681A8007E07B681B889BB223F47C
:1042A80000739AB27B681A800C37BD465DF8047BB0
:1042B800704700BF80B483B000AF78600B46FB70D6
:1042C8001346BB70BB78002B04D0FB7843F0010386
:1042D800FB7003E0FB7823F00103FB70FB789AB2D4
:1042E8007B681A820C37BD465DF8047B704700BFB7
:1042F80080B483B000AF78600B46FB70FB78002B6E
:1043080008D07B681B889BB243F480639AB27B68B1
:104318001A8007E07B681B889BB223F480639AB2FB
:104328007B681A800C37BD465DF8047B704700BF78
:1043380080B483B000AF78600B46FB70FB789AB20C
:104348007B681A820C37BD465DF8047B704700BF56
:1043580080B483B000AF78607B681B8A9BB2DBB205
:1043680018460C37BD465DF8047B704780B483B0AF
:1043780000AF78600B46FB70FB78002B08D07B6899
:104388009B889BB243F400639AB27B689A8007E0EB
:104398007B689B889BB223F400639AB27B689A80FF
:1043A8000C37BD465DF8047B704700BF80B483B00E
:1043B80000AF78600B46FB70FB78002B08D07B6859
:1043C8009B889BB243F480539AB27B689A8007E03B
:1043D8007B689B889BB223F480539AB27B689A804F
:1043E8000C37BD465DF8047B704700BF80B483B0CE
:1043F80000AF78600B467B8013467B707B78002B80
:1044080008D07B689B889AB27B8813439AB27B68F2
:104418009A8009E07B689B889AB27B88DB439BB2D1
:1044280013409AB27B689A800C37BD465DF8047BCE
:10443800704700BF80B487B000AF78603960002350
:104448003B610023FB600023BB600023FB757B6896
:104458009B8A9BB2FB607B681B8B9BB2BB60BB6873
:104468001B04BB60FA68BB68134323F07F433B61BE
:104478003A693B681A403B689A4202D10123FB75AE
:1044880001E00023FB75FB7D18461C37BD465DF82F
:10449800047B704780B487B000AF786000237B61ED
:1044A80000233B610023FB607B689B8A9BB23B61D6
:1044B8007B681B8B9BB2FB60FB681B04FB603A6943
:1044C800FB68134323F07F437B617B6918461C37E5
:1044D800BD465DF8047B704780B489B000AF786052
:1044E8000023BB6100237B610023FB6102233B6146
:1044F8000023FB600223BB604FF46053C4F2020345
:104508009B6803F00C03BB61BB69042B0AD0082B22
:104518000FD0002B5AD17A684FF41053C0F2F4032D
:1045280013605AE07A684FF49053C0F27A0313602C
:1045380053E04FF46053C4F202035B6803F4800352
:104548009B0DFB604FF46053C4F202035B6803F0F9
:104558003F03BB60FB68002B13D04FF49053C0F2AD
:104568007A03BA68B3FBF2F24FF46053C4F2020361
:10457800596847F6C0730B409B0903FB02F3FB61C4
:1045880012E04FF41053C0F2F403BA68B3FBF2F22E
:104598004FF46053C4F20203596847F6C0730B40E6
:1045A8009B0903FB02F3FB614FF46053C4F202035F
:1045B8005B6803F440331B0C01335B003B61FA6911
:1045C8003B69B2FBF3F27B681A6006E07A684FF445
:1045D8001053C0F2F403136000BF4FF46053C4F2E9
:1045E80002039B6803F0F003BB61BB691B09BB6155
:1045F80040F20003C2F20003BA6913441B78DBB22D
:104608007B617B681A687B69DA407B685A604FF483
:104618006053C4F202039B6803F4E053BB61BB69B7
:104628009B0ABB6140F20003C2F20003BA6913445B
:104638001B78DBB27B617B685A687B69DA407B68F0
:104648009A604FF46053C4F202039B6803F460431A
:10465800BB61BB695B0BBB6140F20003C2F20003A4
:10466800BA6913441B78DBB27B617B685A687B6943
:10467800DA407B68DA602437BD465DF8047B704712
:1046880080B483B000AF78600B46FB70FB78002BDA
:104698000CD04FF46053C4F202034FF46052C4F2DA
:1046A8000202116B7A680A431A630CE04FF46053F4
:1046B800C4F202034FF46052C4F20202116B7A682A
:1046C800D2430A401A630C37BD465DF8047B704735
:1046D80080B483B000AF78600B46FB70FB78002B8A
:1046E8000CD04FF46053C4F202034FF46052C4F28A
:1046F8000202116C7A680A431A640CE04FF46053A2
:10470800C4F202034FF46052C4F20202116C7A68D8
:10471800D2430A401A640C37BD465DF8047B7047E3
:1047280080B483B000AF78600B46FB70FB78002B39
:104738000CD04FF46053C4F202034FF46052C4F239
:104748000202516C7A680A435A640CE04FF46053D1
:10475800C4F202034FF46052C4F20202516C7A6848
:10476800D2430A405A640C37BD465DF8047B704753
:1047780080B483B000AF78600B46FB70FB78002BE9
:104788000CD04FF46053C4F202034FF46052C4F2E9
:104798000202116A7A680A431A620CE04FF4605305
:1047A800C4F202034FF46052C4F20202116A7A683A
:1047B800D2430A401A620C37BD465DF8047B704745
:1047C80080B483B000AF78604FF46D42CEF200023F
:1047D8007B6843F0BF6343F40033D3600C37BD46B6
:1047E8005DF8047B704700BF80B485B000AF786087
:1047F8000023FB730023BB730F237B737B68DB7879
:10480800002B41D04FF46D43CEF20003DB68DB434D
:1048180003F4E0631B0AFB73FB7BC3F10403BB7364
:104828007A7BFB7B42FA03F37B737B685B781A46DF
:10483800BB7B02FA03F3FB737B689A787B7B13409C
:10484800DAB2FB7B1343FB73FB7B1B01FB734FF457
:104858006143CEF200037A6812781344FA7B83F836
:1048680000234FF46143CEF200037A6812785209AC
:10487800D2B210467A68127802F01F02012101FABA
:1048880002F243F8202012E04FF46143CEF2000315
:104898007A6812785209D2B210467A68127802F011
:1048A8001F020121914000F1200243F82210143721
:1048B800BD465DF8047B704780B58AB000AF78606C
:1048C800396000237B6200233B620023FB610023E5
:1048D800BB617B681B8A9BB27B627B6A23F4405373
:1048E8007B623B68DB881A467B6A13437B627B6A80
:1048F8009AB27B681A827B689B899BB27B627B6ACF
:1049080023F4B05323F00C037B623B689A883B681E
:104918001B8913439AB23B685B8913439BB21A46BF
:104928007B6A13437B627B6A9AB27B689A817B6855
:104938009B8A9BB27B627B6A23F440737B623B68F1
:104948009B891A467B6A13437B627B6A9AB27B68AF
:104958009A8207F108031846FFF7BEFD7A684FF4FC
:104968008053C4F201039A4206D07A684FF4A053E8
:10497800C4F201039A4202D17B693B6201E03B69C0
:104988003B627B689B899BB29BB21BB2002B0CDA03
:104998003A6A13469B0013449A001A443B681B6802
:1049A8005B00B2FBF3F3FB610BE03A6A13469B0032
:1049B80013449A001A443B681B689B00B2FBF3F34C
:1049C800FB61FA6948F21F53C5F2EB13A3FB0223FC
:1049D8005B091B017B627B6A1B09642202FB03F3F0
:1049E800FA69D31ABB617B689B899BB29BB21BB2E5
:1049F800002B10DABB69DB0003F1320248F21F53C7
:104A0800C5F2EB13A3FB02235B0903F007037A6AE1
:104A180013437B620FE0BB691B0103F1320248F2CA
:104A28001F53C5F2EB13A3FB02235B0903F00F032B
:104A38007A6A13437B627B6A9AB27B681A81283749
:104A4800BD4680BD80B483B000AF78600B46FB7074
:104A5800FB78002B08D07B689B899BB243F40053FA
:104A68009AB27B689A8107E07B689B899BB223F4A2
:104A780000539AB27B689A810C37BD465DF8047B77
:104A8800704700BF80B483B000AF78600B467B806E
:104A98007B88C3F308039AB27B689A800C37BD46BB
:104AA8005DF8047B704700BF80B485B000AF7860C4
:104AB80039600023FB817B681B88FB817A680023AF
:104AC800C4F201039A421FD07A684FF48063C4F29B
:104AD80001039A4218D07B68B3F1804F14D07A68EA
:104AE8004FF48063C4F200039A420DD07A684FF401
:104AF8000063C4F200039A4206D07A684FF4406318
:104B0800C4F200039A4208D1FB8923F07003FB81A9
:104B18003B685A88FB891343FB817A684FF48053BA
:104B2800C4F200039A420FD07A684FF4A053C4F23B
:104B380000039A4208D0FB8923F44073FB813B6849
:104B48001A89FB891343FB817B68FA891A803B68C1
:104B58005A687B68DA623B681A887B681A857A68C3
:104B68000023C4F201039A4206D07A684FF48063A6
:104B7800C4F201039A4204D13B689B7A9AB27B68DB
:104B88001A867B6801229A821437BD465DF8047B39
:104B9800704700BF80B483B000AF78600B46FB70ED
:104BA800FB78002B08D07B681B889BB243F001037D
:104BB8009AB27B681A8007E07B681B889BB223F057
:104BC80001039AB27B681A800C37BD465DF8047BF6
:104BD800704700BF80B485B000AF786039600023AB
:104BE8007B810023FB810023BB817B681B8C9BB2EC
:104BF80023F010039AB27B681A847B681B8CFB81B4
:104C08007B689B88BB817B681B8B7B817B8923F4BA
:104C1800E0437B817B8923F440737B813B681B885D
:104C28001B029AB27B8913437B81FB8923F0200303
:104C3800FB813B689B891B019AB2FB891343FB816B
:104C48003B685B881B019AB2FB891343FB817A6836
:104C58000023C4F201039A4206D07A684FF48063B5
:104C6800C4F201039A422BD1FB8923F08003FB8114
:104C78003B68DB891B019AB2FB891343FB81FB89E3
:104C880023F04003FB813B689B881B019AB2FB8998
:104C98001343FB81BB8923F48063BB81BB8923F465
:104CA8000063BB813B681B8A9B009AB2BB89134394
:104CB800BB813B685B8A9B009AB2BB891343BB816B
:104CC8007B68BA899A807B687A891A833B689A6874
:104CD8007B689A637B68FA891A841437BD465DF845
:104CE800047B704780B485B000AF786039600023DA
:104CF8007B810023FB810023BB817B681B8C9BB2DB
:104D080023F480739AB27B681A847B681B8CFB81BE
:104D18007B689B88BB817B689B8B7B817B8923F02D
:104D280070037B817B8923F003037B813B681A88AE
:104D38007B8913437B81FB8923F40073FB813B68E8
:104D48009B891B029AB2FB891343FB813B685B88F2
:104D58001B029AB2FB891343FB817A680023C4F2D1
:104D680001039A4206D07A684FF48063C4F20103C3
:104D78009A422BD1FB8923F40063FB813B68DB89D2
:104D88001B029AB2FB891343FB81FB8923F48063DE
:104D9800FB813B689B881B029AB2FB891343FB810A
:104DA800BB8923F48053BB81BB8923F40053BB81A7
:104DB8003B681B8A1B019AB2BB891343BB813B68C2
:104DC8005B8A1B019AB2BB891343BB817B68BA8992
:104DD8009A807B687A899A833B689A687B68DA63E9
:104DE8007B68FA891A841437BD465DF8047B7047DE
:104DF80080B485B000AF786039600023BB810023A0
:104E08007B810023FB817B681B8C9BB223F480533E
:104E18009AB27B681A847B681B8C7B817B689B8831
:104E2800FB817B689B8BBB81BB8923F4E043BB81FF
:104E3800BB8923F44073BB813B681B881B029AB271
:104E4800BB891343BB817B8923F400537B813B6877
:104E58009B891B039AB27B8913437B813B685B88E0
:104E68001B039AB27B8913437B817A680023C4F2BF
:104E780001039A4206D07A684FF48063C4F20103B2
:104E88009A420AD1FB8923F48043FB813B681B8A41
:104E98009B019AB2FB891343FB817B68FA899A804C
:104EA8007B68BA899A833B689A687B681A647B68CE
:104EB8007A891A841437BD465DF8047B704700BFB1
:104EC80080B483B000AF786039607B683A689A63D1
:104ED8000C37BD465DF8047B704700BF80B483B0D3
:104EE80000AF786039607B683A68DA630C37BD4692
:104EF8005DF8047B704700BF80B483B000AF786072
:104F080039607B683A681A640C37BD465DF8047BE3
:104F1800704700BF80B485B000AF78600B467B80D7
:104F28000023FB817B681B8BFB81FB8923F40063D7
:104F3800FB817B881B029AB2FB891343FB817B6848
:104F4800FA891A831437BD465DF8047B704700BFA1
:104F580080B485B000AF78600B467B800023FB816E
:104F68007B689B8BFB81FB8923F00803FB81FA8913
:104F78007B881343FB817B68FA899A831437BD4683
:104F88005DF8047B704700BF80B485B000AF7860DF
:104F98000B467B800023FB817B689B8BFB81FB8915
:104FA80023F40063FB817B881B029AB2FB891343BD
:104FB800FB817B68FA899A831437BD465DF8047BC8
:104FC800704700BF80B483B000AF78600B467B8029
:104FD80013467B707B78002B08D07B689B899AB23C
:104FE8007B8813439AB27B689A8109E07B689B8926
:104FF8009AB27B88DB439BB213409AB27B689A8152
:105008000C37BD465DF8047B704700BF80B485B09F
:1050180000AF78600B467B800023FB730023BB81C5
:1050280000237B817B681B8A9AB27B881340BB81F3
:105038007B689B899AB27B8813407B81BB89002B54
:1050480005D07B89002B02D00123FB7301E00023EC
:10505800FB73FB7B18461437BD465DF8047B70472D
:1050680080B483B000AF78600B467B807B88DB43DD
:105078009AB27B681A820C37BD465DF8047B70478C
:10508800DFF834D0002103E00C4B5B584350043167
:105098000B480C4B42189A42F6D30B4A02E0002305
:1050A80042F8043B094B9A42F9D3FDF745FF00F05B
:1050B800F9F8FDF7E7FE704700000220CC6C000805
:1050C800000000205408002054080020900A002006
:1050D800FEE7000010B52DED028B2A4C8AB0F0EEE9
:1050E800408A00F053F894F900300133B0EE408A5A
:1050F80009D0B0EE680A00F09DF820B1F5EEC08A3C
:10510800F1EE10FA05D4B0EE480A0AB0BDEC028BF5
:1051180010BD01231C4A009318EE900A0023019247
:105128000893FBF7E3F92478CDE90401CDE90201FE
:105138009CB900220023CDE90623684600F078F8E0
:10514800A8B1089BC3B9DDE90601FBF735FC00EE01
:10515800100A0AB0BDEC028B10BD002000210246E7
:105168000B46FBF741FB022CCDE90601E5D101F026
:105178009BFD21230360E4E701F096FD089B036093
:10518800E1E700BF10000020886C000810EE103A1C
:1051980023F00042B2F1FF4F70B430D26AB3002B53
:1051A8003DDBB2F5000F4FEAE3512CD3A1F17F02AA
:1051B800C3F31603D10743F4000348BF5B00002480
:1051C80056105B00254619214FF08072A8189842A6
:1051D80002DC1B1A8518144401394FEA43034FEACD
:1051E8005202F3D113B104F001031C44641004F11A
:1051F8007C5404EBC65300EE103A70BC7047A0EE26
:10520800000A70BC704713F400020DD15B0018024D
:1052180002F10102FAD5C2F101021144C6E730EEEB
:10522800400A80EE000AE8E701221144BEE700BF09
:105238000020704710EE103A33F0004001D10220F0
:105248007047A0F50003B3F1FE4F01D20420704768
:10525800054B421E9A4201D803207047A0F1FF4037
:10526800B0FA80F040097047FEFF7F000146002039
:105278000246034600F0EEBA38B5084B084DED1A61
:10528800AC1018BFED1805D0013C55F8043D9847FF
:10529800002CF9D1BDE8384001F000BDC86C000809
:1052A800CC6C000870B50F4E0F4D761BB61018BFAA
:1052B800002405D0013455F8043B9847A642F9D19B
:1052C8000A4E0B4D761B01F0E3FCB61018BF002404
:1052D80006D0013455F8043B9847A642F9D170BD71
:1052E80070BD00BFC06C0008C06C0008C86C000826
:1052F800C06C0008024B0146186800F003B800BFF4
:10530800400400202DE9F04F01F10B05162D83B064
:10531800064627D935F0070500F1B680A94200F204
:10532800B38000F081FAB5F5FC7F22D2C24FE808BD
:1053380007EBC003DC689C4200F0C8816368E16841
:10534800A56823F00303234430465A68E96042F015
:1053580001028D605A6000F069FA0834204603B0F3
:10536800BDE8F08F102900F28F8000F05DFA10255B
:10537800DCE7680A00F08F80042800F25481A8094D
:1053880038304100AC4F07EB8101CC68A14206D10F
:105398000CE0002A80F28280E468A14206D06368AB
:1053A80023F003035A1B0F2AF3DD01380130A24909
:1053B8003C6901F1080E744500F07D81636823F0B3
:1053C80003035A1B0F2A00F36381002AC1F814E073
:1053D800C1F810E073DAB3F5007F80F03981DB089B
:1053E80001EBC3084FEAA30C4A68D8F80890C4F840
:1053F8000890012303FA0CF31343C4F80C804B60A4
:10540800C8F80840C9F80C408210012494409C4216
:1054180062D8234206D120F003006400234200F141
:105428000400FAD007EBC008C4468146DCF80C300B
:105438009C4507D141E1002980F25181DB689C45F8
:1054480000F03B815A6822F00302511B0F29F2DD5C
:105458001C46D3F80CC054F8088F5A1945F00109B6
:1054680041F00105C3F804903046C8F80CC0CCF8E8
:1054780008807A613A61C2F80CE0C2F808E0556029
:10548800515000F0D3F969E700240C23204633601B
:1054980003B0BDE8F08F7E213F2073E72344E16825
:1054A8005A68A56842F00102E96030468D605A608A
:1054B80000F0BCF90834204603B0BDE8F08F23445F
:1054C80030465A6842F001025A6000F0AFF90834D9
:1054D800204603B0BDE8F08FBC68636823F003087A
:1054E800454504D8C5EB08030F2B00F38C80534BBC
:1054F800DFF858A11A68DAF8003001332A4404EBBF
:10550800080B00F0508102F580520F3222F47F62BE
:1055180022F00F0211463046019200F089F9B0F1ED
:10552800FF3F8146019A00F04781834500F2EE80F3
:10553800434B1968CB451144196000F04281DAF8F1
:105548000000DFF808E101301BBFCBEB090B594421
:10555800CEF80090196019F0070100F00781C1F139
:105568000800C1F58051814408314A44C2F30B0256
:10557800C2EB010A51463046019300F059F9431C29
:10558800019B00F02C81C9EB0002524442F0010259
:105598001968C7F808905144BC42C9F8042019603A
:1055A800DFF89CA016D0B8F10F0F40F2EE806268C9
:1055B800A8F10C0323F00703E01802F001024FF0F2
:1055C800050E1A430F2B6260C0F804E0C0F808E02B
:1055D80000F209811B4BBC681A68914288BF1960A8
:1055E800194B1A689142626888BF196022F0030259
:1055F8009542A2EB050301D80F2B04DC304600F0DE
:1056080015F90024AAE6621943F0010345F00105E3
:1056180065603046BA60536000F008F908342046E7
:1056280003B0BDE8F08F142868D9542800F2978099
:10563800280B6E304100A5E644040020080900202C
:105648000C0900200409002000090020500800204F
:105658005A0A042A55D9142A00F2A7805B324FEA65
:10566800420C07EB8C0CDFF8BC81DCF808106145B4
:105678007FD04A6822F00302934202D289688C459F
:10568800F7D1CA687B68E260A1609460CC60BBE631
:10569800631942F0010745F00105656030464B612A
:1056A8000B61C3F80CE0C3F808E05F609A50083457
:1056B80000F0BCF852E64B68A6E609F1010919F0BA
:1056C800030F0CF1080C7FF4B1AE2CE004F10803D1
:1056D8006469A34208BF02303FF469AE2EE61A445B
:1056E8001C465168DB6854F8085F41F001015160BD
:1056F8003046EB609D6000F099F82FE65B30410082
:1057080040E69A0938324FEA420CAAE7BC42454BB8
:105718003FF40EAF9C68626822F0030268E7D8F88D
:10572800008098457CD110F0030FA8F1080300F120
:10573800FF30F4D17B6823EA04037B6064009C4259
:105748003FF6CAAE002C3FF4C7AE234248467FF46A
:1057580069AE6400234200F10400FAD062E6B0F5B5
:10576800AA7F18D8E80B773041000BE64FF4805138
:10577800FBE6D8F8043092104FF0010C0CFA02F254
:105788001343C8F804300A467DE70123C9F80430FA
:105798004C4600222CE740F2545398421CD8A80CDF
:1057A8007C304100EEE51032B4E6542A23D81A0BB7
:1057B8006E324FEA420C54E7BC68626822F003027A
:1057C80016E7CBF30B0000287FF4B9AE4244BB6860
:1057D80042F001025A60FDE6FC217E20D2E501225A
:1057E8004FF0000AD4E604F10801304600F0DCF876
:1057F800DAF80010EEE6B2F5AA7F04D8DA0B7732B1
:105808004FEA420C2DE740F254518A4204D89A0CD0
:105818007C324FEA420C24E74FF0FC0C7E2220E752
:105828007B688BE744040020704700BF704700BFC7
:1058380038B5074C0023054608462360FCF7F2FDFF
:10584800431C00D038BD2368002BFBD02B6038BD2B
:105858008C0A00202DE9F047254C2568D5F84841E9
:105868000646884692469946CCB360681F2818DCDD
:10587800431C7EB104EB80050121C5F888A0D4F84B
:10588800887101FA00F21743022EC4F88871C5F82E
:1058980008911ED00230636044F820800020BDE8E3
:1058A800F087144B03B34FF4C870FFF723FD044689
:1058B800D0B1D5F84831002780E88800C5F84841BC
:1058C80038460123C4F88871C4F88C71002EE1D0E1
:1058D800D0E7D4F88C110A43C4F88C21DAE705F52F
:1058E800A674C5F84841C0E74FF0FF30BDE8F0871F
:1058F800946C0008FD520008024B13B10248FFF7F0
:10590800B5BC70470000000081520008F8B5234F6D
:105918000C460646FFF788FFBB685D6825F003055F
:10592800291B01F6EF7121F47F6121F00F01A1F528
:105938008054B4F5805F07DB30460021FFF778FF1D
:10594800BB682B44984204D03046FFF76FFF002015
:10595800F8BD30466142FFF76BFF01300DD0104BA8
:10596800BA6819682D1B45F001053046091B5560BA
:105978001960FFF75BFF0120F8BD30460021FFF7F3
:1059880057FFBA68831A0F2BDEDD064C04492468DA
:1059980043F00103001B53600860D5E7440400206E
:1059A8000C0900205008002000294ED02DE9F041B4
:1059B8000C468046FFF738FF54F8047C624927F00C
:1059C8000102A4F10805AB188E6858689E4220F0C1
:1059D80003005AD0FE0758600BD454F8087CED1B1E
:1059E80001F1080EAC6874453A4467D0EF68E76087
:1059F800BC601C186468E4070CD4544F9C68BC4213
:105A080002447CD0D868E06042F0010384606B6097
:105A1800AA5003E042F001036B60AA50B2F5007F80
:105A280014D2D20801EBC20348689F68AF60921095
:105A3800012404FA02F21043EB6048609D60FD60A7
:105A48004046BDE8F041FFF7F1BE7047530A042B0A
:105A580047D8930903F13804600001EB80003A4904
:105A68008368834243D0596821F00301914202D9E7
:105A78009B689842F7D1DA68EA60AB604046956067
:105A8800DD60BDE8F041FFF7D1BEFF07024407D44F
:105A980054F8083CED1A1A44A868EB68C36098608B
:105AA8002B4B1B6842F001009A4268608D60C7D397
:105AB800284B40461968FFF729FFC1E719184968BC
:105AC800C90709D4D9689B68024442F00100D9602B
