:020000040800F2
:100000000000022071580008F1360008FD36000893
:10001000053700080D3700081537000800000000FC
:10002000000000000000000000000000E94000089F
:100030001D37000800000000094100086941000860
:10004000C1580008C1580008C1580008C15800082C
:10005000C1580008C1580008C1580008C15800081C
:10006000C1580008C1580008C15800081D0C0008FC
:10007000C1580008C1580008C1580008C1580008FC
:10008000C1580008C1580008C1580008C1580008EC
:10009000C1580008C1580008C1580008C1580008DC
:1000A000C1580008F1320008C1580008C1580008C2
:1000B000B9320008C1580008C1580008B50B000843
:1000C000F50B0008C1580008C1580008C1580008C5
:1000D000C1580008C1580008C1580008C15800089C
:1000E000C1580008C1580008C1580008C15800088C
:1000F000C1580008C1580008C1580008C15800087C
:10010000C1580008C1580008C1580008C15800086B
:10011000C1580008C1580008C15800082D33000814
:10012000C1580008C1580008C1580008C15800084B
:10013000C1580008C1580008C1580008C15800083B
:10014000C1580008C1580008C1580008C15800082B
:10015000C1580008C1580008C1580008C15800081B
:10016000C1580008C1580008C1580008C15800080B
:10017000C1580008C1580008C1580008000000001C
:08018000C1580008C158000835
:10018800044B05481B1A062B02D9044B03B1184728
:10019800704700BF570800205408002000000000E6
:1001A80005490648091A891001EBD171491002D096
:1001B800034B03B118477047540800205408002027
:1001C8000000000010B5064C237843B9FFF7D8FFAC
:1001D800044B13B10448AFF300800123237010BD12
:1001E80054080020000000008074000808B5084B7F
:1001F8001BB108480849AFF300800848036813B9E1
:10020800BDE80840CCE7064B002BF9D09847F7E744
:1002180000000000807400085808002054080020DE
:100228000000000081F0004102E000BF83F00043BD
:1002380030B54FEA41044FEA430594EA050F08BF79
:1002480090EA020F1FBF54EA000C55EA020C7FEA3D
:10025800645C7FEA655C00F0E2804FEA5454D4EBBA
:100268005555B8BF6D420CDD2C4480EA020281EA84
:10027800030382EA000083EA010180EA020281EABC
:100288000303362D88BF30BD11F0004F4FEA01310E
:100298004FF4801C4CEA113102D0404261EB41011D
:1002A80013F0004F4FEA03334CEA133302D05242A3
:1002B80063EB430394EA050F00F0A780A4F101045F
:1002C800D5F1200E0DDB02FA0EFC22FA05F2801899
:1002D80041F1000103FA0EF2801843FA05F359417F
:1002E8000EE0A5F120050EF1200E012A03FA0EFCFE
:1002F80028BF4CF0020C43FA05F3C01851EBE37128
:1003080001F0004507D54FF0000EDCF1000C7EEB44
:1003180000006EEB0101B1F5801F1BD3B1F5001F82
:100328000CD349085FEA30004FEA3C0C04F10104A1
:100338004FEA445212F5800F80F09A80BCF1004FCA
:1003480008BF5FEA500C50F1000041EB045141EA4C
:10035800050130BD5FEA4C0C404141EB010111F44D
:10036800801FA4F10104E9D191F0000F04BF0146F8
:100378000020B1FA81F308BF2033A3F10B03B3F1D6
:1003880020020CDA0C3208DD02F1140CC2F10C0266
:1003980001FA0CF021FA02F10CE002F11402D8BFC4
:1003A800C2F1200C01FA02F120FA0CFCDCBF41EA90
:1003B8000C019040E41AA2BF01EB0451294330BD5F
:1003C8006FEA04041F3C1CDA0C340EDC04F114043C
:1003D800C4F1200220FA04F001FA02F340EA030013
:1003E80021FA04F345EA030130BDC4F10C04C4F159
:1003F800200220FA02F001FA04F340EA0300294639
:1004080030BD21FA04F0294630BD94F0000F83F482
:10041800801306BF81F480110134013D4EE77FEA65
:10042800645C18BF7FEA655C29D094EA050F08BFB1
:1004380090EA020F05D054EA000C04BF1946104692
:1004480030BD91EA030F1EBF0021002030BD5FEAD6
:10045800545C05D14000494128BF41F0004130BDFE
:1004680014F580043CBF01F5801130BD01F0004552
:1004780045F0FE4141F470014FF0000030BD7FEAC5
:10048800645C1ABF194610467FEA655C1CBF0B46C0
:10049800024650EA013406BF52EA033591EA030FD7
:1004A80041F4002130BD00BF90F0000F04BF0021CF
:1004B800704730B54FF4806404F132044FF0000502
:1004C8004FF0000150E700BF90F0000F04BF00217B
:1004D800704730B54FF4806404F1320410F00045E1
:1004E80048BF40424FF000013EE700BF42004FEADC
:1004F800E2014FEA31014FEA02701FBF12F07F4359
:1005080093F07F4F81F06051704792F0000F14BF55
:1005180093F07F4F704730B54FF4607401F0004599
:1005280021F0004120E700BF50EA010208BF7047F0
:1005380030B54FF000050AE050EA010208BF7047E5
:1005480030B511F0004502D5404261EB41014FF44E
:10055800806404F132045FEA915C3FF4DCAE4FF052
:1005680003025FEADC0C18BF03325FEADC0C18BF39
:10057800033202EBDC02C2F1200300FA03FC20FA8A
:1005880002F001FA03FE40EA0E0021FA02F11444D7
:10059800C1E600BF70B54FF0FF0C4CF4E06C1CEAEC
:1005A80011541DBF1CEA135594EA0C0F95EA0C0F61
:1005B80000F0DEF82C4481EA030621EA4C5123EAD4
:1005C8004C5350EA013518BF52EA033541F4801103
:1005D80043F4801338D0A0FB02CE4FF00005E1FBB6
:1005E80002E506F00042E0FB03E54FF00006E1FB00
:1005F80003569CF0000F18BF4EF0010EA4F1FF0443
:10060800B6F5007F64F5407404D25FEA4E0E6D4182
:1006180046EB060642EAC62141EA55514FEAC52093
:1006280040EA5E504FEACE2EB4F1FD0C88BFBCF50F
:10063800E06F1ED8BEF1004F08BF5FEA500E50F1C0
:10064800000041EB045170BD06F0004646EA010186
:1006580040EA020081EA0301B4EB5C04C2BFD4EBB8
:100668000C0541EA045170BD41F480114FF0000EB1
:10067800013C00F3AB8014F1360FDEBF002001F01F
:10068800004170BDC4F10004203C35DA0C341BDC99
:1006980004F11404C4F1200500FA05F320FA04F06B
:1006A80001FA05F240EA020001F0004221F000419F
:1006B80010EBD37021FA04F642EB06015EEA430E12
:1006C80008BF20EAD37070BDC4F10C04C4F1200542
:1006D80000FA04F320FA05F001FA04F240EA0200F5
:1006E80001F0004110EBD37041F100015EEA430EC6
:1006F80008BF20EAD37070BDC4F1200500FA05F2E6
:100708004EEA020E20FA04F301FA05F243EA020364
:1007180021FA04F001F0004121FA04F220EA020073
:1007280000EBD3705EEA430E08BF20EAD37070BDB9
:1007380094F0000F0FD101F00046400041EB010199
:1007480011F4801F08BF013CF7D041EA060195F07B
:10075800000F18BF704703F00046520043EB030335
:1007680013F4801F08BF013DF7D043EA0603704722
:1007780094EA0C0F0CEA135518BF95EA0C0F0CD02D
:1007880050EA410618BF52EA4306D1D181EA030173
:1007980001F000414FF0000070BD50EA410606BF6D
:1007A8001046194652EA430619D094EA0C0F02D1B2
:1007B80050EA013613D195EA0C0F05D152EA0336F7
:1007C8001CBF104619460AD181EA030101F0004115
:1007D80041F0FE4141F470014FF0000070BD41F05E
:1007E800FE4141F4780170BD70B54FF0FF0C4CF438
:1007F800E06C1CEA11541DBF1CEA135594EA0C0F57
:1008080095EA0C0F00F0A7F8A4EB050481EA030EA3
:1008180052EA03354FEA013100F088804FEA03338A
:100828004FF0805545EA131343EA12634FEA022258
:1008380045EA111545EA10654FEA00260EF0004119
:100848009D4208BF964244F1FD0404F5407402D26B
:100858005B084FEA3202B61A65EB03055B084FEAFC
:1008680032024FF480104FF4002CB6EB020E75EBF9
:10087800030E22BFB61A754640EA0C005B084FEA21
:100888003202B6EB020E75EB030E22BFB61A75469E
:1008980040EA5C005B084FEA3202B6EB020E75EBE9
:1008A800030E22BFB61A754640EA9C005B084FEA61
:1008B8003202B6EB020E75EB030E22BFB61A75466E
:1008C80040EADC0055EA060E18D04FEA051545EA5D
:1008D80016754FEA06164FEAC30343EA52734FEA06
:1008E800C2025FEA1C1CC0D111F4801F0BD141EA7F
:1008F80000014FF000004FF0004CB6E711F4801FE4
:1009080004BF01430020B4F1FD0C88BFBCF5E06FC3
:100918003FF6AFAEB5EB030C04BFB6EB020C5FEAD3
:10092800500C50F1000041EB045170BD0EF0004E28
:100938004EEA113114EB5C04C2BFD4EB0C0541EA5A
:10094800045170BD41F480114FF0000E013C90E657
:1009580045EA060E8DE60CEA135594EA0C0F08BF1B
:1009680095EA0C0F3FF43BAF94EA0C0F0AD150EA1A
:1009780001347FF434AF95EA0C0F7FF425AF1046AD
:1009880019462CE795EA0C0F06D152EA03353FF4D5
:10099800FDAE1046194622E750EA410618BF52EA52
:1009A80043067FF4C5AE50EA41047FF40DAF52EA26
:1009B80043057FF4EBAE12E74FEA4102B2F1E043A0
:1009C80024BFB3F5001CDCF1FE5C0DD901F0004C2E
:1009D8004FEAC0024CEA5070B2F1004F40EB83007E
:1009E80008BF20F00100704711F0804F21D113F1AA
:1009F8003872BCBF01F00040704741F480114FEAE3
:100A08005252C2F11802C2F1200C10FA0CF320FA6B
:100A180002F018BF40F001004FEAC1234FEAD32388
:100A280003FA0CFC40EA0C0023FA02F34FEA4303F2
:100A3800CCE77FEA625307D150EA01331EBF4FF07B
:100A4800FE4040F44000704701F0004040F0FE4096
:100A580040F40000704700BF844641EA000313F0E9
:100A680003036DD1403A41D351F8043B40F8043BAD
:100A780051F8043B40F8043B51F8043B40F8043B70
:100A880051F8043B40F8043B51F8043B40F8043B60
:100A980051F8043B40F8043B51F8043B40F8043B50
:100AA80051F8043B40F8043B51F8043B40F8043B40
:100AB80051F8043B40F8043B51F8043B40F8043B30
:100AC80051F8043B40F8043B51F8043B40F8043B20
:100AD80051F8043B40F8043B51F8043B40F8043B10
:100AE80051F8043B40F8043B403ABDD2303211D3B0
:100AF80051F8043B40F8043B51F8043B40F8043BF0
:100B080051F8043B40F8043B51F8043B40F8043BDF
:100B1800103AEDD20C3205D351F8043B40F8043BAF
:100B2800043AF9D2043208D0D2071CBF11F8013BAD
:100B380000F8013B01D30B8803806046704700BF73
:100B4800082A13D38B078DD010F003038AD0C3F182
:100B58000403D21ADB071CBF11F8013B00F8013B64
:100B680080D331F8023B20F8023B7BE7043AD9D323
:100B7800013A11F8013B00F8013BF9D20B780370F8
:100B88004B7843708B7883706046704780B483B02D
:100B980000AF786000E000BF7B685A1E7A60002BC7
:100BA800F9D10C37BD465DF8047B704780B582B03B
:100BB80000AF40F6B013C2F200031B687B607B688D
:100BC800002B02D07B6898470CE04FF49040C4F2A9
:100BD8000000212102F000FF44F24020C0F20F0083
:100BE800FFF7D4FF0837BD4680BD00BF80B500AF12
:100BF8004FF49040C4F20000452102F0EDFE00F0F1
:100C080029F848F28040C0F21E00FFF7BFFF00F04D
:100C18008BFC80BD80B582B000AF40F60023C2F2E5
:100C280000031B687B607B68002B02D07B689847B9
:100C38000CE04FF49040C4F200007C2102F0CCFE9E
:100C480044F24020C0F20F00FFF7A0FF0837BD466E
:100C580080BD00BF80B596B000AF4FF400100121F1
:100C680004F02AF90220012104F0FEF84FF40010E4
:100C7800012104F071F94FF40010002104F06CF91F
:100C88004FF40010012104F0EFF84FF4C0733B65F6
:100C9800022387F85430022387F85530012387F858
:100CA8005630012387F8573007F150034FF480601E
:100CB800C4F20200194603F077FA4FF48060C4F2D8
:100CC80002000821042203F0FDFA4FF48060C4F208
:100CD80002000721042203F0F5FA46F21000C4F2DC
:100CE80002003D21C1F2800103F0BEFC46F2100073
:100CF800C4F20200002103F09BFC46F21000C4F28B
:100D0800020003F027FB4FF000733B6045F21043ED
:100D1800C4F200037B6000237B614FF48063BB61F6
:100D28000023FB6100233B6200237B624FF4803386
:100D3800BB620423FB6203233B6300237B63002322
:100D4800BB630023FB6040F69813C2F20003BB604C
:100D58000E233B6146F21000C4F2020003F0FAFAD7
:100D68003B4646F21000C4F20200194603F008FCA4
:100D78004FF4D453C0F206033B640023A7F8443071
:100D88004BF6FF73A7F846300023A7F84830002336
:100D9800A7F84A304FF48043A7F84C3007F14003D6
:100DA8004FF4A840C4F20000194603F051FD4FF477
:100DB800A840C4F200004FF4E061002203F00AFFEB
:100DC8004FF4407004F0F0F81F2387F83C300A23F2
:100DD80087F83D30002387F83E30012387F83F30FD
:100DE80007F13C03184604F0F3F8202387F83C3059
:100DF8000A2387F83D30002387F83E30012387F81F
:100E08003F3007F13C03184604F0E2F846F21000C0
:100E1800C4F202001021002203F056FC0B2387F8CD
:100E28003C300A2387F83D30002387F83E30012301
:100E380087F83F3007F13C03184604F0C9F846F23A
:100E48001000C4F202001021012203F03DFC4FF40F
:100E5800A840C4F20000012103F0C0FD5837BD4688
:100E680080BD00BF80B586B000AF0346B9607A6028
:100E7800FB734FF4A840C4F20000012103F0CEFD3B
:100E880000BF4FF4A840C4F200000121C0F20301E2
:100E980003F0C4FE0346002BF3D04FF4A840C4F27D
:100EA8000000D021002203F0F9FD00BF4FF4A84054
:100EB800C4F200008221C0F2070103F0AFFE03462E
:100EC800002BF3D0FB7B4FF4A840C4F20000194676
:100ED80003F022FE00BF4FF4A840C4F200008421B2
:100EE800C0F2070103F09AFE0346002BF3D04FF43B
:100EF800A840C4F20000012103F090FD00BF4FF4A8
:100F0800A840C4F200000121C0F2030103F086FEEC
:100F18000346002BF3D04FF4A840C4F20000D021C0
:100F2800012203F0BBFD00BF4FF4A840C4F200004B
:100F38000221C0F2030103F071FE0346002BF3D037
:100F48007B68012B06D94FF4A840C4F200000121A8
:100F580003F0C2FD26E07B68012B06D14FF4A840C0
:100F6800C4F20000002103F0B7FD00BF4FF4A84011
:100F7800C4F200004021C0F2030103F04FFE034613
:100F8800002BF3D04FF4A840C4F2000003F0D4FDC6
:100F98000346FB75BB685A1CBA60FA7D1A707B68F9
:100FA800013B7B607B68002BD5D14FF4A840C4F28D
:100FB8000000012103F052FD1837BD4680BD00BF77
:100FC80080B582B000AF4FF4A840C4F2000003F02F
:100FD80055FE786040F60823C2F200031B683B60A8
:100FE8007B6803F00203002B19D03B68012B0CD15E
:100FF80040F6B813C2F200031B784FF4A840C4F2BD
:101008000000194603F088FDB3E04FF4A840C4F28D
:1010180000004FF4C061002203F0DCFDA9E03B684A
:10102800012B51D17B6803F00403002B4CD040F610
:101038000823C2F2000302221A604FF4A840C4F247
:101048000000012103F0EAFC00BF4FF4A840C4F2FD
:10105800000003F013FE034603F00103002BF4D055
:101068004FF4A840C4F20000D021012203F016FD7D
:1010780040F64013C2F200031B68012B0ED94FF44F
:10108800A840C4F20000012103F026FD4FF4A84057
:10109800C4F20000012103F07DFD06E04FF4A840F2
:1010A800C4F20000002103F017FD4FF4A840C4F279
:1010B8000000012103F04EFD46F21000C4F20200C8
:1010C800012103F0B5FA54E07B6823F44033002B88
:1010D80000D14EE04FF49040C4F2000046F248318F
:1010E800C0F6000102F08EFC4FF49040C4F20000FC
:1010F80046F28031C0F6000102F084FC3B68DBB2A6
:101108004FF49040C4F20000194602F0A5FC4FF4D9
:101118009040C4F2000046F28831C0F6000102F0A7
:1011280071FC7B681B0CDBB24FF49040C4F20000EA
:10113800194602F091FC7B681B0ADBB24FF4904021
:10114800C4F20000194602F087FC7B68DBB24FF45A
:101158009040C4F20000194602F07EFC4FF4904023
:10116800C4F2000046F29431C0F6000102F04AFCD5
:10117800FEE70837BD4680BD80B500AF46F21000D7
:10118800C4F2020048F22001C1F2000103F0D6FACD
:101198000346002B40D046F21000C4F2020048F289
:1011A8002001C1F2000103F023FB4FF4A840C4F270
:1011B80000004FF4E061002203F00CFD4FF4A8405A
:1011C800C4F20000002103F0C5FC46F21000C4F28E
:1011D8000200002103F02CFA4FF4A840C4F20000EA
:1011E800012103F03BFC40F65823C2F200031A68C1
:1011F80040F64013C2F200031B68104640F69811EF
:10120800C2F200011A46FFF727FC40F60823C2F293
:10121800000303221A60B6E04FF49040C4F20000C5
:1012280046F29831C0F6000102F0ECFB4FF4904012
:10123800C4F2000046F28031C0F6000102F0E2FB81
:1012480040F60823C2F200031B68DBB24FF490405B
:10125800C4F20000194602F0FFFB4FF49040C4F2BC
:10126800000046F2C031C0F6000102F0CBFB46F2A6
:101278001000C4F2020048F22001C1F2000103F09C
:101288005DFA03464FF49040C4F20000194602F09C
:10129800E3FB4FF49040C4F2000046F2C831C0F6B8
:1012A800000102F0AFFB46F21000C4F2020044F263
:1012B8001001C1F2000103F041FA03464FF49040D7
:1012C800C4F20000194602F0C7FB4FF49040C4F284
:1012D800000046F2D031C0F6000102F093FB46F25E
:1012E8001000C4F2020042F20801C1F2000103F04A
:1012F80025FA03464FF49040C4F20000194602F064
:10130800ABFB4FF49040C4F2000046F2D831C0F66F
:10131800000102F077FB46F21000C4F2020041F22D
:101328000401C1F2000103F009FA03464FF49040AA
:10133800C4F20000194602F08FFB4FF49040C4F24B
:10134800000046F2E031C0F6000102F05BFB46F215
:101358001000C4F202000121C9F2000103F0EEF905
:1013680003464FF49040C4F20000194602F074FBA3
:101378004FF49040C4F2000046F29431C0F60001E8
:1013880002F040FBFEE780BD80B584B000AF0346A5
:10139800B9607A60FB7340F60023C2F2000341F2A1
:1013A8008112C0F600021A6040F6B013C2F20003C0
:1013B80040F6C972C0F600021A6040F6B813C2F2CD
:1013C8000003FA7B1A7040F65823C2F20003BA6889
:1013D8001A6040F64013C2F200037A681A6040F6B9
:1013E8000823C2F2000301221A604FF4A840C4F295
:1013F8000000012103F012FB00BF4FF4A840C4F223
:10140800000003F03BFC034603F00103002BF4D07B
:101418004FF4A840C4F20000D021002203F03EFBA4
:101428004FF4A840C4F200004FF44071012203F0C9
:10143800D1FB1037BD4680BD80B584B000AF0346F0
:10144800FB71FA7907F10F03104619460122FFF7DD
:1014580009FDFB7B18461037BD4680BD80B582B0BC
:1014680000AF03460A46FB711346BB714FF4A84010
:10147800C4F20000012103F0D1FA00BF4FF4A840E4
:10148800C4F200000121C0F2030103F0C7FB0346C8
:10149800002BF3D04FF4A840C4F20000D021002262
:1014A80003F0FCFA00BF4FF4A840C4F20000822108
:1014B800C0F2070103F0B2FB0346002BF3D0FB791F
:1014C8004FF4A840C4F20000194603F025FB00BF02
:1014D8004FF4A840C4F200008421C0F2070103F0D1
:1014E8009DFB0346002BF3D0BB794FF4A840C4F210
:1014F8000000194603F010FB00BF4FF4A840C4F2E7
:1015080000008421C0F2070103F088FB0346002B8A
:10151800F3D04FF4A840C4F20000012103F09EFA72
:101528000837BD4680BD00BF80B582B000AF6B20D4
:101538000221FFF793FF49F2E030C0F20400FFF701
:1015480025FB6B20FFF778FF0346FB71FB79022B25
:1015580000D046E06B208221FFF780FF49F2E0309F
:10156800C0F20400FFF712FB6B20FFF765FF03468C
:10157800FB71FB79402B00D033E06B200221FFF791
:101588006DFF49F2E030C0F20400FFF7FFFA6B206C
:10159800FFF752FF0346FB71FB79022B00D020E0D6
:1015A8001A200021FFF75AFF19200721FFF756FFDD
:1015B8001B201821FFF752FF1C201821FFF74EFFB0
:1015C8002320F821FFF74AFF37202021FFF746FFA5
:1015D80038201121FFF742FF6A200021FFF73EFF64
:1015E80000E0A4E70837BD4680BD00BF80B485B0E1
:1015F80000AF03460A46FB711346BB71FB791B0219
:101608009AB2BB799BB213439BB2FB81FB891BB295
:1016180018461437BD465DF8047B704780B582B024
:1016280000AF78607B68062B00F2928001A252F826
:1016380023F000BF5916000899160008B9160008CB
:10164800D9160008F91600081917000839170008F4
:101658003B2040F64021C2F200010E22FFF794FE23
:1016680000BF40F60823C2F200031B68032BF8D121
:1016780040F64023C2F200031A7840F64023C2F233
:1016880000035B7810461946FFF7B0FF034660E099
:1016980040F64023C2F200039A7840F64023C2F293
:1016A8000003DB7810461946FFF7A0FF034650E019
:1016B80040F64023C2F200031A7940F64023C2F2F2
:1016C80000035B7910461946FFF790FF034640E098
:1016D80040F64023C2F200031A7A40F64023C2F2D1
:1016E80000035B7A10461946FFF780FF034630E097
:1016F80040F64023C2F200039A7A40F64023C2F231
:101708000003DB7A10461946FFF770FF034620E016
:1017180040F64023C2F200031A7B40F64023C2F28F
:1017280000035B7B10461946FFF760FF034610E095
:1017380040F64023C2F200039A7940F64023C2F2F1
:101748000003DB7910461946FFF750FF034600E017
:1017580000231BB218460837BD4680BD80B582B04D
:1017680000AF87ED010A3860D7ED017AF5EEC07A4F
:10177800F1EE10FA14DBD7ED017AF1EEE77AF4EE28
:10178800677AF1EE10FA05D097ED010A04F096F8A1
:10179800F0EE407A17EE902A3B681A60002304E0C6
:1017A8003B684FF000021A60FF235BB21846083707
:1017B800BD4680BD80B500AF40F67423C2F2000379
:1017C80000221A6040F65423C2F2000378221A60FD
:1017D80040F67423C2F20003F0221A6040F6B823E0
:1017E800C2F200034FF000021A6040F66413C2F21E
:1017F80000034FF000021A6040F68413C2F200039F
:101808004FF000021A6040F68013C2F200034FF056
:1018180000021A6040F66C13C2F200034FF0000297
:101828001A6040F6A423C2F200034FF000021A60C7
:1018380040F6D013C2F200034FF000021A6040F6DF
:101848005023C2F200034FF000021A6040F6BC13A6
:10185800C2F200034FF000021A6040F6C013C2F251
:1018680000034FF000021A6040F63823C2F200036A
:101878004FF000021A6040F6B423C2F200034FF0A2
:1018880000021A6040F63813C2F200034FF000025B
:101898001A6040F60423C2F200034FF000021A60F7
:1018A80040F67413C2F200034FF000021A6040F6CB
:1018B8007813C2F2000300221A6040F6F413C2F251
:1018C800000300221A6040F6E413C2F2000300226B
:1018D8001A6001F09BFE024640F65013C2F2000364
:1018E8001A6040F6C413C2F200034FF000021A60F7
:1018F8004FF49040C4F2000046F2E831C0F600010F
:1019080002F080F84FF49040C4F2000046F218410B
:10191800C0F6000102F076F880BD00BF80B582B045
:1019280000AF786040F65013C2F200031B687A6873
:10193800D31A632B40F2908040F6C413C2F200031E
:10194800D3ED007A4DF20A73C3F6234307EE103A3B
:1019580077EE877A40F6C413C2F20003C3ED007A2B
:1019680000F07EF840F6C413C2F20003D3ED007A0B
:101978004FF49040C4F20000B0EE670A052103223C
:1019880002F0B6F94FF49040C4F2000046F230413C
:10199800C0F6000102F036F840F61423C2F2000344
:1019A800D3ED007A4FF49040C4F20000B0EE670A1D
:1019B8000321032202F09CF94FF49040C4F2000086
:1019C80046F23041C0F6000102F01CF840F6F81368
:1019D800C2F20003D3ED007A4FF49040C4F2000045
:1019E800B0EE670A0321032202F082F94FF4904017
:1019F800C4F2000046F23041C0F6000102F002F8DD
:101A080040F6F413C2F200031B684FF49040C4F28E
:101A18000000194602F084F84FF49040C4F2000028
:101A280046F23041C0F6000101F0ECFF40F6E41345
:101A3800C2F200031B684FF49040C4F2000019463C
:101A480002F06EF84FF49040C4F2000046F23441C0
:101A5800C0F6000101F0D6FF0837BD4680BD00BFC3
:101A680080B500AF0020FFF7D9FD034607EE903A96
:101A7800F8EEE77A4FF08A4307EE103A87EE877A56
:101A880040F63413C2F20003D3ED007A77EE677A9A
:101A980040F64C13C2F20003C3ED007A0120FFF7B1
:101AA800BDFD034607EE903AF8EEE77A4FF08A4319
:101AB80007EE103A87EE877A40F63823C2F2000321
:101AC800D3ED007A77EE677A40F6B413C2F20003DA
:101AD800C3ED007A0220FFF7A1FD034607EE903A16
:101AE800F8EEE77A4FF08A4307EE103AC7EE877AA6
:101AF80040F68023C2F20003C3ED007A0320FFF70B
:101B08008DFD034607EE903AF8EEE77A43F2333359
:101B1800C4F2831307EE103A87EE877A40F638133B
:101B2800C2F20003D3ED007A77EE677A40F62C23F1
:101B3800C2F20003C3ED007A0420FFF76FFD0346ED
:101B480007EE903AF8EEE77A43F23333C4F28313A0
:101B580007EE103A87EE877A40F60423C2F20003B4
:101B6800D3ED007A77EE677A40F6AC13C2F2000341
:101B7800C3ED007A0520FFF751FD034607EE903AC2
:101B8800F8EEE77A43F23333C4F2831307EE103AE0
:101B980087EE877A40F67413C2F20003D3ED007A19
:101BA80077EE677A40F6AC23C2F20003C3ED007A01
:101BB8000620FFF733FD034607EE903AF8EEE77A82
:101BC8004FF00003C4F2AA3307EE103AC7EE877A43
:101BD80041F6B863C4F2122307EE103A77EE877A1B
:101BE80040F69413C2F20003C3ED007A40F678136E
:101BF800C2F200031B68002B46D140F64C13C2F218
:101C0800000393ED007A40F6B413C2F20003D3ED5B
:101C1800007AB0EE470AF0EE670A40F63410C2F2D6
:101C2800000040F63821C2F2000100F0ADFB40F69A
:101C38002C23C2F20003D3ED006A40F6AC13C2F2C3
:101C4800000393ED007A40F6AC23C2F20003D3ED13
:101C5800007AB0EE660AF0EE470AB0EE671A40F670
:101C68003810C2F2000040F60421C2F2000140F62A
:101C78007412C2F2000200F0EFFB024640F678133D
:101C8800C2F200031A604FE000F050F800F0E8F8E4
:101C980040F61423C2F2000393ED007A40F6501385
:101CA800C2F200031B6807EE903AF8EE677AB0EECE
:101CB800470AF0EE670A0020C4F2010001F086F836
:101CC80003460020C4F20100194601F0ABFC0246AD
:101CD80040F6F413C2F200031A6040F6F813C2F299
:101CE800000393ED007A40F65013C2F200031B681C
:101CF80007EE903AF8EE677AB0EE470AF0EE670A18
:101D08004FF4A050C4F2000001F060F803464FF40D
:101D1800A050C4F20000194601F084FC024640F6C7
:101D2800E413C2F200031A6080BD00BF80B582B020
:101D380000AF40F6B413C2F2000393ED007A40F608
:101D4800B413C2F20003D3ED007A27EE277A40F6E7
:101D58008023C2F20003D3ED006A40F68023C2F26A
:101D68000003D3ED007A66EEA77A77EE277A3B1D5B
:101D7800B0EE670A1846FFF7F1FC40F64C13C2F2C2
:101D8800000393ED007AD7ED017AC7EE277AB0EE1B
:101D9800670A01F0BFF9F0EE407A4FF00003C4F291
:101DA800343307EE103A67EE877A40F6DB73C4F2F5
:101DB800490307EE103AC7EE877A40F65413C2F289
:101DC8000003C3ED007A40F64C13C2F2000393ED12
:101DD800007A40F64C13C2F20003D3ED007A27EEE6
:101DE800277A40F68023C2F20003D3ED006A40F65A
:101DF8008023C2F20003D3ED007A66EEA77A77EE6D
:101E0800277A3B1DB0EE670A1846FFF7A7FC40F695
:101E1800B413C2F2000393ED007AD7ED017AC7EE4E
:101E2800277AB0EE670A01F075F9F0EE407A4FF0C4
:101E38000003C4F2343307EE103A67EE877A40F6AF
:101E4800DB73C4F2490307EE103AC7EE877A40F60F
:101E58008423C2F20003C3ED007A0837BD4680BD73
:101E680080B500AF40F65413C2F2000393ED007A38
:101E780040F6A423C2F20003D3ED007AB0EE470A7D
:101E8800F0EE670A0020C4F2010000F065FBF0EEF6
:101E9800407A40F61423C2F20003C3ED007A40F6FC
:101EA8001423C2F2000393ED007A40F6BC13C2F289
:101EB8000003D3ED007AB0EE470AF0EE670A00F0AF
:101EC8003BFAF0EE407A40F61423C2F20003C3ED69
:101ED800007A40F61423C2F200031A6840F6BC13D5
:101EE800C2F200031A6040F68423C2F2000393EDA5
:101EF800007A40F6D013C2F20003D3ED007AB0EEB8
:101F0800470AF0EE670A4FF4A050C4F2000000F050
:101F180023FBF0EE407A40F6F813C2F20003C3ED5B
:101F2800007A40F6F813C2F2000393ED007A40F607
:101F3800C013C2F20003D3ED007AB0EE470AF0EE08
:101F4800670A00F0F9F9F0EE407A40F6F813C2F2A9
:101F58000003C3ED007A40F6F813C2F200031A68D2
:101F680040F6C013C2F200031A6080BD80B400AF0F
:101F780040F61423C2F200031B6807EE903AB0EE55
:101F8800670ABD465DF8047B704700BF80B582B024
:101F980000AF87ED010A386097ED010A00F0ECFE0A
:101FA8000346012B21D140F67423C2F200031B68BB
:101FB8005A1C40F67423C2F200031A6040F65423F8
:101FC800C2F200031B685A1C40F65423C2F20003F5
:101FD8001A6040F69C23C2F200031B685A1C40F6A4
:101FE8009C23C2F200031A6028E097ED010A00F072
:101FF800C3FE0346B3F1FF3F20D140F67423C2F27B
:1020080000031B685A1E40F67423C2F200031A60CC
:1020180040F65423C2F200031B685A1E40F65423AC
:10202800C2F200031A6040F69C23C2F200031B6848
:102038005A1E40F69C23C2F200031A6040F674232D
:10204800C2F200031B68B3F5B47F05DB40F67423C6
:10205800C2F2000300221A6040F65423C2F20003C1
:102068001B68B3F5B47F05DB40F65423C2F20003C6
:1020780000221A6040F69C23C2F200031B68B3F5E5
:10208800B47F05DB40F69C23C2F2000300221A60ED
:1020980040F67423C2F200031B68002B06DA40F6F0
:1020A8007423C2F2000340F267121A6040F6542308
:1020B800C2F200031B68002B06DA40F65423C2F272
:1020C800000340F267121A6040F69C23C2F2000334
:1020D8001B68002B06DA40F69C23C2F2000340F28C
:1020E80067121A6040F67423C2F200031A6846F2B7
:1020F8003843C0F6000392001344D3ED007A4FF43E
:102108007053C4F2036307EE103A67EE877A40F61D
:10211800B823C2F20003C3ED007A40F65423C2F29A
:1021280000031A6846F23843C0F6000392001344CD
:10213800D3ED007A4FF47053C4F2036307EE103AFC
:1021480067EE877A40F66413C2F20003C3ED007AA3
:1021580040F69C23C2F200031A6846F23843C0F6E0
:10216800000392001344D3ED007A4FF47053C4F285
:10217800036307EE103A67EE877A40F68413C2F2DB
:102188000003C3ED007A40F6B823C2F20003D3ED92
:10219800007AFCEEE77A386817EE901A03F084FAB2
:1021A80040F66413C2F20003D3ED007AFCEEE77A3E
:1021B800386817EE901A03F085FA40F68413C2F2D5
:1021C8000003D3ED007AFCEEE77A386817EE901A30
:1021D80003F086FA0837BD4680BD00BF80B400AF63
:1021E80040F61023C2F200034FF000021A6040F6D6
:1021F8001C23C2F200034FF000021A6040F6342399
:10220800C2F200034FF000021A6040F66423C2F2E3
:1022180000034FF000021A6040F68813C2F2000370
:102228004FF000021A6040F6FC13C2F200034FF0B0
:1022380000021A6040F66813C2F200034FF0000271
:102248001A6040F63C23C2F200034FF000021A6005
:1022580040F6A823C2F2000300221A6040F6481391
:10226800C2F2000341F26F22C3F683221A6040F6DD
:102278007823C2F2000349F6A632C3F644321A6044
:1022880040F6DC13C2F200034CF28F22C3F6F5428B
:102298001A6040F62023C2F200034FF000021A60D1
:1022A80040F68C13C2F200034FF000021A6040F6A9
:1022B800A023C2F200034FF000021A6040F6B023D8
:1022C800C2F200034FF000021A6040F6BC23C2F2CB
:1022D80000034FF000021A6040F6C813C2F2000370
:1022E8004FF000021A6040F6D413C2F200034FF018
:1022F80000021A6040F62823C2F200034FF00002E1
:102308001A6040F60C23C2F200034FF000021A6074
:1023180040F64413C2F200034FF000021A6040F680
:102328006C23C2F200034DF20A72C3F623421A600C
:10233800BD465DF8047B704780B483B000AF87ED7D
:10234800010AC7ED000A4CF6CD43C3F64C5307EE1D
:10235800103AD7ED017A27EE277A4CF6CD43C3F62B
:102368004C5306EE903AF7EE007A77EEE66AD7ED30
:10237800007A66EEA77A77EE277AB0EE670A0C370E
:10238800BD465DF8047B704780B485B000AF87ED2B
:10239800030AC7ED020A7860396040F6A823C2F242
:1023A80000031B685A1C40F6A823C2F200031A60F7
:1023B80040F63423C2F2000393ED007AD7ED037A96
:1023C80077EE277A40F63423C2F20003C3ED007A91
:1023D80040F66423C2F2000393ED007AD7ED027A47
:1023E80077EE277A40F66423C2F20003C3ED007A41
:1023F80040F6A823C2F200031B68B3F57A6F23D313
:1024080040F63423C2F20003D3ED007A4FF0000304
:10241800C4F27A5307EE103AC7EE877A7B68C3EDA9
:10242800007A40F66423C2F20003D3ED007A4FF03D
:102438000003C4F27A5307EE103AC7EE877A3B6876
:10244800C3ED007A012300E0002318461437BD4687
:102458005DF8047B704700BF80B487B000AF87ED9C
:10246800050AC7ED040A87ED031AB86079603A6077
:1024780040F6FC13C2F2000393ED007AD7ED057A1B
:1024880077EE277A40F6FC13C2F20003C3ED007A18
:1024980040F66813C2F2000393ED007AD7ED047A90
:1024A80077EE277A40F66813C2F20003C3ED007A8C
:1024B80040F63C23C2F2000393ED007AD7ED037A8D
:1024C80077EE277A40F63C23C2F20003C3ED007A88
:1024D80040F6A823C2F200031B68B3F57A6F34D321
:1024E80040F6FC13C2F20003D3ED007A4FF000036C
:1024F800C4F27A5307EE103AC7EE877ABB68C3ED89
:10250800007A40F66813C2F20003D3ED007A4FF068
:102518000003C4F27A5307EE103AC7EE877A7B6855
:10252800C3ED007A40F63C23C2F20003D3ED007AF3
:102538004FF00003C4F27A5307EE103AC7EE877AD9
:102548003B68C3ED007A012300E0002318461C37DE
:10255800BD465DF8047B704780B485B000AF87ED59
:10256800030AC7ED020A78607A680023C4F20103FF
:102578009A4240F0AA8140F62023C2F20003D3ED2C
:10258800007A97ED027A37EE677A40F66C23C2F24A
:102598000003D3ED007A27EE277A40F67013C2F2D3
:1025A8000003D3ED007A77EE277A40F67013C2F273
:1025B8000003C3ED007A40F66C23C2F2000393EDEA
:1025C800007A40F6C813C2F20003D3ED007A27EE72
:1025D800277A40F6BC23C2F20003D3ED007A37EE27
:1025E800677A40F6B023C2F20003D3ED007A37EEE3
:1025F800677A40F64813C2F20003D3ED007A37EE4B
:10260800277A40F66C23C2F20003D3ED007A27EE56
:10261800277A40F6A023C2F20003D3ED007A77EEC2
:10262800277A40F6A023C2F20003C3ED007A40F6F1
:10263800BC23C2F2000393ED007A40F66C23C2F289
:102648000003D3ED006A40F6C813C2F20003D3EDCD
:10265800007A66EEA77A77EE677A40F6BC23C2F274
:102668000003C3ED007A40F6B023C2F2000393EDF5
:10267800007A40F66C23C2F20003D3ED006A40F6FC
:10268800C813C2F20003D3ED007A66EEA77A77EE9C
:10269800677A40F6B023C2F20003C3ED007A40F631
:1026A8007823C2F2000393ED007A40F66C23C2F25D
:1026B8000003D3ED007A27EE277A40F6C813C2F25A
:1026C8000003D3ED007A77EE277A40F6C813C2F2FA
:1026D8000003C3ED007A40F67013C2F20003D3ED95
:1026E800007A97ED037A77EE677A40F6CC13C2F258
:1026F8000003C3ED007A40F6A023C2F2000393ED75
:10270800007A40F6DC13C2F20003D3ED007A77EECC
:10271800277A40F66023C2F20003C3ED007A40F640
:10272800A023C2F2000393ED007A40F66023C2F2C0
:102738000003D3ED007AC7EE277A40F67C13C2F285
:102748000003C3ED007A40F6B023C2F2000393ED14
:10275800007A40F66023C2F20003D3ED007AC7EE98
:10276800277A40F67C23C2F20003C3ED007A40F6D4
:102778007C13C2F2000393ED007A40F6CC13C2F248
:102788000003D3ED007A27EE277A40F67013C2F2E1
:102798000003D3ED007A77EE277A40F67013C2F281
:1027A8000003C3ED007A40F67C23C2F2000393EDE8
:1027B800007A40F6CC13C2F20003D3ED007A27EE7C
:1027C800277A40F62023C2F20003D3ED007A77EE91
:1027D800277A40F62023C2F20003C3ED007A40F6C0
:1027E800A023C2F2000393ED007A40F67C13C2F2F4
:1027F8000003D3ED006A40F6A023C2F20003D3ED34
:10280800007A66EEA77A77EE677A40F6A023C2F2DE
:102818000003C3ED007A40F6BC23C2F2000393ED37
:10282800007A40F67C13C2F20003D3ED006A40F64A
:10283800BC23C2F20003D3ED007A66EEA77A77EEE6
:10284800677A40F6BC23C2F20003C3ED007A40F673
:10285800B023C2F2000393ED007A40F67C23C2F263
:102868000003D3ED006A40F6A023C2F20003D3EDC3
:10287800007A66EEA77A77EE677A40F6B023C2F25E
:102888000003C3ED007A40F6C813C2F2000393EDCB
:10289800007A40F67C23C2F20003D3ED006A40F6CA
:1028A800BC23C2F20003D3ED007A66EEA77A77EE76
:1028B800677A40F6C813C2F20003C3ED007A40F607
:1028C8007013C2F200031B68B2E17A684FF4A05398
:1028D800C4F200039A4240F0AA8140F68C13C2F277
:1028E8000003D3ED007A97ED027A37EE677A40F667
:1028F8006C23C2F20003D3ED007A27EE277A40F664
:10290800C023C2F20003D3ED007A77EE277A40F6AF
:10291800C023C2F20003C3ED007A40F66C23C2F272
:10292800000393ED007A40F64413C2F20003D3ED9E
:10293800007A27EE277A40F60C23C2F20003D3ED83
:10294800007A37EE677A40F62823C2F20003D3ED07
:10295800007A37EE677A40F64813C2F20003D3EDE7
:10296800007A37EE277A40F66C23C2F20003D3EDE3
:10297800007A27EE277A40F6D413C2F20003D3ED8B
:10298800007A77EE277A40F6D413C2F20003C3ED3B
:10299800007A40F60C23C2F2000393ED007A40F669
:1029A8006C23C2F20003D3ED006A40F64413C2F26E
:1029B8000003D3ED007A66EEA77A77EE677A40F6E1
:1029C8000C23C2F20003C3ED007A40F62823C2F2BA
:1029D800000393ED007A40F66C23C2F20003D3EDB6
:1029E800006A40F64413C2F20003D3ED007A66EEA3
:1029F800A77A77EE677A40F62823C2F20003C3ED80
:102A0800007A40F67823C2F2000393ED007A40F68C
:102A18006C23C2F20003D3ED007A27EE277A40F642
:102A28004413C2F20003D3ED007A77EE277A40F61A
:102A38004413C2F20003C3ED007A40F6C023C2F289
:102A48000003D3ED007A97ED037A77EE677A40F6C4
:102A58009013C2F20003C3ED007A40F6D413C2F219
:102A6800000393ED007A40F6DC13C2F20003D3EDC5
:102A7800007A77EE277A40F62423C2F20003C3EDEA
:102A8800007A40F6D413C2F2000393ED007A40F6C0
:102A98002423C2F20003D3ED007AC7EE277A40F66A
:102AA8001823C2F20003C3ED007A40F62823C2F2CD
:102AB800000393ED007A40F62423C2F20003D3ED1D
:102AC800007AC7EE277A40F6D813C2F20003C3EDA6
:102AD800007A40F61823C2F2000393ED007A40F61C
:102AE8009013C2F20003D3ED007A27EE277A40F65E
:102AF800C023C2F20003D3ED007A77EE277A40F6BE
:102B0800C023C2F20003C3ED007A40F6D813C2F224
:102B1800000393ED007A40F69013C2F20003D3ED60
:102B2800007A27EE277A40F68C13C2F20003D3ED21
:102B3800007A77EE277A40F68C13C2F20003C3EDD1
:102B4800007A40F6D413C2F2000393ED007A40F6FF
:102B58001823C2F20003D3ED006A40F6D413C2F280
:102B68000003D3ED007A66EEA77A77EE677A40F62F
:102B7800D413C2F20003C3ED007A40F60C23C2F26C
:102B8800000393ED007A40F61823C2F20003D3ED58
:102B9800006A40F60C23C2F20003D3ED007A66EE19
:102BA800A77A77EE677A40F60C23C2F20003C3EDEA
:102BB800007A40F62823C2F2000393ED007A40F62B
:102BC800D813C2F20003D3ED006A40F6D413C2F260
:102BD8000003D3ED007A66EEA77A77EE677A40F6BF
:102BE8002823C2F20003C3ED007A40F64413C2F270
:102BF800000393ED007A40F6D813C2F20003D3ED38
:102C0800006A40F60C23C2F20003D3ED007A66EEA8
:102C1800A77A77EE677A40F64413C2F20003C3ED51
:102C2800007A40F6C023C2F200031B6800E001E00E
:102C380007EE903AB0EE670A1437BD465DF8047B9C
:102C4800704700BF80B584B000AF786040F670036D
:102C5800C2F200031B68002B08D140F67003C2F2D1
:102C6800000340F6D022C2F200021A6040F6700358
:102C7800C2F200031B68FB6040F67003C2F2000357
:102C88001A687B6813446A46934207D904F000FC2B
:102C980002460C2313604FF0FF330CE040F670033C
:102CA800C2F200031A687B681A4440F67003C2F245
:102CB80000031A60FB6818461037BD4680BD00BF88
:102CC80080B483B000AF00237B600CE040F688231B
:102CD800C2F200037A68920013444FF000021A60AF
:102CE8007B6801337B607B68052BEFDD40F6EC13D6
:102CF800C2F200034FF00002C4F2FA421A6040F632
:102D0800C423C2F200034FF000021A6040F66823A1
:102D1800C2F200034FF000021A6040F65813C2F2E4
:102D280000034FF00002C4F2FA421A6040F6702322
:102D3800C2F200034FF000021A6040F6E013C2F23C
:102D480000034FF000021A6040F63023C2F200037D
:102D58004FF47F42C4F27F721A6040F65C13C2F2ED
:102D680000034FF47F42C4F27F721A600C37BD46ED
:102D78005DF8047B704700BF80B483B000AF87ED77
:102D8800010A4FF0000307EE103AD7ED017A77EE0B
:102D9800677AF5EEC07AF1EE10FA02DD4FF0FF33F4
:102DA8000EE04FF0000307EE103AD7ED017A77EE08
:102DB800677AF5EEC07AF1EE10FA01D50123FFE744
:102DC80018460C37BD465DF8047B704780B485B063
:102DD80000AF87ED030AC7ED020A7860D7ED037AE2
:102DE800F5EEC07AF1EE10FA05D5D7ED037AF1EEDB
:102DF800677AC7ED037A7A680023C4F201039A421E
:102E080040F0BB804FF0000307EE103AD7ED037A8D
:102E180077EE677A40F68823C2F20003C3ED007AA2
:102E280040F68823C2F2000393ED007A40F6882327
:102E3800C2F20003D3ED017A37EE677A40F6EC135D
:102E4800C2F20003D3ED007A27EE277A40F68823F2
:102E5800C2F20003D3ED006A40F6C423C2F20003B5
:102E6800D3ED007A66EEA77A37EE277A40F6882304
:102E7800C2F20003D3ED006A40F68823C2F20003D1
:102E8800D3ED017A76EEE76A40F68823C2F20003B2
:102E980093ED016A40F68823C2F20003D3ED027A6B
:102EA80076EE677A76EEE76A40F66823C2F20003A8
:102EB800D3ED007A66EEA77A37EE277A40F630230C
:102EC800C2F20003D3ED007A77EE277A40F630237A
:102ED800C2F20003C3ED007A40F63023C2F20003C9
:102EE800D3ED007A4FF48043C4F21C6307EE103A26
:102EF800F4EEC77AF1EE10FA08D540F63023C2F2A4
:102F080000034FF48042C4F21C621A6040F630237A
:102F1800C2F20003D3ED007A4FF47F43C4F27F730B
:102F280007EE103AF4EEC77AF1EE10FA08DD40F633
:102F38003023C2F200034FF47F42C4F27F721A605A
:102F480040F68823C2F200035A6840F68823C2F28A
:102F580000039A6040F68823C2F200031A6840F61C
:102F68008823C2F200035A6040F63023C2F20003FD
:102F7800D3ED007AFDEEE77AC3E07A684FF4A05308
:102F8800C4F200039A4240F0BB804FF0000307EE02
:102F9800103AD7ED037A77EE677A40F68823C2F2C3
:102FA8000003C3ED037A40F68823C2F2000393EDD1
:102FB800037A40F68823C2F20003D3ED047A37EE91
:102FC800677A40F65813C2F20003D3ED007A27EE71
:102FD800277A40F68823C2F20003D3ED036A40F64D
:102FE8007023C2F20003D3ED007A66EEA77A37EEBB
:102FF800277A40F68823C2F20003D3ED036A40F62D
:103008008823C2F20003D3ED047A76EEE76A40F62D
:103018008823C2F2000393ED046A40F68823C2F2C3
:103028000003D3ED057A76EE677A76EEE76A40F626
:10303800E013C2F20003D3ED007A66EEA77A37EE0A
:10304800277A40F65C13C2F20003D3ED007A77EEDC
:10305800277A40F65C13C2F20003C3ED007A40F60B
:103068005C13C2F20003D3ED007A4FF48043C4F23C
:103078001C6307EE103AF4EEC77AF1EE10FA08D5A1
:1030880040F65C13C2F200034FF48042C4F21C62A3
:103098001A6040F65C13C2F20003D3ED007A4FF4D5
:1030A8007F43C4F27F7307EE103AF4EEC77AF1EE6D
:1030B80010FA08DD40F65C13C2F200034FF47F42B9
:1030C800C4F27F721A6040F68823C2F200031A69BC
:1030D80040F68823C2F200035A6140F68823C2F200
:1030E8000003DA6840F68823C2F200031A6140F64A
:1030F8005C13C2F20003D3ED007AFDEEE77A00E03C
:1031080001E017EE903A18461437BD465DF8047B87
:10311800704700BF80B586B000AF87ED010AD7EDD4
:10312800017AF5EEC07AF1EE10FA0CD5D7ED017AF6
:10313800F1EE677AB0EE670AFFF7ECFFF0EE407A3F
:10314800F1EE677A89E0D7ED017AF5EE407AF1EE93
:1031580010FA04D14FF0000307EE903A7DE0012306
:103168007B6171E047F20443C0F600037A6992007C
:10317800134493ED007AD7ED017AB4EEE77AF1EED5
:1031880010FA5EDB7B695A1E13465B001344DB00B2
:1031980007EE903AB8EEE77A7B695A1E47F2044385
:1031A800C0F6000392001344D3ED007AD7ED016A0C
:1031B80076EEE76A7B695A1E47F29C33C0F6000335
:1031C80092001344D3ED007AC6EEA77A77EE277AF9
:1031D800C7ED047AD7ED047AFDEEE77A17EE903A58
:1031E800FB60FB6807EE903AF8EEE77A97ED047A11
:1031F80077EE677AC7ED027A46F6D813C0F6000371
:10320800FA689200134493ED007AFB685A1C46F65C
:10321800D813C0F6000392001344D3ED006A46F6B3
:10322800D813C0F60003FA6892001344D3ED007A6D
:1032380076EEE76AD7ED027A66EEA77A77EE277A16
:103248000BE07B6901337B617B691A2B8ADD40F6D1
:103258002323C3F6C97307EE903AB0EE670A18370E
:10326800BD4680BD80B485B000AF87ED010A3860E7
:103278007B68BB600023FB600AE097ED017AD7ED1D
:10328800027A67EE277AC7ED017AFB680133FB60A3
:10329800FA683B68013B9A42EFD37B6807EE903AA5
:1032A800B0EE670A1437BD465DF8047B704700BF6F
:1032B80080B500AF4FF08040012102F09BFA034631
:1032C800002B0FD04FF08040012102F0BDFA40F6EC
:1032D8005C23C2F200031B685A1C40F65C23C2F24E
:1032E80000031A6080BD00BF80B500AF0020C4F2A3
:1032F8000100012102F07EFA0346002B11D00020C4
:10330800C4F20100012102F09FFAFEF72FFEF0EE51
:10331800407AB0EE670A4FF40060C4F20000FEF78E
:1033280035FE80BD80B500AF4FF4A050C4F2000058
:10333800012102F05FFA0346002B06D04FF4A0509B
:10334800C4F20000012102F07FFA80BD80B500AF11
:1033580040F65C23C2F2000300221A6000F046F92E
:103368004FF40060C4F2000000F016F84FF440601B
:10337800C4F2000000F010F800F00EF90020C4F2CA
:10338800010000F053F84FF4A050C4F2000000F020
:103398004DF800F071F880BD80B58AB000AF786054
:1033A80000F090F80023BB830023FB8342F2CF0395
:1033B8003B620023BB84002387F8263007F11C03F7
:1033C8007868194601F064FF7868012101F0D6FF9A
:1033D80060233B8101237B810023BB8200233B6167
:1033E80007F108037868194601F0E8FF78680821B2
:1033F80002F084F900233B6107F108037868194655
:1034080002F064F87868082102F096F900233B611D
:1034180007F108037868194602F0DEF87868082191
:1034280002F0A6F92837BD4680BD00BF80B586B03A
:1034380000AF78605323BB810023FB814FF4FA73FC
:103448003B610023BB820023BB7507F10C0378683E
:10345800194601F01DFF7868012102F0F5F9786836
:103468000121012202F0A2F97868012101F086FF0A
:103478001837BD4680BD00BF80B584B000AF532368
:10348800BB800023FB806423BB600023BB81002337
:10349800BB733B1D4FF08040194601F0F9FE4FF019
:1034A8008040012102F0D0F94FF080400121012233
:1034B80002F07CF94FF08040012101F05FFF1037E6
:1034C800BD4680BD80B582B000AF4FF44060C4F205
:1034D80002000D21022200F0F5FE4FF44060C4F214
:1034E80002000E21022200F0EDFE4FF44060C4F20B
:1034F80002000F21022200F0E5FE0020C4F20200C3
:103508000221022200F0DEFE0020C4F202000321A4
:10351800022200F0D7FE0020C4F202000421022299
:1035280000F0D0FE4FF460433B600023BB710023E2
:10353800FB7102233B7103237B713B464FF44060D0
:10354800C4F20200194600F02FFE1C233B60002342
:10355800BB710023FB7102233B7103237B713B4644
:103568000020C4F20200194600F01EFE4FF48053FA
:103578003B600023BB710023FB7101233B710323D4
:103588007B713B464FF44060C4F20200194600F0DC
:103598000BFE0837BD4680BD80B582B000AF1C2346
:1035A8003B7100237B710123BB710123FB713B1D20
:1035B800184601F00DFD37233B7100237B71012371
:1035C800BB710123FB713B1D184601F001FD192356
:1035D8003B7100237B710123BB710123FB713B1DF0
:1035E800184601F0F5FC0837BD4680BD80B500AF30
:1035F8000B20012101F038FC2F20012101F05CFC97
:103608000320012101F080FC80BD00BF80B400AF21
:1036180040F65C23C2F200031B681846BD465DF8FD
:10362800047B704780B586B000AF786039600423AA
:10363800BB810023FB813B683B610023BB820023E5
:10364800BB7507F10C037868194601F021FE78680C
:103658000121012202F0AAF87868012101F08EFE0A
:103668003B6818461837BD4680BD00BF80B582B09C
:1036780000AF00F069F9FEF79DF8FEF7AFFDFFF720
:103688001FFBFFF763FE48F28040C0F21E00FDF703
:103698007DFAFDF7DFFA48F28040C0F21E00FDF720
:1036A80075FAFDF741FF7520FDF7C6FE0346FB716D
:1036B800FB794FF49040C4F20000194600F0CCF9B1
:1036C8006B20FDF7B9FE0346FB71FB794FF4904080
:1036D800C4F20000194600F0BFF9FFF797FF034650
:1036E8001846FEF71BF9F8E780B400AFBD465DF851
:1036F800047B704780B400AFFEE700BF80B400AF22
:10370800FEE700BF80B400AFFEE700BF80B400AFA3
:10371800FEE700BF80B400AFBD465DF8047B70478C
:1037280080B500AF4FF46D43CEF200034FF46D4205
:10373800CEF20002D2F8882042F47002C3F8882042
:103748004FF46053C4F202034FF46052C4F2020211
:10375800126842F001021A604FF46053C4F2020387
:1037680000229A604FF46052C4F202024FF4605390
:10377800C4F202031B6823F0847323F480331360BC
:103788004FF46053C4F2020343F21002C2F2004243
:103798005A604FF46053C4F202034FF46052C4F20B
:1037A8000202126822F480221A604FF46053C4F2B5
:1037B80002030022DA6000F009F84FF46D43CEF2FC
:1037C80000034FF000629A6080BD00BF80B483B0F0
:1037D80000AF00237B6000233B604FF46053C4F2CA
:1037E80002034FF46052C4F20202126842F48032BB
:1037F8001A604FF46053C4F202031B6803F40033E9
:103808003B607B6801337B603B68002B03D17B689E
:10381800B3F5A04FEDD14FF46053C4F202031B6817
:1038280003F40033002B02D001233B6001E00023A6
:103838003B603B68012B40F082804FF46053C4F238
:1038480002034FF46052C4F20202126C42F080523A
:103858001A644FF4E043C4F200034FF4E042C4F2A8
:103868000002126842F440421A604FF46053C4F2F6
:1038780002034FF46052C4F2020292689A604FF455
:103888006053C4F202034FF46052C4F20202926819
:1038980042F400429A604FF46053C4F202034FF4BA
:1038A8006052C4F20202926842F4A0529A604FF445
:1038B8006053C4F2020345F20842C0F240725A60F3
:1038C8004FF46053C4F202034FF46052C4F2020290
:1038D800126842F080721A6000BF4FF46053C4F25D
:1038E80002031B6803F00073002BF6D04FF47053EB
:1038F800C4F2020340F205721A604FF46053C4F236
:1039080002034FF46052C4F20202926822F00302EA
:103918009A604FF46053C4F202034FF46052C4F249
:103928000202926842F002029A6000BF4FF46053AC
:10393800C4F202039B6803F00C03082BF6D10C3782
:10394800BD465DF8047B704780B586B000AF4FF484
:103958008020012101F0B0FA0820012101F084FA49
:103968004FF480733B6102233B7502237B75002370
:10397800BB750123FB7507F110034FF44060C4F2D7
:103988000200194600F010FC4FF44060C4F2020037
:103998000821072200F096FC4FF4E1333B60002336
:1039A800BB800023FB8000233B810023BB810823CD
:1039B8007B813B464FF49040C4F20000194601F069
:1039C8006FFB4FF49040C4F20000012101F02EFC7F
:1039D8001837BD4680BD00BF80B582B000AF7860A3
:1039E800396000BF7B681B889BB203F04003002B43
:1039F800F8D03B689BB27868194601F037FC083765
:103A0800BD4680BD80B582B000AF7860396008E0FF
:103A18003B685A1C3A601B78DBB278681946FFF796
:103A2800DBFF3B681B78002BF2D10837BD4680BD11
:103A380080B582B000AF786039603B68092B02D945
:103A48003B68373301E03B68303378681946FFF745
:103A5800C3FF0837BD4680BD80B582B000AF78602F
:103A68000B46FB70FB781B09DBB278681946FFF739
:103A7800DFFFFB7803F00F0378681946FFF7D8FFDC
:103A88000837BD4680BD00BF80B58AB000AF7860FA
:103A9800396007F10C037B624FF44A43C3F69A334B
:103AA8003B6208E03A6A4CF6CD43CCF6CC43A3FB24
:103AB8000223DB083B623A6A3B689A4202D93B6AB6
:103AC800012BEFD83A683B6AB2FBF3F3FB617B6AE0
:103AD8005A1C7A62FA69D2B23032D2B2D2B21A70B1
:103AE800FB693A6A02FB03F33A68D31A3B603A6A05
:103AF8004CF6CD43CCF6CC43A3FB0223DB083B6258
:103B08003B6A002BDED17B6A00221A7007F10C0396
:103B180078681946FFF776FF2837BD4680BD00BF95
:103B280080B582B000AF786039603B68002B0ADA54
:103B380078682D21FFF750FF3B685B42786819468B
:103B4800FFF7A2FF04E03B6878681946FFF79CFF7F
:103B58000837BD4680BD00BF80B588B000AFF860AB
:103B680087ED020A79603A60D7ED027AF5EE407A7D
:103B7800F1EE10FA07D1FB6830221A70FB680133A6
:103B880000221A70B0E0D7ED027AF5EEC07AF1EEB5
:103B980010FA0AD5FB685A1CFA602D221A70D7ED64
:103BA800027AF1EE677AC7ED027AB2EE040A786813
:103BB800FFF758FB87ED070A97ED027AD7ED077AEA
:103BC800B4EEE77AF1EE10FA07DBFB6823221A70ED
:103BD800FB68013300221A7086E00123FB7644E07B
:103BE800D7ED077AB2EE047AC7EE877AC7ED077A7F
:103BF80097ED027AD7ED077AC7EE277AFCEEE77AD7
:103C080017EE903A7B61FB7E002B11D07B69002B6D
:103C18000ED1D7ED077AB2EE047AF4EEC77AF1EE58
:103C280010FA05DBFB685A1CFA6020221A7019E0AA
:103C38000023FB76FB685A1CFA607A69D2B23032EC
:103C4800D2B2D2B21A707B6907EE903AB8EE677AB0
:103C5800D7ED077A67EE277A97ED027A77EE677ADB
:103C6800C7ED027A7B68013B7B607B68002BB7D18C
:103C78003B68002B05D1FB685A1CFA6000221A70B9
:103C880032E0FB685A1CFA602E221A70D7ED027ACD
:103C9800B2EE047A67EE877AC7ED027AD7ED027A38
:103CA800FCEEE77A17EE903A7B61FB685A1CFA60E3
:103CB8007A69D2B23032D2B2D2B21A707B6907EEC8
:103CC800903AF8EE677A97ED027A77EE677AC7ED61
:103CD800027A3B68013B3B603B68002BD6D1FB680E
:103CE8005A1CFA6000221A702037BD4680BD00BFFA
:103CF80080B58CB000AFF86087ED020A79603A6051
:103D080007F11403FB62F86A97ED020A79683A68CA
:103D1800FFF722FF02E0FB6A0133FB62FB6A1B78B4
:103D2800002BF8D1FB6A00221A7007F11403F86817
:103D38001946FFF767FE3037BD4680BD80B485B0B1
:103D480000AF786039607B685B68FB603B68FA6845
:103D58005A60FB689A683B689A60FB689B683A6897
:103D68005A60FB683A689A603B687A681A617B68AF
:103D78001B685A1C7B681A601437BD465DF8047BC3
:103D8800704700BF80B485B000AF78607B681B695E
:103D9800FB607B685B687A6892689A607B689B685E
:103DA8007A6852685A60FB685A687B689A4203D1FD
:103DB8007B689A68FB685A607B6800221A61FB6816
:103DC8001B685A1EFB681A60FB681B681846143784
:103DD800BD465DF8047B704780B586B000AF002310
:103DE8007B6140F6FC03C2F200031B68002B40F025
:103DF800CE8040F6E403C2F200031B685A1C40F66A
:103E0800E403C2F200031A6040F6E403C2F20003BE
:103E18001B683B613B69002B34D140F6DC03C2F2DE
:103E280000031B681B68002B09D04FF0500383F375
:103E38001188BFF36F8FBFF34F8F3B60FEE740F6EB
:103E4800DC03C2F200031B68FB6040F6E003C2F229
:103E580000031A6840F6DC03C2F200031A6040F659
:103E6800E003C2F20003FA681A6040F6F403C2F2F3
:103E780000031B685A1C40F6F403C2F200031A60E0
:103E880000F002F940F6F803C2F200031B683A6931
:103E98009A4267D340F6DC03C2F200031B681B6832
:103EA800002B01D1012300E00023002B07D040F6AE
:103EB800F803C2F200034FF0FF321A6052E040F6F6
:103EC800DC03C2F200031B68DB68DB68BB60BB680D
:103ED8005B687B603A697B689A4206D240F6F803D1
:103EE800C2F200037A681A603CE0BB6804331846E3
:103EF800FFF748FFBB689B6A002B04D0BB681833E8
:103F08001846FFF73FFFBB68DB6A1A46012303FA2E
:103F180002F240F6E803C2F200031B681A4340F6B7
:103F2800E803C2F200031A60BB68DA6A13469B0012
:103F380013449B0040F67802C2F200021A44BB68A0
:103F4800043310461946FFF7F9FEBB68DA6A40F6F3
:103F58007403C2F200031B68DB6A9A4201D301238F
:103F68007B6197E740F67403C2F200031B68D96AC5
:103F780040F67802C2F200020B469B000B449B00FD
:103F880013441B68012B0DD901237B610AE040F61D
:103F9800EC03C2F200031B685A1C40F6EC03C2F2A1
:103FA80000031A6040F6F003C2F200031B68002BFE
:103FB80001D001237B617B6918461837BD4680BD57
:103FC80080B487B000AF40F6FC03C2F200031B6860
:103FD800002B06D040F6F003C2F2000301221A605B
:103FE8004DE040F6F003C2F2000300221A6040F6EA
:103FF800E803C2F200031B68FB60FB68B3FA83F3B3
:10400800FB72FB7AC3F11F037B6140F67802C2F2B0
:10401800000279690B469B000B449B0013441B6804
:10402800002B09D14FF0500383F31188BFF36F8F32
:10403800BFF34F8F7B60FEE77A6913469B001344FA
:104048009B0040F67802C2F2000213443B613B69D0
:104058005B685A683B695A603B695A683B69083330
:104068009A4204D13B695B685A683B695A603B696C
:104078005B68DA6840F67403C2F200031A601C3702
:10408800BD465DF8047B704780B483B000AF40F64E
:10409800DC03C2F200031B681B68002B01D101235B
:1040A80000E00023002B07D040F6F803C2F200031B
:1040B8004FF0FF321A600EE040F6DC03C2F2000354
:1040C8001B68DB68DB687B607B685A6840F6F8032E
:1040D800C2F200031A600C37BD465DF8047B7047D6
:1040E800064B19680868B0E8F04F80F30988BFF3F9
:1040F8006F8F4FF0000080F311887047740800201C
:10410800EFF30980BFF36F8F144B1A681EF0100F7E
:1041180008BF20ED108A20E9F04F10604DF8043DEB
:104128004FF0500080F31188BFF34F8FBFF36F8FAC
:10413800FFF746FF4FF0000080F3118808BC1968AC
:104148000868B0E8F04F1EF0100F08BFB0EC108AF6
:1041580080F30988BFF36F8F704700BF7408002091
:1041680080B584B000AFEFF311824FF0500383F3B2
:104178001188BFF36F8FBFF34F8FFA60BB60FFF7F3
:104188002BFE0346002B06D04EF60453CEF2000356
:104198004FF080521A6000237B607B6883F311889C
:1041A8001037BD4680BD00BF80B487B000AF7860CF
:1041B800396000237B6100233B610023FB600023FF
:1041C8007B6176E07B69012202FA03F33B613B687D
:1041D8001A683B691340FB60FA683B699A4265D1EB
:1041E8007B681A687B695B00194603238B40DB43B5
:1041F8001A407B681A607B681A683B681B79194605
:104208007B695B0001FA03F31A437B681A603B6819
:104218001B79012B03D03B681B79022B2ED17B68BD
:104228009A687B695B00194603238B40DB431A407D
:104238007B689A607B689A683B685B7919467B69FA
:104248005B0001FA03F31A437B689A607B685A683B
:104258007B699BB2194601238B40DB431A407B687C
:104268005A607B685B683A68927911467A6992B2BB
:1042780001FA02F292B21A437B685A607B68DA68E4
:104288007B699BB25B00032101FA03F3DB431A400D
:104298007B68DA607B68DA683B68DB7919467B699A
:1042A8005B0001FA03F31A437B68DA607B69013328
:1042B8007B617B690F2B85D91C37BD465DF8047B74
:1042C800704700BF80B485B000AF78600B467B8034
:1042D80013467B700023FB600023BB607B787A88E1
:1042E80002F0070292009340FB607B88DB089BB2D8
:1042F80018467B88DB089BB21A467B68083253F85D
:1043080022207B8803F007039B0019460F238B406C
:10431800DB4302EA03017B6800F1080243F822103C
:104328007B88DB089BB21A467B68083253F8222048
:10433800FB681343BB607B88DB089BB21A467B682B
:104348000832B96843F822101437BD465DF8047B7B
:10435800704700BF80B483B000AF78607B681B688B
:1043680023F001027B681A607B6800221A607B6870
:1043780000225A607B6800229A607B680022DA601B
:104388007B6800221A617B6821225A617A6846F2AA
:104398001003C4F202039A4206D14FF4C043C4F298
:1043A80002033D229A60E6E07A6846F22803C4F2E6
:1043B80002039A4207D14FF4C043C4F202034FF4F8
:1043C80074629A60D7E07A6846F24003C4F2020346
:1043D8009A4207D14FF4C043C4F202034FF4741257
:1043E8009A60C8E07A6846F25803C4F202039A4217
:1043F80007D14FF4C043C4F202034FF074629A60CD
:10440800B9E07A6846F27003C4F202039A4208D10E
:104418004FF4C043C4F202033D22C2F20002DA6044
:10442800A9E07A6846F28803C4F202039A4209D1E5
:104438004FF4C043C4F202034FF47462C2F20002A4
:10444800DA6098E07A6846F2A003C4F202039A425E
:1044580008D14FF4C043C4F202030022C2F23D0265
:10446800DA6088E07A6846F2B803C4F202039A4236
:1044780007D14FF4C043C4F202034FF03D52DA6053
:1044880079E07A6846F21043C4F202039A4206D1F0
:104498004FF4C843C4F202033D229A606BE07A6885
:1044A80046F22843C4F202039A4207D14FF4C843A4
:1044B800C4F202034FF474629A605CE07A6846F2D0
:1044C8004043C4F202039A4207D14FF4C843C4F2EE
:1044D80002034FF474129A604DE07A6846F258432A
:1044E800C4F202039A4207D14FF4C843C4F202034C
:1044F8004FF074629A603EE07A6846F27043C4F204
:1045080002039A4208D14FF4C843C4F202033D2281
:10451800C2F20002DA602EE07A6846F28843C4F2FA
:1045280002039A4209D14FF4C843C4F202034FF47C
:104538007462C2F20002DA601DE07A6846F2A043B3
:10454800C4F202039A4208D14FF4C843C4F20203EA
:104558000022C2F23D02DA600DE07A6846F2B84302
:10456800C4F202039A4206D14FF4C843C4F20203CC
:104578004FF03D52DA600C37BD465DF8047B70475A
:1045880080B485B000AF786039600023FB607B6839
:104598001B68FB60FA6848F23F03CFF21C03134024
:1045A800FB603B681A683B68DB681A433B685B69D9
:1045B8001A433B689B691A433B68DB691A433B68AB
:1045C8001B6A1A433B685B6A1A433B689B6A1A4337
:1045D8003B685B6B1A433B689B6B1343FA68134356
:1045E800FB607B68FA681A607B685B69FB60FB6844
:1045F80023F00703FB603B68DA6A3B681B6B1343D5
:10460800FA681343FB607B68FA685A613B681A6969
:104618007B685A603B685A687B689A603B689A680E
:104628007B68DA601437BD465DF8047B704700BFCD
:1046380080B483B000AF78600B46FB70FB78002B2A
:1046480006D07B681B6843F001027B681A6005E0AE
:104658007B681B6823F001027B681A600C37BD4633
:104668005DF8047B704700BF80B485B000AF786008
:1046780039607A6846F20F43C4F202039A4205D8B9
:104688004FF4C043C4F20203FB6004E04FF4C84394
:10469800C4F20203FB603B6803F00053002B07D011
:1046A8003B6823F0F02323F08213FA68D36006E016
:1046B8003B6823F0F02323F08213FA6893601437E1
:1046C800BD465DF8047B704780B485B000AFF860E4
:1046D800B9601346FB71BB6803F08003002B0FD051
:1046E800FB79002B06D0FB685B6943F08002FB680E
:1046F8005A6105E0FB685B6923F08002FB685A6138
:10470800BB68802B14D0FB79002B08D0FB681A6893
:10471800BB6803F01E031A43FB681A6008E0FB68D5
:104728001A68BB6803F01E03DB431A40FB681A6073
:104738001437BD465DF8047B704700BF80B487B06E
:1047480000AF786039600023FB750023FB6000230D
:10475800BB607A6846F20F43C4F202039A4205D856
:104768004FF4C043C4F202033B6104E04FF4C84372
:10477800C4F202033B613B6823F0F02323F0C31328
:10478800002B0AD03B68DB0A03F01E03FB607B6842
:104798001A68FB681340BB6004E07B685B6903F040
:1047A8008003BB603B6803F00053002B03D03B69D8
:1047B8005B68FB6002E03B691B68FB60FB6823F0F9
:1047C800F02323F08213FB60FA683B681340002B48
:1047D80005D0BB68002B02D00123FB7501E0002344
:1047E800FB75FB7D18461C37BD465DF8047B70479A
:1047F80080B485B000AF786039607A6846F20F43BC
:10480800C4F202039A4205D84FF4C043C4F202032B
:10481800FB6004E04FF4C843C4F20203FB603B684A
:1048280003F00053002B07D03B6823F0F02323F05C
:104838008213FA68D36006E03B6823F0F02323F084
:104848008213FA6893601437BD465DF8047B70479D
:1048580080B58AB000AF786039600023FB840023FC
:104868007B840423BB844FF49053C0F27A03FB612A
:104878007B689B88FB84FB8C23F03F03FB8407F158
:104888000C03184600F01CFA7B69FB61FA694DF6C7
:104898008363C4F21B33A3FB02239B0C7B84FA8C37
:1048A8007B8C1343FB847B68FA8C9A807B681B881B
:1048B8009BB223F001039AB27B681A800023FB8421
:1048C8003B681A6848F2A063C0F201039A4215D8FF
:1048D8003B681B685B00FA69B2FBF3F3BB84BB8CD3
:1048E800032B01D80423BB84FA8CBB8C1343FB84B1
:1048F8007B8C01339AB27B681A8443E03B68DB887F
:104908004BF6FF72934209D13B681A6813465B0065
:104918001344FA69B2FBF3F3BB840EE03B681A68F0
:1049280013469B0013449A001344FA69B2FBF3F34D
:10493800BB84BB8C43F48043BB84BB8CC3F30B03A5
:10494800002B03D1BB8C43F00103BB84BA8CFB8CD6
:1049580013439BB26FEA43436FEA5343FB847B8C58
:104968004FF4967202FB03F244F6D353C1F262038A
:1049780083FB02139911D317CB1A9BB201339AB256
:104988007B681A847B68FA8C9A837B681B889BB245
:1049980043F001039AB27B681A807B681B88FB840A
:1049A800FB8C23F4816323F00203FB843B689A8821
:1049B8003B685B8913439AB2FB8C1343FB847B6887
:1049C800FA8C1A803B689A893B681B8913439AB210
:1049D8007B681A812837BD4680BD00BF80B483B08C
:1049E80000AF78600B46FB70FB78002B08D07B6823
:1049F8001B889BB243F001039AB27B681A8007E0D8
:104A08007B681B889BB223F001039AB27B681A80EB
:104A18000C37BD465DF8047B704700BF80B483B097
:104A280000AF78600B46FB70FB78002B08D07B68E2
:104A38001B889BB243F480739AB27B681A8007E0A4
:104A48007B681B889BB223F480739AB27B681A80B8
:104A58000C37BD465DF8047B704700BF80B483B057
:104A680000AF78600B46FB70FB78002B08D07B68A2
:104A78001B889BB243F400739AB27B681A8007E0E4
:104A88007B681B889BB223F400739AB27B681A80F8
:104A98000C37BD465DF8047B704700BF80B483B017
:104AA80000AF78600B46FB701346BB70BB78002BD9
:104AB80004D0FB7843F00103FB7003E0FB7823F09C
:104AC8000103FB70FB789AB27B681A820C37BD46EB
:104AD8005DF8047B704700BF80B483B000AF786096
:104AE8000B46FB70FB78002B08D07B681B889BB2B9
:104AF80043F480639AB27B681A8007E07B681B885E
:104B08009BB223F480639AB27B681A800C37BD4647
:104B18005DF8047B704700BF80B483B000AF786055
:104B28000B46FB70FB789AB27B681A820C37BD463D
:104B38005DF8047B704700BF80B483B000AF786035
:104B48007B681B8A9BB2DBB218460C37BD465DF802
:104B5800047B704780B483B000AF78600B46FB706D
:104B6800FB78002B08D07B689B889BB243F40063DA
:104B78009AB27B689A8007E07B689B889BB223F493
:104B880000639AB27B689A800C37BD465DF8047B57
:104B9800704700BF80B483B000AF78600B46FB70ED
:104BA800FB78002B08D07B689B889BB243F480532A
:104BB8009AB27B689A8007E07B689B889BB223F453
:104BC80080539AB27B689A800C37BD465DF8047BA7
:104BD800704700BF80B483B000AF78600B467B801D
:104BE80013467B707B78002B08D07B689B889AB231
:104BF8007B8813439AB27B689A8009E07B689B881C
:104C08009AB27B88DB439BB213409AB27B689A8046
:104C18000C37BD465DF8047B704700BF80B487B091
:104C280000AF7860396000233B610023FB600023FC
:104C3800BB600023FB757B689B8A9BB2FB607B682B
:104C48001B8B9BB2BB60BB681B04BB60FA68BB686C
:104C5800134323F07F433B613A693B681A403B6842
:104C68009A4202D10123FB7501E00023FB75FB7D0D
:104C780018461C37BD465DF8047B704780B487B082
:104C880000AF786000237B6100233B610023FB6059
:104C98007B689B8A9BB23B617B681B8B9BB2FB60EA
:104CA800FB681B04FB603A69FB68134323F07F43EE
:104CB8007B617B6918461C37BD465DF8047B7047ED
:104CC80080B489B000AF78600023BB6100237B61AA
:104CD8000023FB6102233B610023FB600223BB60CE
:104CE8004FF46053C4F202039B6803F00C03BB61EA
:104CF800BB69042B0AD0082B0FD0002B5AD17A6835
:104D08004FF41053C0F2F40313605AE07A684FF47A
:104D18009053C0F27A03136053E04FF46053C4F227
:104D280002035B6803F480039B0DFB604FF4605340
:104D3800C4F202035B6803F03F03BB60FB68002B0F
:104D480013D04FF49053C0F27A03BA68B3FBF2F26F
:104D58004FF46053C4F20203596847F6C0730B401E
:104D68009B0903FB02F3FB6112E04FF41053C0F2FE
:104D7800F403BA68B3FBF2F24FF46053C4F20203CF
:104D8800596847F6C0730B409B0903FB02F3FB61AC
:104D98004FF46053C4F202035B6803F440331B0C06
:104DA80001335B003B61FA693B69B2FBF3F27B6854
:104DB8001A6006E07A684FF41053C0F2F4031360E7
:104DC80000BF4FF46053C4F202039B6803F0F00382
:104DD800BB61BB691B09BB6140F20003C2F200035F
:104DE800BA6913441B78DBB27B617B681A687B69FC
:104DF800DA407B685A604FF46053C4F202039B6840
:104E080003F4E053BB61BB699B0ABB6140F200033A
:104E1800C2F20003BA6913441B78DBB27B617B687A
:104E28005A687B69DA407B689A604FF46053C4F231
:104E380002039B6803F46043BB61BB695B0BBB6106
:104E480040F20003C2F20003BA6913441B78DBB2D4
:104E58007B617B685A687B69DA407B68DA60243753
:104E6800BD465DF8047B704780B483B000AF7860BE
:104E78000B46FB70FB78002B0CD04FF46053C4F248
:104E880002034FF46052C4F20202116B7A680A43BB
:104E98001A630CE04FF46053C4F202034FF46052FB
:104EA800C4F20202116B7A68D2430A401A630C37C3
:104EB800BD465DF8047B704780B483B000AF78606E
:104EC8000B46FB70FB78002B0CD04FF46053C4F2F8
:104ED80002034FF46052C4F20202116C7A680A436A
:104EE8001A640CE04FF46053C4F202034FF46052AA
:104EF800C4F20202116C7A68D2430A401A640C3771
:104F0800BD465DF8047B704780B483B000AF78601D
:104F18000B46FB70FB78002B0CD04FF46053C4F2A7
:104F280002034FF46052C4F20202516C7A680A43D9
:104F38005A640CE04FF46053C4F202034FF4605219
:104F4800C4F20202516C7A68D2430A405A640C37A0
:104F5800BD465DF8047B704780B483B000AF7860CD
:104F68000B46FB70FB78002B0CD04FF46053C4F257
:104F780002034FF46052C4F20202116A7A680A43CB
:104F88001A620CE04FF46053C4F202034FF460520B
:104F9800C4F20202116A7A68D2430A401A620C37D4
:104FA800BD465DF8047B704780B483B000AF78607D
:104FB8004FF46D42CEF200027B6843F0BF6343F4C6
:104FC8000033D3600C37BD465DF8047B704700BFE3
:104FD80080B485B000AF78600023FB730023BB73F7
:104FE8000F237B737B68DB78002B41D04FF46D4334
:104FF800CEF20003DB68DB4303F4E0631B0AFB73B8
:10500800FB7BC3F10403BB737A7BFB7B42FA03F39C
:105018007B737B685B781A46BB7B02FA03F3FB73EE
:105028007B689A787B7B1340DAB2FB7B1343FB7374
:10503800FB7B1B01FB734FF46143CEF200037A68DC
:1050480012781344FA7B83F800234FF46143CEF2BD
:1050580000037A6812785209D2B210467A68127838
:1050680002F01F02012101FA02F243F8202012E0A7
:105078004FF46143CEF200037A6812785209D2B233
:1050880010467A68127802F01F020121914000F15F
:10509800200243F822101437BD465DF8047B7047A0
:1050A80080B58AB000AF7860396000237B62002346
:1050B8003B620023FB610023BB617B681B8A9BB2B8
:1050C8007B627B6A23F440537B623B68DB881A4629
:1050D8007B6A13437B627B6A9AB27B681A827B681D
:1050E8009B899BB27B627B6A23F4B05323F00C0349
:1050F8007B623B689A883B681B8913439AB23B687A
:105108005B8913439BB21A467B6A13437B627B6AB3
:105118009AB27B689A817B689B8A9BB27B627B6A26
:1051280023F440737B623B689B891A467B6A13436E
:105138007B627B6A9AB27B689A8207F108031846F9
:10514800FFF7BEFD7A684FF48053C4F201039A4218
:1051580006D07A684FF4A053C4F201039A4202D1F0
:105168007B693B6201E03B693B627B689B899BB240
:105178009BB21BB2002B0CDA3A6A13469B0013440D
:105188009A001A443B681B685B00B2FBF3F3FB61AF
:105198000BE03A6A13469B0013449A001A443B6892
:1051A8001B689B00B2FBF3F3FB61FA6948F21F53DB
:1051B800C5F2EB13A3FB02235B091B017B627B6A2D
:1051C8001B09642202FB03F3FA69D31ABB617B68EB
:1051D8009B899BB29BB21BB2002B10DABB69DB0028
:1051E80003F1320248F21F53C5F2EB13A3FB02236B
:1051F8005B0903F007037A6A13437B620FE0BB691C
:105208001B0103F1320248F21F53C5F2EB13A3FB53
:1052180002235B0903F00F037A6A13437B627B6AFC
:105228009AB27B681A812837BD4680BD80B483B0A6
:1052380000AF78600B46FB70FB78002B08D07B68CA
:105248009B899BB243F400539AB27B689A8107E02A
:105258007B689B899BB223F400539AB27B689A813E
:105268000C37BD465DF8047B704700BF80B483B03F
:1052780000AF78600B467B807B88C3F308039AB243
:105288007B689A800C37BD465DF8047B704700BF89
:1052980080B485B000AF786039600023FB817B68FB
:1052A8001B88FB817A680023C4F201039A421FD04D
:1052B8007A684FF48063C4F201039A4218D07B687D
:1052C800B3F1804F14D07A684FF48063C4F20003BE
:1052D8009A420DD07A684FF40063C4F200039A42F0
:1052E80006D07A684FF44063C4F200039A4208D1AA
:1052F800FB8923F07003FB813B685A88FB891343C1
:10530800FB817A684FF48053C4F200039A420FD0AD
:105318007A684FF4A053C4F200039A4208D0FB897C
:1053280023F44073FB813B681A89FB891343FB8193
:105338007B68FA891A803B685A687B68DA623B683E
:105348001A887B681A857A680023C4F201039A4296
:1053580006D07A684FF48063C4F201039A4204D1FC
:105368003B689B7A9AB27B681A867B6801229A828C
:105378001437BD465DF8047B704700BF80B483B026
:1053880000AF78600B46FB70FB78002B08D07B6879
:105398001B889BB243F001039AB27B681A8007E02E
:1053A8007B681B889BB223F001039AB27B681A8042
:1053B8000C37BD465DF8047B704700BF80B485B0EC
:1053C80000AF7860396000237B810023FB810023D4
:1053D800BB817B681B8C9BB223F010039AB27B685D
:1053E8001A847B681B8CFB817B689B88BB817B68EC
:1053F8001B8B7B817B8923F4E0437B817B8923F4AE
:1054080040737B813B681B881B029AB27B891343DC
:105418007B81FB8923F02003FB813B689B891B016F
:105428009AB2FB891343FB813B685B881B019AB2E4
:10543800FB891343FB817A680023C4F201039A4273
:1054480006D07A684FF48063C4F201039A422BD1E4
:10545800FB8923F08003FB813B68DB891B019AB23F
:10546800FB891343FB81FB8923F04003FB813B68E5
:105478009B881B019AB2FB891343FB81BB8923F4E8
:105488008063BB81BB8923F40063BB813B681B8AB3
:105498009B009AB2BB891343BB813B685B8A9B0024
:1054A8009AB2BB891343BB817B68BA899A807B68AF
:1054B8007A891A833B689A687B689A637B68FA8959
:1054C8001A841437BD465DF8047B704780B485B0F4
:1054D80000AF7860396000237B810023FB810023C3
:1054E800BB817B681B8C9BB223F480739AB27B6868
:1054F8001A847B681B8CFB817B689B88BB817B68DB
:105508009B8B7B817B8923F070037B817B8923F0D4
:1055180003037B813B681A887B8913437B81FB8962
:1055280023F40073FB813B689B891B029AB2FB89B9
:105538001343FB813B685B881B029AB2FB891343C8
:10554800FB817A680023C4F201039A4206D07A6884
:105558004FF48063C4F201039A422BD1FB8923F4F0
:105568000063FB813B68DB891B029AB2FB8913430A
:10557800FB81FB8923F48063FB813B689B881B02CA
:105588009AB2FB891343FB81BB8923F48053BB8107
:10559800BB8923F40053BB813B681B8A1B019AB269
:1055A800BB891343BB813B685B8A1B019AB2BB89E9
:1055B8001343BB817B68BA899A807B687A899A830E
:1055C8003B689A687B68DA637B68FA891A841437BF
:1055D800BD465DF8047B704780B485B000AF786045
:1055E80039600023BB8100237B810023FB817B681A
:1055F8001B8C9BB223F480539AB27B681A847B6815
:105608001B8C7B817B689B88FB817B689B8BBB8128
:10561800BB8923F4E043BB81BB8923F44073BB817E
:105628003B681B881B029AB2BB891343BB817B89E9
:1056380023F400537B813B689B891B039AB27B89C7
:1056480013437B813B685B881B039AB27B891343B6
:105658007B817A680023C4F201039A4206D07A68F3
:105668004FF48063C4F201039A420AD1FB8923F400
:105678008043FB813B681B8A9B019AB2FB891343D9
:10568800FB817B68FA899A807B68BA899A833B6830
:105698009A687B681A647B687A891A841437BD46CD
:1056A8005DF8047B704700BF80B483B000AF7860BA
:1056B80039607B683A689A630C37BD465DF8047BAD
:1056C800704700BF80B483B000AF786039607B68F2
:1056D8003A68DA630C37BD465DF8047B704700BF53
:1056E80080B483B000AF786039607B683A681A6428
:1056F8000C37BD465DF8047B704700BF80B485B0A9
:1057080000AF78600B467B800023FB817B681B8B96
:10571800FB81FB8923F40063FB817B881B029AB21F
:10572800FB891343FB817B68FA891A831437BD46CA
:105738005DF8047B704700BF80B485B000AF786027
:105748000B467B800023FB817B689B8BFB81FB895D
:1057580023F00803FB81FA897B881343FB817B686C
:10576800FA899A831437BD465DF8047B704700BFF9
:1057780080B485B000AF78600B467B800023FB8146
:105788007B689B8BFB81FB8923F40063FB817B880F
:105798001B029AB2FB891343FB817B68FA899A83BF
:1057A8001437BD465DF8047B704700BF80B483B0F2
:1057B80000AF78600B467B8013467B707B78002BAC
:1057C80008D07B689B899AB27B8813439AB27B681E
:1057D8009A8109E07B689B899AB27B88DB439BB2FC
:1057E80013409AB27B689A810C37BD465DF8047BFA
:1057F800704700BF80B485B000AF78600B467B80EF
:105808000023FB730023BB8100237B817B681B8AF9
:105818009AB27B881340BB817B689B899AB27B884C
:1058280013407B81BB89002B05D07B89002B02D0DC
:105838000123FB7301E00023FB73FB7B184614373D
:10584800BD465DF8047B704780B483B000AF7860D4
:105858000B467B807B88DB439AB27B681A820C37C5
:10586800BD465DF8047B7047DFF834D0002103E0C3
:105878000C4B5B58435004310B480C4B42189A426E
:10588800F6D30B4A02E0002342F8043B094B9A4244
:10589800F9D3FDF745FF00F0F9F8FDF7E7FE70478B
:1058A80000000220B4740008000000205408002002
:1058B80054080020CC0A0020FEE7000010B52DEDAA
:1058C800028B2A4C8AB0F0EE408A00F053F894F923
:1058D80000300133B0EE408A09D0B0EE680A00F01B
:1058E8009DF820B1F5EEC08AF1EE10FA05D4B0EEBD
:1058F800480A0AB0BDEC028B10BD01231C4A009374
:1059080018EE900A002301920893FAF7EFFD247825
:10591800CDE90401CDE902019CB900220023CDE9BB
:105928000623684600F078F8A8B1089BC3B9DDE9FA
:105938000601FBF741F800EE100A0AB0BDEC028B35
:1059480010BD0020002102460B46FAF74DFF022C3D
:10595800CDE90601E5D101F09BFD21230360E4E7D1
:1059680001F096FD089B0360E1E700BF10000020EE
:105978007074000810EE103A23F00042B2F1FF4FA5
:1059880070B430D26AB3002B3DDBB2F5000F4FEA9A
:10599800E3512CD3A1F17F02C3F31603D10743F4DB
:1059A800000348BF5B00002456105B002546192100
:1059B8004FF08072A818984202DC1B1A851814440C
:1059C80001394FEA43034FEA5202F3D113B104F00D
:1059D80001031C44641004F17C5404EBC65300EE2C
:1059E800103A70BC7047A0EE000A70BC704713F400
:1059F80000020DD15B00180202F10102FAD5C2F1D2
:105A080001021144C6E730EE400A80EE000AE8E7DA
:105A180001221144BEE700BF0020704710EE103A83
:105A280033F0004001D102207047A0F50003B3F124
:105A3800FE4F01D204207047054B421E9A4201D8FE
:105A480003207047A0F1FF40B0FA80F0400970478A
:105A5800FEFF7F00014600200246034600F0EEBA32
:105A680038B5084B084DED1AAC1018BFED1805D025
:105A7800013C55F8043D9847002CF9D1BDE8384061
:105A880001F000BDB0740008B474000870B50F4E82
:105A98000F4D761BB61018BF002405D0013455F8F9
:105AA800043B9847A642F9D10A4E0B4D761B01F0EC
:105AB800E3FCB61018BF002406D0013455F8043BA7
:105AC8009847A642F9D170BD70BD00BFA874000800
