:020000040800F2
:1000000000000220354800088527000891270008D5
:1000100099270008A1270008A92700080000000070
:10002000000000000000000000000000AD300008EB
:10003000B127000800000000CD3000082D31000875
:10004000854800088548000885480008854800085C
:10005000854800088548000885480008854800084C
:10006000854800088548000885480008150C0008E8
:10007000854800088548000885480008854800082C
:10008000854800088548000885480008854800081C
:10009000854800088548000885480008854800080C
:1000A000854800086D230008854800088548000839
:1000B000352300088548000885480008B50B00086E
:1000C000F50B0008854800088548000885480008A9
:1000D00085480008854800088548000885480008CC
:1000E00085480008854800088548000885480008BC
:1000F000BD23000885480008854800088548000899
:10010000854800088548000885480008854800089B
:1001100085480008854800088548000895230008A0
:10012000854800088548000885480008854800087B
:10013000854800088548000885480008854800086B
:10014000854800088548000885480008854800085B
:10015000854800088548000885480008854800084B
:10016000854800088548000885480008854800083B
:100170008548000885480008854800080000000000
:080180008548000885480008CD
:10018800044B05481B1A062B02D9044B03B1184728
:10019800704700BF570800205408002000000000E6
:1001A80005490648091A891001EBD171491002D096
:1001B800034B03B118477047540800205408002027
:1001C8000000000010B5064C237843B9FFF7D8FFAC
:1001D800044B13B10448AFF300800123237010BD12
:1001E80054080020000000005064000808B5084BBF
:1001F8001BB108480849AFF300800848036813B9E1
:10020800BDE80840CCE7064B002BF9D09847F7E744
:10021800000000005064000858080020540800201E
:100228000000000081F0004102E000BF83F00043BD
:1002380030B54FEA41044FEA430594EA050F08BF79
:1002480090EA020F1FBF54EA000C55EA020C7FEA3D
:10025800645C7FEA655C00F0E2804FEA5454D4EBBA
:100268005555B8BF6D420CDD2C4480EA020281EA84
:10027800030382EA000083EA010180EA020281EABC
:100288000303362D88BF30BD11F0004F4FEA01310E
:100298004FF4801C4CEA113102D0404261EB41011D
:1002A80013F0004F4FEA03334CEA133302D05242A3
:1002B80063EB430394EA050F00F0A780A4F101045F
:1002C800D5F1200E0DDB02FA0EFC22FA05F2801899
:1002D80041F1000103FA0EF2801843FA05F359417F
:1002E8000EE0A5F120050EF1200E012A03FA0EFCFE
:1002F80028BF4CF0020C43FA05F3C01851EBE37128
:1003080001F0004507D54FF0000EDCF1000C7EEB44
:1003180000006EEB0101B1F5801F1BD3B1F5001F82
:100328000CD349085FEA30004FEA3C0C04F10104A1
:100338004FEA445212F5800F80F09A80BCF1004FCA
:1003480008BF5FEA500C50F1000041EB045141EA4C
:10035800050130BD5FEA4C0C404141EB010111F44D
:10036800801FA4F10104E9D191F0000F04BF0146F8
:100378000020B1FA81F308BF2033A3F10B03B3F1D6
:1003880020020CDA0C3208DD02F1140CC2F10C0266
:1003980001FA0CF021FA02F10CE002F11402D8BFC4
:1003A800C2F1200C01FA02F120FA0CFCDCBF41EA90
:1003B8000C019040E41AA2BF01EB0451294330BD5F
:1003C8006FEA04041F3C1CDA0C340EDC04F114043C
:1003D800C4F1200220FA04F001FA02F340EA030013
:1003E80021FA04F345EA030130BDC4F10C04C4F159
:1003F800200220FA02F001FA04F340EA0300294639
:1004080030BD21FA04F0294630BD94F0000F83F482
:10041800801306BF81F480110134013D4EE77FEA65
:10042800645C18BF7FEA655C29D094EA050F08BFB1
:1004380090EA020F05D054EA000C04BF1946104692
:1004480030BD91EA030F1EBF0021002030BD5FEAD6
:10045800545C05D14000494128BF41F0004130BDFE
:1004680014F580043CBF01F5801130BD01F0004552
:1004780045F0FE4141F470014FF0000030BD7FEAC5
:10048800645C1ABF194610467FEA655C1CBF0B46C0
:10049800024650EA013406BF52EA033591EA030FD7
:1004A80041F4002130BD00BF90F0000F04BF0021CF
:1004B800704730B54FF4806404F132044FF0000502
:1004C8004FF0000150E700BF90F0000F04BF00217B
:1004D800704730B54FF4806404F1320410F00045E1
:1004E80048BF40424FF000013EE700BF42004FEADC
:1004F800E2014FEA31014FEA02701FBF12F07F4359
:1005080093F07F4F81F06051704792F0000F14BF55
:1005180093F07F4F704730B54FF4607401F0004599
:1005280021F0004120E700BF50EA010208BF7047F0
:1005380030B54FF000050AE050EA010208BF7047E5
:1005480030B511F0004502D5404261EB41014FF44E
:10055800806404F132045FEA915C3FF4DCAE4FF052
:1005680003025FEADC0C18BF03325FEADC0C18BF39
:10057800033202EBDC02C2F1200300FA03FC20FA8A
:1005880002F001FA03FE40EA0E0021FA02F11444D7
:10059800C1E600BF70B54FF0FF0C4CF4E06C1CEAEC
:1005A80011541DBF1CEA135594EA0C0F95EA0C0F61
:1005B80000F0DEF82C4481EA030621EA4C5123EAD4
:1005C8004C5350EA013518BF52EA033541F4801103
:1005D80043F4801338D0A0FB02CE4FF00005E1FBB6
:1005E80002E506F00042E0FB03E54FF00006E1FB00
:1005F80003569CF0000F18BF4EF0010EA4F1FF0443
:10060800B6F5007F64F5407404D25FEA4E0E6D4182
:1006180046EB060642EAC62141EA55514FEAC52093
:1006280040EA5E504FEACE2EB4F1FD0C88BFBCF50F
:10063800E06F1ED8BEF1004F08BF5FEA500E50F1C0
:10064800000041EB045170BD06F0004646EA010186
:1006580040EA020081EA0301B4EB5C04C2BFD4EBB8
:100668000C0541EA045170BD41F480114FF0000EB1
:10067800013C00F3AB8014F1360FDEBF002001F01F
:10068800004170BDC4F10004203C35DA0C341BDC99
:1006980004F11404C4F1200500FA05F320FA04F06B
:1006A80001FA05F240EA020001F0004221F000419F
:1006B80010EBD37021FA04F642EB06015EEA430E12
:1006C80008BF20EAD37070BDC4F10C04C4F1200542
:1006D80000FA04F320FA05F001FA04F240EA0200F5
:1006E80001F0004110EBD37041F100015EEA430EC6
:1006F80008BF20EAD37070BDC4F1200500FA05F2E6
:100708004EEA020E20FA04F301FA05F243EA020364
:1007180021FA04F001F0004121FA04F220EA020073
:1007280000EBD3705EEA430E08BF20EAD37070BDB9
:1007380094F0000F0FD101F00046400041EB010199
:1007480011F4801F08BF013CF7D041EA060195F07B
:10075800000F18BF704703F00046520043EB030335
:1007680013F4801F08BF013DF7D043EA0603704722
:1007780094EA0C0F0CEA135518BF95EA0C0F0CD02D
:1007880050EA410618BF52EA4306D1D181EA030173
:1007980001F000414FF0000070BD50EA410606BF6D
:1007A8001046194652EA430619D094EA0C0F02D1B2
:1007B80050EA013613D195EA0C0F05D152EA0336F7
:1007C8001CBF104619460AD181EA030101F0004115
:1007D80041F0FE4141F470014FF0000070BD41F05E
:1007E800FE4141F4780170BD70B54FF0FF0C4CF438
:1007F800E06C1CEA11541DBF1CEA135594EA0C0F57
:1008080095EA0C0F00F0A7F8A4EB050481EA030EA3
:1008180052EA03354FEA013100F088804FEA03338A
:100828004FF0805545EA131343EA12634FEA022258
:1008380045EA111545EA10654FEA00260EF0004119
:100848009D4208BF964244F1FD0404F5407402D26B
:100858005B084FEA3202B61A65EB03055B084FEAFC
:1008680032024FF480104FF4002CB6EB020E75EBF9
:10087800030E22BFB61A754640EA0C005B084FEA21
:100888003202B6EB020E75EB030E22BFB61A75469E
:1008980040EA5C005B084FEA3202B6EB020E75EBE9
:1008A800030E22BFB61A754640EA9C005B084FEA61
:1008B8003202B6EB020E75EB030E22BFB61A75466E
:1008C80040EADC0055EA060E18D04FEA051545EA5D
:1008D80016754FEA06164FEAC30343EA52734FEA06
:1008E800C2025FEA1C1CC0D111F4801F0BD141EA7F
:1008F80000014FF000004FF0004CB6E711F4801FE4
:1009080004BF01430020B4F1FD0C88BFBCF5E06FC3
:100918003FF6AFAEB5EB030C04BFB6EB020C5FEAD3
:10092800500C50F1000041EB045170BD0EF0004E28
:100938004EEA113114EB5C04C2BFD4EB0C0541EA5A
:10094800045170BD41F480114FF0000E013C90E657
:1009580045EA060E8DE60CEA135594EA0C0F08BF1B
:1009680095EA0C0F3FF43BAF94EA0C0F0AD150EA1A
:1009780001347FF434AF95EA0C0F7FF425AF1046AD
:1009880019462CE795EA0C0F06D152EA03353FF4D5
:10099800FDAE1046194622E750EA410618BF52EA52
:1009A80043067FF4C5AE50EA41047FF40DAF52EA26
:1009B80043057FF4EBAE12E74FEA4102B2F1E043A0
:1009C80024BFB3F5001CDCF1FE5C0DD901F0004C2E
:1009D8004FEAC0024CEA5070B2F1004F40EB83007E
:1009E80008BF20F00100704711F0804F21D113F1AA
:1009F8003872BCBF01F00040704741F480114FEAE3
:100A08005252C2F11802C2F1200C10FA0CF320FA6B
:100A180002F018BF40F001004FEAC1234FEAD32388
:100A280003FA0CFC40EA0C0023FA02F34FEA4303F2
:100A3800CCE77FEA625307D150EA01331EBF4FF07B
:100A4800FE4040F44000704701F0004040F0FE4096
:100A580040F40000704700BF844641EA000313F0E9
:100A680003036DD1403A41D351F8043B40F8043BAD
:100A780051F8043B40F8043B51F8043B40F8043B70
:100A880051F8043B40F8043B51F8043B40F8043B60
:100A980051F8043B40F8043B51F8043B40F8043B50
:100AA80051F8043B40F8043B51F8043B40F8043B40
:100AB80051F8043B40F8043B51F8043B40F8043B30
:100AC80051F8043B40F8043B51F8043B40F8043B20
:100AD80051F8043B40F8043B51F8043B40F8043B10
:100AE80051F8043B40F8043B403ABDD2303211D3B0
:100AF80051F8043B40F8043B51F8043B40F8043BF0
:100B080051F8043B40F8043B51F8043B40F8043BDF
:100B1800103AEDD20C3205D351F8043B40F8043BAF
:100B2800043AF9D2043208D0D2071CBF11F8013BAD
:100B380000F8013B01D30B8803806046704700BF73
:100B4800082A13D38B078DD010F003038AD0C3F182
:100B58000403D21ADB071CBF11F8013B00F8013B64
:100B680080D331F8023B20F8023B7BE7043AD9D323
:100B7800013A11F8013B00F8013BF9D20B780370F8
:100B88004B7843708B7883706046704780B483B02D
:100B980000AF786000E000BF7B685A1E7A60002BC7
:100BA800F9D10C37BD465DF8047B704780B582B03B
:100BB80000AF40F67413C2F200031B687B607B68C9
:100BC800002B02D07B6898470CE04FF49040C4F2A9
:100BD8000000212101F04AFF44F24020C0F20F003A
:100BE800FFF7D4FF0837BD4680BD00BF80B500AF12
:100BF8004FF49040C4F20000452101F037FF44F261
:100C08004020C0F20F00FFF7C1FF80BD80B582B061
:100C180000AF40F69413C2F200031B687B607B6848
:100C2800002B02D07B6898470CE04FF49040C4F248
:100C380000007C2101F01AFF44F24020C0F20F00AE
:100C4800FFF7A4FF0837BD4680BD00BF80B596B04A
:100C580000AF4FF40010012103F010F90220012128
:100C680003F0E4F84FF40010012103F057F94FF4B2
:100C78000010002103F052F94FF40010012103F095
:100C8800D5F84FF4C0733B65022387F8543002232C
:100C980087F85530012387F85630012387F85730F5
:100CA80007F150034FF48060C4F20200194602F0C5
:100CB8005DFA4FF48060C4F202000821042202F0B9
:100CC800E3FA4FF48060C4F202000721042202F024
:100CD800DBFA46F21000C4F202003D21C1F28001A5
:100CE80002F0A4FC46F21000C4F20200002102F057
:100CF80081FC46F21000C4F2020002F00DFB4FF036
:100D080000733B6045F21043C4F200037B6000238C
:100D18007B614FF48063BB610023FB6100233B626E
:100D280000237B624FF48033BB620423FB620323FE
:100D38003B6300237B630023BB630023FB6040F617
:100D48005C13C2F20003BB600E233B6146F2100045
:100D5800C4F2020002F0E0FA3B4646F21000C4F288
:100D68000200194602F0EEFB4FF4D453C0F206031A
:100D78003B640023A7F844304BF6FF73A7F84630CE
:100D88000023A7F848300023A7F84A304FF48043DF
:100D9800A7F84C3007F140034FF4A840C4F2000014
:100DA800194602F037FD4FF4A840C4F200004FF492
:100DB800E061002202F0F0FE4FF4407003F0D6F834
:100DC8001F2387F83C300A2387F83D30002387F833
:100DD8003E30012387F83F3007F13C03184603F003
:100DE800D9F8202387F83C300A2387F83D300023C0
:100DF80087F83E30012387F83F3007F13C03184657
:100E080003F0C8F846F21000C4F2020010210022D4
:100E180002F03CFC0B2387F83C300A2387F83D306E
:100E2800002387F83E30012387F83F3007F13C0361
:100E3800184603F0AFF846F21000C4F20200102181
:100E4800012202F023FC4FF4A840C4F20000012163
:100E580002F0A6FD5837BD4680BD00BF80B586B0FC
:100E680000AF0346B9607A60FB734FF4A840C4F240
:100E78000000012102F0B4FD00BF4FF4A840C4F205
:100E880000000121C0F2030102F0AAFE0346002B74
:100E9800F3D04FF4A840C4F20000D021002202F0A1
:100EA800DFFD00BF4FF4A840C4F200008221C0F269
:100EB800070102F095FE0346002BF3D0FB7B4FF4AD
:100EC800A840C4F20000194602F008FE00BF4FF423
:100ED800A840C4F200008421C0F2070102F080FE9D
:100EE8000346002BF3D04FF4A840C4F200000121C0
:100EF80002F076FD00BF4FF4A840C4F200000121C3
:100F0800C0F2030102F06CFE0346002BF3D04FF44D
:100F1800A840C4F20000D021012202F0A1FD00BFC8
:100F28004FF4A840C4F200000221C0F2030102F00D
:100F380057FE0346002BF3D07B68012B06D94FF4EC
:100F4800A840C4F20000012102F0A8FD26E07B6859
:100F5800012B06D14FF4A840C4F20000002102F092
:100F68009DFD00BF4FF4A840C4F200004021C0F22C
:100F7800030102F035FE0346002BF3D04FF4A840DE
:100F8800C4F2000002F0BAFD0346FB75BB685A1CA8
:100F9800BA60FA7D1A707B68013B7B607B68002B26
:100FA800D5D14FF4A840C4F20000012102F038FD69
:100FB8001837BD4680BD00BF80B582B000AF4FF482
:100FC800A840C4F2000002F03BFE786040F6981397
:100FD800C2F200031B683B607B6803F00203002B2E
:100FE80019D03B68012B0CD140F68013C2F20003E4
:100FF8001B784FF4A840C4F20000194602F06EFDB9
:10100800B3E04FF4A840C4F200004FF4C0610022DE
:1010180002F0C2FDA9E03B68012B51D17B6803F0C7
:101028000403002B4CD040F69813C2F200030222AE
:101038001A604FF4A840C4F20000012102F0D0FC6D
:1010480000BF4FF4A840C4F2000002F0F9FD0346C7
:1010580003F00103002BF4D04FF4A840C4F20000C1
:10106800D021012202F0FCFC40F63413C2F2000346
:101078001B68012B0ED94FF4A840C4F200000121CF
:1010880002F00CFD4FF4A840C4F20000012102F068
:1010980063FD06E04FF4A840C4F20000002102F00E
:1010A800FDFC4FF4A840C4F20000012102F034FD19
:1010B80046F21000C4F20200012102F09BFA54E04B
:1010C8007B6823F44033002B00D14EE04FF490406E
:1010D800C4F2000045F20C31C0F6000101F0DCFC5E
:1010E8004FF49040C4F2000045F24431C0F60001CC
:1010F80001F0D2FC3B68DBB24FF49040C4F2000030
:10110800194601F0F3FC4FF49040C4F2000045F298
:101118004C31C0F6000101F0BFFC7B681B0CDBB250
:101128004FF49040C4F20000194601F0DFFC7B68E0
:101138001B0ADBB24FF49040C4F20000194601F0DC
:10114800D5FC7B68DBB24FF49040C4F2000019462E
:1011580001F0CCFC4FF49040C4F2000045F2583145
:10116800C0F6000101F098FCFEE70837BD4680BDD7
:1011780080B500AF46F21000C4F2020048F2200128
:10118800C1F2000102F0BCFA0346002B40D046F23F
:101198001000C4F2020048F22001C1F2000102F07E
:1011A80009FB4FF4A840C4F200004FF4E0610022AC
:1011B80002F0F2FC4FF4A840C4F20000002102F053
:1011C800ABFC46F21000C4F20200002102F012FA51
:1011D8004FF4A840C4F20000012102F021FC40F6BF
:1011E800C013C2F200031A6840F63413C2F20003B7
:1011F8001B68104640F65C11C2F200011A46FFF760
:101208002BFC40F69813C2F2000303221A60B6E0E2
:101218004FF49040C4F2000045F25C31C0F6000182
:1012280001F03AFC4FF49040C4F2000045F244311A
:10123800C0F6000101F030FC40F69813C2F200033A
:101248001B68DBB24FF49040C4F20000194601F06D
:101258004DFC4FF49040C4F2000045F28431C0F6D2
:10126800000101F019FC46F21000C4F2020048F235
:101278002001C1F2000102F043FA03464FF4904006
:10128800C4F20000194601F031FC4FF49040C4F25A
:10129800000045F28C31C0F6000101F0FDFB46F27A
:1012A8001000C4F2020044F21001C1F2000102F081
:1012B80027FA03464FF49040C4F20000194601F0A3
:1012C80015FC4FF49040C4F2000045F29431C0F68A
:1012D800000101F0E1FB46F21000C4F2020042F204
:1012E8000801C1F2000102F00BFA03464FF49040E6
:1012F800C4F20000194601F0F9FB4FF49040C4F223
:10130800000045F29C31C0F6000101F0C5FB46F231
:101318001000C4F2020041F20401C1F2000102F01F
:10132800EFF903464FF49040C4F20000194601F06B
:10133800DDFB4FF49040C4F2000045F2A431C0F642
:10134800000101F0A9FB46F21000C4F202000121DD
:10135800C9F2000102F0D4F903464FF49040C4F2F8
:101368000000194601F0C2FB4FF49040C4F200009F
:1013780045F25831C0F6000101F08EFBFEE780BD52
:1013880080B584B000AF0346B9607A60FB7340F65D
:101398009413C2F2000341F27912C0F600021A60F7
:1013A80040F67413C2F2000340F6C172C0F60002A0
:1013B8001A6040F68013C2F20003FA7B1A7040F6F6
:1013C800C013C2F20003BA681A6040F63413C2F2BE
:1013D80000037A681A6040F69813C2F200030122EB
:1013E8001A604FF4A840C4F20000012102F0F8FA94
:1013F80000BF4FF4A840C4F2000002F021FC0346ED
:1014080003F00103002BF4D04FF4A840C4F200000D
:10141800D021002202F024FB4FF4A840C4F20000BF
:101428004FF44071012202F0B7FB1037BD4680BD72
:1014380080B584B000AF0346FB71FA7907F10F035A
:10144800104619460122FFF709FDFB7B18461037A5
:10145800BD4680BD80B582B000AF03460A46FB7129
:101468001346BB714FF4A840C4F20000012102F0FA
:10147800B7FA00BF4FF4A840C4F200000121C0F23F
:10148800030102F0ADFB0346002BF3D04FF4A84054
:10149800C4F20000D021002202F0E2FA00BF4FF4AB
:1014A800A840C4F200008221C0F2070102F098FBB4
:1014B8000346002BF3D0FB794FF4A840C4F2000098
:1014C800194602F00BFB00BF4FF4A840C4F200001D
:1014D8008421C0F2070102F083FB0346002BF3D0FE
:1014E800BB794FF4A840C4F20000194602F0F6FA9E
:1014F80000BF4FF4A840C4F200008421C0F20701E5
:1015080002F06EFB0346002BF3D04FF4A840C4F260
:101518000000012102F084FA0837BD4680BD00BFF3
:1015280080B582B000AF6B200221FFF793FF49F22C
:10153800E030C0F20400FFF729FB6B20FFF778FFCB
:101548000346FB71FB79022B00D046E06B20822119
:10155800FFF780FF49F2E030C0F20400FFF716FB06
:101568006B20FFF765FF0346FB71FB79402B00D02A
:1015780033E06B200221FFF76DFF49F2E030C0F243
:101588000400FFF703FB6B20FFF752FF0346FB71D4
:10159800FB79022B00D020E01A200021FFF75AFF28
:1015A80019200721FFF756FF1B201821FFF752FFCC
:1015B8001C201821FFF74EFF23200021FFF74AFFC8
:1015C80037202021FFF746FF38201121FFF742FF7F
:1015D8006A200021FFF73EFF00E0A4E70837BD4678
:1015E80080BD00BF80B485B000AF03460A46FB71DA
:1015F8001346BB71FB791B029AB2BB799BB21343AA
:101608009BB2FB81FB891BB218461437BD465DF8B7
:10161800047B704780B582B000AF78603B2040F60D
:10162800AC11C2F200010E22FFF7AAFE00BF40F67D
:101638009813C2F200031B68032BF8D17B68062BB2
:1016480000F2828001A252F823F000BF7116000850
:1016580091160008B1160008D1160008F116000806
:10166800111700083117000840F6AC13C2F2000346
:101678001A7840F6AC13C2F20003DB79104619461B
:10168800FFF7B0FF034660E040F6AC13C2F2000378
:101698009A7840F6AC13C2F20003DB78104619467C
:1016A800FFF7A0FF034650E040F6AC13C2F2000378
:1016B8001A7940F6AC13C2F200035B79104619465A
:1016C800FFF790FF034640E040F6AC13C2F2000378
:1016D8001A7A40F6AC13C2F200035B7A1046194638
:1016E800FFF780FF034630E040F6AC13C2F2000378
:1016F8009A7A40F6AC13C2F20003DB7A1046194618
:10170800FFF770FF034620E040F6AC13C2F2000377
:101718001A7B40F6AC13C2F200035B7B10461946F5
:10172800FFF760FF034610E040F6AC13C2F2000377
:101738001A7A40F6AC13C2F200035B7A10461946D7
:10174800FFF750FF034600E000231BB21846083796
:10175800BD4680BD80B582B000AF87ED010A386014
:10176800D7ED017AF5EEC07AF1EE10FA14DBD7ED79
:10177800017AF1EEE77AF4EE677AF1EE10FA05D025
:1017880097ED010A03F07CF8F0EE407A17EE902A04
:101798003B681A60002304E03B684FF000021A60BF
:1017A800FF235BB218460837BD4680BD80B500AF41
:1017B80040F66C13C2F200034FF000021A6040F6C4
:1017C800C813C2F2000300221A6040F6BC13C2F22A
:1017D800000378221A6040F6C813C2F20003F02210
:1017E8001A6040F6D813C2F200034FF000021A60E4
:1017F80040F64413C2F200034FF000021A6040F6AC
:101808005413C2F200034FF000021A6040F6381376
:10181800C2F200034FF000021A6040F67C13C2F2D5
:1018280000034FF000021A6040F6CC13C2F2000326
:101838004FF000021A6040F65013C2F200034FF056
:1018480000021A6040F64C13C2F200034FF0000287
:101858001A6000F067FF024640F63C13C2F200032C
:101868001A6000F05FFF024640F68413C2F20003DC
:101878001A604FF49040C4F2000045F2AC31C0F653
:10188800000101F009F94FF49040C4F2000045F25C
:10189800DC31C0F6000101F0FFF880BD80B582B0F0
:1018A80000AF786040F63C13C2F200031B687A6808
:1018B800D31A132B08D940F63C13C2F200037A68F6
:1018C8001A6000F013F90EE140F68413C2F2000327
:1018D8001B687A68D31A312B40F2058140F68413CD
:1018E800C2F200037A681A6040F68413C2F2000359
:1018F8001B6807EE903AF8EE677A4FF48043C4F21B
:101908001C6307EE103AC7EE877AB3EE0E7AF4EE50
:10191800C77AF1EE10FA25DB40F68413C2F2000311
:101928001B6807EE903AF8EE677A4FF48043C4F2EA
:101938001C6307EE103AC7EE877A4CF6CD43C4F223
:10194800F01307EE103AF4EEC77AF1EE10FA09D860
:101958004FF49040C4F2000045F2F431C0F60001A3
:1019680001F09AF840F68413C2F200031B6807EEF0
:10197800903AF8EE677A4FF48043C4F21C6307EE9E
:10198800103AC7EE877A4FF49040C4F20000B0EEE8
:10199800670A0521042201F08DF94FF49040C4F242
:1019A800000045F20041C0F6000101F075F840F66C
:1019B800A013C2F20003D3ED007A4FF49040C4F2B2
:1019C8000000B0EE670A0321032201F073F94FF417
:1019D8009040C4F2000045F20041C0F6000101F059
:1019E8005BF840F69013C2F20003D3ED007A4FF48F
:1019F8009040C4F20000B0EE670A0321032201F010
:101A080059F94FF49040C4F2000045F20041C0F685
:101A1800000101F041F840F63813C2F20003D3ED9B
:101A2800007A4FF49040C4F20000B0EE670A032138
:101A3800032201F03FF94FF49040C4F2000045F250
:101A48000041C0F6000101F027F840F67C13C2F20D
:101A58000003D3ED007A4FF49040C4F20000B0EEDA
:101A6800670A0321032201F025F94FF49040C4F2DC
:101A7800000045F20041C0F6000101F00DF840F603
:101A8800CC13C2F20003D3ED007A4FF49040C4F2B5
:101A98000000B0EE670A0321032201F00BF94FF4AE
:101AA8009040C4F2000045F20041C0F6000100F089
:101AB800F3FF40F6D413C2F20003D3ED007A4FF4DB
:101AC8009040C4F20000B0EE670A0521032201F03D
:101AD800F1F84FF49040C4F2000045F20441C0F61A
:101AE800000100F0D9FF0837BD4680BD80B582B03F
:101AF80000AF0020FFF78EFD034607EE903AF8EEA0
:101B0800E77A4FF08A4307EE103AC7EE877A40F635
:101B18003813C2F20003C3ED007A0120FFF77AFD03
:101B2800034607EE903AF8EEE77A4FF08A4307EE5D
:101B3800103AC7EE877A40F67C13C2F20003C3ED71
:101B4800007A0220FFF766FD034607EE903AF8EEAA
:101B5800E77A4FF08A4307EE103AC7EE877A40F6E5
:101B6800CC13C2F20003C3ED007A0320FFF752FD45
:101B7800034607EE903AF8EEE77A42F2E963C3F6D5
:101B8800D17307EE103AC7EE877A40F6A813C2F26F
:101B98000003C3ED007A0420FFF73CFD034607EE7F
:101BA800903AF8EEE77A42F2E963C3F6D17307EEAA
:101BB800103AC7EE877A40F67013C2F20003C3EDFD
:101BC800007A0520FFF726FD034607EE903AF8EE67
:101BD800E77A42F2E963C3F6D17307EE103AC7EE2B
:101BE800877A40F6D413C2F20003C3ED007A0620C8
:101BF800FFF710FD034607EE903AF8EEE77A4FF04C
:101C08000003C4F2AA3307EE103AC7EE877A41F60A
:101C1800B863C4F2122307EE103A77EE877A40F6DB
:101C28005813C2F20003C3ED007A00F099F800F0EF
:101C3800BFF840F67C13C2F2000393ED007A40F639
:101C48007C13C2F20003D3ED007A27EE277A40F620
:101C5800CC13C2F20003D3ED006A40F6CC13C2F2F3
:101C68000003D3ED007A66EEA77A77EE277A3B1D5C
:101C7800B0EE670A1846FFF76DFD40F63813C2F25A
:101C8800000393ED007AD7ED017AC7EE277AB0EE1C
:101C9800670A00F07DFAF0EE407A4FF00003C4F2D4
:101CA800343307EE103A67EE877A40F6DB73C4F2F6
:101CB800490307EE103AC7EE877A40F6A013C2F23E
:101CC8000003C3ED007A40F63813C2F2000393ED27
:101CD800007A40F63813C2F20003D3ED007A27EEFB
:101CE800277A40F6CC13C2F20003D3ED006A40F61F
:101CF800CC13C2F20003D3ED007A66EEA77A77EE32
:101D0800277A3B1DB0EE670A1846FFF723FD40F619
:101D18007C13C2F2000393ED007AD7ED017AC7EE87
:101D2800277AB0EE670A00F033FAF0EE407A4FF007
:101D38000003C4F2343307EE103A67EE877A40F6B0
:101D4800DB73C4F2490307EE103AC7EE877A40F610
:101D58009013C2F20003C3ED007A0837BD4680BD78
:101D680080B500AF40F63813C2F2000393ED007A55
:101D780040F65013C2F20003D3ED007AB0EE470AE2
:101D8800F0EE670A00F072F9F0EE407A40F6381388
:101D9800C2F20003C3ED007A40F63813C2F2000322
:101DA8001A6840F65013C2F200031A6080BD00BFE3
:101DB80080B500AF40F67C13C2F2000393ED007AC1
:101DC80040F64C13C2F20003D3ED007AB0EE470A96
:101DD800F0EE670A00F04AF9F0EE407A40F67C131C
:101DE800C2F20003C3ED007A40F67C13C2F200038E
:101DF8001A6840F64C13C2F200031A6080BD00BF97
:101E080080B400AF40F6A013C2F200031B6807EECF
:101E1800903AB0EE670ABD465DF8047B704700BF94
:101E280080B500AF00F084F90346012B21D140F6BC
:101E3800C813C2F200031B685A1C40F6C813C2F24A
:101E480000031A6040F6BC13C2F200031B685A1C58
:101E580040F6BC13C2F200031A6040F6D013C2F277
:101E680000031B685A1C40F6D013C2F200031A6024
:101E780026E000F05DF90346B3F1FF3F20D140F6BC
:101E8800C813C2F200031B685A1E40F6C813C2F2F8
:101E980000031A6040F6BC13C2F200031B685A1E06
:101EA80040F6BC13C2F200031A6040F6D013C2F227
:101EB80000031B685A1E40F6D013C2F200031A60D2
:101EC80040F6C813C2F200031B68B3F5B47F05DB04
:101ED80040F6C813C2F2000300221A6040F6BC1391
:101EE800C2F200031B68B3F5B47F05DB40F6BC13F0
:101EF800C2F2000300221A6040F6D013C2F20003B7
:101F08001B68B3F5B47F05DB40F6D013C2F20003BB
:101F180000221A6040F6C813C2F200031B68002BA7
:101F280006DA40F6C813C2F2000340F267121A60DC
:101F380040F6BC13C2F200031B68002B06DA40F619
:101F4800BC13C2F2000340F267121A6040F6D013C5
:101F5800C2F200031B68002B06DA40F6D013C2F267
:101F6800000340F267121A6040F6C813C2F2000379
:101F78001A6845F20843C0F6000392001344D3EDF3
:101F8800007A4FF47053C4F2036307EE103A67EE19
:101F9800877A40F6D813C2F20003C3ED007A40F600
:101FA800BC13C2F200031A6845F20843C0F60003E6
:101FB80092001344D3ED007A4FF47053C4F20363D4
:101FC80007EE103A67EE877A40F64413C2F2000330
:101FD800C3ED007A40F6D013C2F200031A6845F246
:101FE8000843C0F6000392001344D3ED007A4FF47F
:101FF8007053C4F2036307EE103A67EE877A40F62F
:102008005413C2F20003C3ED007A40F6D813C2F2AB
:102018000003D3ED007AFCEEE77A4FF40060C4F2D7
:10202800000017EE901A02F021FB40F64413C2F2AA
:102038000003D3ED007AFCEEE77A4FF40060C4F2B7
:10204800000017EE901A02F01FFB40F65413C2F27C
:102058000003D3ED007AFCEEE77A4FF40060C4F297
:10206800000017EE901A02F01DFB80BD80B483B00B
:1020780000AF87ED010AC7ED000AD7ED017A49F6EE
:102088009A13C3F6197307EE103A27EE877AD7ED3D
:10209800007A4CF6CD43C3F6CC6306EE903A67EE71
:1020A800A67A77EE277AB0EE670A0C37BD465DF858
:1020B800047B704780B584B000AF786040F6700349
:1020C800C2F200031B68002B08D140F67003C2F26D
:1020D800000340F6E012C2F200021A6040F67003F4
:1020E800C2F200031B68FB6040F67003C2F20003F3
:1020F8001A687B6813446A46934207D904F0B0F91A
:1021080002460C2313604FF0FF330CE040F67003D7
:10211800C2F200031A687B681A4440F67003C2F2E0
:1021280000031A60FB6818461037BD4680BD00BF23
:1021380080B52DED028B00AF40F67813C2F2000394
:1021480093ED008AFFF75CFEF0EE407A78EE677A4E
:10215800F5EEC07AF1EE10FA01DD012313E040F646
:102168007813C2F2000393ED008AFFF749FEF0EE00
:10217800407A78EE677AF5EEC07AF1EE10FA02D579
:102188004FF0FF33FFE71846BD46BDEC028B80BD1C
:1021980080B586B000AF87ED010AD7ED017AF5EE7C
:1021A800C07AF1EE10FA0CD5D7ED017AF1EE677A24
:1021B800B0EE670AFFF7ECFFF0EE407AF1EE677ACF
:1021C80089E0D7ED017AF5EE407AF1EE10FA04D104
:1021D8004FF0000307EE903A7DE001237B6171E048
:1021E80046F2D433C0F600037A699200134493EDA3
:1021F800007AD7ED017AB4EEE77AF1EE10FA5EDBF9
:102208007B695A1E13465B001344DB0007EE903AC5
:10221800B8EEE77A7B695A1E46F2D433C0F600035B
:1022280092001344D3ED007AD7ED016A76EEE76A9F
:102238007B695A1E46F26C33C0F6000392001344C1
:10224800D3ED007AC6EEA77A77EE277AC7ED047A3F
:10225800D7ED047AFDEEE77A17EE903AFB60FB685B
:1022680007EE903AF8EEE77A97ED047A77EE677A18
:10227800C7ED027A45F6A813C0F60003FA68920083
:10228800134493ED007AFB685A1C45F6A813C0F670
:10229800000392001344D3ED006A45F6A813C0F674
:1022A8000003FA6892001344D3ED007A76EEE76AE9
:1022B800D7ED027A66EEA77A77EE277A0BE07B698C
:1022C80001337B617B691A2B8ADD40F62323C3F631
:1022D800C97307EE903AB0EE670A1837BD4680BD5D
:1022E80080B485B000AF87ED010A38607B68BB60B9
:1022F8000023FB600AE097ED017AD7ED027A67EEDA
:10230800277AC7ED017AFB680133FB60FA683B68FE
:10231800013B9A42EFD37B6807EE903AB0EE670A2A
:102328001437BD465DF8047B704700BF80B500AF29
:102338004FF08040012102F03FFA0346002B0FD0F6
:102348004FF08040012102F061FA40F6C413C2F256
:1023580000031B685A1C40F6C413C2F200031A603B
:1023680080BD00BF80B500AF0020C4F2010001218C
:1023780002F022FA0346002B07D00020C4F2010025
:10238800012102F043FAFFF74BFD80BD80B500AF95
:102398004FF4A050C4F20000012102F00DFA0346E8
:1023A800002B06D04FF4A050C4F20000012102F027
:1023B8002DFA80BD80B500AF4FF48060C4F20100F3
:1023C800012102F0F9F90346002B06D04FF4806092
:1023D800C4F20100012102F019FA80BD80B500AFF6
:1023E80040F6C413C2F2000300221A6000F08AF912
:1023F8004FF48060C4F2000000F022F84FF400604F
:10240800C4F2000000F01CF84FF44060C4F2000071
:1024180000F016F800F040F90020C4F2010000F0C6
:1024280059F84FF4A050C4F2000000F053F84FF4EC
:102438008060C4F2010000F04DF800F071F880BD32
:1024480080B58AB000AF786000F090F80023BB83B5
:102458000023FB8342F2CF033B620023BB840023AB
:1024680087F8263007F11C037868194601F0F2FE58
:102478007868012101F064FF60233B8101237B819F
:102488000023BB8200233B6107F1080378681946E3
:1024980001F076FF7868082102F012F900233B6109
:1024A80007F108037868194601F0F2FF78680821F7
:1024B80002F024F900233B6107F108037868194604
:1024C80002F06CF87868082102F034F92837BD4624
:1024D80080BD00BF80B586B000AF786040F247335A
:1024E800BB810023FB814FF4FA733B610023BB825D
:1024F8000023BB7507F10C037868194601F0AAFEA2
:102508007868012102F082F978680121012202F03D
:102518002FF97868012101F013FF1837BD4680BDF7
:1025280080B584B000AF5323BB800023FB806423B5
:10253800BB600023BB810023BB733B1D4FF0804071
:10254800194601F087FE4FF08040012102F05EF944
:102558004FF080400121012202F00AF94FF080403B
:10256800012101F0EDFE1037BD4680BD80B582B077
:1025780000AF4FF48060C4F202000721022200F08D
:1025880083FE4FF48060C4F202000821022200F0AA
:102598007BFE4FF48060C4F202000921022200F0A1
:1025A80073FE4FF44060C4F202000D21022200F0D5
:1025B8006BFE4FF44060C4F202000E21022200F0CC
:1025C80063FE4FF44060C4F202000F21022200F0C3
:1025D8005BFE0020C4F202000221022200F054FE39
:1025E8000020C4F202000321022200F04DFE002068
:1025F800C4F202000421022200F046FE4FF4607388
:102608003B600023BB710023FB7102233B71032352
:102618007B713B464FF48060C4F20200194600F01B
:10262800A5FD4FF460433B600023BB710023FB71A1
:1026380002233B7103237B713B464FF44060C4F295
:102648000200194600F092FD1C233B600023BB7179
:102658000023FB7102233B7103237B713B4600205F
:10266800C4F20200194600F081FD4FF480533B602C
:102678000023BB710023FB7101233B7103237B7192
:102688003B464FF44060C4F20200194600F06EFD6C
:102698000837BD4680BD00BF80B582B000AF1C239F
:1026A8003B7100237B710123BB710123FB713B1D2F
:1026B800184601F06FFC37233B7100237B7101231F
:1026C800BB710123FB713B1D184601F063FC192304
:1026D8003B7100237B710123BB710123FB713B1DFF
:1026E800184601F057FC2C233B7100237B71012312
:1026F800BB710123FB713B1D184601F04BFC0837E9
:10270800BD4680BD80B500AF0B20012101F08EFBD6
:102718002F20012101F0B2FB0320012101F0D6FB9B
:1027280080BD00BF80B400AF40F6C413C2F20003FE
:102738001B681846BD465DF8047B704780B500AF3E
:1027480000F04CF9FFF732F8FFF748FE48F28040F6
:10275800C0F21E00FEF71AFAFEF778FA48F2804037
:10276800C0F21E00FEF712FAFEF7DAFEFFF7DAFFF4
:1027780003461846FFF792F8F8E700BF80B400AFA9
:10278800BD465DF8047B704780B400AFFEE700BF2C
:1027980080B400AFFEE700BF80B400AFFEE700BF23
:1027A80080B400AFFEE700BF80B400AFBD465DF85F
:1027B800047B704780B500AF4FF46D43CEF2000341
:1027C8004FF46D42CEF20002D2F8882042F4700233
:1027D800C3F888204FF46053C4F202034FF46052E8
:1027E800C4F20202126842F001021A604FF4605308
:1027F800C4F2020300229A604FF46052C4F202024B
:102808004FF46053C4F202031B6823F0847323F46B
:10281800803313604FF46053C4F2020343F2100292
:10282800C2F200425A604FF46053C4F202034FF4FC
:102838006052C4F20202126822F480221A604FF435
:102848006053C4F202030022DA6000F009F84FF482
:102858006D43CEF200034FF000629A6080BD00BF66
:1028680080B483B000AF00237B6000233B604FF44B
:102878006053C4F202034FF46052C4F202021268B9
:1028880042F480321A604FF46053C4F202031B68AA
:1028980003F400333B607B6801337B603B68002BAB
:1028A80003D17B68B3F5A04FEDD14FF46053C4F268
:1028B80002031B6803F40033002B02D001233B60A2
:1028C80001E000233B603B68012B40F082804FF41D
:1028D8006053C4F202034FF46052C4F20202126C55
:1028E80042F080521A644FF4E043C4F200034FF4FC
:1028F800E042C4F20002126842F440421A604FF407
:102908006053C4F202034FF46052C4F202029268A8
:102918009A604FF46053C4F202034FF46052C4F259
:102928000202926842F400429A604FF46053C4F283
:1029380002034FF46052C4F20202926842F4A052B9
:102948009A604FF46053C4F2020345F20842C0F2A1
:1029580040725A604FF46053C4F202034FF460525D
:10296800C4F20202126842F080721A6000BF4FF48B
:102978006053C4F202031B6803F00073002BF6D007
:102988004FF47053C4F2020340F205721A604FF418
:102998006053C4F202034FF46052C4F20202926818
:1029A80022F003029A604FF46053C4F202034FF41A
:1029B8006052C4F20202926842F002029A6000BFBA
:1029C8004FF46053C4F202039B6803F00C03082B16
:1029D800F6D10C37BD465DF8047B704780B586B0EC
:1029E80000AF4FF48020012101F048FA08200121AE
:1029F80001F01CFA4FF480733B6102233B750223FC
:102A08007B750023BB750123FB7507F110034FF499
:102A18004060C4F20200194600F0A8FB4FF4406081
:102A2800C4F202000821072200F02EFC4FF4E13323
:102A38003B600023BB800023FB8000233B810023F5
:102A4800BB8108237B813B464FF49040C4F20000D1
:102A5800194601F007FB4FF49040C4F20000012131
:102A680001F0C6FB1837BD4680BD00BF80B582B0F7
:102A780000AF7860396000BF7B681B889BB203F0A9
:102A88004003002BF8D03B689BB27868194601F0E8
:102A9800CFFB0837BD4680BD80B582B000AF7860F7
:102AA800396008E03B685A1C3A601B78DBB27868EA
:102AB8001946FFF7DBFF3B681B78002BF2D108377C
:102AC800BD4680BD80B582B000AF786039603B6894
:102AD800092B02D93B68373301E03B68303378680B
:102AE8001946FFF7C3FF0837BD4680BD80B582B0E1
:102AF80000AF78600B46FB70FB781B09DBB2786887
:102B08001946FFF7DFFFFB7803F00F0378681946D3
:102B1800FFF7D8FF0837BD4680BD00BF80B588B035
:102B280000AFF86087ED020A79603A60D7ED027A63
:102B3800F5EE407AF1EE10FA07D1FB6830221A70F0
:102B4800FB68013300221A70B0E0D7ED027AF5EE87
:102B5800C07AF1EE10FA0AD5FB685A1CFA602D22E9
:102B68001A70D7ED027AF1EE677AC7ED027AB2EE03
:102B7800040A7868FFF7B4FB87ED070A97ED027A35
:102B8800D7ED077AB4EEE77AF1EE10FA07DBFB68C7
:102B980023221A70FB68013300221A7086E0012391
:102BA800FB7644E0D7ED077AB2EE047AC7EE877A6F
:102BB800C7ED077A97ED027AD7ED077AC7EE277A3D
:102BC800FCEEE77A17EE903A7B61FB7E002B11D082
:102BD8007B69002B0ED1D7ED077AB2EE047AF4EEBA
:102BE800C77AF1EE10FA05DBFB685A1CFA6020225E
:102BF8001A7019E00023FB76FB685A1CFA607A69A0
:102C0800D2B23032D2B2D2B21A707B6907EE903AA1
:102C1800B8EE677AD7ED077A67EE277A97ED027AEA
:102C280077EE677AC7ED027A7B68013B7B607B6849
:102C3800002BB7D13B68002B05D1FB685A1CFA6002
:102C480000221A7032E0FB685A1CFA602E221A70B1
:102C5800D7ED027AB2EE047A67EE877AC7ED027A88
:102C6800D7ED027AFCEEE77A17EE903A7B61FB68C3
:102C78005A1CFA607A69D2B23032D2B2D2B21A7021
:102C88007B6907EE903AF8EE677A97ED027A77EE6D
:102C9800677AC7ED027A3B68013B3B603B68002BD3
:102CA800D6D1FB685A1CFA6000221A702037BD463C
:102CB80080BD00BF80B58CB000AFF86087ED020A18
:102CC80079603A6007F11403FB62F86A97ED020A2B
:102CD80079683A68FFF722FF02E0FB6A0133FB627A
:102CE800FB6A1B78002BF8D1FB6A00221A7007F1E7
:102CF8001403F8681946FFF7CFFE3037BD4680BD8C
:102D080080B485B000AF786039607B685B68FB6031
:102D18003B68FA685A60FB689A683B689A60FB6887
:102D28009B683A685A60FB683A689A603B687A68B8
:102D38001A617B681B685A1C7B681A601437BD4689
:102D48005DF8047B704700BF80B485B000AF786041
:102D58007B681B69FB607B685B687A6892689A602D
:102D68007B689B687A6852685A60FB685A687B6817
:102D78009A4203D17B689A68FB685A607B68002294
:102D88001A61FB681B685A1EFB681A60FB681B689F
:102D980018461437BD465DF8047B704780B586B089
:102DA80000AF00237B6140F6FC03C2F200031B68FE
:102DB800002B40F0CE8040F6E403C2F200031B680B
:102DC8005A1C40F6E403C2F200031A6040F6E4031A
:102DD800C2F200031B683B613B69002B34D140F60B
:102DE800DC03C2F200031B681B68002B09D04FF0FC
:102DF800500383F31188BFF36F8FBFF34F8F3B608E
:102E0800FEE740F6DC03C2F200031B68FB6040F6F5
:102E1800E003C2F200031A6840F6DC03C2F20003C2
:102E28001A6040F6E003C2F20003FA681A6040F63E
:102E3800F403C2F200031B685A1C40F6F403C2F202
:102E480000031A6000F002F940F6F803C2F200032A
:102E58001B683A699A4267D340F6DC03C2F2000362
:102E68001B681B68002B01D1012300E00023002B05
:102E780007D040F6F803C2F200034FF0FF321A60A1
:102E880052E040F6DC03C2F200031B68DB68DB6833
:102E9800BB60BB685B687B603A697B689A4206D214
:102EA80040F6F803C2F200037A681A603CE0BB6897
:102EB80004331846FFF748FFBB689B6A002B04D011
:102EC800BB6818331846FFF73FFFBB68DB6A1A4632
:102ED800012303FA02F240F6E803C2F200031B687A
:102EE8001A4340F6E803C2F200031A60BB68DA6AC4
:102EF80013469B0013449B0040F67802C2F200027E
:102F08001A44BB68043310461946FFF7F9FEBB683C
:102F1800DA6A40F67403C2F200031B68DB6A9A425D
:102F280001D301237B6197E740F67403C2F20003E3
:102F38001B68D96A40F67802C2F200020B469B0071
:102F48000B449B0013441B68012B0DD901237B61A3
:102F58000AE040F6EC03C2F200031B685A1C40F674
:102F6800EC03C2F200031A6040F6F003C2F2000359
:102F78001B68002B01D001237B617B691846183739
:102F8800BD4680BD80B487B000AF40F6FC03C2F2F6
:102F980000031B68002B06D040F6F003C2F20003C2
:102FA80001221A604DE040F6F003C2F2000300224D
:102FB8001A6040F6E803C2F200031B68FB60FB6876
:102FC800B3FA83F3FB72FB7AC3F11F037B6140F60C
:102FD8007802C2F2000279690B469B000B449B0001
:102FE80013441B68002B09D14FF0500383F3118859
:102FF800BFF36F8FBFF34F8F7B60FEE77A6913468D
:103008009B0013449B0040F67802C2F2000213446E
:103018003B613B695B685A683B695A603B695A681F
:103028003B6908339A4204D13B695B685A683B693B
:103038005A603B695B68DA6840F67403C2F20003C1
:103048001A601C37BD465DF8047B704780B483B0B6
:1030580000AF40F6DC03C2F200031B681B68002BBC
:1030680001D1012300E00023002B07D040F6F8032C
:10307800C2F200034FF0FF321A600EE040F6DC03A4
:10308800C2F200031B68DB68DB687B607B685A68F8
:1030980040F6F803C2F200031A600C37BD465DF82B
:1030A800047B7047064B19680868B0E8F04F80F356
:1030B8000988BFF36F8F4FF0000080F311887047C5
:1030C80074080020EFF30980BFF36F8F144B1A6860
:1030D8001EF0100F08BF20ED108A20E9F04F106095
:1030E8004DF8043D4FF0500080F31188BFF34F8F27
:1030F800BFF36F8FFFF746FF4FF0000080F3118892
:1031080008BC19680868B0E8F04F1EF0100F08BF37
:10311800B0EC108A80F30988BFF36F8F704700BF47
:103128007408002080B584B000AFEFF311824FF02F
:10313800500383F31188BFF36F8FBFF34F8FFA608B
:10314800BB60FFF72BFE0346002B06D04EF6045358
:10315800CEF200034FF080521A6000237B607B6838
:1031680083F311881037BD4680BD00BF80B487B097
:1031780000AF7860396000237B6100233B61002346
:10318800FB6000237B6176E07B69012202FA03F38E
:103198003B613B681A683B691340FB60FA683B690E
:1031A8009A4265D17B681A687B695B0019460323DC
:1031B8008B40DB431A407B681A607B681A683B685F
:1031C8001B7919467B695B0001FA03F31A437B6894
:1031D8001A603B681B79012B03D03B681B79022BD3
:1031E8002ED17B689A687B695B00194603238B4064
:1031F800DB431A407B689A607B689A683B685B7916
:1032080019467B695B0001FA03F31A437B689A60ED
:103218007B685A687B699BB2194601238B40DB4364
:103228001A407B685A607B685B683A6892791146F5
:103238007A6992B201FA02F292B21A437B685A6032
:103248007B68DA687B699BB25B00032101FA03F3B0
:10325800DB431A407B68DA607B68DA683B68DB79B5
:1032680019467B695B0001FA03F31A437B68DA604D
:103278007B6901337B617B690F2B85D91C37BD4680
:103288005DF8047B704700BF80B485B000AF7860FC
:103298000B467B8013467B700023FB600023BB60DA
:1032A8007B787A8802F0070292009340FB607B8863
:1032B800DB089BB218467B88DB089BB21A467B6802
:1032C800083253F822207B8803F007039B00194635
:1032D8000F238B40DB4302EA03017B6800F10802FD
:1032E80043F822107B88DB089BB21A467B680832B9
:1032F80053F82220FB681343BB607B88DB089BB232
:103308001A467B680832B96843F822101437BD465C
:103318005DF8047B704700BF80B483B000AF78606D
:103328007B681B6823F001027B681A607B680022B7
:103338001A607B6800225A607B6800229A607B686A
:103348000022DA607B6800221A617B6821225A61B8
:103358007A6846F21003C4F202039A4206D14FF487
:10336800C043C4F202033D229A60E6E07A6846F25E
:103378002803C4F202039A4207D14FF4C043C4F2AF
:1033880002034FF474629A60D7E07A6846F2400309
:10339800C4F202039A4207D14FF4C043C4F20203B5
:1033A8004FF474129A60C8E07A6846F25803C4F27F
:1033B80002039A4207D14FF4C043C4F202034FF00C
:1033C80074629A60B9E07A6846F27003C4F2020344
:1033D8009A4208D14FF4C043C4F202033D22C2F21C
:1033E8000002DA60A9E07A6846F28803C4F20203B0
:1033F8009A4209D14FF4C043C4F202034FF47462F5
:10340800C2F20002DA6098E07A6846F2A003C4F2D9
:1034180002039A4208D14FF4C043C4F202030022C7
:10342800C2F23D02DA6088E07A6846F2B803C4F274
:1034380002039A4207D14FF4C043C4F202034FF08B
:103448003D52DA6079E07A6846F21043C4F202032A
:103458009A4206D14FF4C843C4F202033D229A604F
:103468006BE07A6846F22843C4F202039A4207D115
:103478004FF4C843C4F202034FF474629A605CE0EC
:103488007A6846F24043C4F202039A4207D14FF4E5
:10349800C843C4F202034FF474129A604DE07A688C
:1034A80046F25843C4F202039A4207D14FF4C84384
:1034B800C4F202034FF074629A603EE07A6846F202
:1034C8007043C4F202039A4208D14FF4C843C4F2CD
:1034D80002033D22C2F20002DA602EE07A6846F268
:1034E8008843C4F202039A4209D14FF4C843C4F294
:1034F80002034FF47462C2F20002DA601DE07A68D7
:1035080046F2A043C4F202039A4208D14FF4C843DA
:10351800C4F202030022C2F23D02DA600DE07A68CA
:1035280046F2B843C4F202039A4206D14FF4C843A4
:10353800C4F202034FF03D52DA600C37BD465DF825
:10354800047B704780B485B000AF78603960002391
:10355800FB607B681B68FB60FA6848F23F03CFF2A8
:103568001C031340FB603B681A683B68DB681A431E
:103578003B685B691A433B689B691A433B68DB6994
:103588001A433B681B6A1A433B685B6A1A433B68E9
:103598009B6A1A433B685B6B1A433B689B6B1343FC
:1035A800FA681343FB607B68FA681A607B685B699A
:1035B800FB60FB6823F00703FB603B68DA6A3B6843
:1035C8001B6B1343FA681343FB607B68FA685A6104
:1035D8003B681A697B685A603B685A687B689A60DE
:1035E8003B689A687B68DA601437BD465DF8047BEF
:1035F800704700BF80B483B000AF78600B46FB70A3
:10360800FB78002B06D07B681B6843F001027B68BF
:103618001A6005E07B681B6823F001027B681A606A
:103628000C37BD465DF8047B704700BF80B485B099
:1036380000AF786039607A6846F20F43C4F202033B
:103648009A4205D84FF4C043C4F20203FB6004E079
:103658004FF4C843C4F20203FB603B6803F0005315
:10366800002B07D03B6823F0F02323F08213FA687D
:10367800D36006E03B6823F0F02323F08213FA6856
:1036880093601437BD465DF8047B704780B485B0FD
:1036980000AFF860B9601346FB71BB6803F08003A4
:1036A800002B0FD0FB79002B06D0FB685B6943F039
:1036B8008002FB685A6105E0FB685B6923F08002C1
:1036C800FB685A61BB68802B14D0FB79002B08D0AB
:1036D800FB681A68BB6803F01E031A43FB681A608C
:1036E80008E0FB681A68BB6803F01E03DB431A4056
:1036F800FB681A601437BD465DF8047B704700BF4D
:1037080080B487B000AF786039600023FB75002370
:10371800FB600023BB607A6846F20F43C4F20203E1
:103728009A4205D84FF4C043C4F202033B6104E057
:103738004FF4C843C4F202033B613B6823F0F02313
:1037480023F0C313002B0AD03B68DB0A03F01E03E7
:10375800FB607B681A68FB681340BB6004E07B6809
:103768005B6903F08003BB603B6803F00053002BE8
:1037780003D03B695B68FB6002E03B691B68FB6048
:10378800FB6823F0F02323F08213FB60FA683B68A0
:103798001340002B05D0BB68002B02D00123FB751A
:1037A80001E00023FB75FB7D18461C37BD465DF81C
:1037B800047B704780B485B000AF786039607A6860
:1037C80046F20F43C4F202039A4205D84FF4C043AD
:1037D800C4F20203FB6004E04FF4C843C4F20203DE
:1037E800FB603B6803F00053002B07D03B6823F0D5
:1037F800F02323F08213FA68D36006E03B6823F0D5
:10380800F02323F08213FA6893601437BD465DF8FD
:10381800047B704780B58AB000AF786039600023B8
:10382800FB8400237B840423BB844FF49053C0F2B1
:103838007A03FB617B689B88FB84FB8C23F03F0346
:10384800FB8407F10C03184600F01CFA7B69FB6146
:10385800FA694DF68363C4F21B33A3FB02239B0C66
:103868007B84FA8C7B8C1343FB847B68FA8C9A806C
:103878007B681B889BB223F001039AB27B681A808D
:103888000023FB843B681A6848F2A063C0F2010376
:103898009A4215D83B681B685B00FA69B2FBF3F3E0
:1038A800BB84BB8C032B01D80423BB84FA8CBB8C50
:1038B8001343FB847B8C01339AB27B681A8443E000
:1038C8003B68DB884BF6FF72934209D13B681A6864
:1038D80013465B001344FA69B2FBF3F3BB840EE0B2
:1038E8003B681A6813469B0013449A001344FA690C
:1038F800B2FBF3F3BB84BB8C43F48043BB84BB8C27
:10390800C3F30B03002B03D1BB8C43F00103BB842F
:10391800BA8CFB8C13439BB26FEA43436FEA534361
:10392800FB847B8C4FF4967202FB03F244F6D3536C
:10393800C1F2620383FB02139911D317CB1A9BB20E
:1039480001339AB27B681A847B68FA8C9A837B6805
:103958001B889BB243F001039AB27B681A807B688C
:103968001B88FB84FB8C23F4816323F00203FB8414
:103978003B689A883B685B8913439AB2FB8C134374
:10398800FB847B68FA8C1A803B689A893B681B89A0
:1039980013439AB27B681A812837BD4680BD00BFA1
:1039A80080B483B000AF78600B46FB70FB78002BC7
:1039B80008D07B681B889BB243F001039AB27B68EE
:1039C8001A8007E07B681B889BB223F001039AB238
:1039D8007B681A800C37BD465DF8047B704700BFD2
:1039E80080B483B000AF78600B46FB70FB78002B87
:1039F80008D07B681B889BB243F480739AB27B68BB
:103A08001A8007E07B681B889BB223F480739AB204
:103A18007B681A800C37BD465DF8047B704700BF91
:103A280080B483B000AF78600B46FB70FB78002B46
:103A380008D07B681B889BB243F400739AB27B68FA
:103A48001A8007E07B681B889BB223F400739AB244
:103A58007B681A800C37BD465DF8047B704700BF51
:103A680080B483B000AF78600B46FB701346BB7020
:103A7800BB78002B04D0FB7843F00103FB7003E014
:103A8800FB7823F00103FB70FB789AB27B681A82FB
:103A98000C37BD465DF8047B704700BF80B483B027
:103AA80000AF78600B46FB70FB78002B08D07B6872
:103AB8001B889BB243F480639AB27B681A8007E044
:103AC8007B681B889BB223F480639AB27B681A8058
:103AD8000C37BD465DF8047B704700BF80B483B0E7
:103AE80000AF78600B46FB70FB789AB27B681A824D
:103AF8000C37BD465DF8047B704700BF80B483B0C7
:103B080000AF78607B681B8A9BB2DBB218460C3723
:103B1800BD465DF8047B704780B483B000AF786021
:103B28000B46FB70FB78002B08D07B689B889BB208
:103B380043F400639AB27B689A8007E07B689B88AD
:103B48009BB223F400639AB27B689A800C37BD4617
:103B58005DF8047B704700BF80B483B000AF786025
:103B68000B46FB70FB78002B08D07B689B889BB2C8
:103B780043F480539AB27B689A8007E07B689B88FD
:103B88009BB223F480539AB27B689A800C37BD4667
:103B98005DF8047B704700BF80B483B000AF7860E5
:103BA8000B467B8013467B707B78002B08D07B68A4
:103BB8009B889AB27B8813439AB27B689A8009E003
:103BC8007B689B889AB27B88DB439BB213409AB28E
:103BD8007B689A800C37BD465DF8047B704700BF50
:103BE80080B487B000AF7860396000233B61002360
:103BF800FB600023BB600023FB757B689B8A9BB23C
:103C0800FB607B681B8B9BB2BB60BB681B04BB6003
:103C1800FA68BB68134323F07F433B613A693B680A
:103C28001A403B689A4202D10123FB7501E0002348
:103C3800FB75FB7D18461C37BD465DF8047B704755
:103C480080B487B000AF786000237B6100233B61BC
:103C58000023FB607B689B8A9BB23B617B681B8B64
:103C68009BB2FB60FB681B04FB603A69FB6813436B
:103C780023F07F437B617B6918461C37BD465DF89E
:103C8800047B704780B489B000AF78600023BB61C3
:103C980000237B610023FB6102233B610023FB605F
:103CA8000223BB604FF46053C4F202039B6803F025
:103CB8000C03BB61BB69042B0AD0082B0FD0002B67
:103CC8005AD17A684FF41053C0F2F40313605AE0E3
:103CD8007A684FF49053C0F27A03136053E04FF4BC
:103CE8006053C4F202035B6803F480039B0DFB601E
:103CF8004FF46053C4F202035B6803F03F03BB60F8
:103D0800FB68002B13D04FF49053C0F27A03BA68C3
:103D1800B3FBF2F24FF46053C4F20203596847F65A
:103D2800C0730B409B0903FB02F3FB6112E04FF4E5
:103D38001053C0F2F403BA68B3FBF2F24FF46053C5
:103D4800C4F20203596847F6C0730B409B0903FB92
:103D580002F3FB614FF46053C4F202035B6803F49F
:103D680040331B0C01335B003B61FA693B69B2FBD2
:103D7800F3F27B681A6006E07A684FF41053C0F2D9
:103D8800F403136000BF4FF46053C4F202039B684E
:103D980003F0F003BB61BB691B09BB6140F2000380
:103DA800C2F20003BA6913441B78DBB27B617B68FB
:103DB8001A687B69DA407B685A604FF46053C4F232
:103DC80002039B6803F4E053BB61BB699B0ABB61B8
:103DD80040F20003C2F20003BA6913441B78DBB255
:103DE8007B617B685A687B69DA407B689A604FF42C
:103DF8006053C4F202039B6803F46043BB61BB6970
:103E08005B0BBB6140F20003C2F20003BA691344C2
:103E18001B78DBB27B617B685A687B69DA407B6818
:103E2800DA602437BD465DF8047B704780B483B000
:103E380000AF78600B46FB70FB78002B0CD04FF47A
:103E48006053C4F202034FF46052C4F20202116BD1
:103E58007A680A431A630CE04FF46053C4F2020311
:103E68004FF46052C4F20202116B7A68D2430A40DE
:103E78001A630C37BD465DF8047B704780B483B085
:103E880000AF78600B46FB70FB78002B0CD04FF42A
:103E98006053C4F202034FF46052C4F20202116C80
:103EA8007A680A431A640CE04FF46053C4F20203C0
:103EB8004FF46052C4F20202116C7A68D2430A408D
:103EC8001A640C37BD465DF8047B704780B483B034
:103ED80000AF78600B46FB70FB78002B0CD04FF4DA
:103EE8006053C4F202034FF46052C4F20202516CF0
:103EF8007A680A435A640CE04FF46053C4F2020330
:103F08004FF46052C4F20202516C7A68D2430A40FC
:103F18005A640C37BD465DF8047B704780B483B0A3
:103F280000AF78600B46FB70FB78002B0CD04FF489
:103F38006053C4F202034FF46052C4F20202116AE1
:103F48007A680A431A620CE04FF46053C4F2020321
:103F58004FF46052C4F20202116A7A68D2430A40EE
:103F68001A620C37BD465DF8047B704780B483B095
:103F780000AF78604FF46D42CEF200027B6843F0E8
:103F8800BF6343F40033D3600C37BD465DF8047B50
:103F9800704700BF80B485B000AF78600023FB7322
:103FA8000023BB730F237B737B68DB78002B41D026
:103FB8004FF46D43CEF20003DB68DB4303F4E063A8
:103FC8001B0AFB73FB7BC3F10403BB737A7BFB7B8C
:103FD80042FA03F37B737B685B781A46BB7B02FA71
:103FE80003F3FB737B689A787B7B1340DAB2FB7B25
:103FF8001343FB73FB7B1B01FB734FF46143CEF24E
:1040080000037A6812781344FA7B83F800234FF48C
:104018006143CEF200037A6812785209D2B2104690
:104028007A68127802F01F02012101FA02F243F8BD
:10403800202012E04FF46143CEF200037A68127830
:104048005209D2B210467A68127802F01F02012192
:10405800914000F1200243F822101437BD465DF864
:10406800047B704780B58AB000AF78603960002360
:104078007B6200233B620023FB610023BB617B68FA
:104088001B8A9BB27B627B6A23F440537B623B684A
:10409800DB881A467B6A13437B627B6A9AB27B6829
:1040A8001A827B689B899BB27B627B6A23F4B0533C
:1040B80023F00C037B623B689A883B681B89134397
:1040C8009AB23B685B8913439BB21A467B6A1343D7
:1040D8007B627B6A9AB27B689A817B689B8A9BB277
:1040E8007B627B6A23F440737B623B689B891A4638
:1040F8007B6A13437B627B6A9AB27B689A8207F178
:1041080008031846FFF7BEFD7A684FF48053C4F2DF
:1041180001039A4206D07A684FF4A053C4F201030F
:104128009A4202D17B693B6201E03B693B627B6852
:104138009B899BB29BB21BB2002B0CDA3A6A1346DE
:104148009B0013449A001A443B681B685B00B2FB4F
:10415800F3F3FB610BE03A6A13469B0013449A00A1
:104168001A443B681B689B00B2FBF3F3FB61FA69D6
:1041780048F21F53C5F2EB13A3FB02235B091B0193
:104188007B627B6A1B09642202FB03F3FA69D31A78
:10419800BB617B689B899BB29BB21BB2002B10DA78
:1041A800BB69DB0003F1320248F21F53C5F2EB137F
:1041B800A3FB02235B0903F007037A6A13437B62BC
:1041C8000FE0BB691B0103F1320248F21F53C5F22D
:1041D800EB13A3FB02235B0903F00F037A6A134373
:1041E8007B627B6A9AB27B681A812837BD4680BD9C
:1041F80080B483B000AF78600B46FB70FB78002B6F
:1042080008D07B689B899BB243F400539AB27B68C1
:104218009A8107E07B689B899BB223F400539AB28A
:104228007B689A810C37BD465DF8047B704700BFF8
:1042380080B483B000AF78600B467B807B88C3F383
:1042480008039AB27B689A800C37BD465DF8047BF8
:10425800704700BF80B485B000AF78603960002334
:10426800FB817B681B88FB817A680023C4F2010309
:104278009A421FD07A684FF48063C4F201039A42CD
:1042880018D07B68B3F1804F14D07A684FF48063FC
:10429800C4F200039A420DD07A684FF40063C4F266
:1042A80000039A4206D07A684FF44063C4F20003D0
:1042B8009A4208D1FB8923F07003FB813B685A8836
:1042C800FB891343FB817A684FF48053C4F20003DF
:1042D8009A420FD07A684FF4A053C4F200039A426E
:1042E80008D0FB8923F44073FB813B681A89FB895A
:1042F8001343FB817B68FA891A803B685A687B689C
:10430800DA623B681A887B681A857A680023C4F2E7
:1043180001039A4206D07A684FF48063C4F201031D
:104328009A4204D13B689B7A9AB27B681A867B686A
:1043380001229A821437BD465DF8047B704700BF9E
:1043480080B483B000AF78600B46FB70FB78002B1D
:1043580008D07B681B889BB243F001039AB27B6844
:104368001A8007E07B681B889BB223F001039AB28E
:104378007B681A800C37BD465DF8047B704700BF28
:1043880080B485B000AF7860396000237B8100235A
:10439800FB810023BB817B681B8C9BB223F010033D
:1043A8009AB27B681A847B681B8CFB817B689B882C
:1043B800BB817B681B8B7B817B8923F4E0437B81FA
:1043C8007B8923F440737B813B681B881B029AB26C
:1043D8007B8913437B81FB8923F02003FB813B68A6
:1043E8009B891B019AB2FB891343FB813B685B885D
:1043F8001B019AB2FB891343FB817A680023C4F23C
:1044080001039A4206D07A684FF48063C4F201032C
:104418009A422BD1FB8923F08003FB813B68DB891F
:104428001B019AB2FB891343FB81FB8923F04003EC
:10443800FB813B689B881B019AB2FB891343FB8174
:10444800BB8923F48063BB81BB8923F40063BB81F0
:104458003B681B8A9B009AB2BB891343BB813B68AC
:104468005B8A9B009AB2BB891343BB817B68BA897C
:104478009A807B687A891A833B689A687B689A6312
:104488007B68FA891A841437BD465DF8047B704747
:1044980080B485B000AF7860396000237B81002349
:1044A800FB810023BB817B681B8C9BB223F4807348
:1044B8009AB27B681A847B681B8CFB817B689B881B
:1044C800BB817B689B8B7B817B8923F070037B811D
:1044D8007B8923F003037B813B681A887B8913431C
:1044E8007B81FB8923F40073FB813B689B891B025A
:1044F8009AB2FB891343FB813B685B881B029AB223
:10450800FB891343FB817A680023C4F201039A42B2
:1045180006D07A684FF48063C4F201039A422BD123
:10452800FB8923F40063FB813B68DB891B029AB299
:10453800FB891343FB81FB8923F48063FB813B6880
:104548009B881B029AB2FB891343FB81BB8923F426
:104558008053BB81BB8923F40053BB813B681B8A12
:104568001B019AB2BB891343BB813B685B8A1B0161
:104578009AB2BB891343BB817B68BA899A807B68EE
:104588007A899A833B689A687B68DA637B68FA89D8
:104598001A841437BD465DF8047B704780B485B033
:1045A80000AF786039600023BB8100237B81002342
:1045B800FB817B681B8C9BB223F480539AB27B6887
:1045C8001A847B681B8C7B817B689B88FB817B685A
:1045D8009B8BBB81BB8923F4E043BB81BB8923F45C
:1045E8004073BB813B681B881B029AB2BB8913438B
:1045F800BB817B8923F400537B813B689B891B0328
:104608009AB27B8913437B813B685B881B039AB210
:104618007B8913437B817A680023C4F201039A42A1
:1046280006D07A684FF48063C4F201039A420AD133
:10463800FB8923F48043FB813B681B8A9B019AB268
:10464800FB891343FB817B68FA899A807B68BA8966
:104658009A833B689A687B681A647B687A891A84AB
:104668001437BD465DF8047B704700BF80B483B043
:1046780000AF786039607B683A689A630C37BD464A
:104688005DF8047B704700BF80B483B000AF7860EA
:1046980039607B683A68DA630C37BD465DF8047B9D
:1046A800704700BF80B483B000AF786039607B6822
:1046B8003A681A640C37BD465DF8047B704700BF42
:1046C80080B485B000AF78600B467B800023FB8107
:1046D8007B681B8BFB81FB8923F40063FB817B8850
:1046E8001B029AB2FB891343FB817B68FA891A8300
:1046F8001437BD465DF8047B704700BF80B485B0B1
:1047080000AF78600B467B800023FB817B689B8B26
:10471800FB81FB8923F00803FB81FA897B8813431B
:10472800FB817B68FA899A831437BD465DF8047B60
:10473800704700BF80B485B000AF78600B467B80BF
:104748000023FB817B689B8BFB81FB8923F400633F
:10475800FB817B881B029AB2FB891343FB817B6830
:10476800FA899A831437BD465DF8047B704700BF09
:1047780080B483B000AF78600B467B8013467B70B3
:104788007B78002B08D07B689B899AB27B8813437F
:104798009AB27B689A8109E07B689B899AB27B8888
:1047A800DB439BB213409AB27B689A810C37BD46B3
:1047B8005DF8047B704700BF80B485B000AF7860B7
:1047C8000B467B800023FB730023BB8100237B8186
:1047D8007B681B8A9AB27B881340BB817B689B8964
:1047E8009AB27B8813407B81BB89002B05D07B89DB
:1047F800002B02D00123FB7301E00023FB73FB7B3A
:1048080018461437BD465DF8047B704780B483B002
:1048180000AF78600B467B807B88DB439AB27B686D
:104828001A820C37BD465DF8047B7047DFF834D038
:10483800002103E00C4B5B58435004310B480C4BF0
:1048480042189A42F6D30B4A02E0002342F8043B8E
:10485800094B9A42F9D3FDF7ADFF00F0F9F8FDF7DF
:104868006DFF7047000002208464000800000020EB
:104878005408002054080020E0090020FEE700004A
:1048880010B52DED028B2A4C8AB0F0EE408A00F06C
:1048980053F894F900300133B0EE408A09D0B0EEF5
:1048A800680A00F09DF820B1F5EEC08AF1EE10FA22
:1048B80005D4B0EE480A0AB0BDEC028B10BD012346
:1048C8001C4A009318EE900A002301920893FBF704
:1048D8000DFE2478CDE90401CDE902019CB900223E
:1048E8000023CDE90623684600F078F8A8B1089BB4
:1048F800C3B9DDE90601FCF75FF800EE100A0AB05B
:10490800BDEC028B10BD0020002102460B46FBF7D0
:104918006BFF022CCDE90601E5D101F0A1FD2123B1
:104928000360E4E701F09CFD089B0360E1E700BF3A
:10493800100000204064000810EE103A23F00042F6
:10494800B2F1FF4F70B430D26AB3002B3DDBB2F541
:10495800000F4FEAE3512CD3A1F17F02C3F31603F2
:10496800D10743F4000348BF5B00002456105B00E6
:10497800254619214FF08072A818984202DC1B1AAC
:104988008518144401394FEA43034FEA5202F3D120
:1049980013B104F001031C44641004F17C5404EBCB
:1049A800C65300EE103A70BC7047A0EE000A70BC07
:1049B800704713F400020DD15B00180202F10102E6
:1049C800FAD5C2F101021144C6E730EE400A80EE82
:1049D800000AE8E701221144BEE700BF0020704743
:1049E80010EE103A33F0004001D102207047A0F5D4
:1049F8000003B3F1FE4F01D204207047054B421E5D
:104A08009A4201D803207047A0F1FF40B0FA80F025
:104A180040097047FEFF7F0001460020024603461A
:104A280000F0EEBA38B5084B084DED1AAC1018BFB7
:104A3800ED1805D0013C55F8043D9847002CF9D1F4
:104A4800BDE8384001F006BD8064000884640008B1
:104A580070B50F4E0F4D761BB61018BF002405D049
:104A6800013455F8043B9847A642F9D10A4E0B4D3C
:104A7800761B01F0E9FCB61018BF002406D00134FB
:104A880055F8043B9847A642F9D170BD70BD00BFE8
:104A98007864000878640008806400087864000876
:104AA800024B0146186800F003B800BF400400201C
:104AB8002DE9F04F01F10B05162D83B0064627D9D5
:104AC80035F0070500F1B680A94200F2B38000F086
:104AD80081FAB5F5FC7F22D2C24FE80807EBC00384
:104AE800DC689C4200F0C8816368E168A56823F02F
:104AF8000303234430465A68E96042F001028D609E
:104B08005A6000F069FA0834204603B0BDE8F08F17
:104B1800102900F28F8000F05DFA1025DCE7680AA2
:104B280000F08F80042800F25481A8093830410031
:104B3800AC4F07EB8101CC68A14206D10CE0002AFA
:104B480080F28280E468A14206D0636823F0030300
:104B58005A1B0F2AF3DD01380130A2493C6901F1E3
:104B6800080E744500F07D81636823F003035A1B27
:104B78000F2A00F36381002AC1F814E0C1F810E09D
:104B880073DAB3F5007F80F03981DB0801EBC308E5
:104B98004FEAA30C4A68D8F80890C4F80890012393
:104BA80003FA0CF31343C4F80C804B60C8F80840B0
:104BB800C9F80C408210012494409C4262D82342D8
:104BC80006D120F003006400234200F10400FAD06B
:104BD80007EBC008C4468146DCF80C309C4507D179
:104BE80041E1002980F25181DB689C4500F03B815E
:104BF8005A6822F00302511B0F29F2DD1C46D3F834
:104C08000CC054F8088F5A1945F0010941F0010504
:104C1800C3F804903046C8F80CC0CCF808807A6114
:104C28003A61C2F80CE0C2F808E05560515000F053
:104C3800D3F969E700240C232046336003B0BDE8AC
:104C4800F08F7E213F2073E72344E1685A68A56806
:104C580042F00102E96030468D605A6000F0BCF90C
:104C68000834204603B0BDE8F08F234430465A6824
:104C780042F001025A6000F0AFF90834204603B050
:104C8800BDE8F08FBC68636823F00308454504D885
:104C9800C5EB08030F2B00F38C80534BDFF858A1AA
:104CA8001A68DAF8003001332A4404EB080B00F0E4
:104CB800508102F580520F3222F47F6222F00F02F7
:104CC80011463046019200F089F9B0F1FF3F814664
:104CD800019A00F04781834500F2EE80434B196842
:104CE800CB451144196000F04281DAF80000DFF882
:104CF80008E101301BBFCBEB090B5944CEF80090FB
:104D0800196019F0070100F00781C1F10800C1F529
:104D18008051814408314A44C2F30B02C2EB010AB4
:104D280051463046019300F059F9431C019B00F0AD
:104D38002C81C9EB0002524442F001021968C7F8FD
:104D480008905144BC42C9F804201960DFF89CA0BF
:104D580016D0B8F10F0F40F2EE806268A8F10C038C
:104D680023F00703E01802F001024FF0050E1A4382
:104D78000F2B6260C0F804E0C0F808E000F2098177
:104D88001B4BBC681A68914288BF1960194B1A6896
:104D98009142626888BF196022F003029542A2EB33
:104DA800050301D80F2B04DC304600F015F9002468
:104DB800AAE6621943F0010345F001056560304633
:104DC800BA60536000F008F90834204603B0BDE823
:104DD800F08F142868D9542800F29780280B6E3079
:104DE8004100A5E644040020080900200C09002021
:104DF8000409002000090020500800205A0A042A4B
:104E080055D9142A00F2A7805B324FEA420C07EB0F
:104E18008C0CDFF8BC81DCF8081061457FD04A684B
:104E280022F00302934202D289688C45F7D1CA68FE
:104E38007B68E260A1609460CC60BBE6631942F0D5
:104E4800010745F00105656030464B610B61C3F809
:104E58000CE0C3F808E05F609A50083400F0BCF832
:104E680052E64B68A6E609F1010919F0030F0CF1A7
:104E7800080C7FF4B1AE2CE004F108036469A34286
:104E880008BF02303FF469AE2EE61A441C4651684A
:104E9800DB6854F8085F41F0010151603046EB606F
:104EA8009D6000F099F82FE65B30410040E69A09D2
:104EB80038324FEA420CAAE7BC42454B3FF40EAFEA
:104EC8009C68626822F0030268E7D8F80080984579
:104ED8007CD110F0030FA8F1080300F1FF30F4D1E2
:104EE8007B6823EA04037B6064009C423FF6CAAEF9
:104EF800002C3FF4C7AE234248467FF469AE6400F5
:104F0800234200F10400FAD062E6B0F5AA7F18D86F
:104F1800E80B773041000BE64FF48051FBE6D8F8F8
:104F2800043092104FF0010C0CFA02F21343C8F847
:104F380004300A467DE70123C9F804304C460022B4
:104F48002CE740F2545398421CD8A80C7C304100FE
:104F5800EEE51032B4E6542A23D81A0B6E324FEA23
:104F6800420C54E7BC68626822F0030216E7CBF3F0
:104F78000B0000287FF4B9AE4244BB6842F001023E
:104F88005A60FDE6FC217E20D2E501224FF0000A9E
:104F9800D4E604F10801304600F0DCF8DAF8001035
:104FA800EEE6B2F5AA7F04D8DA0B77324FEA420C64
:104FB8002DE740F254518A4204D89A0C7C324FEAC9
:104FC800420C24E74FF0FC0C7E2220E77B688BE73D
:104FD80044040020704700BF704700BF38B5074C35
:104FE8000023054608462360FDF764F8431C00D0FB
:104FF80038BD2368002BFBD02B6038BDDC090020AE
:105008002DE9F047254C2568D5F8484106468846DD
:1050180092469946CCB360681F2818DC431C7EB1C1
:1050280004EB80050121C5F888A0D4F8887101FA3D
:1050380000F21743022EC4F88871C5F808911ED0F3
:105048000230636044F820800020BDE8F087144BEC
:1050580003B34FF4C870FFF723FD0446D0B1D5F869
:105068004831002780E88800C5F8484138460123C0
:10507800C4F88871C4F88C71002EE1D0D0E7D4F858
:105088008C110A43C4F88C21DAE705F5A674C5F833
:105098004841C0E74FF0FF30BDE8F0874C64000896
:1050A800A94A0008024B13B10248FFF7B5BC704784
:1050B800000000002D4A0008F8B5234F0C460646AC
:1050C800FFF788FFBB685D6825F00305291B01F61B
:1050D800EF7121F47F6121F00F01A1F58054B4F53F
:1050E800805F07DB30460021FFF778FFBB682B4461
:1050F800984204D03046FFF76FFF0020F8BD3046D5
:105108006142FFF76BFF01300DD0104BBA68196888
:105118002D1B45F001053046091B55601960FFF746
:105128005BFF0120F8BD30460021FFF757FFBA6842
:10513800831A0F2BDEDD064C0449246843F0010373
:10514800001B53600860D5E7440400200C090020C8
:105158005008002000294ED02DE9F0410C46804629
:10516800FFF738FF54F8047C624927F00102A4F1E4
:105178000805AB188E6858689E4220F003005AD084
:10518800FE0758600BD454F8087CED1B01F1080E9B
:10519800AC6874453A4467D0EF68E760BC601C1897
:1051A8006468E4070CD4544F9C68BC4202447CD029
:1051B800D868E06042F0010384606B60AA5003E0A5
:1051C80042F001036B60AA50B2F5007F14D2D208F6
:1051D80001EBC20348689F68AF609210012404FA8B
:1051E80002F21043EB6048609D60FD604046BDE8F8
:1051F800F041FFF7F1BE7047530A042B47D89309D3
:1052080003F13804600001EB80003A498368834267
:1052180043D0596821F00301914202D99B68984212
:10522800F7D1DA68EA60AB6040469560DD60BDE8BA
:10523800F041FFF7D1BEFF07024407D454F8083CF9
:10524800ED1A1A44A868EB68C36098602B4B1B687A
:1052580042F001009A4268608D60C7D3284B4046EF
:105268001968FFF729FFC1E719184968C90709D460
:10527800D9689B68024442F00100D9608B6068607D
:10528800AA50B3E742F001036B60AA50AEE7142BB3
:1052980014D803F15B046000B5E74A68A410012044
:1052A800A04002434A601A46BCE742F001034D6140
:1052B8000D61EC60AC606B60AA5097E7542B04D882
:1052C800130B03F16E0460009DE7B3F5AA7F04D8C1
:1052D800D30B03F17704600095E740F25450834202
:1052E80004D8930C03F17C0460008CE7FC207E2436
:1052F80089E700BF440400204C0400204C0800202B
:10530800080900200D0A0D0A4552524F523A2075DD
:105318006E657870656374656420696E7465727211
:1053280075707420647572696E67206173796E6335
:1053380020726563656976650D0A0000737461679C
:10534800653D00000D0A6576656E74733D30780022
:105358000D0A00000D0A0D0A4552524F523A2075A7
:105368006E657870656374656420444D4120696E8C
:10537800746572727570740D0A0000002054433D04
:10538800000000002048543D000000002054453D26
:105398000000000020444D453D0000002046453DEA
:1053A800000000000A54494D4509414E474C455FED
:1053B8005809414E474C455F5909414343454C5FA5
:1053C8005809414343454C5F5909414343454C5FA4
:1053D8005A0900004759524F5F58094759524F5FC1
:1053E80059094759524F5F5A0A0000005354414225
:1053F800494C4954590A00002C0000000A000000DA
:105408000000003F5C8F023FB81E053F14AE073F07
:1054180014AE073F713D0A3FCDCC0C3F295C0F3FCE
:1054280085EB113FE17A143F3D0A173F9A99193FDE
:105438009A99193FF6281C3F52B81E3FAE47213FA4
:105448000AD7233F6666263F6666263FC3F5283F90
:105458001F852B3F7B142E3FD7A3303F3333333F79
:105468003333333F8FC2353FEC51383F48E13A3F41
:1054780048E13A3FA4703D3F0000403F5C8F423F07
:105488005C8F423FB81E453F14AE473F713D4A3FCF
:10549800713D4A3FCDCC4C3F295C4F3F295C4F3F83
:1054A80085EB513FE17A543FE17A543F3D0A573F3B
:1054B8009A99593F9A99593FF6285C3F52B85E3FEE
:1054C80052B85E3FAE47613FAE47613F0AD7633F80
:1054D8000AD7633F6666663F6666663FC3F5683F00
:1054E800C3F5683F1F856B3F1F856B3F7B146E3F7D
:1054F8007B146E3FD7A3703FD7A3703F3333733FFE
:105508003333733F3333733F8FC2753F8FC2753F59
:105518008FC2753FEC51783FEC51783FEC51783FA2
:1055280048E17A3F48E17A3F48E17A3F48E17A3FEB
:10553800A4707D3FA4707D3FA4707D3FA4707D3F23
:10554800A4707D3FA4707D3F0000803F0000803F35
:105558000000803F0000803F0000803F0000803F47
:105568000000803F0000803F0000803F0000803F37
:105578000000803F0000803F0000803F0000803F27
:105588000000803F0000803F0000803FA4707D3F06
:10559800A4707D3FA4707D3FA4707D3FA4707D3FC3
:1055A800A4707D3F48E17A3F48E17A3F48E17A3F7D
:1055B80048E17A3FEC51783FEC51783FEC51783F25
:1055C8008FC2753F8FC2753F8FC2753F3333733FAC
:1055D8003333733F3333733FD7A3703FD7A3703F41
:1055E8007B146E3F7B146E3F1F856B3F1F856B3F9F
:1055F800C3F5683FC3F5683F6666663F6666663F03
:105608000AD7633F0AD7633FAE47613FAE47613F62
:1056180052B85E3F52B85E3FF6285C3F9A99593FB0
:105628009A99593F3D0A573FE17A543FE17A543FEE
:1056380085EB513F295C4F3F295C4F3FCDCC4C3F18
:10564800713D4A3F713D4A3F14AE473FB81E453F42
:105658005C8F423F5C8F423F0000403FA4703D3F5B
:1056680048E13A3F48E13A3FEC51383F8FC2353F75
:105678003333333F3333333FD7A3303F7B142E3F8D
:105688001F852B3FC3F5283F6666263F6666263F83
:105698000AD7233FAE47213F52B81E3FF6281C3F8A
:1056A8009A99193F9A99193F3D0A173FE17A143F91
:1056B80085EB113F295C0F3FCDCC0C3F713D0A3F74
:1056C80014AE073F14AE073FB81E053F5C8F023F7C
:1056D8000000003F48E1FA3E8FC2F53ED7A3F03EF6
:1056E800D7A3F03E1F85EB3E6666E63EAE47E13E39
:1056F800F628DC3E3D0AD73E85EBD13ECDCCCC3EEC
:10570800CDCCCC3E14AEC73E5C8FC23EA470BD3E2D
:10571800EC51B83E3333B33E3333B33E7B14AE3E25
:10572800C3F5A83E0AD7A33E52B89E3E9A99993E21
:105738009A99993EE17A943E295C8F3E713D8A3E62
:10574800713D8A3EB81E853E0000803E8FC2753E80
:105758008FC2753E1F856B3EAE47613E3D0A573E80
:105768003D0A573ECDCC4C3E5C8F423E5C8F423E5C
:10577800EC51383E7B142E3E7B142E3E0AD7233E36
:105788009A99193E9A99193E295C0F3EB81E053E12
:10579800B81E053E8FC2F53D8FC2F53DAE47E13DCF
:1057A800AE47E13DCDCCCC3DCDCCCC3DEC51B83D68
:1057B800EC51B83D0AD7A33D0AD7A33D295C8F3DDC
:1057C800295C8F3D8FC2753D8FC2753DCDCC4C3D58
:1057D800CDCC4C3DCDCC4C3D0AD7233D0AD7233DFB
:1057E8000AD7233D8FC2F53C8FC2F53C8FC2F53CEA
:1057F8000AD7A33C0AD7A33C0AD7A33C0AD7A33CA1
:105808000AD7233C0AD7233C0AD7233C0AD7233C90
:105818000AD7233C0AD7233C000000000000000000
:105828000000000000000000000000000000000070
:105838000000000000000000000000000000000060
:105848000000000000000000000000000000000050
:105858000000000000000000000000000AD7233C00
:105868000AD7233C0AD7233C0AD7233C0AD7233C30
:105878000AD7233C0AD7A33C0AD7A33C0AD7A33CA0
:105888000AD7A33C8FC2F53C8FC2F53C8FC2F53CCA
:105898000AD7233D0AD7233D0AD7233DCDCC4C3D1B
:1058A800CDCC4C3DCDCC4C3D8FC2753D8FC2753DA6
:1058B800295C8F3D295C8F3D0AD7A33D0AD7A33DBC
:1058C800EC51B83DEC51B83DCDCCCC3DCDCCCC3D28
:1058D800AE47E13DAE47E13D8FC2F53D8FC2F53D94
:1058E800B81E053EB81E053E295C0F3E9A99193E22
:1058F8009A99193E0AD7233E7B142E3E7B142E3EDE
:10590800EC51383E5C8F423E5C8F423ECDCC4C3EE3
:105918003D0A573E3D0A573EAE47613E1F856B3EE6
:105928008FC2753E8FC2753E0000803EB81E853E10
:10593800713D8A3E713D8A3E295C8F3EE17A943EF4
:105948009A99993E9A99993E52B89E3E0AD7A33E93
:10595800C3F5A83E7B14AE3E3333B33E3333B33E78
:10596800EC51B83EA470BD3E5C8FC23E14AEC73E3B
:10597800CDCCCC3ECDCCCC3E85EBD13E3D0AD73EFE
:10598800F628DC3EAE47E13E6666E63E1F85EB3E06
:10599800D7A3F03ED7A3F03E8FC2F53E48E1FA3ECA
:1059A80000000000C941303C913CB03CE726043D72
:1059B800B427303D1A1E5C3DC203843DB3F0993DC7
:1059C8009AD4AF3D37AEC53D4C7CDB3D9F3DF13DA4
:1059D8007D78033E974A0E3E8614193EB9D5233E7C
:1059E8009F8D2E3EAB3B393E53DF433E10784E3EF3
:1059F8006005593EC486633EBEFB6D3ED863783E63
:105A08004E5F813EC3C3833EB726863E2588883EC7
:105A180007E88A3E5A468D3E16A38F3E38FE913ED1
:105A2800BB57943E99AF963ECF05993E575A9B3E39
:105A38002DAD9D3E4DFE9F3EB24DA23E589BA43ECD
:105A48003BE7A63E5731A93EA979AB3E2BC0AD3EF8
:105A5800DB04B03EB547B23EB688B43ED9C7B63EC1
:105A68001D05B93EDAEDBA3E33D5BC3E27BBBE3E76
:105A7800B49FC03ED782C23E8F64C43EDB44C63E5C
:105A8800B823C83E2501CA3E21DDCB3EA9B7CD3E8D
:105A9800BD90CF3E5B68D13E813ED33E2F13D53EAD
:105AA80062E6D63E1AB8D83E5688DA3E1457DC3E2F
:105AB8005424DE3E13F0DF3E52BAE13E0F83E33E4C
:105AC8004A4AE53EE1F7E63E1CA4E83EFA4EEA3EC5
