:020000040800F2
:1000000000000220115F0008373E0008453E00084E
:100010004B3E0008513E0008573E0008000000001B
:100020000000000000000000000000006947000818
:100030005D3E0008000000008D470008F147000801
:10004000615F0008615F0008615F0008615F000890
:10005000615F0008615F0008615F0008615F000880
:10006000615F0008615F0008615F0008B30B000872
:10007000615F0008615F0008615F0008615F000860
:10008000615F0008615F0008615F0008615F000850
:10009000615F0008615F0008615F0008615F000840
:1000A000615F00084B390008615F0008615F00086C
:1000B00013390008615F0008615F00085B0B0008EE
:1000C000990B0008615F0008615F0008615F00082C
:1000D000615F0008615F0008615F0008615F000800
:1000E000615F0008615F0008615F0008615F0008F0
:1000F000D1390008615F0008615F0008615F000896
:10010000615F0008615F0008615F0008615F0008CF
:10011000615F0008615F0008615F00088B390008BB
:10012000615F0008615F0008615F0008615F0008AF
:10013000615F0008615F0008615F0008615F00089F
:10014000615F0008615F0008615F0008615F00088F
:10015000615F0008615F0008615F0008615F00087F
:10016000615F0008615F0008615F0008615F00086F
:10017000615F0008615F0008615F00080000000027
:08018000615F0008615F0008E7
:1001880081F0004102E000BF83F0004330B54FEA40
:1001980041044FEA430594EA050F08BF90EA020FAD
:1001A8001FBF54EA000C55EA020C7FEA645C7FEA40
:1001B800655C00F0E2804FEA5454D4EB5555B8BF63
:1001C8006D420CDD2C4480EA020281EA030382EAD4
:1001D800000083EA010180EA020281EA0303362D66
:1001E80088BF30BD11F0004F4FEA01314FF4801C39
:1001F8004CEA113102D0404261EB410113F0004F4B
:100208004FEA03334CEA133302D0524263EB430301
:1002180094EA050F00F0A780A4F10104D5F1200E9F
:100228000DDB02FA0EFC22FA05F2801841F10001FA
:1002380003FA0EF2801843FA05F359410EE0A5F1CE
:1002480020050EF1200E012A03FA0EFC28BF4CF0FF
:10025800020C43FA05F3C01851EBE37101F00045B5
:1002680007D54FF0000EDCF1000C7EEB00006EEBC2
:100278000101B1F5801F1BD3B1F5001F0CD349084C
:100288005FEA30004FEA3C0C04F101044FEA4452A3
:1002980012F5800F80F09A80BCF1004F08BF5FEA2A
:1002A800500C50F1000041EB045141EA050130BD0A
:1002B8005FEA4C0C404141EB010111F4801FA4F1AD
:1002C8000104E9D191F0000F04BF01460020B1FA02
:1002D80081F308BF2033A3F10B03B3F120020CDA3A
:1002E8000C3208DD02F1140CC2F10C0201FA0CF018
:1002F80021FA02F10CE002F11402D8BFC2F1200C7D
:1003080001FA02F120FA0CFCDCBF41EA0C01904032
:10031800E41AA2BF01EB0451294330BD6FEA04047B
:100328001F3C1CDA0C340EDC04F11404C4F1200266
:1003380020FA04F001FA02F340EA030021FA04F378
:1003480045EA030130BDC4F10C04C4F1200220FACF
:1003580002F001FA04F340EA0300294630BD21FA0D
:1003680004F0294630BD94F0000F83F4801306BFD3
:1003780081F480110134013D4EE77FEA645C18BFC7
:100388007FEA655C29D094EA050F08BF90EA020F5E
:1003980005D054EA000C04BF1946104630BD91EA56
:1003A800030F1EBF0021002030BD5FEA545C05D159
:1003B8004000494128BF41F0004130BD14F5800498
:1003C8003CBF01F5801130BD01F0004545F0FE410C
:1003D80041F470014FF0000030BD7FEA645C1ABF41
:1003E800194610467FEA655C1CBF0B46024650EA78
:1003F800013406BF52EA033591EA030F41F40021A4
:1004080030BD00BF90F0000F04BF0021704730B529
:100418004FF4806404F132044FF000054FF00001FE
:1004280050E700BF90F0000F04BF0021704730B5BF
:100438004FF4806404F1320410F0004548BF404294
:100448004FF000013EE700BF42004FEAE2014FEAE9
:1004580031014FEA02701FBF12F07F4393F07F4FC4
:1004680081F06051704732F07F4208BF704793F0C7
:100478007F4F04BF41F40021704730B54FF46074DA
:1004880001F0004521F000411CE700BF50EA0102DD
:1004980008BF704730B54FF000050AE050EA010286
:1004A80008BF704730B511F0004502D5404261EBF6
:1004B80041014FF4806404F132045FEA915C3FF437
:1004C800D8AE4FF003025FEADC0C18BF03325FEAD4
:1004D800DC0C18BF033202EBDC02C2F1200300FA85
:1004E80003FC20FA02F001FA03FE40EA0E0021FAAA
:1004F80002F11444BDE600BF70B54FF0FF0C4CF498
:10050800E06C1CEA11541DBF1CEA135594EA0C0F49
:1005180095EA0C0F00F0DEF82C4481EA030621EA84
:100528004C5123EA4C5350EA013518BF52EA0335BF
:1005380041F4801143F4801338D0A0FB02CE4FF071
:100548000005E1FB02E506F00042E0FB03E54FF0A1
:100558000006E1FB03569CF0000F18BF4EF0010E99
:10056800A4F1FF04B6F5007F64F5407404D25FEA95
:100578004E0E6D4146EB060642EAC62141EA555148
:100588004FEAC52040EA5E504FEACE2EB4F1FD0C8A
:1005980088BFBCF5E06F1ED8BEF1004F08BF5FEA08
:1005A800500E50F1000041EB045170BD06F00046BA
:1005B80046EA010140EA020081EA0301B4EB5C0467
:1005C800C2BFD4EB0C0541EA045170BD41F480115F
:1005D8004FF0000E013C00F3AB8014F1360FDEBF84
:1005E800002001F0004170BDC4F10004203C35DA60
:1005F8000C341BDC04F11404C4F1200500FA05F3E3
:1006080020FA04F001FA05F240EA020001F0004283
:1006180021F0004110EBD37021FA04F642EB0601F9
:100628005EEA430E08BF20EAD37070BDC4F10C0423
:10063800C4F1200500FA04F320FA05F001FA04F2E7
:1006480040EA020001F0004110EBD37041F10001D3
:100658005EEA430E08BF20EAD37070BDC4F12005DE
:1006680000FA05F24EEA020E20FA04F301FA05F246
:1006780043EA020321FA04F001F0004121FA04F2EE
:1006880020EA020000EBD3705EEA430E08BF20EABE
:10069800D37070BD94F0000F0FD101F000464000F8
:1006A80041EB010111F4801F08BF013CF7D041EA7A
:1006B800060195F0000F18BF704703F0004652007E
:1006C80043EB030313F4801F08BF013DF7D043EA4F
:1006D8000603704794EA0C0F0CEA135518BF95EA05
:1006E8000C0F0CD050EA410618BF52EA4306D1D18C
:1006F80081EA030101F000414FF0000070BD50EAAB
:10070800410606BF1046194652EA430619D094EA34
:100718000C0F02D150EA013613D195EA0C0F05D11E
:1007280052EA03361CBF104619460AD181EA030172
:1007380001F0004141F0FE4141F470014FF000002A
:1007480070BD41F0FE4141F4780170BD70B54FF0C5
:10075800FF0C4CF4E06C1CEA11541DBF1CEA135545
:1007680094EA0C0F95EA0C0F00F0A7F8A4EB050427
:1007780081EA030E52EA03354FEA013100F088801E
:100788004FEA03334FF0805545EA131343EA1263E7
:100798004FEA022245EA111545EA10654FEA00269C
:1007A8000EF000419D4208BF964244F1FD0404F555
:1007B800407402D25B084FEA3202B61A65EB0305B1
:1007C8005B084FEA32024FF480104FF4002CB6EB6E
:1007D800020E75EB030E22BFB61A754640EA0C00EE
:1007E8005B084FEA3202B6EB020E75EB030E22BF2E
:1007F800B61A754640EA5C005B084FEA3202B6EB6F
:10080800020E75EB030E22BFB61A754640EA9C002D
:100818005B084FEA3202B6EB020E75EB030E22BFFD
:10082800B61A754640EADC0055EA060E18D04FEABB
:10083800051545EA16754FEA06164FEAC30343EA5B
:1008480052734FEAC2025FEA1C1CC0D111F4801F28
:100858000BD141EA00014FF000004FF0004CB6E721
:1008680011F4801F04BF01430020B4F1FD0C88BFC0
:10087800BCF5E06F3FF6AFAEB5EB030C04BFB6EBCB
:10088800020C5FEA500C50F1000041EB045170BDBE
:100898000EF0004E4EEA113114EB5C04C2BFD4EBEB
:1008A8000C0541EA045170BD41F480114FF0000E6F
:1008B800013C90E645EA060E8DE60CEA135594EAEB
:1008C8000C0F08BF95EA0C0F3FF43BAF94EA0C0FEE
:1008D8000AD150EA01347FF434AF95EA0C0F7FF463
:1008E80025AF104619462CE795EA0C0F06D152EAB7
:1008F80003353FF4FDAE1046194622E750EA41069B
:1009080018BF52EA43067FF4C5AE50EA41047FF4AB
:100918000DAF52EA43057FF4EBAE12E74FEA41020E
:10092800B2F1E04324BFB3F5001CDCF1FE5C0DD945
:1009380001F0004C4FEAC0024CEA5070B2F1004F8F
:1009480040EB830008BF20F00100704711F0804F92
:1009580021D113F13872BCBF01F00040704741F457
:1009680080114FEA5252C2F11802C2F1200C10FA5B
:100978000CF320FA02F018BF40F001004FEAC1233F
:100988004FEAD32303FA0CFC40EA0C0023FA02F3E3
:100998004FEA4303CCE77FEA625307D150EA0133B9
:1009A8001EBF4FF0FE4040F44000704701F0004089
:1009B80040F0FE4040F40000704700BF844641EA22
:1009C800000313F003036DD1403A41D351F8043BBF
:1009D80040F8043B51F8043B40F8043B51F8043B11
:1009E80040F8043B51F8043B40F8043B51F8043B01
:1009F80040F8043B51F8043B40F8043B51F8043BF1
:100A080040F8043B51F8043B40F8043B51F8043BE0
:100A180040F8043B51F8043B40F8043B51F8043BD0
:100A280040F8043B51F8043B40F8043B51F8043BC0
:100A380040F8043B51F8043B40F8043B51F8043BB0
:100A480040F8043B51F8043B40F8043B403ABDD21F
:100A5800303211D351F8043B40F8043B51F8043BC1
:100A680040F8043B51F8043B40F8043B51F8043B80
:100A780040F8043B103AEDD20C3205D351F8043B50
:100A880040F8043B043AF9D2043208D0D2071CBF1C
:100A980011F8013B00F8013B01D30B880380604645
:100AA800704700BF082A13D38B078DD010F00303BB
:100AB8008AD0C3F10403D21ADB071CBF11F8013B2B
:100AC80000F8013B80D331F8023B20F8023B7BE77A
:100AD800043AD9D3013A11F8013B00F8013BF9D2A5
:100AE8000B7803704B7843708B788370604670473F
:100AF80010B5054C227832B9044B13B10448AFF352
:100B080000800123237010BD500800200000000061
:100B1800507A000808B5034B1BB103490348AFF3EB
:100B2800008008BD0000000054080020507A00082A
:100B380080B483B000AF786000E000BF7B685A1EC5
:100B48007A60002BF9D100BF0C37BD465DF8047BF5
:100B5800704780B582B000AF40F6C813C2F20003F8
:100B68001B687B607B68002B02D07B6898470CE091
:100B780021214FF49040C4F2000003F0CFFA44F270
:100B88004020C0F20F00FFF7D3FF0837BD4680BDF5
:100B980080B500AF45214FF49040C4F2000003F047
:100BA800BDFA00F0C8FD00BF80BD80B582B000AFBF
:100BB80040F62C23C2F200031B687B607B68002B85
:100BC80002D07B6898470CE07C214FF49040C4F237
:100BD800000003F0A3FA44F24020C0F20F00FFF730
:100BE800A7FF0837BD4680BD80B596B000AF01218C
:100BF8004FF4001004F097FF0121022004F06AFF6F
:100C080001214FF4001004F0E0FF00214FF4001020
:100C180004F0DBFF01214FF4001004F05BFF4FF4F8
:100C2800C0733B65022387F85430022387F8553098
:100C3800012387F85630012387F8573007F150030E
:100C480019464FF48060C4F2020003F0F1FD04225B
:100C580008214FF48060C4F2020003F077FE0422FA
:100C680007214FF48060C4F2020003F06FFE3D21BB
:100C7800C1F2800146F21000C4F2020004F029FB20
:100C8800002146F21000C4F2020004F006FB46F20E
:100C98001000C4F2020004F091F94FF000733B60B9
:100CA80045F21043C4F200037B6000237B614FF4DC
:100CB8008063BB610023FB6100233B6200237B62EE
:100CC8004FF48033BB620423FB6203233B6300239E
:100CD8007B630023BB630023FB6040F6AC13C2F2C6
:100CE8000003BB600E233B6146F21000C4F2020011
:100CF80004F064F93B46194646F21000C4F20200BB
:100D080004F073FA4FF4D453C0F206033B64002393
:100D1800A7F844304BF6FF73A7F846300023A7F82E
:100D280048300023A7F84A304FF48043A7F84C30E6
:100D380007F1400319464FF4A840C4F2000004F03C
:100D4800BEFB00224FF4E0614FF4A840C4F200005B
:100D580004F077FD4FF4407004F060FF1F2387F81C
:100D68003C300A2387F83D30002387F83E300123C2
:100D780087F83F3007F13C03184604F063FF20234F
:100D880087F83C300A2387F83D30002387F83E3047
:100D9800012387F83F3007F13C03184604F052FF5F
:100DA8000022102146F21000C4F2020004F0C2FA38
:100DB8000B2387F83C300A2387F83D30002387F857
:100DC8003E30012387F83F3007F13C03184604F012
:100DD80039FF0122102146F21000C4F2020004F08B
:100DE800A9FA01214FF4A840C4F2000004F02DFC38
:100DF80000BF5837BD4680BD80B586B000AF0346FA
:100E0800B9607A60FB7301214FF4A840C4F2000076
:100E180004F03BFC00BF0121C0F203014FF4A840DD
:100E2800C4F2000004F031FD0346002BF3D0002289
:100E3800D0214FF4A840C4F2000004F066FC00BFC3
:100E48008221C0F207014FF4A840C4F2000004F068
:100E58001CFD0346002BF3D0FB7B19464FF4A8403A
:100E6800C4F2000004F08FFC00BF8421C0F2070127
:100E78004FF4A840C4F2000004F007FD0346002B1D
:100E8800F3D001214FF4A840C4F2000004F0FDFBA8
:100E980000BF0121C0F203014FF4A840C4F20000D2
:100EA80004F0F3FC0346002BF3D00122D0214FF4C9
:100EB800A840C4F2000004F028FC00BF0221C0F2E0
:100EC80003014FF4A840C4F2000004F0DEFC03461E
:100ED800002BF3D07B68012B2ED901214FF4A840B9
:100EE800C4F2000004F02FFC26E07B68012B06D139
:100EF80000214FF4A840C4F2000004F024FC00BF15
:100F08004021C0F203014FF4A840C4F2000004F0ED
:100F1800BCFC0346002BF3D04FF4A840C4F20000F9
:100F280004F041FC0346FB75BB685A1CBA60FA7DA5
:100F38001A707B68013B7B607B68002BD5D101214F
:100F48004FF4A840C4F2000004F0BFFB00BF1837FC
:100F5800BD4680BD80B582B000AF4FF4A840C4F252
:100F6800000004F0C2FC786040F63423C2F20003AB
:100F78001B683B607B6803F00203002B19D03B68B9
:100F8800012B0CD140F6DC13C2F200031B78194682
:100F98004FF4A840C4F2000004F0F5FBB3E00022CF
:100FA8004FF4C0614FF4A840C4F2000004F049FCBB
:100FB800A9E03B68012B51D17B6803F00403002BA7
:100FC8004CD040F63423C2F2000302221A600121F9
:100FD8004FF4A840C4F2000004F057FB00BF4FF4E0
:100FE800A840C4F2000004F080FC034603F00103AB
:100FF800002BF4D00122D0214FF4A840C4F2000005
:1010080004F083FB40F63C13C2F200031B68012B7B
:101018000ED901214FF4A840C4F2000004F093FB5C
:1010280001214FF4A840C4F2000004F0EAFB06E0F6
:1010380000214FF4A840C4F2000004F084FB012111
:101048004FF4A840C4F2000004F0BBFB012146F2B3
:101058001000C4F2020004F020F954E07B6823F485
:101068004033002B4ED046F66411C0F600014FF411
:101078009040C4F2000003F068F846F69C11C0F6F0
:1010880000014FF49040C4F2000003F05EF83B68A2
:10109800DBB219464FF49040C4F2000003F083F825
:1010A80046F6A411C0F600014FF49040C4F20000C7
:1010B80003F04BF87B681B0CDBB219464FF49040E9
:1010C800C4F2000003F06FF87B681B0ADBB2194614
:1010D8004FF49040C4F2000003F065F87B68DBB27F
:1010E80019464FF49040C4F2000003F05CF846F64D
:1010F800B011C0F600014FF49040C4F2000003F0B4
:1011080024F8FEE700BF0837BD4680BD80B500AFB4
:1011180048F22001C1F2000146F21000C4F20200B8
:1011280004F042F90346002B3FD048F22001C1F2F7
:10113800000146F21000C4F2020004F08FF9002208
:101148004FF4E0614FF4A840C4F2000004F079FBCA
:1011580000214FF4A840C4F2000004F032FB002143
:1011680046F21000C4F2020004F097F801214FF48F
:10117800A840C4F2000004F0A8FA40F69423C2F292
:101188000003186840F63C13C2F200031B681A46B5
:1011980040F6AC11C2F20001FFF710FC40F6342310
:1011A800C2F2000303221A60B6E046F6B411C0F694
:1011B80000014FF49040C4F2000002F0C6FF46F66A
:1011C8009C11C0F600014FF49040C4F2000002F0F8
:1011D800BCFF40F63423C2F200031B68DBB2194699
:1011E8004FF49040C4F2000002F0DDFF46F6DC1137
:1011F800C0F600014FF49040C4F2000002F0A5FFD1
:1012080048F22001C1F2000146F21000C4F20200C7
:1012180004F0CAF8034619464FF49040C4F200009F
:1012280002F0C1FF46F6E411C0F600014FF4904009
:10123800C4F2000002F089FF44F21001C1F200017B
:1012480046F21000C4F2020004F0AEF80346194654
:101258004FF49040C4F2000002F0A5FF46F6EC11EE
:10126800C0F600014FF49040C4F2000002F06DFF98
:1012780042F20801C1F2000146F21000C4F2020075
:1012880004F092F8034619464FF49040C4F2000067
:1012980002F089FF46F6F411C0F600014FF49040C1
:1012A800C4F2000002F051FF41F20401C1F2000152
:1012B80046F21000C4F2020004F076F8034619461C
:1012C8004FF49040C4F2000002F06DFF46F6FC11A6
:1012D800C0F600014FF49040C4F2000002F035FF60
:1012E8000121C9F2000146F21000C4F2020004F024
:1012F8005BF8034619464FF49040C4F2000002F030
:1013080052FF46F6B011C0F600014FF49040C4F207
:10131800000002F01AFFFEE780BD80B584B000AF80
:101328000346B9607A60FB7340F62C23C2F20003CF
:1013380041F21512C0F600021A6040F6C813C2F254
:10134800000340F65D72C0F600021A6040F6DC1336
:10135800C2F20003FA7B1A7040F69423C2F200032B
:10136800BA681A6040F63C13C2F200037A681A6041
:1013780040F63423C2F2000301221A6001214FF41F
:10138800A840C4F2000004F080F900BF4FF4A84060
:10139800C4F2000004F0A9FA034603F00103002B8D
:1013A800F4D00022D0214FF4A840C4F2000004F089
:1013B800ACF901224FF440714FF4A840C4F2000088
:1013C80004F03FFA00BF1037BD4680BD80B584B039
:1013D80000AF0346FB7107F10F01FB7901221846A4
:1013E800FFF70AFDFB7B18461037BD4680BD80B568
:1013F80082B000AF03460A46FB711346BB71012158
:101408004FF4A840C4F2000004F03FF900BF0121E6
:10141800C0F203014FF4A840C4F2000004F035FA0A
:101428000346002BF3D00022D0214FF4A840C4F289
:10143800000004F06AF900BF8221C0F207014FF4EE
:10144800A840C4F2000004F020FA0346002BF3D0B1
:10145800FB7919464FF4A840C4F2000004F093F950
:1014680000BF8421C0F207014FF4A840C4F2000075
:1014780004F00BFA0346002BF3D0BB7919464FF45E
:10148800A840C4F2000004F07EF900BF8421C0F235
:1014980007014FF4A840C4F2000004F0F6F903462F
:1014A800002BF3D001214FF4A840C4F2000004F04F
:1014B8000CF900BF0837BD4680BD80B582B000AFCB
:1014C80002216B20FFF793FF49F2E030C0F20400DD
:1014D800FFF72EFB6B20FFF779FF0346FB71FB79C3
:1014E800022B44D182216B20FFF781FF49F2E030C3
:1014F800C0F20400FFF71CFB6B20FFF767FF0346F1
:10150800FB71FB79402B34D102216B20FFF76FFF71
:1015180049F2E030C0F20400FFF70AFB6B20FFF746
:1015280055FF0346FB71FB79022B24D102211A20B7
:10153800FFF75DFF07211920FFF759FF18211B202E
:10154800FFF755FF18211C20FFF751FFF821232032
:10155800FFF74DFF20213720FFF749FF11213820E1
:10156800FFF745FF00216A20FFF741FF05E000BFB4
:10157800A6E700BFA4E700BFA2E700BF0837BD4643
:1015880080BD80B485B000AF03460A46FB711346A0
:10159800BB71FB791B021AB2BB791BB213431BB296
:1015A800FB81B7F90E3018461437BD465DF8047B49
:1015B8007047000080B582B000AF78607B68062B6A
:1015C80000F2928001A252F823F000BFF115000842
:1015D8003116000851160008711600089116000807
:1015E800B1160008D11600080E2240F68021C2F27A
:1015F80000013B20FFF791FE00BF40F63423C2F202
:1016080000031B68032BF8D140F68023C2F20003C5
:101618001A7840F68023C2F200035B781946104618
:10162800FFF7AFFF034660E040F68023C2F20003F5
:101638009A7840F68023C2F20003DB7819461046F8
:10164800FFF79FFF034650E040F68023C2F20003F5
:101658001A7940F68023C2F200035B7919461046D6
:10166800FFF78FFF034640E040F68023C2F20003F5
:101678001A7A40F68023C2F200035B7A19461046B4
:10168800FFF77FFF034630E040F68023C2F20003F5
:101698009A7A40F68023C2F20003DB7A1946104694
:1016A800FFF76FFF034620E040F68023C2F20003F5
:1016B8001A7B40F68023C2F200035B7B1946104672
:1016C800FFF75FFF034610E040F68023C2F20003F5
:1016D8009A7940F68023C2F20003DB791946104656
:1016E800FFF74FFF034600E0002318460837BD46C2
:1016F80080BD00BF80B582B000AF87ED010A3860B9
:10170800D7ED017AF5EEC07AF1EE10FA0ADB97ED23
:10171800010A04F023FCF0EE407A3B68C3ED007A3E
:10172800002304E03B6800221A604FF0FF3318469C
:101738000837BD4680BD80B500AF40F65423C2F2DD
:10174800000300221A6040F67C23C2F200037822CC
:101758001A6040F6CC13C2F20003F0221A6040F679
:101768004413C2F2000300221A6040F6F413C2F2D6
:10177800000378221A6040F6FC23C2F20003F0222C
:101788001A6040F6D813C2F2000300221A6040F62D
:101798000433C2F2000300221A6040F61C23C2F28E
:1017A800000300221A6040F68413C2F200030022EC
:1017B8001A6040F67013C2F2000300221A6040F665
:1017C800F423C2F2000300221A6040F69813C2F212
:1017D800000300221A6040F67413C2F200030022CC
:1017E8001A6040F6E023C2F2000300221A6040F6B5
:1017F800F813C2F2000300221A6040F69023C2F2E6
:10180800000300221A6040F6E023C2F2000300221F
:101818001A6040F6F813C2F2000300221A6040F67C
:101828005413C2F2000300221A6040F6C423C2F225
:10183800000300221A6040F64423C2F2000300228B
:101848001A6040F62423C2F2000300221A6040F610
:10185800F023C2F2000300221A6040F63413C2F2E9
:10186800000300221A6040F63023C2F2000300226F
:101878001A6040F68813C2F2000300221A6040F68C
:101888008C13C2F2000300221A6040F61023C2F241
:1018980000034FF00002C4F220121A6040F6202321
:1018A800C2F2000300221A6040F60C23C2F20003C1
:1018B80000221A6002F044FA024640F65013C2F2BF
:1018C80000031A6040F6E813C2F2000300221A600F
:1018D80000BF80BD80B582B000AF786040F650137D
:1018E800C2F200031B687A68D31A312B40F20381D5
:1018F80040F65013C2F200037A681A6040F650139B
:10190800C2F200031B6807EE903AB8EE677A4FF40C
:101918008043C4F21C6306EE903AC7EE267A40F67E
:10192800E813C2F20003C3ED007A00F0E8F840F6CD
:101938008C13C2F200031B68002B0CD040F6E8138E
:10194800C2F20003D3ED007AB2EE0E7AF4EEC77A53
:10195800F1EE10FA34D840F6E813C2F20003D3EDE2
:10196800007A03220521B0EE670A4FF49040C4F2D2
:10197800000002F0FBFC46F60421C0F600014FF41B
:101988009040C4F2000002F0E0FB40F6C023C2F22F
:101998000003D3ED007A03220321B0EE670A4FF467
:1019A8009040C4F2000002F0E1FC46F60821C0F6BF
:1019B80000014FF49040C4F2000002F0C6FB9AE028
:1019C80040F68C13C2F200031B68012B40F0938091
:1019D80040F6E813C2F20003D3ED007AB2EE0E7AB5
:1019E800F4EEC77AF1EE10FA00DC84E040F6E81372
:1019F800C2F20003D3ED007A03220521B0EE670A94
:101A08004FF49040C4F2000002F0B0FC46F6042106
:101A1800C0F600014FF49040C4F2000002F095FBBC
:101A280040F64423C2F20003D3ED007A03220321D7
:101A3800B0EE670A4FF49040C4F2000002F096FC42
:101A480046F60421C0F600014FF49040C4F20000AD
:101A580002F07BFB40F62423C2F20003D3ED007AA8
:101A680003220321B0EE670A4FF49040C4F200004D
:101A780002F07CFC46F60421C0F600014FF49040C9
:101A8800C4F2000002F061FB0020C4F2010001F082
:101A980049FEF0EE407A03220321B0EE670A4FF4C4
:101AA8009040C4F2000002F061FC46F60421C0F642
:101AB80000014FF49040C4F2000002F046FB4FF4DE
:101AC800A050C4F2000001F02DFEF0EE407A03228F
:101AD8000321B0EE670A4FF49040C4F2000002F010
:101AE80045FC46F60821C0F600014FF49040C4F2C8
:101AF800000002F02AFB00BF0837BD4680BD80B554
:101B080000AF0020FFF756FD034607EE903AF8EEC7
:101B1800E77A4FF08A4306EE903A87EEA67A40F6C7
:101B28003013C2F20003D3ED007A77EE677A40F6FD
:101B38004C13C2F20003C3ED007A0120FFF73AFD0F
:101B4800034607EE903AF8EEE77A4FF08A4306EE3E
:101B5800903A87EEA67A40F67423C2F20003D3EDDA
:101B6800007A77EE677A40F6D013C2F20003C3ED2D
:101B7800007A0220FFF71EFD034607EE903AB8EE02
:101B8800E77A4FF08A4306EE903AC7EE267A40F697
:101B9800C023C2F20003C3ED007A0320FFF70AFD59
:101BA800034607EE903AF8EEE77A43F23333C4F28D
:101BB800831306EE903A87EEA67A40F63413C2F203
:101BC8000003D3ED007A77EE677A40F66423C2F219
:101BD8000003C3ED007A0420FFF7ECFC034607EE90
:101BE800903AF8EEE77A43F23333C4F2831306EE01
:101BF800903A87EEA67A40F63023C2F20003D3ED7E
:101C0800007A77EE677A40F6C413C2F20003C3ED98
:101C1800007A0520FFF7CEFC034607EE903AF8EE6F
:101C2800E77A43F23333C4F2831306EE903A87EE31
:101C3800A67A40F68813C2F20003D3ED007A77EE55
:101C4800677A40F6E823C2F20003C3ED007A062063
:101C5800FFF7B0FC034607EE903AB8EEE77A0023A8
:101C6800C4F2AA3306EE903AC7EE267A41F6B86374
:101C7800C4F2122307EE103A77EE877A40F6A813DB
:101C8800C2F20003C3ED007A40F68C13C2F20003DF
:101C98001B68002B46D140F64C13C2F20003D3ED6B
:101CA800007A40F6D013C2F2000393ED007A40F6B2
:101CB8007421C2F2000140F63010C2F20000F0EECA
:101CC800470AB0EE670A00F0C9FC40F66423C2F286
:101CD8000003D3ED007A40F6C413C2F2000393ED7B
:101CE800007A40F6E823C2F20003D3ED006A40F61A
:101CF8008812C2F2000240F63021C2F2000140F61A
:101D08003410C2F20000B0EE661AF0EE470AB0EEE8
:101D1800670A00F008FD024640F68C13C2F2000381
:101D28001A6062E040F68C13C2F200031B68012BB4
:101D38005BD140F6E813C2F20003D3ED007AB2EEAD
:101D48000E7AF4EEC77AF1EE10FA00DC4DE000F0FE
:101D58004EF800F0E5F840F64423C2F20003D3ED54
:101D6800007A0020C4F201004DF20A73C3F6A333CF
:101D780000EE903AB0EE670A01F0BFF9F0EE407A53
:101D8800B0EE670A0020C4F2010001F0E5FFF0EEB2
:101D9800407A40F62023C2F20003C3ED007A40F6F1
:101DA8002423C2F20003D3ED007A4FF4A050C4F20A
:101DB80000004DF20A73C3F6A33300EE903AB0EE7A
:101DC800670A01F09AF9F0EE407AB0EE670A4FF42C
:101DD800A050C4F2000001F0BFFFF0EE407A40F6D8
:101DE8000C23C2F20003C3ED007A00BF80BD80B5AA
:101DF80082B000AF40F6D013C2F2000393ED007A30
:101E080040F6D013C2F20003D3ED007A27EE277A0A
:101E180040F6C023C2F20003D3ED006A40F6C023A7
:101E2800C2F20003D3ED007A66EEA77A77EE277A3E
:101E38003B1D1846B0EE670AFFF75CFC40F64C13F2
:101E4800C2F2000393ED007AD7ED017AC7EE276A54
:101E5800B0EE660A01F08DFCB0EE407A0023C4F2C1
:101E6800343307EE903A27EE277A40F6DB73C4F254
:101E7800490306EE903AC7EE267A40F65413C2F2AA
:101E88000003C3ED007A40F64C13C2F2000393ED51
:101E9800007A40F64C13C2F20003D3ED007A27EE25
:101EA800277A40F6C023C2F20003D3ED006A40F659
:101EB800C023C2F20003D3ED007A66EEA77A77EE6C
:101EC800277A3B1D1846B0EE670AFFF713FC40F669
:101ED800D013C2F2000393ED007AD7ED017AC7EE72
:101EE800276AB0EE660A01F044FCB0EE407A00239F
:101EF800C4F2343307EE903A27EE277A40F6DB73C4
:101F0800C4F2490306EE903AC7EE267A40F6C42397
:101F1800C2F20003C3ED007A00BF0837BD4680BD9A
:101F280080B500AF40F66423C2F20003D3ED007A17
:101F38004DF20A73C3F6234307EE103A27EE877A69
:101F480040F6AC23C2F20003D3ED007A77EE277A8D
:101F580048F21F53C3F66B7307EE103A27EE877AE1
:101F680040F65413C2F20003D3ED007A4DF20A731F
:101F7800C3F6A35306EE903A67EEA67A77EE277A71
:101F880040F67C13C2F20003C3ED007A40F6C41396
:101F9800C2F20003D3ED007A4DF20A73C3F6A333FD
:101FA80007EE103A27EE877A40F65C13C2F2000378
:101FB800D3ED007A77EE277A45F2EC13C3F67873FF
:101FC80007EE103A27EE877A40F6C423C2F20003E0
:101FD800D3ED007A4CF28F23C3F6F54306EE903A20
:101FE80067EEA67A77EE277A40F69013C2F20003DE
:101FF800C3ED007A40F67C13C2F200031A6840F67B
:10200800AC23C2F200031A6040F69013C2F2000338
:102018001A6840F65C13C2F200031A6040F65413C3
:10202800C2F20003D3ED007A40F6E023C2F20003C7
:1020380093ED007A0020C4F20100F0EE470AB0EEFA
:10204800670A00F0EDFBF0EE407A40F64423C2F256
:102058000003C3ED007A40F6C423C2F20003D3EDB7
:10206800007A40F6F813C2F2000393ED007A4FF4B9
:10207800A050C4F20000F0EE470AB0EE670A00F084
:10208800CFFBF0EE407A40F62423C2F20003C3ED02
:10209800007A00BF80BD80B582B000AF786039603B
:1020A8003A684FF40063C4F200039A4240F0178183
:1020B8007B68012B21D140F65423C2F200031B6830
:1020C8005A1C40F65423C2F200031A6040F67C23DF
:1020D800C2F200031B685A1C40F67C23C2F20003BC
:1020E8001A6040F6CC13C2F200031B685A1C40F673
:1020F800CC13C2F200031A6024E07B68B3F1FF3FFF
:1021080020D140F65423C2F200031B685A1E40F641
:102118005423C2F200031A6040F67C23C2F2000383
:102128001B685A1E40F67C23C2F200031A6040F670
:10213800CC13C2F200031B685A1E40F6CC13C2F23D
:1021480000031A6040F65423C2F200031B68B3F57B
:10215800B47F05DB40F65423C2F2000300221A6064
:1021680040F67C23C2F200031B68B3F5B47F05DB9D
:1021780040F67C23C2F2000300221A6040F6CC131A
:10218800C2F200031B68B3F5B47F05DB40F6CC133D
:10219800C2F2000300221A6040F65423C2F2000380
:1021A8001B68002B06DA40F65423C2F2000340F203
:1021B80067121A6040F67C23C2F200031B68002BEA
:1021C80006DA40F67C23C2F2000340F267121A6076
:1021D80040F6CC13C2F200031B68002B06DA40F667
:1021E800CC13C2F2000340F267121A6040F654237F
:1021F800C2F200031A6846F60C23C0F600039200E8
:102208001344D3ED007A4FF47053C4F2036307EE1E
:10221800103A67EE877A40F6D813C2F20003C3ED8E
:10222800007A40F67C23C2F200031A6846F60C23B3
:10223800C0F6000392001344D3ED007A4FF47053B4
:10224800C4F2036307EE103A67EE877A40F6043368
:10225800C2F20003C3ED007A40F6CC13C2F20003C9
:102268001A6846F60C23C0F6000392001344D3ED17
:10227800007A4FF47053C4F2036307EE103A67EE26
:10228800877A40F61C23C2F20003C3ED007A40F6B9
:10229800D813C2F20003D3ED007AFCEEE77A17EE0A
:1022A800901A386802F0A9FD40F60433C2F2000320
:1022B800D3ED007AFCEEE77A17EE901A386802F050
:1022C800AAFD40F61C23C2F20003D3ED007AFCEE0F
:1022D800E77A17EE901A386802F0ABFD1DE13A680C
:1022E8004FF44063C4F200039A4240F016817B68C1
:1022F800012B21D140F64413C2F200031B685A1C7B
:1023080040F64413C2F200031A6040F6F413C2F216
:1023180000031B685A1C40F6F413C2F200031A604B
:1023280040F6FC23C2F200031B685A1C40F6FC234B
:10233800C2F200031A6024E07B68B3F1FF3F20D1AA
:1023480040F64413C2F200031B685A1E40F64413B9
:10235800C2F200031A6040F6F413C2F200031B68CD
:102368005A1E40F6F413C2F200031A6040F6FC232A
:10237800C2F200031B685A1E40F6FC23C2F2000397
:102388001A6040F64413C2F200031B68B3F5B47F29
:1023980005DB40F64413C2F2000300221A6040F63F
:1023A800F413C2F200031B68B3F5B47F05DB40F6F3
:1023B800F413C2F2000300221A6040F6FC23C2F2B2
:1023C80000031B68B3F5B47F05DB40F6FC23C2F2BB
:1023D800000300221A6040F64413C2F200031B688F
:1023E800002B06DA40F64413C2F2000340F26712EB
:1023F8001A6040F6F413C2F200031B68002B06DAD9
:1024080040F6F413C2F2000340F267121A6040F675
:10241800FC23C2F200031B68002B06DA40F6FC23FB
:10242800C2F2000340F267121A6040F64413C2F287
:1024380000031A6846F60C23C0F600039200134402
:10244800D3ED007A4FF47053C4F2036307EE103AE9
:1024580067EE877A40F68413C2F20003C3ED007A70
:1024680040F6F413C2F200031A6846F60C23C0F6CD
:10247800000392001344D3ED007A4FF47053C4F272
:10248800036307EE103A67EE877A40F67013C2F2DC
:102498000003C3ED007A40F6FC23C2F200031A6879
:1024A80046F60C23C0F6000392001344D3ED007ADD
:1024B8004FF47053C4F2036307EE103A67EE877A5D
:1024C80040F6F423C2F20003C3ED007A40F6841309
:1024D800C2F20003D3ED007AFCEEE77A17EE901A09
:1024E800386802F08AFC40F67013C2F20003D3ED9C
:1024F800007AFCEEE77A17EE901A386802F08BFC47
:1025080040F6F423C2F20003D3ED007AFCEEE77A3A
:1025180017EE901A386802F08CFC00BF0837BD46E9
:1025280080BD80B400AF40F63C23C2F20003002215
:102538001A6040F64C23C2F2000300221A6040F6EB
:102548007023C2F2000300221A6040F6A023C2F2F0
:10255800000300221A6040F69C13C2F20003002216
:102568001A6040F62823C2F2000300221A6040F6DF
:102578006C13C2F2000300221A6040F67823C2F2FC
:10258800000300221A6040F6E423C2F2000300228E
:102598001A6040F64813C2F2000341F26F22C3F6F4
:1025A80083221A6040F6B823C2F2000349F6A63225
:1025B800C3F644321A6040F60423C2F200034CF218
:1025C8008F22C3F6F5421A6040F65023C2F2000388
:1025D80000221A6040F6A013C2F2000300221A601B
:1025E80040F6DC23C2F2000300221A6040F6EC2316
:1025F800C2F2000300221A6040F6F823C2F2000378
:1026080000221A6040F6EC13C2F2000300221A609E
:1026180040F6FC13C2F2000300221A6040F6602361
:10262800C2F2000300221A6040F63823C2F2000307
:1026380000221A6040F64013C2F2000300221A601A
:1026480040F6A823C2F200034DF20A72C3F6A33281
:102658001A6000BFBD465DF8047B704780B485B042
:1026680000AF87ED030AC7ED020A7860396040F6CB
:10267800E423C2F200031B685A1C40F6E423C2F2AA
:1026880000031A6040F67023C2F2000393ED007A4B
:10269800D7ED037A77EE277A40F67023C2F200036B
:1026A800C3ED007A40F6A023C2F2000393ED007A4E
:1026B800D7ED027A77EE277A40F6A023C2F200031C
:1026C800C3ED007A40F6E423C2F200031B68B3F5B9
:1026D800FA6F21D340F67023C2F2000393ED007A1B
:1026E8000023C4F2FA4306EE903AC7EE267A7B68D6
:1026F800C3ED007A40F6A023C2F2000393ED007AFE
:102708000023C4F2FA4306EE903AC7EE267A3B68F5
:10271800C3ED007A012300E0002318461437BD46B4
:102728005DF8047B704780B487B000AF87ED050A79
:10273800C7ED040A87ED031AB86079603A6040F67D
:102748002823C2F2000393ED007AD7ED057A77EEDD
:10275800277A40F62823C2F20003C3ED007A40F638
:102768006C13C2F2000393ED007AD7ED047A77EE8A
:10277800277A40F66C13C2F20003C3ED007A40F6E4
:102788007823C2F2000393ED007AD7ED037A77EE4F
:10279800277A40F67823C2F20003C3ED007A40F6A8
:1027A800E423C2F200031B68B3F5FA6F31D340F695
:1027B8002823C2F2000393ED007A0023C4F2FA43FF
:1027C80006EE903AC7EE267ABB68C3ED007A40F66B
:1027D8006C13C2F2000393ED007A0023C4F2FA43AB
:1027E80006EE903AC7EE267A7B68C3ED007A40F68B
:1027F8007823C2F2000393ED007A0023C4F2FA436F
:1028080006EE903AC7EE267A3B68C3ED007A0123BC
:1028180000E0002318461C37BD465DF8047B70476E
:1028280080B485B000AF87ED030AC7ED020A78606F
:102838007A680023C4F201039A4240F0AA8140F664
:102848005023C2F20003D3ED007A97ED027A37EEF7
:10285800677A40F6A823C2F20003D3ED007A27EE88
:10286800277A40F67813C2F20003D3ED007A77EEA8
:10287800277A40F67813C2F20003C3ED007A40F6D7
:10288800A823C2F2000393ED007A40F6EC13C2F2DB
:102898000003D3ED007A27EE277A40F6F823C2F238
:1028A8000003D3ED007A37EE677A40F6EC23C2F2E4
:1028B8000003D3ED007A37EE677A40F64813C2F288
:1028C8000003D3ED007A37EE277A40F6A823C2F248
:1028D8000003D3ED007A27EE277A40F6DC23C2F214
:1028E8000003D3ED007A77EE277A40F6DC23C2F2B4
:1028F8000003C3ED007A40F6F823C2F2000393ED1B
:10290800007A40F6A823C2F20003D3ED006A40F62D
:10291800EC13C2F20003D3ED007A66EEA77A77EEE5
:10292800677A40F6F823C2F20003C3ED007A40F656
:10293800EC23C2F2000393ED007A40F6A823C2F21A
:102948000003D3ED006A40F6EC13C2F20003D3EDA6
:10295800007A66EEA77A77EE677A40F6EC23C2F241
:102968000003C3ED007A40F6B823C2F2000393EDEA
:10297800007A40F6A823C2F20003D3ED007A27EECE
:10298800277A40F6EC13C2F20003D3ED007A77EE13
:10299800277A40F6EC13C2F20003C3ED007A40F642
:1029A8007813C2F20003D3ED007A97ED037A77EE3D
:1029B800677A40F6F013C2F20003C3ED007A40F6DE
:1029C800DC23C2F2000393ED007A40F60423C2F23E
:1029D8000003D3ED007A77EE277A40F69C23C2F203
:1029E8000003C3ED007A40F6DC23C2F20003D3ED06
:1029F800006A40F69C23C2F2000393ED007AC6EE0B
:102A0800877A40F69413C2F20003C3ED007A40F6C9
:102A1800EC23C2F20003D3ED006A40F69C23C2F215
:102A2800000393ED007AC6EE877A40F6BC23C2F223
:102A38000003C3ED007A40F69413C2F2000393ED4D
:102A4800007A40F6F013C2F20003D3ED007A27EEC5
:102A5800277A40F67813C2F20003D3ED007A77EEB6
:102A6800277A40F67813C2F20003C3ED007A40F6E5
:102A7800BC23C2F2000393ED007A40F6F013C2F2D1
:102A88000003D3ED007A27EE277A40F65023C2F2EE
:102A98000003D3ED007A77EE277A40F65023C2F28E
:102AA8000003C3ED007A40F6DC23C2F2000393ED85
:102AB800007A40F69413C2F20003D3ED006A40F6A0
:102AC800DC23C2F20003D3ED007A66EEA77A77EE34
:102AD800677A40F6DC23C2F20003C3ED007A40F6C1
:102AE800F823C2F2000393ED007A40F69413C2F281
:102AF8000003D3ED006A40F6F823C2F20003D3EDD9
:102B0800007A66EEA77A77EE677A40F6F823C2F283
:102B18000003C3ED007A40F6EC23C2F2000393ED04
:102B2800007A40F6BC23C2F20003D3ED006A40F6F7
:102B3800DC23C2F20003D3ED007A66EEA77A77EEC3
:102B4800677A40F6EC23C2F20003C3ED007A40F640
:102B5800EC13C2F2000393ED007A40F6BC23C2F2F4
:102B68000003D3ED006A40F6F823C2F20003D3ED68
:102B7800007A66EEA77A77EE677A40F6EC13C2F22F
:102B88000003C3ED007A40F67813C2F200031B6815
:102B9800B2E17A684FF4A053C4F200039A4240F0BD
:102BA800AA8140F6A013C2F20003D3ED007A97ED94
:102BB800027A37EE677A40F6A823C2F20003D3ED13
:102BC800007A27EE277A40F60033C2F20003D3EDED
:102BD800007A77EE277A40F60033C2F20003C3ED9D
:102BE800007A40F6A823C2F2000393ED007A40F67B
:102BF8004013C2F20003D3ED007A27EE277A40F69D
:102C08003823C2F20003D3ED007A37EE677A40F634
:102C18006023C2F20003D3ED007A37EE677A40F6FC
:102C28004813C2F20003D3ED007A37EE277A40F654
:102C3800A823C2F20003D3ED007A27EE277A40F6E4
:102C4800FC13C2F20003D3ED007A77EE277A40F640
:102C5800FC13C2F20003C3ED007A40F63823C2F237
:102C6800000393ED007A40F6A823C2F20003D3EDE7
:102C7800006A40F64013C2F20003D3ED007A66EE14
:102C8800A77A77EE677A40F63823C2F20003C3EDDD
:102C9800007A40F66023C2F2000393ED007A40F612
:102CA800A823C2F20003D3ED006A40F64013C2F233
:102CB8000003D3ED007A66EEA77A77EE677A40F6DE
:102CC8006023C2F20003C3ED007A40F6B823C2F2D3
:102CD800000393ED007A40F6A823C2F20003D3ED77
:102CE800007A27EE277A40F64013C2F20003D3EDAC
:102CF800007A77EE277A40F64013C2F20003C3ED5C
:102D0800007A40F60033C2F20003D3ED007A97ED63
:102D1800037A77EE677A40F6A413C2F20003C3ED94
:102D2800007A40F6FC13C2F2000393ED007A40F6F5
:102D38000423C2F20003D3ED007A77EE277A40F637
:102D48005C23C2F20003C3ED007A40F6FC13C2F222
:102D58000003D3ED006A40F65C23C2F2000393ED52
:102D6800007AC6EE877A40F64823C2F20003C3ED24
:102D7800007A40F66023C2F20003D3ED006A40F601
:102D88005C23C2F2000393ED007AC6EE877A40F620
:102D98000023C2F20003C3ED007A40F64823C2F2D2
:102DA800000393ED007A40F6A413C2F20003D3EDBA
:102DB800007A27EE277A40F60033C2F20003D3EDFB
:102DC800007A77EE277A40F60033C2F20003C3EDAB
:102DD800007A40F60023C2F2000393ED007A40F631
:102DE800A413C2F20003D3ED007A27EE277A40F647
:102DF800A013C2F20003D3ED007A77EE277A40F6EB
:102E0800A013C2F20003C3ED007A40F6FC13C2F22D
:102E1800000393ED007A40F64823C2F20003D3ED95
:102E2800006A40F6FC13C2F20003D3ED007A66EEA6
:102E3800A77A77EE677A40F6FC13C2F20003C3ED77
:102E4800007A40F63823C2F2000393ED007A40F688
:102E58004823C2F20003D3ED006A40F63823C2F2D9
:102E68000003D3ED007A66EEA77A77EE677A40F62C
:102E78003823C2F20003C3ED007A40F66023C2F2A1
:102E8800000393ED007A40F60023C2F20003D3ED6D
:102E9800006A40F6FC13C2F20003D3ED007A66EE36
:102EA800A77A77EE677A40F66023C2F20003C3ED93
:102EB800007A40F64013C2F2000393ED007A40F620
:102EC8000023C2F20003D3ED006A40F63823C2F2B1
:102ED8000003D3ED007A66EEA77A77EE677A40F6BC
:102EE8004013C2F20003C3ED007A40F60033C2F289
:102EF80000031B6800E001E007EE903AB0EE670AB5
:102F08001437BD465DF8047B704780B584B000AFC8
:102F1800786040F66C03C2F200031B68002B08D1EE
:102F280040F66C03C2F2000340F61032C2F200020F
:102F38001A6040F66C03C2F200031B68FB6040F69F
:102F48006C03C2F200031A687B6813446A46934212
:102F580007D904F085FD02460C2313604FF0FF33B8
:102F68000CE040F66C03C2F200031A687B681A444E
:102F780040F66C03C2F200031A60FB68184610376B
:102F8800BD4680BD80B483B000AF00237B600BE0FA
:102F980040F6C823C2F200037A6892001344002264
:102FA8001A607B6801337B607B68052BF0DD40F697
:102FB8001423C2F2000349F69A12C4F289021A6075
:102FC80040F60833C2F2000300221A6040F6A42338
:102FD800C2F2000347F6D502C3F669521A6040F6FA
:102FE8005813C2F200034CF6CD42C4F214121A6010
:102FF80040F6B423C2F200034FF00002C4F22002EC
:103008001A6040F60823C2F2000340F22562C3F6B4
:1030180081521A6040F66C23C2F2000300221A6043
:1030280040F66413C2F2000300221A6040F64023FF
:10303800C2F2000300221A6040F66013C2F20003D5
:1030480000221A6040F6D413C2F2000300221A606C
:1030580040F6B023C2F2000300221A6000BF0C370A
:10306800BD465DF8047B704780B483B000AF7860DC
:1030780039607A680023C4F201039A4206D140F607
:10308800D413C2F200033A681A600CE07A684FF46D
:10309800A053C4F200039A4205D140F6B023C2F20D
:1030A80000033A681A6000BF18460C37BD465DF841
:1030B800047B704780B483B000AF78607A680023DF
:1030C800C4F201039A4205D140F6D413C2F20003B8
:1030D8001B680CE07A684FF4A053C4F200039A42CC
:1030E80005D140F6B023C2F200031B68FFE718467B
:1030F8000C37BD465DF8047B704780B584B000AFDF
:1031080087ED030AC7ED020A78607A680023C4F2E3
:1031180001039A4240F07B81D7ED037A4CF6CD4308
:10312800C3F64C6307EE103AF4EEC77AF1EE10FAE4
:103138000ED5D7ED037A4CF6CD43CBF64C6307EEAC
:10314800103AF4EEC77AF1EE10FA01DD0023FB60C5
:1031580040F6C823C2F200035A6840F6C823C2F2F8
:1031680000039A6040F6C823C2F200031A6840F6CA
:10317800C823C2F200035A60002307EE103AD7EDC5
:10318800037A77EE677A40F6C823C2F20003C3EDEC
:10319800007A40F6C823C2F2000393ED007A40F6A5
:1031A800C823C2F20003D3ED017A77EE277AF0EE56
:1031B800006A87EEA67AD7ED027A27EE277A40F6DC
:1031C8004023C2F20003D3ED007A77EE277A40F667
:1031D8004023C2F20003C3ED007A40F6C823C2F2CE
:1031E8000003D3ED007A0023C4F2B42307EE103AAB
:1031F800F4EEC77AF1EE10FA07DD40F6C823C2F202
:1032080000030022C4F2B4221A6040F6C823C2F2B6
:103218000003D3ED007A0023CCF2B42307EE103A72
:10322800F4EEC77AF1EE10FA07D540F6C823C2F2D9
:1032380000030022CCF2B4221A6040F6C823C2F27E
:10324800000393ED007A40F61423C2F20003D3ED95
:10325800007A27EE277A40F60833C2F20003D3ED4E
:10326800006A40F64023C2F20003D3ED007A66EE0E
:10327800A77A37EE277A40F6C823C2F20003D3EDC7
:10328800016A40F6C823C2F20003D3ED007A76EE55
:10329800E76A40F6A423C2F20003D3ED007A26EED3
:1032A800A76AD7ED026AC6EE267A77EE277A40F645
:1032B8006C23C2F20003C3ED007A40F66C23C2F21D
:1032C8000003D3ED007AF5EEC07AF1EE10FA3AD5A4
:1032D80040F66C23C2F20003D3ED007A0023CCF24F
:1032E800A53307EE103AF4EEC77AF1EE10FA07D5D7
:1032F80040F66C23C2F200030022CCF2A5321A6019
:1033080040F66C23C2F20003D3ED007AB1EE087ADE
:1033180027EE877A4FF48053C4F2A47306EE903AEE
:10332800C6EE877AB7EE007A77EE877AF1EE677A9B
:1033380040F65823C2F20003C3ED007A01217868F1
:10334800FFF792FE43E040F66C23C2F20003D3ED90
:10335800007AF5EEC07AF1EE10FA38DD40F66C230B
:10336800C2F20003D3ED007A0023C4F2A53307EEBE
:10337800103AF4EEC77AF1EE10FA07DD40F66C2346
:10338800C2F200030022C4F2A5321A6040F66C2390
:10339800C2F20003D3ED007AB1EE087A27EE877AFD
:1033A8004FF48053C4F2A47306EE903AC6EE877ABF
:1033B800B7EE007A77EE877A40F65823C2F2000318
:1033C800C3ED007A4FF0FF317868FFF74DFE40F605
:1033D8005823C2F20003D3ED007A4FF47F43C4F2BE
:1033E8007F7307EE103AF4EEC77AF1EE10FA08DDB3
:1033F80040F65823C2F200034FF47F42C4F27F72B2
:103408001A6040F65823C2F200031B6883E17A6809
:103418004FF4A053C4F200039A4240F07B81D7EDE9
:10342800037A4CF6CD43C3F6CC5307EE103AF4EECC
:10343800C77AF1EE10FA0ED5D7ED037A4CF6CD43E4
:10344800CBF6CC5307EE103AF4EEC77AF1EE10FA49
:1034580001DD0023FB6040F6C823C2F200031A69AD
:1034680040F6C823C2F200035A6140F6C823C2F2EC
:103478000003DA6840F6C823C2F200031A61002389
:1034880007EE103AD7ED037A77EE677A40F6C8234D
:10349800C2F20003C3ED037A40F6C823C2F2000368
:1034A80093ED037A40F6C823C2F20003D3ED047A01
:1034B80077EE277AF0EE006A87EEA67AD7ED027AE1
:1034C80027EE277A40F66013C2F20003D3ED007AA4
:1034D80077EE277A40F66013C2F20003C3ED007A54
:1034E80040F6C823C2F20003D3ED037A0023C4F2E6
:1034F800B42307EE103AF4EEC77AF1EE10FA07DDBE
:1035080040F6C823C2F200030022C4F2B422DA60F3
:1035180040F6C823C2F20003D3ED037A0023CCF2AD
:10352800B42307EE103AF4EEC77AF1EE10FA07D595
:1035380040F6C823C2F200030022CCF2B422DA60BB
:1035480040F6C823C2F2000393ED037A40F65813FD
:10355800C2F20003D3ED007A27EE277A40F6B423AF
:10356800C2F20003D3ED006A40F66013C2F2000312
:10357800D3ED007A66EEA77A37EE277A40F6C823AD
:10358800C2F20003D3ED046A40F6C823C2F2000376
:10359800D3ED037A76EEE76A40F60823C2F2000319
:1035A800D3ED007A26EEA76AD7ED026AC6EE267A30
:1035B80077EE277A40F66413C2F20003C3ED007A6F
:1035C80040F66413C2F20003D3ED007AF5EEC07A38
:1035D800F1EE10FA3AD540F66413C2F20003D3EDC7
:1035E800007A0023CCF2A53307EE103AF4EEC77A3E
:1035F800F1EE10FA07D540F66413C2F20003002278
:10360800CCF2A5321A6040F66413C2F20003D3ED7F
:10361800007AB1EE087A27EE877A4FF48053C4F225
:10362800A47306EE903AC6EE877AB7EE007A77EE84
:10363800877AF1EE677A40F68013C2F20003C3ED91
:10364800007A01217868FFF70FFD43E040F6641324
:10365800C2F20003D3ED007AF5EEC07AF1EE10FA6B
:1036680038DD40F66413C2F20003D3ED007A00237C
:10367800C4F2A53307EE103AF4EEC77AF1EE10FA69
:1036880007DD40F66413C2F200030022C4F2A5323B
:103698001A6040F66413C2F20003D3ED007AB1EE6B
:1036A800087A27EE877A4FF48053C4F2A47306EEA3
:1036B800903AC6EE877AB7EE007A77EE877A40F6C8
:1036C8008013C2F20003C3ED007A4FF0FF3178682F
:1036D800FFF7CAFC40F68013C2F20003D3ED007A6C
:1036E8004FF47F43C4F27F7307EE103AF4EEC77AC3
:1036F800F1EE10FA08DD40F68013C2F200034FF431
:103708007F42C4F27F721A6040F68013C2F200034F
:103718001B6800E001E007EE903AB0EE670A103748
:10372800BD4680BD80B483B000AF78607A6800235E
:10373800C4F201039A4205D140F66C23C2F2000399
:103748001B680DE07A684FF4A053C4F200039A4254
:1037580005D140F66413C2F200031B6800E001E0E3
:1037680007EE903AB0EE670A0C37BD465DF8047B69
:10377800704780B586B000AF87ED010AD7ED017AB2
:10378800F5EEC07AF1EE10FA0CD5D7ED017AF1EE2C
:10379800677AB0EE670AFFF7ECFFF0EE407AF1EED9
:1037A800677A88E0D7ED017AF5EE407AF1EE10FA03
:1037B80003D1002307EE903A7DE001237B6171E09D
:1037C80047F6D813C0F600037A6992001344D3ED84
:1037D800007A97ED017AB4EEE77AF1EE10FA5ED846
:1037E8007B695A1E13465B001344DB0007EE903AD0
:1037F800B8EEE77A7B695A1E47F6D813C0F600037D
:1038080092001344D3ED007AD7ED016A36EEE76AE9
:103818007B695A1E47F67013C0F6000392001344E2
:10382800D3ED006AC6EE267A77EE277AC7ED047ADA
:10383800D7ED047AFDEEE77A17EE903AFB60FB6865
:1038480007EE903AF8EEE77A97ED047A77EE677A22
:10385800C7ED027A46F6AC73C0F60003FA68920028
:10386800134493ED007AFB685A1C46F6AC73C0F615
:10387800000392001344D3ED006A46F6AC73C0F619
:103888000003FA6892001344D3ED007A76EEE76AF3
:10389800D7ED027A66EEA77A77EE277A0BE07B6996
:1038A80001337B617B691A2B8ADD40F62323C3F63B
:1038B800C97307EE903AB0EE670A1837BD4680BD67
:1038C80080B485B000AF87ED010A38607B68BB60C3
:1038D8000023FB600AE097ED017AD7ED027A67EEE4
:1038E800277AC7ED017AFB680133FB603B685A1EF3
:1038F800FB689A42EFD87B6807EE903AB0EE670A09
:103908001437BD465DF8047B704780B500AF0121D0
:103918004FF0804001F017FB0346002B0FD0012128
:103928004FF0804001F039FB40F69823C2F20003C3
:103938001B685A1C40F69823C2F200031A6000BFA5
:1039480080BD80B500AF01210020C4F2010001F064
:10395800FAFA0346002B12D001210020C4F201001C
:1039680001F01BFB0020C4F20100FFF7A3FB034694
:103978004FF40061C4F200011846FEF78CFB00BF4B
:1039880080BD80B500AF01214FF4A050C4F2000003
:1039980001F0D9FA0346002B14D001214FF4A050AE
:1039A800C4F2000001F0F9FA4FF4A050C4F200008C
:1039B800FFF780FB03464FF44061C4F2000118464C
:1039C800FEF769FB00BF80BD80B500AF01214FF451
:1039D8008060C4F2010001F0B6FA0346002B06D05D
:1039E80001214FF48060C4F2010001F0D6FA00BF53
:1039F80080BD80B500AF40F69823C2F200030022D4
:103A08001A6000F08DF94FF48060C4F2000000F0F5
:103A180023F84FF40060C4F2000000F01DF84FF4E2
:103A28004060C4F2000000F017F800F042F90020EE
:103A3800C4F2010000F05AF84FF4A050C4F200009C
:103A480000F054F84FF48060C4F2010000F04EF822
:103A580000F072F800BF80BD80B58AB000AF786012
:103A680000F091F80023BB830023FB8342F2CF03CD
:103A78003B620023BB84002387F8263007F11C0330
:103A88001946786800F0ABFF0121786801F01DF84D
:103A980060233B8101237B810023BB8200233B61A0
:103AA80007F108031946786801F02FF808217868AB
:103AB80001F0CDF900233B6107F108031946786846
:103AC80001F0ACF80821786801F0DFF900233B61C8
:103AD80007F108031946786801F027F90821786882
:103AE80001F0EFF900BF2837BD4680BD80B586B02C
:103AF80000AF78605323BB810023FB814FF4FA7336
:103B08003B610023BB820023BB7507F10C031946F8
:103B1800786800F064FF0121786801F03EFA01221C
:103B28000121786801F0EBF90121786800F0CDFFF8
:103B380000BF1837BD4680BD80B584B000AF5323A1
:103B4800BB800023FB806423BB600023BB81002370
:103B5800BB733B1D19464FF0804000F040FF012128
:103B68004FF0804001F019FA012201214FF0804006
:103B780001F0C5F901214FF0804000F0A6FF00BF19
:103B88001037BD4680BD80B582B000AF0222072144
:103B98004FF48060C4F2020000F0D8FE022208212F
:103BA8004FF48060C4F2020000F0D0FE0222092126
:103BB8004FF48060C4F2020000F0C8FE02220D211A
:103BC8004FF44060C4F2020000F0C0FE02220E2151
:103BD8004FF44060C4F2020000F0B8FE02220F2148
:103BE8004FF44060C4F2020000F0B0FE022201214E
:103BF8000020C4F2020000F0A9FE022202210020E7
:103C0800C4F2020000F0A2FE022203210020C4F246
:103C1800020000F09BFE4FF460733B600023BB7111
:103C28000023FB7102233B7103237B713B4619463A
:103C38004FF48060C4F2020000F0FAFD4FF46043D4
:103C48003B600023BB710023FB7102233B710323FC
:103C58007B713B4619464FF44060C4F2020000F005
:103C6800E7FD0E233B600023BB710023FB71022399
:103C78003B7103237B713B4619460020C4F20200C6
:103C880000F0D6FD4FF480533B600023BB71002346
:103C9800FB7101233B7103237B713B4619464FF4AB
:103CA8004060C4F2020000F0C3FD00BF0837BD4603
:103CB80080BD80B582B000AF1C233B7100237B71AF
:103CC8000123BB710123FB713B1D184601F0BAFFAC
:103CD80037233B7100237B710123BB710123FB71E7
:103CE8003B1D184601F0AEFF19233B7100237B7181
:103CF8000123BB710123FB713B1D184601F0A2FF94
:103D08002C233B7100237B710123BB710123FB71C1
:103D18003B1D184601F096FF00BF0837BD4680BD21
:103D280080B500AF01210B2001F0D4FE01212F2026
:103D380001F0F9FE0121032001F01EFF00BF80BD44
:103D480080B400AF40F69823C2F200031B681846FF
:103D5800BD465DF8047B704780B586B000AF7860DB
:103D680087ED000A4FF47A73BB810023FB81D7EDFE
:103D7800007AFCEEE77A17EE903A3B610023BB82AB
:103D88000023BB7507F10C031946786800F027FE7D
:103D980001220121786801F0B2F80121786800F069
:103DA80094FE3B6807EE903AB0EE670A1837BD46B6
:103DB80080BD80B582B000AF00F068F9FDF7BBFCAC
:103DC800FEF7AFFBFFF7DEF8FFF713FE48F280407F
:103DD800C0F21E00FCF7ACFEFCF706FF48F280407C
:103DE800C0F21E00FCF7A4FEFDF767FB7520FDF787
:103DF800EDFA0346FB71FB7919464FF49040C4F283
:103E0800000000F0D0F96B20FDF7E0FA0346FB71E3
:103E1800FB7919464FF49040C4F2000000F0C3F952
:103E2800FFF78EFF03461846FDF754FDF8E780B408
:103E380000AF00BFBD465DF8047B704780B400AF9B
:103E4800FEE780B400AFFEE780B400AFFEE780B4C1
:103E580000AFFEE780B400AF00BFBD465DF8047B4D
:103E6800704780B500AF4FF46D43CEF20003D3F82E
:103E780088204FF46D43CEF2000342F47002C3F879
:103E880088204FF46053C4F202031A684FF4605359
:103E9800C4F2020342F001021A604FF46053C4F204
:103EA800020300229A604FF46053C4F202031B68B5
:103EB8004FF46052C4F2020223F0847323F4803377
:103EC80013604FF46053C4F2020343F21002C2F2CB
:103ED80000425A604FF46053C4F202031A684FF468
:103EE8006053C4F2020322F480221A604FF4605334
:103EF800C4F202030022DA6000F009F84FF46D43BF
:103F0800CEF200034FF000629A6000BF80BD80B41B
:103F180083B000AF00237B6000233B604FF4605305
:103F2800C4F202031A684FF46053C4F2020342F465
:103F380080321A604FF46053C4F202031B6803F422
:103F480000333B607B6801337B603B68002B03D107
:103F58007B68B3F5A04FEDD14FF46053C4F2020370
:103F68001B6803F40033002B02D001233B6001E0FF
:103F780000233B603B68012B40F082804FF4605384
:103F8800C4F202031A6C4FF46053C4F2020342F005
:103F980080521A644FF4E043C4F200031A684FF4E5
:103FA800E043C4F2000342F440421A604FF4605206
:103FB800C4F202024FF46053C4F2020392689A609A
:103FC8004FF46053C4F202039A684FF46053C4F28A
:103FD800020342F400429A604FF46053C4F20203B1
:103FE8009A684FF46053C4F2020342F4A0529A60F4
:103FF8004FF46053C4F2020345F20842C0F2407223
:104008005A604FF46053C4F202031A684FF46053C5
:10401800C4F2020342F080721A6000BF4FF460538A
:10402800C4F202031B6803F00073002BF6D04FF4B0
:104038007053C4F2020340F205721A604FF46053E1
:10404800C4F202039A684FF46053C4F2020322F0E8
:1040580003029A604FF46053C4F202039A684FF463
:104068006053C4F2020342F002029A6000BF4FF4A8
:104078006053C4F202039B6803F00C03082BF6D1CB
:1040880000BF0C37BD465DF8047B704780B586B02D
:1040980000AF01214FF4802001F045FD01210820E7
:1040A80001F018FD4FF480733B6102233B75022336
:1040B8007B750023BB750123FB7507F110031946B7
:1040C8004FF44060C4F2020000F0B2FB072208215E
:1040D8004FF44060C4F2020000F038FC4FF4E133C2
:1040E8003B600023BB800023FB8000233B8100232F
:1040F800BB8108237B813B4619464FF49040C4F2AC
:10410800000001F009FE01214FF49040C4F20000C4
:1041180001F0C7FE00BF1837BD4680BD80B582B02C
:1041280000AF7860396000BF7B681B889BB203F0E2
:104138004003002BF8D03B689BB21946786801F021
:10414800D0FE00BF0837BD4680BD80B582B000AF45
:104158007860396009E03B685A1C3A6093F900308E
:10416800DBB219467868FFF7D9FF3B6893F900304E
:10417800002BF0D100BF0837BD4680BD80B582B0A6
:1041880000AF786039603B68092B02D93B68373348
:1041980001E03B68303319467868FFF7BFFF00BF7E
:1041A8000837BD4680BD80B582B000AF78600B4649
:1041B800FB70FB781B09DBB219467868FFF7DEFF56
:1041C800FB7803F00F0319467868FFF7D7FF00BFA5
:1041D8000837BD4680BD80B588B000AFF86087ED70
:1041E800020A79603A60D7ED027AF5EE407AF1EE8C
:1041F80010FA07D1FB6830221A70FB6801330022DD
:104208001A70B0E0D7ED027AF5EEC07AF1EE10FA46
:104218000AD5FB685A1CFA602D221A70D7ED027A6B
:10422800F1EE677AC7ED027A7868B2EE040AFFF712
:1042380047FB87ED070A97ED027AD7ED077AB4EEC8
:10424800E77AF1EE10FA07DBFB6823221A70FB68A5
:10425800013300221A7086E00123FB7644E097EDD3
:10426800077AF2EE046AC7EE267AC7ED077AD7ED29
:10427800026A97ED077AC6EE877AFCEEE77A17EEC0
:10428800903A7B61FB7E002B11D07B69002B0ED10D
:10429800D7ED077AB2EE047AF4EEC77AF1EE10FAA7
:1042A80005DBFB685A1CFA6020221A7019E000230B
:1042B800FB767B69DBB23033D9B2FB685A1CFA60F3
:1042C8004AB21A707B6907EE903AB8EE677AD7ED72
:1042D800077A67EE277A97ED027A77EE677AC7ED65
:1042E800027A7B68013B7B607B68002BB7D13B6817
:1042F800002B05D1FB685A1CFA6000221A7032E0C4
:10430800FB685A1CFA602E221A70D7ED027AB2EEB8
:10431800047A67EE877AC7ED027AD7ED027AFCEE67
:10432800E77A17EE903A7B617B69DBB23033D9B21A
:10433800FB685A1CFA604AB21A707B6907EE903A19
:10434800F8EE677A97ED027A77EE677AC7ED027A28
:104358003B68013B3B603B68002BD6D1FB685A1C8D
:10436800FA6000221A702037BD4680BD80B58CB037
:1043780000AFF86087ED020A79603A6007F114032C
:10438800FB623A68796897ED020AF86AFFF723FF3B
:1043980002E0FB6A0133FB62FB6A93F90030002BF1
:1043A800F7D1FB6A00221A7007F114031946F8685E
:1043B800FFF7CBFE00BF3037BD4680BD80B485B067
:1043C80000AF786039607B685B68FB603B68FA68BF
:1043D8005A60FB689A683B689A60FB689B683A6811
:1043E8005A60FB683A689A603B687A681A617B6829
:1043F8001B685A1C7B681A6000BF1437BD465DF8FD
:10440800047B704780B485B000AF78607B681B6917
:10441800FB607B685B687A6892689A607B689B68D7
:104428007A6852685A60FB685B687A689A4203D176
:104438007B689A68FB685A607B6800221A61FB688F
:104448001B685A1EFB681A60FB681B6818461437FD
:10445800BD465DF8047B704780B586B000AF002389
:104468007B6140F6F803C2F200031B68002B40F0A2
:10447800CC8040F6E003C2F200031B685A1C40F6E9
:10448800E003C2F200031A6040F6E003C2F2000340
:104498001B683B613B69002B34D140F6D803C2F25C
:1044A80000031B681B68002B09D04FF0500383F3EF
:1044B8001188BFF36F8FBFF34F8F3B60FEE740F665
:1044C800D803C2F200031B68FB6040F6DC03C2F2AB
:1044D80000031A6840F6D803C2F200031A6040F6D7
:1044E800DC03C2F20003FA681A6040F6F003C2F275
:1044F80000031B685A1C40F6F003C2F200031A605E
:1045080000F001F940F6F403C2F200031B683A69AF
:104518009A4265D340F6D803C2F200031B681B68B1
:10452800002B01D1012300E00023002B07D040F627
:10453800F403C2F200034FF0FF321A6050E040F675
:10454800D803C2F200031B68DB68DB68BB60BB688A
:104558005B687B603A697B689A4206D240F6F4034E
:10456800C2F200037A681A603AE0BB68043318465E
:10457800FFF748FFBB689B6A002B04D0BB68183361
:104588001846FFF73FFFBB68DB6A01229A4040F6F6
:10459800E403C2F200031B681A4340F6E403C2F2C4
:1045A80000031A60BB68DA6A13469B0013449B0039
:1045B80040F67402C2F200021A44BB68043319467A
:1045C8001046FFF7FBFEBB68DA6A40F67003C2F2DA
:1045D80000031B68DB6A9A429CD301237B6199E73D
:1045E80040F67003C2F200031B68D96A40F67402F1
:1045F800C2F200020B469B000B449B0013441B684D
:10460800012B0DD901237B610AE040F6E803C2F2D1
:1046180000031B685A1C40F6E803C2F200031A6044
:1046280040F6EC03C2F200031B68002B01D0012303
:104638007B617B6918461837BD4680BD80B487B05A
:1046480000AF40F6F803C2F200031B68002B06D047
:1046580040F6EC03C2F2000301221A604DE040F676
:10466800EC03C2F2000300221A6040F6E403C2F22F
:1046780000031B68FB60FB68B3FA83F3FB72FB7AE9
:10468800C3F11F037B6140F67402C2F2000279692C
:104698000B469B000B449B0013441B68002B09D15D
:1046A8004FF0500383F31188BFF36F8FBFF34F8F21
:1046B8007B60FEE77A6913469B0013449B0040F633
:1046C8007402C2F2000213443B613B695B685A689A
:1046D8003B695A603B695A683B6908339A4204D17E
:1046E8003B695B685A683B695A603B695B68DA6892
:1046F80040F67003C2F200031A6000BF1C37BD46C3
:104708005DF8047B704780B483B000AF40F6D803EF
:10471800C2F200031B681B68002B01D1012300E0D3
:104728000023002B07D040F6F403C2F200034FF039
:10473800FF321A600EE040F6D803C2F200031B688D
:10474800DB68DB687B607B685A6840F6F403C2F27A
:1047580000031A6000BF0C37BD465DF8047B704744
:10476800064B19680868B0E8F04F80F30988BFF372
:104778006F8F4FF0000080F3118870477008002099
:1047880000BF00BFEFF30980BFF36F8F144B1A68A7
:104798001EF0100F08BF20ED108A20E9F04F1060BE
:1047A8004DF8043D4FF0500080F31188BFF34F8F50
:1047B800BFF36F8FFFF742FF4FF0000080F31188BF
:1047C80008BC19680868B0E8F04F1EF0100F08BF61
:1047D800B0EC108A80F30988BFF36F8F704700BF71
:1047E8007008002000BF00BF80B584B000AFEFF3B1
:1047F80011824FF0500383F31188BFF36F8FBFF31B
:104808004F8FFA60BB60FFF727FE0346002B06D0E8
:104818004EF60453CEF200034FF080521A60002384
:104828007B607B6883F3118800BF1037BD4680BD6D
:1048380080B487B000AF7860396000237B610023C3
:104848003B610023FB6000237B6176E001227B69EA
:1048580002FA03F33B613B681B683A691340FB604B
:10486800FA683B699A4265D17B681A687B695B0084
:10487800032101FA03F3DB431A407B681A607B6863
:104888001A683B681B7919467B695B0001FA03F3D8
:104898001A437B681A603B681B79012B03D03B687D
:1048A8001B79022B2ED17B689A687B695B000321F8
:1048B80001FA03F3DB431A407B689A607B689A68C5
:1048C8003B685B7919467B695B0001FA03F31A437D
:1048D8007B689A607B685A687B699BB2194601239A
:1048E8008B40DB431A407B685A607B685B683A6898
:1048F800927911467A6992B201FA02F292B21A4397
:104908007B685A607B68DA687B699BB25B0003212D
:1049180001FA03F3DB431A407B68DA607B68DA68E4
:104928003B68DB7919467B695B0001FA03F31A439C
:104938007B68DA607B6901337B617B690F2B85D9E2
:1049480000BF1C37BD465DF8047B704780B485B056
:1049580000AF78600B467B8013467B700023FB60BA
:104968000023BB607A787B8803F007039B0002FA78
:1049780003F3FB607B88DB089BB21A467B6808322E
:1049880053F822207B8803F007039B000F2101FACC
:1049980003F3DB437988C90889B2084602EA0301B0
:1049A8007B6800F1080243F822107B88DB089BB281
:1049B8001A467B68083253F82230FA681343BB6002
:1049C8007B88DB089BB21A467B680832B96843F8D3
:1049D800221000BF1437BD465DF8047B704780B4D1
:1049E80085B000AF786039600023FB817B681B8845
:1049F800FB817A680023C4F201039A421FD07A68C7
:104A08004FF48063C4F201039A4218D07B68B3F173
:104A1800804F14D07A684FF48063C4F200039A423E
:104A28000DD07A684FF40063C4F200039A4206D0AE
:104A38007A684FF44063C4F200039A4208D1FB89B4
:104A480023F07003FB813B685A88FB891343FB8181
:104A58007A684FF48053C4F200039A420FD07A6800
:104A68004FF4A053C4F200039A4208D0FB8923F400
:104A78004073FB813B681A89FB891343FB817B6880
:104A8800FA891A803B685A687B68DA623B681A8838
:104A98007B681A857A680023C4F201039A4206D01B
:104AA8007A684FF48063C4F201039A4204D13B68E8
:104AB8009B7A9AB27B681A867B6801229A8200BF29
:104AC8001437BD465DF8047B704780B483B000AFEF
:104AD80078600B46FB70FB78002B08D07B681B883E
:104AE8009BB243F001039AB27B681A8007E07B68A7
:104AF8001B889BB223F001039AB27B681A8000BF1F
:104B08000C37BD465DF8047B704780B485B000AFB4
:104B18007860396000237B810023FB810023BB81FF
:104B28007B681B8C9BB223F010039AB27B681A84B3
:104B38007B681B8CFB817B689B88BB817B681B8B9C
:104B48007B817B8923F4E0437B817B8923F4407359
:104B58007B813B681B881B029AB27B8913437B814C
:104B6800FB8923F02003FB813B689B891B019AB2D8
:104B7800FB891343FB813B685B881B019AB2FB8965
:104B88001343FB817A680023C4F201039A4206D0DA
:104B98007A684FF48063C4F201039A422BD1FB89EF
:104BA80023F08003FB813B68DB891B019AB2FB89F8
:104BB8001343FB81FB8923F04003FB813B689B88FF
:104BC8001B019AB2FB891343FB81BB8923F48063E1
:104BD800BB81BB8923F40063BB813B681B8A9B00B4
:104BE8009AB2BB891343BB813B685B8A9B009AB22C
:104BF800BB891343BB817B68BA899A807B687A89B1
:104C08001A833B689A687B689A637B68FA891A8476
:104C180000BF1437BD465DF8047B704780B485B08B
:104C280000AF7860396000237B810023FB8100237B
:104C3800BB817B681B8C9BB223F480739AB27B6820
:104C48001A847B681B8CFB817B689B88BB817B6893
:104C58009B8B7B817B8923F070037B817B8923F08D
:104C680003037B813B681A887B8913437B81FB891B
:104C780023F40073FB813B689B891B029AB2FB8972
:104C88001343FB813B685B881B029AB2FB89134381
:104C9800FB817A680023C4F201039A4206D07A683D
:104CA8004FF48063C4F201039A422BD1FB8923F4A9
:104CB8000063FB813B68DB891B029AB2FB891343C3
:104CC800FB81FB8923F48063FB813B689B881B0283
:104CD8009AB2FB891343FB81BB8923F48053BB81C0
:104CE800BB8923F40053BB813B681B8A1B019AB222
:104CF800BB891343BB813B685B8A1B019AB2BB89A2
:104D08001343BB817B68BA899A807B687A899A83C6
:104D18003B689A687B68DA637B68FA891A8400BF03
:104D28001437BD465DF8047B704780B485B000AF8A
:104D3800786039600023BB8100237B810023FB81DD
:104D48007B681B8C9BB223F480539AB27B681A84CD
:104D58007B681B8C7B817B689B88FB817B689B8B3A
:104D6800BB81BB8923F4E043BB81BB8923F4407337
:104D7800BB813B681B881B029AB2BB891343BB816A
:104D88007B8923F400537B813B689B891B039AB280
:104D98007B8913437B813B685B881B039AB27B89C1
:104DA80013437B817A680023C4F201039A4206D038
:104DB8007A684FF48063C4F201039A420AD1FB89EE
:104DC80023F48043FB813B681B8A9B019AB2FB89D1
:104DD8001343FB817B68FA899A807B68BA899A8336
:104DE8003B689A687B681A647B687A891A8400BF72
:104DF8001437BD465DF8047B704780B483B000AFBC
:104E0800786039607B683A689A6300BF0C37BD46A2
:104E18005DF8047B704780B483B000AF7860396078
:104E28007B683A68DA6300BF0C37BD465DF8047BDF
:104E3800704780B483B000AF786039607B683A68A7
:104E48001A6400BF0C37BD465DF8047B704780B418
:104E580085B000AF78600B467B800023FB817B68C0
:104E68001B8BFB81FB8923F40063FB817B881B027E
:104E78009AB2FB891343FB817B68FA891A8300BFC6
:104E88001437BD465DF8047B704780B485B000AF29
:104E980078600B467B800023FB817B689B8BFB81C2
:104EA800FB8923F00803FB81FA897B881343FB8184
:104EB8007B68FA899A8300BF1437BD465DF8047B86
:104EC800704780B485B000AF78600B467B800023C4
:104ED800FB817B689B8BFB81FB8923F40063FB814F
:104EE8007B881B029AB2FB891343FB817B68FA8992
:104EF8009A8300BF1437BD465DF8047B704780B4C1
:104F080083B000AF78600B467B8013467B707B785C
:104F1800002B08D07B689B899AB27B8813439AB28E
:104F28007B689A8109E07B689B899AB27B88DB431E
:104F38009BB213409AB27B689A8100BF0C37BD467A
:104F48005DF8047B704780B485B000AF78600B468D
:104F58007B800023FB730023BB8100237B817B685C
:104F68001B8A9AB27B881340BB817B689B899AB263
:104F78007B8813407B81BB89002B05D07B89002B64
:104F880002D00123FB7301E00023FB73FB7B18466F
:104F98001437BD465DF8047B704780B483B000AF1A
:104FA80078600B467B807B88DB439AB27B681A82E9
:104FB80000BF0C37BD465DF8047B704780B483B0F2
:104FC80000AF78607B681B6823F001027B681A6079
:104FD8007B6800221A607B6800225A607B68002286
:104FE8009A607B680022DA607B6800221A617B681D
:104FF80021225A617A6846F21003C4F202039A42E7
:1050080006D14FF4C043C4F202033D229A60E6E0A1
:105018007A6846F22803C4F202039A4207D14FF491
:10502800C043C4F202034FF474629A60D7E07A680E
:1050380046F24003C4F202039A4207D14FF4C04338
:10504800C4F202034FF474129A60C8E07A6846F218
:105058005803C4F202039A4207D14FF4C043C4F282
:1050680002034FF074629A60B9E07A6846F27003FE
:10507800C4F202039A4208D14FF4C043C4F20203B7
:105088003D22C2F20002DA60A9E07A6846F288039B
:10509800C4F202039A4209D14FF4C043C4F2020396
:1050A8004FF47462C2F20002DA6098E07A6846F25D
:1050B800A003C4F202039A4208D14FF4C043C4F2D9
:1050C80002030022C2F23D02DA6088E07A6846F202
:1050D800B803C4F202039A4207D14FF4C043C4F2A2
:1050E80002034FF03D52DA6079E07A6846F21043E5
:1050F800C4F202039A4206D14FF4C843C4F2020331
:105108003D229A606BE07A6846F22843C4F20203B3
:105118009A4207D14FF4C843C4F202034FF47462B1
:105128009A605CE07A6846F24043C4F202039A420D
:1051380007D14FF4C843C4F202034FF474129A60C3
:105148004DE07A6846F25843C4F202039A4207D106
:105158004FF4C843C4F202034FF074629A603EE011
:105168007A6846F27043C4F202039A4208D14FF4B7
:10517800C843C4F202033D22C2F20002DA602EE004
:105188007A6846F28843C4F202039A4209D14FF47E
:10519800C843C4F202034FF47462C2F20002DA6038
:1051A8001DE07A6846F2A043C4F202039A4208D18D
:1051B8004FF4C843C4F202030022C2F23D02DA608F
:1051C8000DE07A6846F2B843C4F202039A4206D167
:1051D8004FF4C843C4F202034FF03D52DA6000BFF7
:1051E8000C37BD465DF8047B704780B485B000AFCE
:1051F800786039600023FB607B681B68FB60FA6895
:1052080048F23F03CFF21C031340FB603B681A6867
:105218003B68DB681A433B685B691A433B689B69D8
:105228001A433B68DB691A433B681B6A1A433B68AD
:105238005B6A1A433B689B6A1A433B685B6B1A4379
:105248003B689B6B1343FA681343FB607B68FA68FF
:105258001A607B685B69FB60FB6823F00703FB60EF
:105268003B68DA6A3B681B6B1343FA681343FB60BD
:105278007B68FA685A613B681A697B685A603B68C0
:105288005A687B689A603B689A687B68DA6000BFF6
:105298001437BD465DF8047B704780B483B000AF17
:1052A80078600B46FB70FB78002B06D07B681B6888
:1052B80043F001027B681A6005E07B681B6823F0F5
:1052C80001027B681A6000BF0C37BD465DF8047B9D
:1052D800704780B485B000AF786039607A6846F26C
:1052E8000F43C4F202039A4205D84FF4C043C4F2F4
:1052F8000203FB6004E04FF4C843C4F20203FB60FE
:105308003B6803F00053002B07D03B6823F0F023E1
:1053180023F08213FA68D36006E03B6823F0F02399
:1053280023F08213FA68936000BF1437BD465DF816
:10533800047B704780B485B000AFF860B96013464D
:10534800FB71BB6803F08003002B0FD0FB79002BA7
:1053580006D0FB685B6943F08002FB685A6105E090
:10536800FB685B6923F08002FB685A61BB68802B8D
:1053780014D0FB79002B08D0FB681A68BB6803F0CF
:105388001E031A43FB681A6008E0FB681A68BB68CA
:1053980003F01E03DB431A40FB681A6000BF143792
:1053A800BD465DF8047B704780B487B000AF786075
:1053B80039600023FB750023FB600023BB607A681B
:1053C80046F20F43C4F202039A4205D84FF4C04391
:1053D800C4F202033B6104E04FF4C843C4F2020381
:1053E8003B613B6823F0F02323F0C313002B0AD062
:1053F8003B68DB0A03F01E03FB607B681B68FA68E6
:105408001340BB6004E07B685B6903F08003BB600A
:105418003B6803F00053002B03D03B695B68FB60DB
:1054280002E03B691B68FB60FB6823F0F02323F074
:105438008213FB60FA683B681340002B05D0BB68F9
:10544800002B02D00123FB7501E00023FB75FB7DD7
:1054580018461C37BD465DF8047B704780B485B09C
:1054680000AF786039607A6846F20F43C4F20203ED
:105478009A4205D84FF4C043C4F20203FB6004E02B
:105488004FF4C843C4F20203FB603B6803F00053C7
:10549800002B07D03B6823F0F02323F08213FA682F
:1054A800D36006E03B6823F0F02323F08213FA6808
:1054B800936000BF1437BD465DF8047B704780B524
:1054C8008AB000AF786039600023FB8400237B84B6
:1054D8000423BB844FF49053C0F27A03FB617B68CA
:1054E8009B88FB84FB8C23F03F03FB8407F10C03B0
:1054F800184600F01CFA7B69FB61FA694DF6836374
:10550800C4F21B33A3FB02239B0C7B84FA8C7B8C99
:105518001343FB847B68FA8C9A807B681B889BB258
:1055280023F001039AB27B681A800023FB843B684E
:105538001A6848F2A063C0F201039A4215D83B6882
:105548001B685B00FA69B2FBF3F3BB84BB8C032BCB
:1055580001D80423BB84FA8CBB8C1343FB847B8C5B
:1055680001339AB27B681A8443E03B68DB884BF6C8
:10557800FF72934209D13B681A6813465B001344D3
:10558800FA69B2FBF3F3BB840EE03B681A68134672
:105598009B0013449A001344FA69B2FBF3F3BB84EB
:1055A800BB8C43F48043BB84BB8CC3F30B03002B3D
:1055B80003D1BB8C43F00103BB84BA8CFB8C13432F
:1055C8009BB26FEA43436FEA5343FB847B8C4FF4EF
:1055D800967202FB03F244F6D353C1F2620383FBD3
:1055E80002139911D317CB1A9BB201339AB27B6875
:1055F8001A847B68FA8C9A837B681B889BB243F079
:1056080001039AB27B681A807B681B88FB84FB8C39
:1056180023F4816323F00203FB843B689A883B6888
:105628005B8913439AB2FB8C1343FB847B68FA8C27
:105638001A803B689A893B681B8913439AB27B6836
:105648001A8100BF2837BD4680BD80B483B000AF43
:1056580078600B46FB70FB78002B08D07B681B88B2
:105668009BB243F001039AB27B681A8007E07B681B
:105678001B889BB223F001039AB27B681A8000BF93
:105688000C37BD465DF8047B704780B483B000AF2B
:1056980078600B46FB70FB78002B08D07B681B8872
:1056A8009BB243F480739AB27B681A8007E07B68E8
:1056B8001B889BB223F480739AB27B681A8000BF60
:1056C8000C37BD465DF8047B704780B483B000AFEB
:1056D80078600B46FB70FB78002B08D07B681B8832
:1056E8009BB243F400739AB27B681A8007E07B6828
:1056F8001B889BB223F400739AB27B681A8000BFA0
:105708000C37BD465DF8047B704780B483B000AFAA
:1057180078600B46FB701346BB70BB78002B04D037
:10572800FB7843F00103FB7003E0FB7823F00103EF
:10573800FB70FB789AB27B681A8200BF0C37BD46B3
:105748005DF8047B704780B483B000AF78600B4687
:10575800FB70FB78002B08D07B681B889BB243F456
:1057680080639AB27B681A8007E07B681B889BB2CB
:1057780023F480639AB27B681A8000BF0C37BD4659
:105788005DF8047B704780B483B000AF78600B4647
:10579800FB70FB789AB27B681A8200BF0C37BD4653
:1057A8005DF8047B704780B483B000AF78607B6895
:1057B8001B8A9BB2DBB218460C37BD465DF8047BEA
:1057C800704780B483B000AF78600B46FB70FB78FD
:1057D800002B08D07B689B889BB243F400639AB285
:1057E8007B689A8007E07B689B889BB223F4006300
:1057F8009AB27B689A8000BF0C37BD465DF8047B7F
:10580800704780B483B000AF78600B46FB70FB78BC
:10581800002B08D07B689B889BB243F480539AB2D4
:105828007B689A8007E07B689B889BB223F480534F
:105838009AB27B689A8000BF0C37BD465DF8047B3E
:10584800704780B483B000AF78600B467B80134606
:105858007B707B78002B08D07B689B889AB27B880A
:1058680013439AB27B689A8009E07B689B889AB256
:105878007B88DB439BB213409AB27B689A8000BF57
:105888000C37BD465DF8047B704780B487B000AF25
:105898007860396000233B610023FB600023BB6014
:1058A8000023FB757B689B8A9BB2FB607B681B8B24
:1058B8009BB2BB60BB681B04BB60FA68BB68134340
:1058C80023F07F433B613A693B6813403A689A4248
:1058D80002D10123FB7501E00023FB75FB7D18460F
:1058E8001C37BD465DF8047B704780B487B000AFB5
:1058F800786000237B6100233B610023FB607B68A9
:105908009B8A9BB23B617B681B8B9BB2FB60FB68ED
:105918001B04FB603A69FB68134323F07F437B61F8
:105928007B6918461C37BD465DF8047B704780B418
:1059380089B000AF78600023BB6100237B6100233E
:10594800FB6102233B610023FB600223BB604FF431
:105958006053C4F202039B6803F00C03BB61BB698C
:10596800042B0AD0082B0FD0002B58D17A684FF49B
:105978001053C0F2F403136058E07A684FF4905360
:10598800C0F27A03136051E04FF46053C4F202038B
:105998005B689B0D03F00103FB604FF46053C4F296
:1059A80002035B6803F03F03BB60FB68002B12D067
:1059B8004FF49053C0F27A03BA68B3FBF2F24FF493
:1059C8006053C4F202035B689B09C3F3080303FB3B
:1059D80002F3FB6111E04FF41053C0F2F403BA680C
:1059E800B3FBF2F24FF46053C4F202035B689B0905
:1059F800C3F3080303FB02F3FB614FF46053C4F2E3
:105A080002035B681B0C03F0030301335B003B617B
:105A1800FA693B69B2FBF3F27B681A6006E07A68C0
:105A28004FF41053C0F2F403136000BF4FF46053F7
:105A3800C4F202039B6803F0F003BB61BB691B0956
:105A4800BB6140F20003C2F20003BA6913441B7839
:105A5800DBB27B617B681A687B69DA407B685A60D5
:105A68004FF46053C4F202039B6803F4E053BB6134
:105A7800BB699B0ABB6140F20003C2F20003BA692A
:105A880013441B78DBB27B617B685A687B69DA4018
:105A98007B689A604FF46053C4F202039B6803F476
:105AA8006043BB61BB695B0BBB6140F20003C2F2A0
:105AB8000003BA6913441B78DBB27B617B685A68C0
:105AC8007B69DA407B68DA6000BF2437BD465DF841
