:020000040800F2
:100000000000022049480008BD2A0008C92A00084B
:10001000D12A0008D92A0008E12A000800000000BF
:10002000000000000000000000000000C1300008D7
:10003000E92A000800000000E13000084131000812
:10004000994800089948000899480008994800080C
:1000500099480008994800089948000899480008FC
:10006000994800089948000899480008250D00089B
:1000700099480008994800089948000899480008DC
:1000800099480008994800089948000899480008CC
:1000900099480008994800089948000899480008BC
:1000A00099480008A52600089948000899480008C2
:1000B0006D2600089948000899480008C50C0008FA
:1000C000050D00089948000899480008994800085B
:1000D000994800089948000899480008994800087C
:1000E000994800089948000899480008994800086C
:1000F000F526000899480008994800089948000822
:10010000994800089948000899480008994800084B
:10011000994800089948000899480008CD26000829
:10012000994800089948000899480008994800082B
:10013000994800089948000899480008994800081B
:10014000994800089948000899480008994800080B
:1001500099480008994800089948000899480008FB
:1001600099480008994800089948000899480008EB
:1001700099480008994800089948000800000000C4
:080180009948000899480008A5
:10018800044B05481B1A062B02D9044B03B1184728
:10019800704700BFF70D0020F40D0020000000009C
:1001A80005490648091A891001EBD171491002D096
:1001B800034B03B118477047F40D0020F40D0020DD
:1001C8000000000010B5064C237843B9FFF7D8FFAC
:1001D800044B13B10448AFF300800123237010BD12
:1001E800F40D0020000000003875000808B5084B21
:1001F8001BB108480849AFF300800848036813B9E1
:10020800BDE80840CCE7064B002BF9D09847F7E744
:100218000000000038750008F80D0020F40D0020DB
:100228000000000081F0004102E000BF83F00043BD
:1002380030B54FEA41044FEA430594EA050F08BF79
:1002480090EA020F1FBF54EA000C55EA020C7FEA3D
:10025800645C7FEA655C00F0E2804FEA5454D4EBBA
:100268005555B8BF6D420CDD2C4480EA020281EA84
:10027800030382EA000083EA010180EA020281EABC
:100288000303362D88BF30BD11F0004F4FEA01310E
:100298004FF4801C4CEA113102D0404261EB41011D
:1002A80013F0004F4FEA03334CEA133302D05242A3
:1002B80063EB430394EA050F00F0A780A4F101045F
:1002C800D5F1200E0DDB02FA0EFC22FA05F2801899
:1002D80041F1000103FA0EF2801843FA05F359417F
:1002E8000EE0A5F120050EF1200E012A03FA0EFCFE
:1002F80028BF4CF0020C43FA05F3C01851EBE37128
:1003080001F0004507D54FF0000EDCF1000C7EEB44
:1003180000006EEB0101B1F5801F1BD3B1F5001F82
:100328000CD349085FEA30004FEA3C0C04F10104A1
:100338004FEA445212F5800F80F09A80BCF1004FCA
:1003480008BF5FEA500C50F1000041EB045141EA4C
:10035800050130BD5FEA4C0C404141EB010111F44D
:10036800801FA4F10104E9D191F0000F04BF0146F8
:100378000020B1FA81F308BF2033A3F10B03B3F1D6
:1003880020020CDA0C3208DD02F1140CC2F10C0266
:1003980001FA0CF021FA02F10CE002F11402D8BFC4
:1003A800C2F1200C01FA02F120FA0CFCDCBF41EA90
:1003B8000C019040E41AA2BF01EB0451294330BD5F
:1003C8006FEA04041F3C1CDA0C340EDC04F114043C
:1003D800C4F1200220FA04F001FA02F340EA030013
:1003E80021FA04F345EA030130BDC4F10C04C4F159
:1003F800200220FA02F001FA04F340EA0300294639
:1004080030BD21FA04F0294630BD94F0000F83F482
:10041800801306BF81F480110134013D4EE77FEA65
:10042800645C18BF7FEA655C29D094EA050F08BFB1
:1004380090EA020F05D054EA000C04BF1946104692
:1004480030BD91EA030F1EBF0021002030BD5FEAD6
:10045800545C05D14000494128BF41F0004130BDFE
:1004680014F580043CBF01F5801130BD01F0004552
:1004780045F0FE4141F470014FF0000030BD7FEAC5
:10048800645C1ABF194610467FEA655C1CBF0B46C0
:10049800024650EA013406BF52EA033591EA030FD7
:1004A80041F4002130BD00BF90F0000F04BF0021CF
:1004B800704730B54FF4806404F132044FF0000502
:1004C8004FF0000150E700BF90F0000F04BF00217B
:1004D800704730B54FF4806404F1320410F00045E1
:1004E80048BF40424FF000013EE700BF42004FEADC
:1004F800E2014FEA31014FEA02701FBF12F07F4359
:1005080093F07F4F81F06051704792F0000F14BF55
:1005180093F07F4F704730B54FF4607401F0004599
:1005280021F0004120E700BF50EA010208BF7047F0
:1005380030B54FF000050AE050EA010208BF7047E5
:1005480030B511F0004502D5404261EB41014FF44E
:10055800806404F132045FEA915C3FF4DCAE4FF052
:1005680003025FEADC0C18BF03325FEADC0C18BF39
:10057800033202EBDC02C2F1200300FA03FC20FA8A
:1005880002F001FA03FE40EA0E0021FA02F11444D7
:10059800C1E600BF70B54FF0FF0C4CF4E06C1CEAEC
:1005A80011541DBF1CEA135594EA0C0F95EA0C0F61
:1005B80000F0DEF82C4481EA030621EA4C5123EAD4
:1005C8004C5350EA013518BF52EA033541F4801103
:1005D80043F4801338D0A0FB02CE4FF00005E1FBB6
:1005E80002E506F00042E0FB03E54FF00006E1FB00
:1005F80003569CF0000F18BF4EF0010EA4F1FF0443
:10060800B6F5007F64F5407404D25FEA4E0E6D4182
:1006180046EB060642EAC62141EA55514FEAC52093
:1006280040EA5E504FEACE2EB4F1FD0C88BFBCF50F
:10063800E06F1ED8BEF1004F08BF5FEA500E50F1C0
:10064800000041EB045170BD06F0004646EA010186
:1006580040EA020081EA0301B4EB5C04C2BFD4EBB8
:100668000C0541EA045170BD41F480114FF0000EB1
:10067800013C00F3AB8014F1360FDEBF002001F01F
:10068800004170BDC4F10004203C35DA0C341BDC99
:1006980004F11404C4F1200500FA05F320FA04F06B
:1006A80001FA05F240EA020001F0004221F000419F
:1006B80010EBD37021FA04F642EB06015EEA430E12
:1006C80008BF20EAD37070BDC4F10C04C4F1200542
:1006D80000FA04F320FA05F001FA04F240EA0200F5
:1006E80001F0004110EBD37041F100015EEA430EC6
:1006F80008BF20EAD37070BDC4F1200500FA05F2E6
:100708004EEA020E20FA04F301FA05F243EA020364
:1007180021FA04F001F0004121FA04F220EA020073
:1007280000EBD3705EEA430E08BF20EAD37070BDB9
:1007380094F0000F0FD101F00046400041EB010199
:1007480011F4801F08BF013CF7D041EA060195F07B
:10075800000F18BF704703F00046520043EB030335
:1007680013F4801F08BF013DF7D043EA0603704722
:1007780094EA0C0F0CEA135518BF95EA0C0F0CD02D
:1007880050EA410618BF52EA4306D1D181EA030173
:1007980001F000414FF0000070BD50EA410606BF6D
:1007A8001046194652EA430619D094EA0C0F02D1B2
:1007B80050EA013613D195EA0C0F05D152EA0336F7
:1007C8001CBF104619460AD181EA030101F0004115
:1007D80041F0FE4141F470014FF0000070BD41F05E
:1007E800FE4141F4780170BD70B54FF0FF0C4CF438
:1007F800E06C1CEA11541DBF1CEA135594EA0C0F57
:1008080095EA0C0F00F0A7F8A4EB050481EA030EA3
:1008180052EA03354FEA013100F088804FEA03338A
:100828004FF0805545EA131343EA12634FEA022258
:1008380045EA111545EA10654FEA00260EF0004119
:100848009D4208BF964244F1FD0404F5407402D26B
:100858005B084FEA3202B61A65EB03055B084FEAFC
:1008680032024FF480104FF4002CB6EB020E75EBF9
:10087800030E22BFB61A754640EA0C005B084FEA21
:100888003202B6EB020E75EB030E22BFB61A75469E
:1008980040EA5C005B084FEA3202B6EB020E75EBE9
:1008A800030E22BFB61A754640EA9C005B084FEA61
:1008B8003202B6EB020E75EB030E22BFB61A75466E
:1008C80040EADC0055EA060E18D04FEA051545EA5D
:1008D80016754FEA06164FEAC30343EA52734FEA06
:1008E800C2025FEA1C1CC0D111F4801F0BD141EA7F
:1008F80000014FF000004FF0004CB6E711F4801FE4
:1009080004BF01430020B4F1FD0C88BFBCF5E06FC3
:100918003FF6AFAEB5EB030C04BFB6EB020C5FEAD3
:10092800500C50F1000041EB045170BD0EF0004E28
:100938004EEA113114EB5C04C2BFD4EB0C0541EA5A
:10094800045170BD41F480114FF0000E013C90E657
:1009580045EA060E8DE60CEA135594EA0C0F08BF1B
:1009680095EA0C0F3FF43BAF94EA0C0F0AD150EA1A
:1009780001347FF434AF95EA0C0F7FF425AF1046AD
:1009880019462CE795EA0C0F06D152EA03353FF4D5
:10099800FDAE1046194622E750EA410618BF52EA52
:1009A80043067FF4C5AE50EA41047FF40DAF52EA26
:1009B80043057FF4EBAE12E74FF0FF3C06E000BFC3
:1009C8004FF0010C02E000BF4FF0010C4DF804CDD0
:1009D8004FEA410C7FEA6C5C4FEA430C18BF7FEA90
:1009E8006C5C1BD001B050EA410C0CBF52EA430CBE
:1009F80091EA030F02BF90EA020F0020704710F13E
:100A0800000F91EA030F58BF994208BF90422CBFCC
:100A1800D8176FEAE37040F0010070474FEA410CC5
:100A28007FEA6C5C02D150EA013C07D14FEA430CE3
:100A38007FEA6C5CD6D152EA033CD3D05DF8040B54
:100A4800704700BF8446104662468C461946634686
:100A580000E000BF01B5FFF7B7FF002848BF10F15D
:100A6800000F01BD4DF808EDFFF7F4FF0CBF0120A2
:100A780000205DF808FB00BF4DF808EDFFF7EAFF1E
:100A880034BF012000205DF808FB00BF4DF808EDD9
:100A9800FFF7E0FF94BF012000205DF808FB00BFCE
:100AA8004DF808EDFFF7CEFF94BF012000205DF858
:100AB80008FB00BF4DF808EDFFF7C4FF34BF012065
:100AC80000205DF808FB00BF4FEA4102B2F1E043A5
:100AD80024BFB3F5001CDCF1FE5C0DD901F0004C1D
:100AE8004FEAC0024CEA5070B2F1004F40EB83006D
:100AF80008BF20F00100704711F0804F21D113F199
:100B08003872BCBF01F00040704741F480114FEAD1
:100B18005252C2F11802C2F1200C10FA0CF320FA5A
:100B280002F018BF40F001004FEAC1234FEAD32377
:100B380003FA0CFC40EA0C0023FA02F34FEA4303E1
:100B4800CCE77FEA625307D150EA01331EBF4FF06A
:100B5800FE4040F44000704701F0004040F0FE4085
:100B680040F40000704700BF844641EA000313F0D8
:100B780003036DD1403A41D351F8043B40F8043B9C
:100B880051F8043B40F8043B51F8043B40F8043B5F
:100B980051F8043B40F8043B51F8043B40F8043B4F
:100BA80051F8043B40F8043B51F8043B40F8043B3F
:100BB80051F8043B40F8043B51F8043B40F8043B2F
:100BC80051F8043B40F8043B51F8043B40F8043B1F
:100BD80051F8043B40F8043B51F8043B40F8043B0F
:100BE80051F8043B40F8043B51F8043B40F8043BFF
:100BF80051F8043B40F8043B403ABDD2303211D39F
:100C080051F8043B40F8043B51F8043B40F8043BDE
:100C180051F8043B40F8043B51F8043B40F8043BCE
:100C2800103AEDD20C3205D351F8043B40F8043B9E
:100C3800043AF9D2043208D0D2071CBF11F8013B9C
:100C480000F8013B01D30B8803806046704700BF62
:100C5800082A13D38B078DD010F003038AD0C3F171
:100C68000403D21ADB071CBF11F8013B00F8013B53
:100C780080D331F8023B20F8023B7BE7043AD9D312
:100C8800013A11F8013B00F8013BF9D20B780370E7
:100C98004B7843708B7883706046704780B483B01C
:100CA80000AF786000E000BF7B685A1E7A60002BB6
:100CB800F9D10C37BD465DF8047B704780B582B02A
:100CC80000AF40F60C73C2F200031B687B607B68C0
:100CD800002B02D07B6898470CE04FF49040C4F298
:100CE8000000212101F000FB44F24020C0F20F0077
:100CF800FFF7D4FF0837BD4680BD00BF80B500AF01
:100D08004FF49040C4F20000452101F0EDFA44F29E
:100D18004020C0F20F00FFF7C1FF80BD80B582B050
:100D280000AF40F62C73C2F200031B687B607B683F
:100D3800002B02D07B6898470CE04FF49040C4F237
:100D480000007C2101F0D0FA44F24020C0F20F00EC
:100D5800FFF7A4FF0837BD4680BD00BF80B596B039
:100D680000AF4FF40010012103F092F80220012196
:100D780003F066F84FF40010012103F0D9F84FF49E
:100D88000010002103F0D4F84FF40010012103F003
:100D980057F84FF4C0733B65022387F85430022399
:100DA80087F85530012387F85630012387F85730E4
:100DB80007F150034FF48060C4F20200194602F0B4
:100DC800DFF94FF48060C4F202000821042202F027
:100DD80065FA4FF48060C4F202000721042202F091
:100DE8005DFA46F21000C4F202003D21C1F2800112
:100DF80002F026FC46F21000C4F20200002102F0C4
:100E080003FC46F21000C4F2020002F08FFA4FF021
:100E180000733B6045F21043C4F200037B6000237B
:100E28007B614FF48063BB610023FB6100233B625D
:100E380000237B624FF48033BB620423FB620323ED
:100E48003B6300237B630023BB630023FB6040F606
:100E5800F463C2F20003BB600E233B6146F210004C
:100E6800C4F2020002F062FA3B4646F21000C4F2F5
:100E78000200194602F070FB4FF4D453C0F2060387
:100E88003B640023A7F844304BF6FF73A7F84630BD
:100E98000023A7F848300023A7F84A304FF48043CE
:100EA800A7F84C3007F140034FF4A840C4F2000003
:100EB800194602F0B9FC4FF4A840C4F200004FF400
:100EC800E061002202F072FE4FF4407003F058F81F
:100ED8001F2387F83C300A2387F83D30002387F822
:100EE8003E30012387F83F3007F13C03184603F0F2
:100EF8005BF8202387F83C300A2387F83D3000232D
:100F080087F83E30012387F83F3007F13C03184645
:100F180003F04AF846F21000C4F202001021002241
:100F280002F0BEFB0B2387F83C300A2387F83D30DC
:100F3800002387F83E30012387F83F3007F13C0350
:100F4800184603F031F846F21000C4F202001021EE
:100F5800012202F0A5FB4FF4A840C4F200000121D1
:100F680002F028FD5837BD4680BD00BF80B586B069
:100F780000AF0346B9607A60FB734FF4A840C4F22F
:100F88000000012102F036FD00BF4FF4A840C4F272
:100F980000000121C0F2030102F02CFE0346002BE1
:100FA800F3D04FF4A840C4F20000D021002202F090
:100FB80061FD00BF4FF4A840C4F200008221C0F2D6
:100FC800070102F017FE0346002BF3D0FB7B4FF41A
:100FD800A840C4F20000194602F08AFD00BF4FF491
:100FE800A840C4F200008421C0F2070102F002FE0A
:100FF8000346002BF3D04FF4A840C4F200000121AF
:1010080002F0F8FC00BF4FF4A840C4F20000012130
:10101800C0F2030102F0EEFD0346002BF3D04FF4BB
:10102800A840C4F20000D021012202F023FD00BF35
:101038004FF4A840C4F200000221C0F2030102F0FC
:10104800D9FD0346002BF3D07B68012B06D94FF45A
:10105800A840C4F20000012102F02AFD26E07B68C6
:10106800012B06D14FF4A840C4F20000002102F081
:101078001FFD00BF4FF4A840C4F200004021C0F299
:10108800030102F0B7FD0346002BF3D04FF4A8404C
:10109800C4F2000002F03CFD0346FB75BB685A1C15
:1010A800BA60FA7D1A707B68013B7B607B68002B15
:1010B800D5D14FF4A840C4F20000012102F0BAFCD7
:1010C8001837BD4680BD00BF80B582B000AF4FF471
:1010D800A840C4F2000002F0BDFD786040F630730D
:1010E800C2F200031B683B607B6803F00203002B1D
:1010F80019D03B68012B0CD140F61873C2F20003DB
:101108001B784FF4A840C4F20000194602F0F0FC26
:10111800B3E04FF4A840C4F200004FF4C0610022CD
:1011280002F044FDA9E03B68012B51D17B6803F034
:101138000403002B4CD040F63073C2F200030222A5
:101148001A604FF4A840C4F20000012102F052FCDA
:1011580000BF4FF4A840C4F2000002F07BFD034634
:1011680003F00103002BF4D04FF4A840C4F20000B0
:10117800D021012202F07EFC40F6D463C2F20003C3
:101188001B68012B0ED94FF4A840C4F200000121BE
:1011980002F08EFC4FF4A840C4F20000012102F0D6
:1011A800E5FC06E04FF4A840C4F20000002102F07C
:1011B8007FFC4FF4A840C4F20000012102F0B6FC05
:1011C80046F21000C4F20200012102F01DFA54E0B8
:1011D8007B6823F44033002B00D14EE04FF490405D
:1011E800C4F2000047F28031C0F6000101F092F825
:1011F8004FF49040C4F2000047F2B831C0F6000145
:1012080001F088F83B68DBB24FF49040C4F200006C
:10121800194601F0A9F84FF49040C4F2000047F2D3
:10122800C031C0F6000101F075F87B681B0CDBB219
:101238004FF49040C4F20000194601F095F87B681D
:101248001B0ADBB24FF49040C4F20000194601F0CB
:101258008BF87B68DBB24FF49040C4F2000019466B
:1012680001F082F84FF49040C4F2000047F2CC310C
:10127800C0F6000101F04EF8FEE70837BD4680BD14
:1012880080B500AF46F21000C4F2020048F2200117
:10129800C1F2000102F03EFA0346002B40D046F2AC
:1012A8001000C4F2020048F22001C1F2000102F06D
:1012B8008BFA4FF4A840C4F200004FF4E06100221A
:1012C80002F074FC4FF4A840C4F20000002102F0C0
:1012D8002DFC46F21000C4F20200002102F094F93D
:1012E8004FF4A840C4F20000012102F0A3FB40F62D
:1012F8005873C2F200031A6840F6D463C2F20003BE
:101308001B68104640F6F461C2F200011A46FFF766
:101318002BFC40F63073C2F2000303221A60B6E0D9
:101328004FF49040C4F2000047F2D031C0F60001FB
:1013380000F0F0FF4FF49040C4F2000047F2B831DB
:10134800C0F6000100F0E6FF40F63073C2F2000379
:101358001B68DBB24FF49040C4F20000194601F05C
:1013680003F84FF49040C4F2000047F2F831C0F699
:10137800000100F0CFFF46F21000C4F2020048F26C
:101388002001C1F2000102F0C5F903464FF4904074
:10139800C4F20000194600F0E7FF4FF49040C4F291
:1013A800000047F20041C0F6000100F0B3FF46F22A
:1013B8001000C4F2020044F21001C1F2000102F070
:1013C800A9F903464FF49040C4F20000194600F012
:1013D800CBFF4FF49040C4F2000047F20841C0F63A
:1013E800000100F097FF46F21000C4F2020042F23A
:1013F8000801C1F2000102F08DF903464FF4904054
:10140800C4F20000194600F0AFFF4FF49040C4F258
:10141800000047F21041C0F6000100F07BFF46F2E1
:101428001000C4F2020041F20401C1F2000102F00E
:1014380071F903464FF49040C4F20000194600F0D9
:1014480093FF4FF49040C4F2000047F21841C0F6F1
:10145800000100F05FFF46F21000C4F20200012113
:10146800C9F2000102F056F903464FF49040C4F265
:101478000000194600F078FF4FF49040C4F20000D5
:1014880047F2CC31C0F6000100F044FFFEE780BD12
:1014980080B584B000AF0346B9607A60FB7340F64C
:1014A8002C73C2F2000341F28922C0F600021A60CE
:1014B80040F60C73C2F2000341F2D102C0F60002FA
:1014C8001A6040F61873C2F20003FA7B1A7040F6ED
:1014D8005873C2F20003BA681A6040F6D463C2F2C5
:1014E80000037A681A6040F63073C2F200030122E2
:1014F8001A604FF4A840C4F20000012102F07AFA01
:1015080000BF4FF4A840C4F2000002F0A3FB03465A
:1015180003F00103002BF4D04FF4A840C4F20000FC
:10152800D021002202F0A6FA4FF4A840C4F200002D
:101538004FF44071012202F039FB1037BD4680BDDF
:1015480080B584B000AF0346FB71FA7907F10F0349
:10155800104619460122FFF709FDFB7B1846103794
:10156800BD4680BD80B582B000AF03460A46FB7118
:101578001346BB714FF4A840C4F20000012102F0E9
:1015880039FA00BF4FF4A840C4F200000121C0F2AC
:10159800030102F02FFB0346002BF3D04FF4A840C1
:1015A800C4F20000D021002202F064FA00BF4FF418
:1015B800A840C4F200008221C0F2070102F01AFB21
:1015C8000346002BF3D0FB794FF4A840C4F2000087
:1015D800194602F08DFA00BF4FF4A840C4F200008B
:1015E8008421C0F2070102F005FB0346002BF3D06B
:1015F800BB794FF4A840C4F20000194602F078FA0B
:1016080000BF4FF4A840C4F200008421C0F20701D3
:1016180002F0F0FA0346002BF3D04FF4A840C4F2CE
:101628000000012102F006FA0837BD4680BD00BF60
:1016380080B582B000AF6B200221FFF793FF49F21B
:10164800E030C0F20400FFF729FB6B20FFF778FFBA
:101658000346FB71FB79022B00D046E06B20822108
:10166800FFF780FF49F2E030C0F20400FFF716FBF5
:101678006B20FFF765FF0346FB71FB79402B00D019
:1016880033E06B200221FFF76DFF49F2E030C0F232
:101698000400FFF703FB6B20FFF752FF0346FB71C3
:1016A800FB79022B00D020E01A200021FFF75AFF17
:1016B80019200721FFF756FF1B201821FFF752FFBB
:1016C8001C201821FFF74EFF23200021FFF74AFFB7
:1016D80037202021FFF746FF38201121FFF742FF6E
:1016E8006A200021FFF73EFF00E0A4E70837BD4667
:1016F80080BD00BF80B485B000AF03460A46FB71C9
:101708001346BB71FB791B029AB2BB799BB2134398
:101718009BB2FB81FB891BB218461437BD465DF8A6
:10172800047B704780B582B000AF78603B2040F6FC
:101738004471C2F200010E22FFF7AAFE00BF40F674
:101748003073C2F200031B68032BF8D17B68062BA9
:1017580000F2828001A252F823F000BF811700082E
:10176800A1170008C1170008E117000801180008B0
:10177800211800084118000840F64473C2F200031B
:101788001A7840F64473C2F20003DB791046194612
:10179800FFF7B0FF034660E040F64473C2F200036F
:1017A8009A7840F64473C2F20003DB781046194673
:1017B800FFF7A0FF034650E040F64473C2F200036F
:1017C8001A7940F64473C2F200035B791046194651
:1017D800FFF790FF034640E040F64473C2F200036F
:1017E8001A7A40F64473C2F200035B7A104619462F
:1017F800FFF780FF034630E040F64473C2F200036F
:101808009A7A40F64473C2F20003DB7A104619460E
:10181800FFF770FF034620E040F64473C2F200036E
:101828001A7B40F64473C2F200035B7B10461946EC
:10183800FFF760FF034610E040F64473C2F200036E
:101848001A7A40F64473C2F200035B7A10461946CE
:10185800FFF750FF034600E000231BB21846083785
:10186800BD4680BD80B500AF40F60473C2F20003E8
:101878004FF000021A6040F66073C2F200030022C3
:101888001A6040F65473C2F2000378221A6040F6D8
:101898006073C2F20003F0221A6040F67073C2F25D
:1018A80000034FF000021A6040F6E463C2F200033E
:1018B8004FF000021A6040F6EC63C2F200034FF0EA
:1018C80000021A6040F62073C2F2000300221A6078
:1018D80034E040F62073C2F200031A6840F6D86379
:1018E800C2F20003920013444FF000021A6040F65F
:1018F8002073C2F200031A6840F61473C2F20003A0
:10190800920013444FF000021A6040F62073C2F2AE
:1019180000031A6840F66473C2F20003920013448D
:101928004FF000021A6040F62073C2F200031B68F1
:101938005A1C40F62073C2F200031A6040F6207366
:10194800C2F200031B68012BC3DD01F087F80246D1
:1019580040F6DC63C2F200031A6001F07FF8024629
:1019680040F61C73C2F200031A604FF49040C4F2B0
:10197800000047F22041C0F6000100F0CBFC4FF414
:101988009040C4F2000047F25041C0F6000100F058
:10199800C1FC80BD80B582B000AF786040F6DC63E2
:1019A800C2F200031B687A68D31A632B08D940F681
:1019B800DC63C2F200037A681A6000F00DF908E1EE
:1019C80040F61C73C2F200031B687A68D31AC72B4F
:1019D80040F2FF8040F61C73C2F200037A681A6076
:1019E80040F61C73C2F200031B681846FEF75CFD44
:1019F80002460B46104619464FF000024FF40843C2
:101A0800C4F2C303FEF7F0FE02460B461046194621
:101A18004FF000024FF00003C4F23E03FFF740F816
:101A28000346002B2ED040F61C73C2F200031B683D
:101A38001846FEF739FD02460B46104619464FF088
:101A480000024FF40843C4F2C303FEF7CDFE02467A
:101A58000B461046194649F69A12C9F6991241F6EC
:101A68009913C4F23E03FFF711F80346002B09D07F
:101A78004FF49040C4F2000047F26841C0F60001FC
:101A880000F048FC40F61C73C2F200031B6807EE26
:101A9800903AF8EE677A4FF48043C4F21C6307EE7D
:101AA800103AC7EE877A4FF49040C4F20000B0EEC7
:101AB800670A0521042200F041FD4FF49040C4F26A
:101AC800000047F27441C0F6000100F023FC40F624
:101AD8003873C2F20003D3ED007A4FF49040C4F299
:101AE8000000B0EE670A0321032200F027FD4FF43F
:101AF8009040C4F2000047F27441C0F6000100F0C3
:101B080009FC40F62873C2F20003D3ED007A4FF4C3
:101B18009040C4F20000B0EE670A0321032200F0EF
:101B28000DFD4FF49040C4F2000047F27441C0F636
:101B3800000100F0EFFB40F6D863C2F20003D3EDDA
:101B4800017A4FF49040C4F20000B0EE670A032116
:101B5800032200F0F3FC4FF49040C4F2000047F277
:101B68007441C0F6000100F0D5FB40F61473C2F2D0
:101B78000003D3ED017A4FF49040C4F20000B0EEB8
:101B8800670A0321032200F0D9FC4FF49040C4F205
:101B9800000047F27441C0F6000100F0BBFB40F6BC
:101BA8006C73C2F20003D3ED007A4FF49040C4F294
:101BB8000000B0EE670A0521032200F0BFFC4FF4D5
:101BC8009040C4F2000047F27841C0F6000100F0EE
:101BD800A1FB0837BD4680BD80B500AF0020FFF7E8
:101BE800A1FD034607EE903AF8EEE77A4FF08A43F4
:101BF80007EE103AC7EE877A40F6D863C2F20003C0
:101C0800C3ED017A0120FFF78DFD034607EE903AF8
:101C1800F8EEE77A4FF08A4307EE103AC7EE877A74
:101C280040F61473C2F20003C3ED017A0220FFF7F5
:101C380079FD034607EE903AF8EEE77A4FF08A43CB
:101C480007EE103AC7EE877A40F66473C2F20003D3
:101C5800C3ED017A0320FFF765FD034607EE903ACE
:101C6800F8EEE77A42F2E963C3F6D17307EE103A69
:101C7800C7EE877A40F64073C2F20003C3ED007ADC
:101C88000420FFF74FFD034607EE903AF8EEE77A97
:101C980042F2E963C3F6D17307EE103AC7EE877ACA
:101CA80040F60873C2F20003C3ED007A0520FFF77F
:101CB80039FD034607EE903AF8EEE77A42F2E96317
:101CC800C3F6D17307EE103AC7EE877A40F66C7305
:101CD800C2F20003C3ED007A0620FFF723FD034696
:101CE80007EE903AF8EEE77A4FF00003C4F2AA3311
:101CF80007EE103AC7EE877A41F6B863C4F21223AA
:101D080007EE103A77EE877A40F6F063C2F20003E6
:101D1800C3ED007A00F004F800F092F880BD00BF2F
:101D28002DE9B04300AF40F6D860C2F2000000F0E1
:101D38004DFA40F6D863C2F200035B681846FEF716
:101D4800D5FB04460D4640F61473C2F200035B68E7
:101D58001846FEF7CBFB02460B4643EC102B4FF020
:101D680000024FF0804343EC112B02F051FF59EC75
:101D7800108B40F66473C2F200035B681846FEF7E6
:101D8800B5FB02460B4643EC102B4FF000024FF018
:101D9800804343EC112B02F03BFF53EC102B4046E1
:101DA8004946FEF745FA02460B4643EC172BB0EEC0
:101DB800470AF0EE670A03F0CBF853EC102B2046E5
:101DC8002946FEF711FD02460B4643EC172BB0EEF1
:101DD800470AF0EE670A02F05FFD53EC102B10463D
:101DE8001946FEF771FE03461846FEF77FFB0246CA
:101DF8000B46104619464FF000024FF40043C4F258
:101E08006603FEF7C7FB02460B461046194642F624
:101E18001852C5F2444242F2FB13C4F20903FEF71A
:101E2800E3FC02460B4610461946FEF74DFE0246F5
:101E380040F63873C2F200031A60BDE8B08300BFF1
:101E48002DE9B04300AF40F61470C2F2000000F074
:101E5800BDF940F61473C2F200035B681846FEF73A
:101E680045FB04460D4640F6D863C2F200035B68A2
:101E78001846FEF73BFB02460B4643EC102B4FF08F
:101E880000024FF0804343EC112B02F0C1FE59ECE5
:101E9800108B40F66473C2F200035B681846FEF7C5
:101EA80025FB02460B4643EC102B4FF000024FF087
:101EB800804343EC112B02F0ABFE53EC102B404651
:101EC8004946FEF7B5F902460B4643EC172BB0EE30
:101ED800470AF0EE670A03F03BF853EC102B204654
:101EE8002946FEF781FC02460B4643EC172BB0EE61
:101EF800470AF0EE670A02F0CFFC53EC102B1046AD
:101F08001946FEF7E1FD03461846FEF7EFFA0246CA
:101F18000B46104619464FF000024FF40043C4F236
:101F28006603FEF737FB02460B461046194642F693
:101F38001852C5F2444242F2FB13C4F20903FEF7F9
:101F480053FC02460B4610461946FEF7BDFD0246F5
:101F580040F62873C2F200031A60BDE8B08300BFE0
:101F680080B400AF40F63873C2F200031B6807EE76
:101F7800903AB0EE670ABD465DF8047B704700BF33
:101F880080B500AF00F03EFB0346012B21D140F69F
:101F98006073C2F200031B685A1C40F66073C2F2F9
:101FA80000031A6040F65473C2F200031B685A1CFF
:101FB80040F65473C2F200031A6040F66873C2F226
:101FC80000031B685A1C40F66873C2F200031A60CB
:101FD80026E000F017FB0346B3F1FF3F20D140F69F
:101FE8006073C2F200031B685A1E40F66073C2F2A7
:101FF80000031A6040F65473C2F200031B685A1EAD
:1020080040F65473C2F200031A6040F66873C2F2D5
:1020180000031B685A1E40F66873C2F200031A6078
:1020280040F66073C2F200031B68B3F5B47F05DBAA
:1020380040F66073C2F2000300221A6040F654733F
:10204800C2F200031B68B3F5B47F05DB40F6547396
:10205800C2F2000300221A6040F66873C2F200035D
:102068001B68B3F5B47F05DB40F66873C2F2000362
:1020780000221A6040F66073C2F200031B68002B4E
:1020880006DA40F66073C2F2000340F267121A6083
:1020980040F65473C2F200031B68002B06DA40F6C0
:1020A8005473C2F2000340F267121A6040F6687374
:1020B800C2F200031B68002B06DA40F66873C2F20E
:1020C800000340F267121A6040F66073C2F2000320
:1020D8001A6840F20003C2F2000392001344D3EDE1
:1020E800007A4FF47053C4F2036307EE103A67EEB8
:1020F800877A40F67073C2F20003C3ED007A40F6A7
:102108005473C2F200031A6840F20003C2F20003DB
:1021180092001344D3ED007A4FF47053C4F2036372
:1021280007EE103A67EE877A40F6E463C2F20003DE
:10213800C3ED007A40F66873C2F200031A6840F2F1
:102148000003C2F2000392001344D3ED007A4FF467
:102158007053C4F2036307EE103A67EE877A40F6CD
:10216800EC63C2F20003C3ED007A40F67073C2F26A
:102178000003D3ED007AFCEEE77A4FF40060C4F276
:10218800000017EE901A02F07BFA40F6E463C2F200
:102198000003D3ED007AFCEEE77A4FF40060C4F256
:1021A800000017EE901A02F079FA40F6EC63C2F2DA
:1021B8000003D3ED007AFCEEE77A4FF40060C4F236
:1021C800000017EE901A02F077FA80BD2DE99043CF
:1021D80083B000AF78607B681C1D7B681B6818465D
:1021E800FEF784F902460B46104619464FF0333283
:1021F80043F23333C3F6E373FEF7CCF902460B46DA
:10220800904699467B6804331B681846FEF76EF9BA
:1022180002460B461046194649F69A12C9F6991213
:1022280049F69913C3F6D973FEF7B4F902460B467B
:1022380040464946FDF7FCFF02460B461046194644
:10224800FEF742FC034623607B685A687B681A6085
:102258000C37BD46BDE8908380B586B000AF4FF41B
:102268008020012101F014FE0820012101F0E8FD81
:102278004FF480733B6102233B7502237B75002377
:10228800BB750123FB7507F110034FF44060C4F2DE
:102298000200194600F074FF4FF44060C4F20200D7
:1022A8000821072200F0FAFF4FF4E1333B600023D6
:1022B800BB800023FB8000233B810023BB810823D4
:1022C8007B813B464FF49040C4F20000194601F070
:1022D800D3FE4FF49040C4F20000012101F092FFB8
:1022E8001837BD4680BD00BF80B582B000AF7860AA
:1022F800396000BF7B681B889BB203F04003002B4A
:10230800F8D03B689BB27868194601F09BFF083704
:10231800BD4680BD80B582B000AF7860396008E006
:102328003B685A1C3A601B78DBB278681946FFF79D
:10233800DBFF3B681B78002BF2D10837BD4680BD18
:1023480080B582B000AF786039603B68092B02D94C
:102358003B68373301E03B68303378681946FFF74C
:10236800C3FF0837BD4680BD80B582B000AF786036
:102378000B46FB70FB781B09DBB278681946FFF740
:10238800DFFFFB7803F00F0378681946FFF7D8FFE3
:102398000837BD4680BD00BF80B588B000AFF86083
:1023A80087ED020A79603A60D7ED027AF5EE407A55
:1023B800F1EE10FA07D1FB6830221A70FB6801337E
:1023C80000221A70B6E0D7ED027AF5EEC07AF1EE87
:1023D80010FA0AD5FB685A1CFA602D221A70D7ED3C
:1023E800027AF1EE677AC7ED027A7B6807EE903AD7
:1023F800F8EE677AB2EE040AF0EE670A02F006FE1B
:1024080087ED070A97ED027AD7ED077AB4EEE77AF7
:10241800F1EE10FA07DBFB6823221A70FB68013320
:1024280000221A7086E00123FB7644E0D7ED077A94
:10243800B2EE047AC7EE877AC7ED077A97ED027A8B
:10244800D7ED077AC7EE277AFCEEE77A17EE903ACF
:102458007B61FB7E002B11D07B69002B0ED1D7ED61
:10246800077AB2EE047AF4EEC77AF1EE10FA05DBD9
:10247800FB685A1CFA6020221A7019E00023FB76C8
:10248800FB685A1CFA607A69D2B23032D2B2D2B240
:102498001A707B6907EE903AB8EE677AD7ED077A3B
:1024A80067EE277A97ED027A77EE677AC7ED027AB8
:1024B8007B68013B7B607B68002BB7D13B68002BB6
:1024C80005D1FB685A1CFA6000221A7032E0FB68DA
:1024D8005A1CFA602E221A70D7ED027AB2EE047AEC
:1024E80067EE877AC7ED027AD7ED027AFCEEE77AD3
:1024F80017EE903A7B61FB685A1CFA607A69D2B28F
:102508003032D2B2D2B21A707B6907EE903AF8EE46
:10251800677A97ED027A77EE677AC7ED027A3B68B9
:10252800013B3B603B68002BD6D1FB685A1CFA6024
:1025380000221A702037BD4680BD00BF80B58CB020
:1025480000AFF86087ED020A79603A6007F114037A
:10255800FB62F86A97ED020A79683A68FFF71CFF90
:1025680002E0FB6A0133FB62FB6A1B78002BF8D19F
:10257800FB6A00221A7007F11403F8681946FFF77E
:10258800C9FE3037BD4680BD80B584B000AF7860E5
:1025980040F61063C2F200031B68002B08D140F616
:1025A8001063C2F2000340F67872C2F200021A60A9
:1025B80040F61063C2F200031B68FB6040F610632C
:1025C800C2F200031A687B6813446A46934207D92B
:1025D80004F0BAFF02460C2313604FF0FF330CE0FF
:1025E80040F61063C2F200031A687B681A4440F68A
:1025F8001063C2F200031A60FB6818461037BD4624
:1026080080BD00BF80B52DED028B00AF40F6107382
:10261800C2F2000393ED008AFFF7A2FCF0EE407AC5
:1026280078EE677AF5EEC07AF1EE10FA01DD012353
:1026380013E040F61073C2F2000393ED008AFFF72F
:102648008FFCF0EE407A78EE677AF5EEC07AF1EE1C
:1026580010FA02D54FF0FF33FFE71846BD46BDEC30
:10266800028B80BD80B500AF4FF08040012102F0A1
:10267800ADF80346002B0FD04FF08040012102F047
:10268800CFF840F65C73C2F200031B685A1C40F690
:102698005C73C2F200031A6080BD00BF80B500AF52
:1026A8000020C4F20100012102F090F80346002B3B
:1026B80007D00020C4F20100012102F0B1F8FFF7B1
:1026C8005FFC80BD80B500AF4FF4A050C4F200009D
:1026D800012102F07BF80346002B06D04FF4A050EE
:1026E800C4F20000012102F09BF880BD80B500AF64
:1026F8004FF48060C4F20100012102F067F803463C
:10270800002B06D04FF48060C4F20100012102F0D2
:1027180087F880BD80B500AF40F65C73C2F2000355
:1027280000221A6000F08AF94FF48060C4F20000B9
:1027380000F022F84FF40060C4F2000000F01CF82A
:102748004FF44060C4F2000000F016F800F040F9C1
:102758000020C4F2010000F059F84FF4A050C4F270
:10276800000000F053F84FF48060C4F2010000F05C
:102778004DF800F071F880BD80B58AB000AF786080
:1027880000F090F80023BB830023FB8342F2CF03C1
:102798003B620023BB84002387F8263007F11C0323
:1027A8007868194601F060FD7868012101F0D2FDD2
:1027B80060233B8101237B810023BB8200233B6193
:1027C80007F108037868194601F0E4FD78680821E4
:1027D80001F080FF00233B6107F108037868194680
:1027E80001F060FE7868082101F092FF00233B6148
:1027F80007F108037868194601F0DAFE78680821BD
:1028080001F0A2FF2837BD4680BD00BF80B586B065
:1028180000AF786040F24733BB810023FB814FF45F
:10282800FA733B610023BB820023BB7507F10C03DD
:102838007868194601F018FD7868012101F0F0FF69
:1028480078680121012201F09DFF7868012101F0DB
:1028580081FD1837BD4680BD80B584B000AF5323D5
:10286800BB800023FB806423BB600023BB81002363
:10287800BB733B1D4FF08040194601F0F5FC4FF04B
:102888008040012101F0CCFF4FF08040012101225E
:1028980001F078FF4FF08040012101F05BFD103717
:1028A800BD4680BD80B582B000AF4FF48060C4F2F1
:1028B80002000721022200F0F1FC4FF48060C4F20C
:1028C80002000821022200F0E9FC4FF48060C4F203
:1028D80002000921022200F0E1FC4FF44060C4F23A
:1028E80002000D21022200F0D9FC4FF44060C4F22E
:1028F80002000E21022200F0D1FC4FF44060C4F225
:1029080002000F21022200F0C9FC0020C4F20200DC
:102918000221022200F0C2FC0020C4F202000321BE
:10292800022200F0BBFC0020C4F2020004210222B3
:1029380000F0B4FC4FF460733B600023BB710023CC
:10294800FB7102233B7103237B713B464FF480608C
:10295800C4F20200194600F013FC4FF460433B60D8
:102968000023BB710023FB7102233B7103237B719E
:102978003B464FF44060C4F20200194600F000FCE8
:102988001C233B600023BB710023FB7102233B71B6
:1029980003237B713B460020C4F20200194600F075
:1029A800EFFB4FF480533B600023BB710023FB71A6
:1029B80001233B7103237B713B464FF44060C4F213
:1029C8000200194600F0DCFB0837BD4680BD00BF99
:1029D80080B582B000AF1C233B7100237B710123BB
:1029E800BB710123FB713B1D184601F0DDFA37234B
:1029F8003B7100237B710123BB710123FB713B1DDC
:102A0800184601F0D1FA19233B7100237B71012389
:102A1800BB710123FB713B1D184601F0C5FA2C233D
:102A28003B7100237B710123BB710123FB713B1DAB
:102A3800184601F0B9FA0837BD4680BD80B500AF29
:102A48000B20012101F0FCF92F20012101F020FACF
:102A58000320012101F044FA80BD00BF80B400AF1B
:102A680040F65C73C2F200031B681846BD465DF869
:102A7800047B704780B500AFFFF7EEFBFEF7F2FE70
:102A8800FFF748FE48F28040C0F21E00FEF706F944
:102A9800FEF764F948F28040C0F21E00FEF7FEF827
:102AA800FEF7C6FDFFF7DAFF03461846FEF772FF8A
:102AB800F8E700BF80B400AFBD465DF8047B7047FF
:102AC80080B400AFFEE700BF80B400AFFEE700BFF0
:102AD80080B400AFFEE700BF80B400AFFEE700BFE0
:102AE80080B400AFBD465DF8047B704780B500AF89
:102AF8004FF46D43CEF200034FF46D42CEF2000264
:102B0800D2F8882042F47002C3F888204FF460534A
:102B1800C4F202034FF46052C4F20202126842F097
:102B280001021A604FF46053C4F2020300229A6053
:102B38004FF46052C4F202024FF46053C4F202032D
:102B48001B6823F0847323F4803313604FF46053BD
:102B5800C4F2020343F21002C2F200425A604FF478
:102B68006053C4F202034FF46052C4F202021268C6
:102B780022F480221A604FF46053C4F20203002248
:102B8800DA6000F009F84FF46D43CEF200034FF01D
:102B980000629A6080BD00BF80B483B000AF00239C
:102BA8007B6000233B604FF46053C4F202034FF490
:102BB8006052C4F20202126842F480321A604FF482
:102BC8006053C4F202031B6803F400333B607B6864
:102BD80001337B603B68002B03D17B68B3F5A04FC2
:102BE800EDD14FF46053C4F202031B6803F40033C1
:102BF800002B02D001233B6001E000233B603B68CF
:102C0800012B40F082804FF46053C4F202034FF46A
:102C18006052C4F20202126C42F080521A644FF4FD
:102C2800E043C4F200034FF4E042C4F20002126829
:102C380042F440421A604FF46053C4F202034FF466
:102C48006052C4F2020292689A604FF46053C4F270
:102C580002034FF46052C4F20202926842F4004246
:102C68009A604FF46053C4F202034FF46052C4F206
:102C78000202926842F4A0529A604FF46053C4F280
:102C8800020345F20842C0F240725A604FF46053A2
:102C9800C4F202034FF46052C4F20202126842F016
:102CA80080721A6000BF4FF46053C4F202031B68BD
:102CB80003F00073002BF6D04FF47053C4F20203F4
:102CC80040F205721A604FF46053C4F202034FF4E5
:102CD8006052C4F20202926822F003029A604FF432
:102CE8006053C4F202034FF46052C4F202029268C5
:102CF80042F002029A6000BF4FF46053C4F202032C
:102D08009B6803F00C03082BF6D10C37BD465DF821
:102D1800047B704780B485B000AF786039607B6809
:102D28005B68FB603B68FA685A60FB689A683B68B6
:102D38009A60FB689B683A685A60FB683A689A60D0
:102D48003B687A681A617B681B685A1C7B681A6042
:102D58001437BD465DF8047B704700BF80B485B06A
:102D680000AF78607B681B69FB607B685B687A688A
:102D780092689A607B689B687A6852685A60FB68B8
:102D88005A687B689A4203D17B689A68FB685A60E4
:102D98007B6800221A61FB681B685A1EFB681A6070
:102DA800FB681B6818461437BD465DF8047B7047FE
:102DB80080B586B000AF00237B6140F69C63C2F209
:102DC80000031B68002B40F0CE8040F68463C2F2FB
:102DD80000031B685A1C40F68463C2F200031A60A1
:102DE80040F68463C2F200031B683B613B69002B19
:102DF80034D140F67C63C2F200031B681B68002BC9
:102E080009D04FF0500383F31188BFF36F8FBFF3DE
:102E18004F8F3B60FEE740F67C63C2F200031B68FD
:102E2800FB6040F68063C2F200031A6840F67C63D8
:102E3800C2F200031A6040F68063C2F20003FA6827
:102E48001A6040F69463C2F200031B685A1C40F6ED
:102E58009463C2F200031A6000F002F940F6986326
:102E6800C2F200031B683A699A4267D340F67C6352
:102E7800C2F200031B681B68002B01D1012300E08C
:102E88000023002B07D040F69863C2F200034FF0EE
:102E9800FF321A6052E040F67C63C2F200031B68FE
:102EA800DB68DB68BB60BB685B687B603A697B6832
:102EB8009A4206D240F69863C2F200037A681A6012
:102EC8003CE0BB6804331846FFF748FFBB689B6AC1
:102ED800002B04D0BB6818331846FFF73FFFBB68C8
:102EE800DB6A1A46012303FA02F240F68863C2F24B
:102EF80000031B681A4340F68863C2F200031A6095
:102F0800BB68DA6A13469B0013449B0040F61862BC
:102F1800C2F200021A44BB68043310461946FFF790
:102F2800F9FEBB68DA6A40F61463C2F200031B6854
:102F3800DB6A9A4201D301237B6197E740F6146369
:102F4800C2F200031B68D96A40F61862C2F2000296
:102F58000B469B000B449B0013441B68012B0DD9A7
:102F680001237B610AE040F68C63C2F200031B6810
:102F78005A1C40F68C63C2F200031A6040F6906354
:102F8800C2F200031B68002B01D001237B617B691F
:102F980018461837BD4680BD80B487B000AF40F6EC
:102FA8009C63C2F200031B68002B06D040F69063B6
:102FB800C2F2000301221A604DE040F69063C2F2AB
:102FC800000300221A6040F68863C2F200031B68FF
:102FD800FB60FB68B3FA83F3FB72FB7AC3F11F0350
:102FE8007B6140F61862C2F2000279690B469B00C9
:102FF8000B449B0013441B68002B09D14FF050036E
:1030080083F31188BFF36F8FBFF34F8F7B60FEE7A9
:103018007A6913469B0013449B0040F61862C2F27B
:10302800000213443B613B695B685A683B695A601C
:103038003B695A683B6908339A4204D13B695B682B
:103048005A683B695A603B695B68DA6840F6146302
:10305800C2F200031A601C37BD465DF8047B704756
:1030680080B483B000AF40F67C63C2F200031B68F3
:103078001B68002B01D1012300E00023002B07D09F
:1030880040F69863C2F200034FF0FF321A600EE078
:1030980040F67C63C2F200031B68DB68DB687B6078
:1030A8007B685A6840F69863C2F200031A600C37CE
:1030B800BD465DF8047B7047064B19680868B0E8A0
:1030C800F04F80F30988BFF36F8F4FF0000080F353
:1030D80011887047140E0020EFF30980BFF36F8F3B
:1030E800144B1A681EF0100F08BF20ED108A20E953
:1030F800F04F10604DF8043D4FF0500080F31188F8
:10310800BFF34F8FBFF36F8FFFF746FF4FF00000FD
:1031180080F3118808BC19680868B0E8F04F1EF001
:10312800100F08BFB0EC108A80F30988BFF36F8FC7
:10313800704700BF140E002080B584B000AFEFF3D5
:1031480011824FF0500383F31188BFF36F8FBFF3E1
:103158004F8FFA60BB60FFF72BFE0346002B06D0AB
:103168004EF60453CEF200034FF080521A6000234B
:103178007B607B6883F311881037BD4680BD00BF34
:1031880080B487B000AF7860396000237B6100238A
:103198003B610023FB6000237B6176E07B690122B1
:1031A80002FA03F33B613B681A683B691340FB6012
:1031B800FA683B699A4265D17B681A687B695B004B
:1031C800194603238B40DB431A407B681A607B68EF
:1031D8001A683B681B7919467B695B0001FA03F39F
:1031E8001A437B681A603B681B79012B03D03B6844
:1031F8001B79022B2ED17B689A687B695B00194684
:1032080003238B40DB431A407B689A607B689A688B
:103218003B685B7919467B695B0001FA03F31A4343
:103228007B689A607B685A687B699BB21946012360
:103238008B40DB431A407B685A607B685B683A685E
:10324800927911467A6992B201FA02F292B21A435D
:103258007B685A607B68DA687B699BB25B000321F4
:1032680001FA03F3DB431A407B68DA607B68DA68AB
:103278003B68DB7919467B695B0001FA03F31A4363
:103288007B68DA607B6901337B617B690F2B85D9A9
:103298001C37BD465DF8047B704700BF80B485B01D
:1032A80000AF78600B467B8013467B700023FB6081
:1032B8000023BB607B787A8802F007029200934073
:1032C800FB607B88DB089BB218467B88DB089BB2D7
:1032D8001A467B68083253F822207B8803F00703DC
:1032E8009B0019460F238B40DB4302EA03017B68EE
:1032F80000F1080243F822107B88DB089BB21A46CB
:103308007B68083253F82220FB681343BB607B8834
:10331800DB089BB21A467B680832B96843F822106A
:103328001437BD465DF8047B704700BF80B483B096
:1033380000AF78607B681B6823F001027B681A6025
:103348007B6800221A607B6800225A607B68002232
:103358009A607B680022DA607B6800221A617B68C9
:1033680021225A617A6846F21003C4F202039A4293
:1033780006D14FF4C043C4F202033D229A60E6E04E
:103388007A6846F22803C4F202039A4207D14FF43E
:10339800C043C4F202034FF474629A60D7E07A68BB
:1033A80046F24003C4F202039A4207D14FF4C043E5
:1033B800C4F202034FF474129A60C8E07A6846F2C5
:1033C8005803C4F202039A4207D14FF4C043C4F22F
:1033D80002034FF074629A60B9E07A6846F27003AB
:1033E800C4F202039A4208D14FF4C043C4F2020364
:1033F8003D22C2F20002DA60A9E07A6846F2880348
:10340800C4F202039A4209D14FF4C043C4F2020342
:103418004FF47462C2F20002DA6098E07A6846F209
:10342800A003C4F202039A4208D14FF4C043C4F285
:1034380002030022C2F23D02DA6088E07A6846F2AE
:10344800B803C4F202039A4207D14FF4C043C4F24E
:1034580002034FF03D52DA6079E07A6846F2104391
:10346800C4F202039A4206D14FF4C843C4F20203DD
:103478003D229A606BE07A6846F22843C4F2020360
:103488009A4207D14FF4C843C4F202034FF474625E
:103498009A605CE07A6846F24043C4F202039A42BA
:1034A80007D14FF4C843C4F202034FF474129A6070
:1034B8004DE07A6846F25843C4F202039A4207D1B3
:1034C8004FF4C843C4F202034FF074629A603EE0BE
:1034D8007A6846F27043C4F202039A4208D14FF464
:1034E800C843C4F202033D22C2F20002DA602EE0B1
:1034F8007A6846F28843C4F202039A4209D14FF42B
:10350800C843C4F202034FF47462C2F20002DA60E4
:103518001DE07A6846F2A043C4F202039A4208D139
:103528004FF4C843C4F202030022C2F23D02DA603B
:103538000DE07A6846F2B843C4F202039A4206D113
:103548004FF4C843C4F202034FF03D52DA600C371F
:10355800BD465DF8047B704780B485B000AF7860E5
:1035680039600023FB607B681B68FB60FA6848F2DF
:103578003F03CFF21C031340FB603B681A683B68AB
:10358800DB681A433B685B691A433B689B691A43CB
:103598003B68DB691A433B681B6A1A433B685B6AF2
:1035A8001A433B689B6A1A433B685B6B1A433B6848
:1035B8009B6B1343FA681343FB607B68FA681A60D5
:1035C8007B685B69FB60FB6823F00703FB603B6873
:1035D800DA6A3B681B6B1343FA681343FB607B682A
:1035E800FA685A613B681A697B685A603B685A688E
:1035F8007B689A603B689A687B68DA601437BD46D6
:103608005DF8047B704700BF80B483B000AF78607A
:103618000B46FB70FB78002B06D07B681B6843F0D9
:1036280001027B681A6005E07B681B6823F00102D1
:103638007B681A600C37BD465DF8047B704700BF95
:1036480080B485B000AF786039607A6846F20F437D
:10365800C4F202039A4205D84FF4C043C4F20203ED
:10366800FB6004E04FF4C843C4F20203FB603B680C
:1036780003F00053002B07D03B6823F0F02323F01E
:103688008213FA68D36006E03B6823F0F02323F046
:103698008213FA6893601437BD465DF8047B70475F
:1036A80080B485B000AFF860B9601346FB71BB68A1
:1036B80003F08003002B0FD0FB79002B06D0FB68AA
:1036C8005B6943F08002FB685A6105E0FB685B694F
:1036D80023F08002FB685A61BB68802B14D0FB7909
:1036E800002B08D0FB681A68BB6803F01E031A4356
:1036F800FB681A6008E0FB681A68BB6803F01E03E1
:10370800DB431A40FB681A601437BD465DF8047B3A
:10371800704700BF80B487B000AF7860396000237D
:10372800FB750023FB600023BB607A6846F20F43F9
:10373800C4F202039A4205D84FF4C043C4F202030C
:103748003B6104E04FF4C843C4F202033B613B68A9
:1037580023F0F02323F0C313002B0AD03B68DB0AC5
:1037680003F01E03FB607B681A68FB681340BB60AC
:1037780004E07B685B6903F08003BB603B6803F08F
:103788000053002B03D03B695B68FB6002E03B6998
:103798001B68FB60FB6823F0F02323F08213FB60B7
:1037A800FA683B681340002B05D0BB68002B02D099
:1037B8000123FB7501E00023FB75FB7D18461C37D0
:1037C800BD465DF8047B704780B485B000AF786073
:1037D80039607A6846F20F43C4F202039A4205D868
:1037E8004FF4C043C4F20203FB6004E04FF4C84343
:1037F800C4F20203FB603B6803F00053002B07D0C0
:103808003B6823F0F02323F08213FA68D36006E0C4
:103818003B6823F0F02323F08213FA68936014378F
:10382800BD465DF8047B704780B58AB000AF78600C
:1038380039600023FB8400237B840423BB844FF47A
:103848009053C0F27A03FB617B689B88FB84FB8CF6
:1038580023F03F03FB8407F10C03184600F01CFA21
:103868007B69FB61FA694DF68363C4F21B33A3FBE2
:1038780002239B0C7B84FA8C7B8C1343FB847B6830
:10388800FA8C9A807B681B889BB223F001039AB25A
:103898007B681A800023FB843B681A6848F2A0639F
:1038A800C0F201039A4215D83B681B685B00FA69AD
:1038B800B2FBF3F3BB84BB8C032B01D80423BB847A
:1038C800FA8CBB8C1343FB847B8C01339AB27B68E4
:1038D8001A8443E03B68DB884BF6FF72934209D1B8
:1038E8003B681A6813465B001344FA69B2FBF3F3AA
:1038F800BB840EE03B681A6813469B0013449A0089
:103908001344FA69B2FBF3F3BB84BB8C43F48043E2
:10391800BB84BB8CC3F30B03002B03D1BB8C43F0DC
:103928000103BB84BA8CFB8C13439BB26FEA4343FD
:103938006FEA5343FB847B8C4FF4967202FB03F2CD
:1039480044F6D353C1F2620383FB02139911D317D0
:10395800CB1A9BB201339AB27B681A847B68FA8CC3
:103968009A837B681B889BB243F001039AB27B68F9
:103978001A807B681B88FB84FB8C23F4816323F00B
:103988000203FB843B689A883B685B8913439AB2BD
:10399800FB8C1343FB847B68FA8C1A803B689A89FA
:1039A8003B681B8913439AB27B681A812837BD4646
:1039B80080BD00BF80B483B000AF78600B46FB7059
:1039C800FB78002B08D07B681B889BB243F001036F
:1039D8009AB27B681A8007E07B681B889BB223F049
:1039E80001039AB27B681A800C37BD465DF8047BE8
:1039F800704700BF80B483B000AF78600B46FB709F
:103A0800FB78002B08D07B681B889BB243F480733B
:103A18009AB27B681A8007E07B681B889BB223F404
:103A280080739AB27B681A800C37BD465DF8047BB8
:103A3800704700BF80B483B000AF78600B46FB705E
:103A4800FB78002B08D07B681B889BB243F400737B
:103A58009AB27B681A8007E07B681B889BB223F4C4
:103A680000739AB27B681A800C37BD465DF8047BF8
:103A7800704700BF80B483B000AF78600B46FB701E
:103A88001346BB70BB78002B04D0FB7843F00103CE
:103A9800FB7003E0FB7823F00103FB70FB789AB21C
:103AA8007B681A820C37BD465DF8047B704700BFFF
:103AB80080B483B000AF78600B46FB70FB78002BB6
:103AC80008D07B681B889BB243F480639AB27B68FA
:103AD8001A8007E07B681B889BB223F480639AB244
:103AE8007B681A800C37BD465DF8047B704700BFC1
:103AF80080B483B000AF78600B46FB70FB789AB255
:103B08007B681A820C37BD465DF8047B704700BF9E
:103B180080B483B000AF78607B681B8A9BB2DBB24D
:103B280018460C37BD465DF8047B704780B483B0F7
:103B380000AF78600B46FB70FB78002B08D07B68E1
:103B48009B889BB243F400639AB27B689A8007E033
:103B58007B689B889BB223F400639AB27B689A8047
:103B68000C37BD465DF8047B704700BF80B483B056
:103B780000AF78600B46FB70FB78002B08D07B68A1
:103B88009B889BB243F480539AB27B689A8007E083
:103B98007B689B889BB223F480539AB27B689A8097
:103BA8000C37BD465DF8047B704700BF80B483B016
:103BB80000AF78600B467B8013467B707B78002BC8
:103BC80008D07B689B889AB27B8813439AB27B683B
:103BD8009A8009E07B689B889AB27B88DB439BB21A
:103BE80013409AB27B689A800C37BD465DF8047B17
:103BF800704700BF80B487B000AF78603960002399
:103C08003B610023FB600023BB600023FB757B68DE
:103C18009B8A9BB2FB607B681B8B9BB2BB60BB68BB
:103C28001B04BB60FA68BB68134323F07F433B6106
:103C38003A693B681A403B689A4202D10123FB75F6
:103C480001E00023FB75FB7D18461C37BD465DF877
:103C5800047B704780B487B000AF786000237B6135
:103C680000233B610023FB607B689B8A9BB23B611E
:103C78007B681B8B9BB2FB60FB681B04FB603A698B
:103C8800FB68134323F07F437B617B6918461C372D
:103C9800BD465DF8047B704780B489B000AF78609A
:103CA8000023BB6100237B610023FB6102233B618E
:103CB8000023FB600223BB604FF46053C4F202038D
:103CC8009B6803F00C03BB61BB69042B0AD0082B6B
:103CD8000FD0002B5AD17A684FF41053C0F2F40376
:103CE80013605AE07A684FF49053C0F27A03136075
:103CF80053E04FF46053C4F202035B6803F480039B
:103D08009B0DFB604FF46053C4F202035B6803F041
:103D18003F03BB60FB68002B13D04FF49053C0F2F5
:103D28007A03BA68B3FBF2F24FF46053C4F20203A9
:103D3800596847F6C0730B409B0903FB02F3FB610C
:103D480012E04FF41053C0F2F403BA68B3FBF2F276
:103D58004FF46053C4F20203596847F6C0730B402E
:103D68009B0903FB02F3FB614FF46053C4F20203A7
:103D78005B6803F440331B0C01335B003B61FA6959
:103D88003B69B2FBF3F27B681A6006E07A684FF48D
:103D98001053C0F2F403136000BF4FF46053C4F231
:103DA80002039B6803F0F003BB61BB691B09BB619D
:103DB80040F2A053C2F20003BA6913441B78DBB285
:103DC8007B617B681A687B69DA407B685A604FF4CC
:103DD8006053C4F202039B6803F4E053BB61BB6900
:103DE8009B0ABB6140F2A053C2F20003BA691344B4
:103DF8001B78DBB27B617B685A687B69DA407B6839
:103E08009A604FF46053C4F202039B6803F4604362
:103E1800BB61BB695B0BBB6140F2A053C2F20003FC
:103E2800BA6913441B78DBB27B617B685A687B698B
:103E3800DA407B68DA602437BD465DF8047B70475A
:103E480080B483B000AF78600B46FB70FB78002B22
:103E58000CD04FF46053C4F202034FF46052C4F222
:103E68000202116B7A680A431A630CE04FF460533C
:103E7800C4F202034FF46052C4F20202116B7A6872
:103E8800D2430A401A630C37BD465DF8047B70477D
:103E980080B483B000AF78600B46FB70FB78002BD2
:103EA8000CD04FF46053C4F202034FF46052C4F2D2
:103EB8000202116C7A680A431A640CE04FF46053EA
:103EC800C4F202034FF46052C4F20202116C7A6821
:103ED800D2430A401A640C37BD465DF8047B70472C
:103EE80080B483B000AF78600B46FB70FB78002B82
:103EF8000CD04FF46053C4F202034FF46052C4F282
:103F08000202516C7A680A435A640CE04FF4605319
:103F1800C4F202034FF46052C4F20202516C7A6890
:103F2800D2430A405A640C37BD465DF8047B70479B
:103F380080B483B000AF78600B46FB70FB78002B31
:103F48000CD04FF46053C4F202034FF46052C4F231
:103F58000202116A7A680A431A620CE04FF460534D
:103F6800C4F202034FF46052C4F20202116A7A6882
:103F7800D2430A401A620C37BD465DF8047B70478D
:103F880080B483B000AF78604FF46D42CEF2000287
:103F98007B6843F0BF6343F40033D3600C37BD46FE
:103FA8005DF8047B704700BF80B485B000AF7860CF
:103FB8000023FB730023BB730F237B737B68DB78C1
:103FC800002B41D04FF46D43CEF20003DB68DB4396
:103FD80003F4E0631B0AFB73FB7BC3F10403BB73AD
:103FE8007A7BFB7B42FA03F37B737B685B781A4628
:103FF800BB7B02FA03F3FB737B689A787B7B1340E5
:10400800DAB2FB7B1343FB73FB7B1B01FB734FF49F
:104018006143CEF200037A6812781344FA7B83F87E
:1040280000234FF46143CEF200037A6812785209F4
:10403800D2B210467A68127802F01F02012101FA02
:1040480002F243F8202012E04FF46143CEF200035D
:104058007A6812785209D2B210467A68127802F059
:104068001F020121914000F1200243F82210143769
:10407800BD465DF8047B704780B58AB000AF7860B4
:10408800396000237B6200233B620023FB6100232D
:10409800BB617B681B8A9BB27B627B6A23F44053BB
:1040A8007B623B68DB881A467B6A13437B627B6AC8
:1040B8009AB27B681A827B689B899BB27B627B6A17
:1040C80023F4B05323F00C037B623B689A883B6867
:1040D8001B8913439AB23B685B8913439BB21A4608
:1040E8007B6A13437B627B6A9AB27B689A817B689E
:1040F8009B8A9BB27B627B6A23F440737B623B683A
:104108009B891A467B6A13437B627B6A9AB27B68F7
:104118009A8207F108031846FFF7BEFD7A684FF444
:104128008053C4F201039A4206D07A684FF4A05330
:10413800C4F201039A4202D17B693B6201E03B6908
:104148003B627B689B899BB29BB21BB2002B0CDA4B
:104158003A6A13469B0013449A001A443B681B684A
:104168005B00B2FBF3F3FB610BE03A6A13469B007A
:1041780013449A001A443B681B689B00B2FBF3F394
:10418800FB61FA6948F21F53C5F2EB13A3FB022344
:104198005B091B017B627B6A1B09642202FB03F338
:1041A800FA69D31ABB617B689B899BB29BB21BB22D
:1041B800002B10DABB69DB0003F1320248F21F530F
:1041C800C5F2EB13A3FB02235B0903F007037A6A2A
:1041D80013437B620FE0BB691B0103F1320248F213
:1041E8001F53C5F2EB13A3FB02235B0903F00F0374
:1041F8007A6A13437B627B6A9AB27B681A81283792
:10420800BD4680BD80B483B000AF78600B46FB70BC
:10421800FB78002B08D07B689B899BB243F4005342
:104228009AB27B689A8107E07B689B899BB223F4EA
:1042380000539AB27B689A810C37BD465DF8047BBF
:10424800704700BF80B483B000AF78600B467B80B6
:104258007B88C3F308039AB27B689A800C37BD4603
:104268005DF8047B704700BF80B485B000AF78600C
:1042780039600023FB817B681B88FB817A680023F7
:10428800C4F201039A421FD07A684FF48063C4F2E3
:1042980001039A4218D07B68B3F1804F14D07A6832
:1042A8004FF48063C4F200039A420DD07A684FF449
:1042B8000063C4F200039A4206D07A684FF4406360
:1042C800C4F200039A4208D1FB8923F07003FB81F2
:1042D8003B685A88FB891343FB817A684FF4805303
:1042E800C4F200039A420FD07A684FF4A053C4F284
:1042F80000039A4208D0FB8923F44073FB813B6892
:104308001A89FB891343FB817B68FA891A803B6809
:104318005A687B68DA623B681A887B681A857A680B
:104328000023C4F201039A4206D07A684FF48063EE
:10433800C4F201039A4204D13B689B7A9AB27B6823
:104348001A867B6801229A821437BD465DF8047B81
:10435800704700BF80B483B000AF78600B46FB7035
:10436800FB78002B08D07B681B889BB243F00103C5
:104378009AB27B681A8007E07B681B889BB223F09F
:1043880001039AB27B681A800C37BD465DF8047B3E
:10439800704700BF80B485B000AF786039600023F3
:1043A8007B810023FB810023BB817B681B8C9BB234
:1043B80023F010039AB27B681A847B681B8CFB81FC
:1043C8007B689B88BB817B681B8B7B817B8923F403
:1043D800E0437B817B8923F440737B813B681B88A6
:1043E8001B029AB27B8913437B81FB8923F020034C
:1043F800FB813B689B891B019AB2FB891343FB81B4
:104408003B685B881B019AB2FB891343FB817A687E
:104418000023C4F201039A4206D07A684FF48063FD
:10442800C4F201039A422BD1FB8923F08003FB815C
:104438003B68DB891B019AB2FB891343FB81FB892B
:1044480023F04003FB813B689B881B019AB2FB89E0
:104458001343FB81BB8923F48063BB81BB8923F4AD
:104468000063BB813B681B8A9B009AB2BB891343DC
:10447800BB813B685B8A9B009AB2BB891343BB81B3
:104488007B68BA899A807B687A891A833B689A68BC
:104498007B689A637B68FA891A841437BD465DF88D
:1044A800047B704780B485B000AF78603960002322
:1044B8007B810023FB810023BB817B681B8C9BB223
:1044C80023F480739AB27B681A847B681B8CFB8107
:1044D8007B689B88BB817B689B8B7B817B8923F076
:1044E80070037B817B8923F003037B813B681A88F7
:1044F8007B8913437B81FB8923F40073FB813B6831
:104508009B891B029AB2FB891343FB813B685B883A
:104518001B029AB2FB891343FB817A680023C4F219
:1045280001039A4206D07A684FF48063C4F201030B
:104538009A422BD1FB8923F40063FB813B68DB891A
:104548001B029AB2FB891343FB81FB8923F4806326
:10455800FB813B689B881B029AB2FB891343FB8152
:10456800BB8923F48053BB81BB8923F40053BB81EF
:104578003B681B8A1B019AB2BB891343BB813B680A
:104588005B8A1B019AB2BB891343BB817B68BA89DA
:104598009A807B687A899A833B689A687B68DA6331
:1045A8007B68FA891A841437BD465DF8047B704726
:1045B80080B485B000AF786039600023BB810023E8
:1045C8007B810023FB817B681B8C9BB223F4805387
:1045D8009AB27B681A847B681B8C7B817B689B887A
:1045E800FB817B689B8BBB81BB8923F4E043BB8148
:1045F800BB8923F44073BB813B681B881B029AB2BA
:10460800BB891343BB817B8923F400537B813B68BF
:104618009B891B039AB27B8913437B813B685B8828
:104628001B039AB27B8913437B817A680023C4F207
:1046380001039A4206D07A684FF48063C4F20103FA
:104648009A420AD1FB8923F48043FB813B681B8A89
:104658009B019AB2FB891343FB817B68FA899A8094
:104668007B68BA899A833B689A687B681A647B6816
:104678007A891A841437BD465DF8047B704700BFF9
:1046880080B483B000AF786039607B683A689A6319
:104698000C37BD465DF8047B704700BF80B483B01B
:1046A80000AF786039607B683A68DA630C37BD46DA
:1046B8005DF8047B704700BF80B483B000AF7860BA
:1046C80039607B683A681A640C37BD465DF8047B2C
:1046D800704700BF80B485B000AF78600B467B8020
:1046E8000023FB817B681B8BFB81FB8923F4006320
:1046F800FB817B881B029AB2FB891343FB817B6891
:10470800FA891A831437BD465DF8047B704700BFE9
:1047180080B485B000AF78600B467B800023FB81B6
:104728007B689B8BFB81FB8923F00803FB81FA895B
:104738007B881343FB817B68FA899A831437BD46CB
:104748005DF8047B704700BF80B485B000AF786027
:104758000B467B800023FB817B689B8BFB81FB895D
:1047680023F40063FB817B881B029AB2FB89134305
:10477800FB817B68FA899A831437BD465DF8047B10
:10478800704700BF80B483B000AF78600B467B8071
:1047980013467B707B78002B08D07B689B899AB284
:1047A8007B8813439AB27B689A8109E07B689B896E
:1047B8009AB27B88DB439BB213409AB27B689A819A
:1047C8000C37BD465DF8047B704700BF80B485B0E8
:1047D80000AF78600B467B800023FB730023BB810E
:1047E80000237B817B681B8A9AB27B881340BB813C
:1047F8007B689B899AB27B8813407B81BB89002B9D
:1048080005D07B89002B02D00123FB7301E0002334
:10481800FB73FB7B18461437BD465DF8047B704775
:1048280080B483B000AF78600B467B807B88DB4325
:104838009AB27B681A820C37BD465DF8047B7047D4
:10484800DFF834D0002103E00C4B5B5843500431AF
:104858000B480C4B42189A42F6D30B4A02E000234D
:1048680042F8043B094B9A42F9D3FEF73FF902F0AC
:1048780029F9FEF7FFF87047000002206C75000860
:1048880000000020F40D0020F40D0020780F002017
:10489800FEE70000000000002DE9F84F55EC104B32
:1048A800CD4B25F000469E42AB4610DDCB4B9E42D9
:1048B80000F3B28000F0AD80BBF1000F40F3F6804A
:1048C800A9A5D5E9004545EC104BBDE8F88FC44BC8
:1048D8009E4200F3C080A3F1DE739E4240F3A8809D
:1048E8004FF0FF3A22462B4620462946FBF752FE58
:1048F80002460B4680468946FBF74CFE9CA3D3E94B
:10490800002306460F46FBF745FE9BA3D3E9002389
:10491800FBF78EFC32463B46FBF73CFE98A3D3E9F7
:104928000023FBF785FC32463B46FBF733FE96A394
:10493800D3E90023FBF77CFC32463B46FBF72AFE13
:1049480093A3D3E90023FBF773FC32463B46FBF7FE
:1049580021FE91A3D3E90023FBF76AFC42464B46AC
:10496800FBF718FE8EA3D3E900238046894630461C
:104978003946FBF70FFE8CA3D3E90023FBF756FC5F
:1049880032463B46FBF706FE89A3D3E90023FBF733
:104998004DFC32463B46FBF7FDFD87A3D3E90023D8
:1049A800FBF744FC32463B46FBF7F4FD84A3D3E90E
:1049B8000023FBF73BFC32463B46FBF7EBFDBAF125
:1049C800FF3F02460B4679D040464946FBF730FC8C
:1049D80022462B46FBF7DEFD824E834B4FEACA0A7E
:1049E80056449A44DAE90023FBF720FC22462B467A
:1049F800FBF71CFC02460B46D6E90001FBF716FC48
:104A0800BBF1000F56DB04460D4645EC104BBDE8E4
:104A1800F88F002C3FF450AF2046294622462B46FB
:104A2800FBF706FC04460D4645EC104BBDE8F88F35
:104A380065A3D3E9002310EE100A2946FBF7F8FB1B
:104A480000226A4BFCF736F800283FF449AF45ECE2
:104A5800104BBDE8F88F00F0D3F8654B9E4255EC3B
:104A6800104B3CDCA3F550239E4210EE100A294659
:104A780062DC10EE102A2B46FBF7DAFB00225B4BB8
:104A8800FBF7D4FB002206460F46204629464FF086
:104A98008043FBF7CDFB02460B4630463946FBF711
:104AA800A3FE4FF0000A04460D461BE748A5D5E9CA
:104AB8000045B9E7044601F10045B5E740464946D7
:104AC800FBF7B6FB22462B46FBF764FD02460B4676
:104AD80020462946FBF7AAFB04460D46A4E7454BAA
:104AE8009E421DDC10EE100A29460022424BFBF7BD
:104AF8009DFB002206460F46204629463E4BFBF703
:104B080049FD0022394BFBF793FB02460B46304622
:104B18003946FBF769FE4FF0020A04460D46E1E606
:104B28002B4610EE102A00203449FBF75DFE4FF0AB
:104B3800030A04460D46D5E600222C4BFBF776FB0C
:104B4800002206460F4620462946284BFBF770FBF5
:104B580002460B4630463946FBF746FE4FF0010A3F
:104B680004460D46BEE600BF182D4454FB21F93F0C
:104B780011DA22E33AAD903FEB0D76244B7BA93F47
:104B8800513DD0A0660DB13F6E204CC5CD45B73F15
:104B9800FF8300922449C23F0D5555555555D53FC1
:104BA8002F6C6A2C44B4A2BF9AFDDE522DDEAD3FB5
:104BB8006D9A74AFF2B0B33F711623FEC671BC3F55
:104BC800C4EB98999999C93F9C7500883CE4377E55
:104BD800182D4454FB21F9BFFFFF0F440000F07F5C
:104BE800FFFFDB3FA0740008807400080000F03F5E
:104BF800FFFFF23FFF7F03400000F83F0000F0BFD7
:104C080053EC102B23F0004343EC102B704700BFEC
:104C18002DE9F0432DED068BB0EE40AAF0EE60AA28
:104C2800B0EE419AF0EE619AB34C8BB000F090FB75
:104C380094F90030B0EE408AF0EE608A013306D075
:104C4800B0EE490AF0EE690A01F018FD40B9B0EE7D
:104C5800480AF0EE680A0BB0BDEC068BBDE8F0839D
:104C6800B0EE4A0AF0EE6A0A01F008FD054668BB94
:104C780051EC190B00220023FBF7F4FE0028E6D0C4
:104C88009E4A94F900309E4F0895012100268DE830
:104C980006005A1C8DED02AB8DED049BCDE906672D
:104CA8000DD0022B0BD0684601F016FD002800F04D
:104CB8009D80089B1BB102F047FC089B03609DED9B
:104CC800060B0BB0BDEC068BBDE8F0830026002771
:104CD80051EC1A0B32463B46FBF7C4FEE8B151ECE7
:104CE800190B32463B46FBF7BDFE0546002854D05B
:104CF800824A94F900300192012100228DED02AB25
:104D08008DED049BCDE9066700910892002BCAD06F
:104D18007B4B0022CDE90623D1E7B0EE480AF0EE3E
:104D2800680A01F0A3FC0546002864D00026002785
:104D380051EC180B32463B46FBF794FE002886D010
:104D4800B0EE4A0AF0EE6A0A01F090FC00283FF43F
:104D58007EAFB0EE490AF0EE690A01F087FC002840
:104D68003FF475AF94F90030644A0192042100229F
:104D7800022B8DED02AB8DED049BCDE9066700910A
:104D8800089200F08C80684601F0A6FC002800F02C
:104D98008680089B002B92D08DE7B0EE490AF0EE92
:104DA800690A01F063FC00283FF451AF51EC190B7C
:104DB80032463B46FBF760FE00283FF448AF4F4AB7
:104DC8002378089501218DED02AB8DED049B8DE8CC
:104DD8000600002B41D04B490020022BCDE90601EB
:104DE80035D102F0B1FB21230360D2E702F0ACFB1E
:104DF800212303605DE7B0EE4A0AF0EE6A0A01F08B
:104E080035FC002892D0B0EE490AF0EE690A01F0AC
:104E18002DFC00288AD0B0EE480AF0EE680A01F0AE
:104E28002DFCE8B9354B2478089001228DED02ABB2
:104E38008DED049B8DE80C007CB130463946324636
:104E48003B46FBF7D1FC022CCDE90601C9D06846E8
:104E580001F042FC00289CD1C3E7CDE90667F6E7DC
:104E6800264A94F90030089503218DED02AB8DEDAB
:104E7800049B8DE80600BBB9DFF890904FF06048BE
:104E880032463B4651EC1A0BCDE90689FBF7F4FD97
:104E980000283FD194F90030022B7FF474AF02F060
:104EA80053FB2223036074E7DFF864904FF0000897
:104EB80032463B4651EC1A0BCDE90689FBF7DCFD7F
:104EC8000028E7D00022104B51EC190BFBF762FBCE
:104ED80006460F4647EC106B01F00AFC324651ECCF
:104EE800100B3B46FBF7BEFD0028D3D1054B002233
:104EF800CDE90623CEE700BFB0050020C074000846
:104F08000000F03F0000F0FF0000E03FFFFFEF4728
:104F18000000F07F00220C4B51EC190BFBF73AFB19
:104F280006460F4647EC106B01F0E2FB324651ECA7
:104F3800100B3B46FBF796FD0028ABD1034B4FF017
:104F48006042CDE90623A5E70000E03FFFFFEFC779
:104F5800D0B52DED048BB0EE409AF0EE609A294C56
:104F68008AB000F065FF94F90030B0EE408AF0EEA8
:104F7800608A01330FD0B0EE490AF0EE690A01F0F9
:104F88007DFB40B10026002751EC190B32463B4609
:104F9800FBF772FD38B9B0EE480AF0EE680A0AB0BD
:104FA800BDEC048BD0BD184B24780193012200235B
:104FB8008DED049B8DED029B009208936CB9CDE9B1
:104FC8000667684601F088FB88B1089BA3B99DED88
:104FD800060B0AB0BDEC048BD0BD304639463246CC
:104FE8003B46FBF701FC022CCDE90601E9D102F0B2
:104FF800ABFA21230360E8E702F0A6FA089B0360F6
:10500800E5E700BFB0050020C4740008F0B52DED39
:10501800048BA74C8BB0B0EE409AF0EE608A00F09B
:10502800DBFF94F900300133B0EE408A04D0B0EED3
:10503800680A01F087FC28B9B0EE480A0BB0BDEC4D
:10504800048BF0BDB0EE490A01F07CFC002835D194
:10505800F5EE408AF1EE10FAEED1964B0890012257
:1050680019EE100A8DE80C00FBF740FACDE90201B1
:1050780018EE900AFBF73AFA94F900308E4F0026A2
:105088005A1CCDE90401CDE906670DD0022B0BD0DF
:10509800684601F021FB002800F0A480089B1BB1A2
:1050A80002F052FA089B0360DDE90601FBF70CFDEC
:1050B80000EE100A0BB0BDEC048BF0BDB5EE409AC3
:1050C800F1EE10FA23D1F5EE408AF1EE10FA5CD138
:1050D8000123784A009319EE100A002308930192DD
:1050E800FBF704FACDE9020118EE900AFBF7FEF986
:1050F80094F9003000260027CDE90401CDE90667C0
:10510800002BC5D06C4B0022CDE90623CCE7B0EECE
:10511800480A01F00DFC0546002868D0B5EE408A23
:10512800F1EE10FA88D1B0EE490A01F001FC00282E
:1051380082D0B0EE680A01F0FBFB00283FF47CAF98
:1051480004235C4A009319EE100A00230893019285
:10515800FBF7CCF9CDE9020118EE900AFBF7C6F986
:1051680094F9003000260027022BCDE90401CDE98F
:10517800066700F09880684601F0AEFA002800F053
:105188009280089B002B8FD08AE7B0EE680A01F066
:10519800CFFB00283FF450AFF5EEC08AF1EE10FACD
:1051A8007FF54AAF0123434A009319EE100A002302
:1051B80008930192FBF79AF9CDE9020118EE900ADB
:1051C800FBF794F92378CDE90401002B43D03B4940
:1051D8000020022BCDE9060137D102F0B5F92123D1
:1051E8000360CEE702F0B0F92123036056E7B0EE82
:1051F800490A01F09DFB002890D0B0EE680A01F042
:1052080097FB00288AD0B0EE480A01F09BFB38BB18
:10521800284B0890012219EE100A8DE80C00FBF7C4
:1052280065F9CDE9020118EE900AFBF75FF92478D9
:10523800CDE904017CB10020002102460B46FBF7B2
:10524800D3FA022CCDE90601C7D0684601F044FA2A
:10525800002896D1C1E700220023CDE90623F4E710
:10526800144B0895032219EE100A8DE80C00FBF781
:105278003DF9CDE9020118EE900AFBF737F994F9E8
:105288000030CDE90401EBB90D4BB5EEC09A4FF0F3
:105298006042F1EE10FACDE9062337D494F90030D4
:1052A800022B7FF468AF02F04FF92223036068E70E
:1052B800B0050020CC7400080000F03F0000F0FFAB
:1052C800FFFFEF471F4BB5EEC09A0022F1EE10FA30
:1052D800CDE90623E2D5F6EE007A68EEA77A17EE56
:1052E800900AFBF703F906460F4647EC106B01F0EE
:1052F800FFF93046394653EC102BFBF7B3FB002877
:10530800CCD1114B0022CDE90623C7E7F6EE007A8F
:1053180068EEA77A17EE900AFBF7E8F806460F46FC
:1053280047EC106B01F0E4F93046394653EC102B8A
:10533800FBF798FB0028B1D1044B4FF06042CDE950
:105348000623ABE70000F07F0000F0FFFFFFEFC788
:105358002DE9F04F55EC114B25F0004757EA0401B1
:1053680091B02A4611EE103A37D05BEC10AB6A497F
:105378002BF000468E4210EE10CAD94626DC22D009
:105388008F4223DC64498F427CD0B9F1000F7CDB6B
:105398004FF0000883BB604B9F4200F093805F4B47
:1053A8009F4269D0B2F1804F00F0F0835C4B9A4283
:1053B80022D1B9F1000F1FDB4BEC10AB11B0BDE8E7
:1053C800F04F00F035BDBAF1000F0BD006F14046A2
:1053D80006F5801656EA0C0306D19FED4B0B11B06B
:1053E800BDE8F08FB742CDDD4E4811B0BDE8F04FB3
:1053F80001F076B94FF000084BEC10ABCDF808C0BF
:105408000092FFF7FDFBDDF808C0009A51EC100B85
:10541800BCF1000F20D04FEAD97909F1FF3958EAD9
:10542800090363D0404B9F4240F3848003F1047327
:105438009F4240F32F843D4B9E4240F38F83002AC6
:1054480040F38F8332A1D1E9000102460B46FBF7F6
:10545800A1F841EC100BC2E726B1304B29F0404EC1
:105468009E45D8D1002AC0F2D083B9F1000FC0F20E
:105478007B8341EC100BB2E7002AC0F277844BEC37
:1054880010ABACE7002B80D0A0E729498F422ADC7B
:10549800A1F154718F427FF77BAF391540F2134069
:1054A800814240F37D84C1F58661033123FA01F01E
:1054B80000FA01F199427FF46BAF00F00100C0F1EE
:1054C800020867E706F1404303F5801353EA0C032B
:1054D80083D0164B9E4240F38E83002AC0F241834C
:1054E80045EC104B7BE74FF0020853E7504659460E
:1054F80002460B46FAF79AFE02460B46FBF774F98A
:10550800B7E700BFAFF30080000000000000F03FE5
:105518009C7500883CE4377E0000F07F0000F03F77
:105528000000E03FD07400080000E041FFFFEF3FBB
:10553800FFFF3F43B6F5801F80F215840022CE4B53
:10554800FBF728F86FF034070E463315DFF844E30D
:10555800C6F31302A3F2FF3342F07F563B44724571
:105568000E9346F4401640F3FB83C44B9A4240F333
:105578002F840E9B002701330E93A6F58016BC4698
:10558800BF4B4FEACC0C634493ED007B314653ECA0
:10559800172BCDF83CC08DED067B8246FAF746FE08
:1055A800B346DDE90623CDE9080150463146CDE989
:1055B8000AABFAF73DFE02460B460020B149FBF75D
:1055C80013F902460B46DDE90801CDE90C23FAF789
:1055D800E1FF731043F0005303F5002382468B4626
:1055E800D9190023CDE902AB02939DED027B00207F
:1055F80006460F4602460B4651EC170B8DED007B15
:10560800CDE904ABFAF7C6FF02460B46DDE908010F
:10561800FAF70CFEDDE9062382468B46304639460A
:10562800FAF704FE02460B46DDE90A01FAF7FEFD29
:1056380002460B46DDE90001FAF7ACFF02460B46CD
:1056480050465946FAF7F2FDDDE90C23FAF7A2FFB6
:10565800DDE90423CDE9060110461946FAF79AFF59
:1056680002460B4606460F46FAF794FF70A3D3E9A5
:10567800002382468B4630463946FAF78BFF6EA3E5
:10568800D3E90023FAF7D4FD32463B46FAF782FF06
:105698006BA3D3E90023FAF7CBFD32463B46FAF772
:1056A80079FF69A3D3E90023FAF7C2FD32463B46E6
:1056B800FAF770FF66A3D3E90023FAF7B9FD32467B
:1056C8003B46FAF767FF64A3D3E90023FAF7B0FD76
:1056D80002460B4650465946FAF75CFFDDE90423BB
:1056E80006460F46DDE90001FAF7A2FDDDE90623CB
:1056F800FAF750FF32463B46FAF79AFDDDE90067B4
:1057080082468B4632463B4630463946FAF742FFD8
:1057180000225D4BCDE90801FAF78AFD52465B4647
:10572800FAF786FD02980F4606463246DDE9000183
:105738003B46FAF72FFF32463B46CDE90001DDE94B
:105748000601FAF727FF0022CDE906014E4B304645
:105758003946FAF76BFDDDE90823FAF767FD0246DB
:105768000B4650465946FAF761FDDDE90423FAF77E
:1057780011FF02460B46DDE90601FAF759FD82469C
:105788008B4652465B46DDE90001FAF751FD029867
:1057980033A3D3E9002306460F46FAF7FBFE32A3EC
:1057A800D3E90023CDE9040130463946FAF7F2FE81
:1057B800DDE90023CDE9060130463946FAF736FD22
:1057C80002460B4650465946FAF730FD28A3D3E95E
:1057D8000023FAF7DFFE02460B46DDE90601FAF779
:1057E80027FDDDF83CC0294BCDF800C06344D3E960
:1057F8000023FAF71DFD82460E988B46FAF764FEE1
:10580800234BDDF800C09C449CED007B06460F4608
:1058180052465B46DDE904018DED007BCDE906AB20
:10582800FAF706FDDDE90023FAF702FD324633E018
:10583800EF4E454A287ECA3F65DBC9934A86CD3F6D
:1058480001411DA96074D13F4D268F515555D53F53
:10585800FFAB6FDBB66DDB3F033333333333E33FEB
:10586800000000E009C7EE3FF5015B14E02F3EBEE3
:10587800FD033ADC09C7EE3F0000404379B60B0050
:10588800F87400080000F03F00000840E8740008C1
:10589800D87400088E9803003B46FAF7C9FC0298B2
:1058A80032463B4682468B46FAF7C0FCDDE90023C8
:1058B800FAF7BCFCDDE90423FAF7B8FC02460B460C
:1058C800DDE90601FAF7B2FCCDE9020108F1FF387B
:1058D80058EA090340F08A819FEDCF7B8DED047B68
:1058E8000023CDE900450093DDE9006720463246F4
:1058F8003B462946FAF79AFC52465B46FAF74AFEB7
:10590800DDE902238046894620462946FAF742FE09
:1059180002460B4640464946FAF78AFC5246044678
:105928000D46304639465B46CDE90245FAF732FE68
:1059380006460F46204629463B463246FAF778FC8B
:10594800CF4B994204460D468A4640F3288101F11F
:105958003F4303F5E003034340F01282B0A3D3E9C9
:105968000023DDE90201FAF763FC324680468946E6
:105978003B4620462946FAF759FC02460B46404664
:105988004946FBF797F8002840F0FA81A8464FEA05
:105998002852A2F2FE324FF4801313415344C3F34A
:1059A8000A54B84AA4F2FF310A4123EA020100204E
:1059B8000246C3F3130B30460B463946FAF736FC5A
:1059C800C4F5826403344BF4801B4BFA04FB8BEA66
:1059D800EA7B06460F460BEBDA7BDDE9020132462D
:1059E8003B464FEA0B5AFAF723FC00248EA3D3E96F
:1059F800002320460D46FAF7CDFD324680468946FB
:105A08003B4620462946FAF711FC02460B46DDE9DB
:105A18000201FAF70BFC86A3D3E90023FAF7BAFDD3
:105A280085A3D3E9002306460F4620462946FAF700
:105A3800B1FD02460B4630463946FAF7F9FB0646F1
:105A48000F4632463B4640464946FAF7F1FB424686
:105A58004B4604460D46FAF7E9FB02460B4630462C
:105A68003946FAF7E3FB2246804689462B4620460C
:105A78002946FAF78FFD72A3D3E9002306460F469D
:105A8800FAF788FD70A3D3E90023FAF7CFFB324673
:105A98003B46FAF77FFD6EA3D3E90023FAF7C8FB6C
:105AA80032463B46FAF776FD6BA3D3E90023FAF7B3
:105AB800BDFB32463B46FAF76DFD69A3D3E90023E7
:105AC800FAF7B6FB32463B46FAF764FD02460B4648
